:100000000C94C0000C94630F0C94DD000C94DD0084
:100010000C94DD000C94DD000C94DD000C94DD00EC
:100020000C94DD000C94DD000C94DD000C94E412C3
:100030000C94DD000C94DD000C94B40F0C94391278
:100040000C94DD000C94DD000C94DD000C94DD00BC
:100050000C94DD000C94DD000C94F4080C94DD008D
:100060000C94DD000C94DD0010014901D9014B0214
:10007000BE020D039E030B047C04DB04019100000F
:100080000000000000000000000000000000000070
:10009000000701010D01FF12019A0C010000000090
:1000A000030100040104050120060170FF00FF00A8
:1000B00000000076170000DF2E000055460000BE4D
:1000C0005D0000347500009D8C000013A400007CCE
:1000D000BB00005BEA0000D10101003A190100C336
:1000E000D4010086A903003C7E050085FC0A0000BF
:1000F00000000000000000010000000D000000D022
:10010000000000D90C00003400000068000000D09E
:10011000000000EE01000002008000FF0101450A1E
:1001200002008100FF0101570A0200C200C3010161
:100130006D0A82C000FF030404B70B820001FF03B5
:1001400002028F0B028001C00303034C0B0200422A
:10015000C0C30404F20A028042C0C30110A10B0212
:100160000043FFFF0202D10A028003FF0302026F75
:100170000A0000000000000101020304060A0E0E3E
:1001800011241FBECFEFD8E0DEBFCDBF13E0A6E045
:10019000B1E001C01D92AB3FB107E1F711E0A0E073
:1001A000B1E0E6E3FAE202C005900D92A630B10795
:1001B000D9F70E94AA0E0C9419150C940000A8E01F
:1001C000B0E0E5EEF0E00C94651305EF12E02AEDE7
:1001D00031E03A8329833AEE232E33243394C12C21
:1001E000D12C43E0A42EB12C52E0852E912CEE248C
:1001F000E394F12C44244394502E65EF72E0561A98
:10020000C1018A5E914098878F83D801EC91F0E01C
:10021000EA30F10508F0F4C3EC5CFF4F0C949C133A
:10022000C5010C2C01C0880F0A94EAF780959091C3
:10023000F90289238093F9028091F40290E09C01F5
:100240000C2C02C0359527950A94E2F720FF02C0D6
:1002500023E0AEC294010C2C02C0220F331F0A947B
:10026000E2F782239323892B11F0E7E084C1809188
:10027000F30290E0BC010C2C02C0759567950A94BE
:10028000E2F760FDD5C028233923232B09F4BAC334
:100290008EC2C7010C2C01C0880F0A94EAF7982F70
:1002A00090952091F30292239093F3025091F902DA
:1002B000582B5093F90295010C2C02C0220F331FCA
:1002C0000A94E2F78091F40290E082239323892B31
:1002D00019F020952523C4C28091190390E00C2CBD
:1002E00002C0959587950A94E2F780FF8BC382EF51
:1002F00091E00E943D0990E020E130E00F8002C0D3
:10030000220F331F0A94E2F782239323892B09F0EB
:100310004EC0852D869590E085509E4F0E943D09E8
:10032000E82F50FE03C0E695E695E695E770B4E049
:10033000EB9FF0011124E151FF4F2591359145913B
:10034000549189819A812E833B834C835D830E94E3
:100350003D09782EADE9B0E02E813B814C815D8175
:100360000E945A139B01AC01A72DB0E00E945A13C2
:10037000AB01BC0187E076956795579547958A95BF
:10038000D1F78F819885880F991F880F991F865004
:100390009D4F0E942613A7010F8002C0440F551FD6
:1003A0000A94E2F780910A03842B80930A0322E0E7
:1003B000FFC1C7010C2C01C0880F0A94EAF7909185
:1003C000F902982B9093F902C5010C2C02C0880FFA
:1003D000991F0A94E2F74091F40250E08423952398
:1003E000892B09F0D9C22091F30230E0C4010C2C12
:1003F00002C0880F991F0A94E2F782239323892B66
:1004000009F0E4C00C2C02C0359527950A94E2F758
:1004100080910A0320FF0FC0A7010F8002C0440F84
:10042000551F0A94E2F7942F9095982390930A030E
:10043000D8014C92E7C290E00F8002C09595879555
:100440000A94E2F780FFDEC28F819885880F991F9A
:10045000880F991F86509D4F0E944113882309F4ED
:10046000D1C2C7010F8002C0880F991F0A94E2F71A
:10047000809590910A03892380930A0380910B034E
:1004800090E00F8002C0959587950A94E2F780FF6F
:10049000B7C229E08DC17C2CC7010C2C01C0880F8C
:1004A0000A94EAF7982F90952091F4029223909362
:1004B000F4029091F902982B9093F902C1010E94E5
:1004C0003D0981110DC0C5010C2C01C0880F0A9493
:1004D000EAF780959091F90289238093F9028DC201
:1004E0008091190390E00C2C02C0959587950A9491
:1004F000E2F780FF87C2852D869590E088519E4F58
:100500000E943D09E82F50FE03C0E695E695E6956A
:10051000E77024E0E29FF0011124E151FF4F2591A3
:10052000359145915491C1012E833B834C835D836A
:100530000E943D09A82FB0E02E813B814C815D8156
:100540000E945A13AB01BC018F819885880F991FB7
:10055000880F991F86509D4F0E942613A7010F8078
:1005600002C0440F551F0A94E2F780910A03842BBE
:1005700080930A03E4E0D801EC9344C2C7010C2C39
:1005800001C0880F0A94EAF79091F902982B909392
:10059000F902C5010C2C02C0880F991F0A94E2F7DA
:1005A0004091F30250E084239523892B09F0F4C194
:1005B0002091F40230E0C4010C2C02C0880F991F76
:1005C0000A94E2F782239323892B79F0A7010F8005
:1005D00002C0440F551F0A94E2F7942F9095809122
:1005E0000A03982390930A0308C20C2C02C0359585
:1005F00027950A94E2F780910A0320FFB8C1A7016A
:100600000F8002C0440F551F0A94E2F7942F909573
:10061000982390930A03E3E0AECFC4010C2C02C0F0
:10062000880F991F0A94E2F7282F20953091F30242
:1006300023232093F3026091F902682B6093F9025F
:10064000F5010C2C02C0EE0FFF1F0A94E2F7AF0178
:100650002091F40230E02E233F23232B29F04095F4
:1006600046234093F902CCC12091190330E028239E
:100670003923232B09F4C6C182EF91E00E943D0982
:1006800090E020E130E00F8002C0220F331F0A9477
:10069000E2F782239323892B09F04EC0852D86959E
:1006A00090E085509E4F0E943D09E82F50FE03C008
:1006B000E695E695E695E770B4E0EB9FF00111242E
:1006C000E151FF4F259135914591549189819A814E
:1006D0002E833B834C835D830E943D09782EA9E9DC
:1006E000B0E02E813B814C815D810E945A139B01B9
:1006F000AC01A72DB0E00E945A13AB01BC01E7E0AA
:100700007695679557954795EA95D1F78F819885A6
:10071000880F991F880F991F86509D4F0E9426139E
:10072000A7010F8002C0440F551F0A94E2F7809181
:100730000A03842B80930A0326E03AC094010C2C10
:1007400002C0220F331F0A94E2F78091F902822B34
:100750008093F902C5010C2C02C0880F991F0A94DE
:10076000E2F76091F40270E086239723892B09F069
:1007700013C18091F30290E0FC010C2C02C0F595AE
:10078000E7950A94E2F7E0FD07C128233923809119
:100790000A03232B81F0A7010F8002C0440F551FCD
:1007A0000A94E2F7942F9095982390930A0325E0FA
:1007B000F801208327C190E00F8002C095958795AE
:1007C0000A94E2F780FF1EC18F819885880F991FD8
:1007D000880F991F86509D4F0E944113882309F46A
:1007E00011C1C7010F8002C0880F991F0A94E2F758
:1007F000809590910A03892380930A0380910B03CB
:1008000090E00F8002C0959587950A94E2F780FFEB
:10081000F7C0E9E0B0CE34010C2C02C0660C771CA6
:100820000A94E2F7862D80959091F40289238093B3
:10083000F4028091F90286298093F902C101CE82E7
:100840000E943D092E8181110EC0F50102C0EE0FFC
:10085000FF1F2A95E2F79F0120958091F902282336
:100860002093F902CDC08091190390E08621972151
:10087000892B09F4C7C0852D869590E088519E4F3D
:100880000E943D09E82F50FE03C0E695E695E695E7
:10089000E770B4E0EB9FF0011124E151FF4F259187
:1008A000359145915491C1012E833B834C835D83E7
:1008B0000E943D09A82FB0E02E813B814C815D81D3
:1008C0000E945A13AB01BC018F819885880F991F34
:1008D000880F991F86509D4F0E942613A7010F80F5
:1008E00002C0440F551F0A94E2F780910A03842B3B
:1008F00080930A0328E05CCF94010C2C02C0220FE5
:10090000331F0A94E2F78091F902822B8093F90257
:10091000C5010C2C02C0880F991F0A94E2F7609160
:10092000F30270E086239723892B09F035C080916C
:10093000F40290E0FC010C2C02C0F595E7950A94B6
:10094000E2F7E0FD29C02823392380910A03232BF5
:1009500071F0A7010F8002C0440F551F0A94E2F7FF
:10096000942F9095982390930A0327E021CF90E04D
:100970000F8002C0959587950A94E2F780FF42C0E8
:100980008F819885880F991F880F991F86509D4FDA
:100990000E9441138823B1F1A7010F8002C0440FC8
:1009A000551F0A94E2F7942F909580910A0398239B
:1009B00090930A0325C080910B0390E00F8002C042
:1009C000959587950A94E2F780FF17C0C5010C2C16
:1009D00001C0880F0A94EAF780959091F902982354
:1009E0009093F9029091F30298239093F3029091DF
:1009F000F40298239093F40205C0F801108202C01B
:100A0000D8011C920F5F1F4FB2E0CB0ED11CEFEF4D
:100A10002E1A3E0A29813A812F5F3F4F3A8329835C
:100A200038E0C316D10409F0E7CB2896E2E10C9434
:100A30008113A0E0B0E0EFE1F5E00C946E1380913B
:100A4000140380FF0BC08CE093E00E9441138823C5
:100A500029F080910B03806480930B038091140331
:100A600081FF0BC080E193E00E944113882329F0AD
:100A700080910B03806880930B0300E010E0C0E0DE
:100A8000D0E0B12CEE24E394F12CE3E0CE2ED12C77
:100A900081EF91E00E943D094C2F90E00C2E02C0A6
:100AA000959587950A94E2F78171992720910B0318
:100AB0008031910549F08131910549F081309105EE
:100AC00079F426FF0DC006C027FF0AC002C0207CB3
:100AD00039F0C701042E01C0880F0A94EAF7B82A3A
:100AE0002B2D30E0042E02C0359527950A94E2F7AD
:100AF00080910B0390E002C0959587954A95E2F7A7
:100B000020FF05C080FD18C080EF91E004C080FF89
:100B100013C08FEE91E00E943D099601002E01C0A6
:100B2000220F0A94EAF7822339F020959091F3027C
:100B30002923282B2093F30221960E5F1F4FC430E8
:100B4000D10509F0A5CF80910B03807F8B2980937D
:100B50000B03CDB7DEB7E9E00C948A13229A399AD9
:100B6000539A559A569A579A3A9A3B9A219A2998A3
:100B7000389A4098509A5898519A5998239A89EDE2
:100B800091E00E943D09807C803459F0803859F012
:100B90001092F5021092F6021092F7021092F802EB
:100BA0000BC081E001C085E08093F5028093F602DE
:100BB0008093F7028093F8021092F3021092F402ED
:100BC0001092F90210920A03109215031092160364
:100BD00010921703109218031092190310921A031F
:100BE00010922B0310920B031092060181E00895DE
:100BF000CF93C82F60956823C1F047E250E060E0D2
:100C000070E08CE293E00E942613809106018460DC
:100C10008093060181EC8093B00081E08093B10065
:100C20001092B2008FEF8093B300C0FF02C02A9AE7
:100C300001C02A98C1FF02C0419A01C04198C2FF79
:100C400002C05B9A01C05B98C3FF02C05D9A01C0FD
:100C50005D98C4FF02C05E9A01C05E98C5FF02C0E5
:100C60005F9A01C05F98C6FF02C0429A01C04298D5
:100C7000C7FF02C0439A01C04398CF910895A0E0F6
:100C8000B0E0E5E4F6E00C94661305E113E0E12C36
:100C9000F12CC0E0D0E073E0A72EB12CCC24C3949B
:100CA000D12C77247394F2E08F2E912CA4E05A2E4D
:100CB000B3E06B2E82E0482EF8018081823009F487
:100CC00082C030F4882359F0813009F020C132C04D
:100CD000833009F492C0843009F019C1D5C0950160
:100CE0000E2C01C0220F0A94EAF720959091190367
:100CF0002923209319032091F90230E0A9010E2C39
:100D000002C0559547950A94E2F740FF03C0F801E9
:100D10007082FFC0A4010E2C02C0440F551F0A941C
:100D2000E2F7CA0182239323892B09F4F2C0F80168
:100D30006082EFC03E2CC6010E2C01C0880F0A94C1
:100D4000EAF790911903982B909319038091F90277
:100D500090E00E2C02C0959587950A94E2F780FDED
:100D6000D8C08EEE91E00E943D09E82FF0E00E2CF5
:100D700002C0F595E7950A94E2F7E370FF27EE0FBE
:100D8000FF1FEE0FFF1FE95FFE4F85919591A59123
:100D9000B4919E01220F331F220F331FAC01BD01FE
:100DA000C901855E9C4F0E942613C6010C2E01C00E
:100DB000880F0A94EAF790912B03982B90932B03BA
:100DC000F8014082A6C0C5010E2C01C0880F0A940C
:100DD000EAF78095909119038923809319038091F4
:100DE000F90290E00E2C02C0959587950A94E2F7DF
:100DF00080FF68C0F80170827DC03E2C94010E2CEB
:100E000002C0220F331F0A94E2F780911903822B4C
:100E1000809319038091F90290E082239323892B18
:100E200009F077C08EEE91E00E943D09E82FF0E0D6
:100E30000E2C02C0F595E7950A94E2F7E370FF27C0
:100E4000EE0FFF1FEE0FFF1FE95FFE4F859195919B
:100E5000A591B4919E01220F331F220F331FAC01C5
:100E6000BD01C901855E9C4F0E942613C6010C2E50
:100E700001C0880F0A94EAF790912B03982B909366
:100E80002B03F801508245C095010E2C01C0220FA2
:100E90000A94EAF7209590911903292320931903C6
:100EA00094010E2C02C0220F331F0A94E2F7C901ED
:100EB0002091F90230E082239323892B19F0F80165
:100EC000608218C080912B0390E00C2E02C0959593
:100ED00087950A94E2F780FF1CC0CE01880F991F06
:100EE000880F991F855E9C4F0E944113882389F0CB
:100EF000F8011082C6010C2E01C0880F0A94EAF78F
:100F0000809590912B03892380932B0302C0F801D5
:100F1000108221960F5F1F4FF2E0EF0EF11CC430DC
:100F2000D10509F0C9CE84EE91E00E943D0987FF0A
:100F30000BC02091190330E1239FC0011124922F8F
:100F40009F70982B9093190380911903982F937099
:100F5000933009F480E0982F9C709C3009F480E075
:100F6000982F9073903309F480E0982F907C903CF8
:100F700009F480E08093190360911A030E94F80538
:100F80008091190380931A03CDB7DEB7E1E10C9489
:100F900082134F925F926F927F929F92AF92BF9215
:100FA000CF92DF92EF92FF920F931F93CF93DF9335
:100FB00006E313E0C0E0D0E0912C93E0E92EF12CA1
:100FC00022E0C22ED12CAA24A394B12C892D0E94F8
:100FD000490E882309F4B8C0F801708060E0892DBB
:100FE0000E944C0EF3E0F91520F1A7010C2E01C070
:100FF000440F0A94EAF740959091F4024923711046
:1010000008C095010C2E01C0220F0A94EAF7422B6A
:101010000DC04093F40221E0721296C0F6010C2E2E
:1010200002C0EE0FFF1F0A94E2F74E2B4093F4022A
:101030008BC0F7E0F91550F19E0128503109C70126
:10104000022E01C0880F0A94EAF7482F409580913C
:10105000F302482371100AC0C501022E01C0880F97
:101060000A94EAF7842B8093F3026EC04093F30254
:1010700081E0781269C0F60102C0EE0FFF1F2A95C9
:10108000E2F79F01242B2093F3025EC0F0E19F1250
:101090002CC082EE91E00E943D0990E4799E90017F
:1010A000112428272095207480910B038F7B282BF7
:1010B00020930B0389ED91E00E943D098F7009F4A4
:1010C00043C024E0829FF0011124E155FF4F459079
:1010D000559065907490A201B3018CE093E00E945A
:1010E00026138091140381602DC031E193122CC02E
:1010F00082EE91E00E943D0990E8799E90011124D2
:1011000082278095807890910B039F77892B80931D
:101110000B0389ED91E00E943D098F70A9F024E056
:10112000829FF0011124E155FF4F45905590659045
:101130007490A201B30180E193E00E942613809194
:101140001403826080931403939422960F5F1F4FC1
:1011500032E193123BCF0E9419050E94DF0080917B
:10116000060182FF16C08CE293E00E94411388239F
:1011700081F081EC8093B00081E08093B100109207
:10118000B20085E58093B300809106018B7F809348
:1011900006010E943F06DF91CF911F910F91FF90B2
:1011A000EF90DF90CF90BF90AF909F907F906F9027
:1011B0005F904F900895CF93DF93C0910701D09136
:1011C0000801209771F08A81823059F082E08A8389
:1011D00069858E819F810E940B1588858F5F888726
:1011E000FB9ADF91CF9108951F920F920FB60F9245
:1011F00011242F933F934F935F936F937F938F931C
:101200009F93AF93BF93CF93DF93EF93FF93C091DF
:101210000701D091080188859D8198130CC087E053
:1012200091E00E94B7128091070190910801892BEB
:1012300089F4FB980FC090E0FE01E80FF91F2E81A2
:101240003F816185820F931F0E940B1588858F5FF8
:101250008887FB9AFF91EF91DF91CF91BF91AF917A
:101260009F918F917F916F915F914F913F912F91BE
:101270000F900FBE0F901F9018958036910519F4AE
:101280008091F50308959C013A95223041E034079E
:1012900048F48091300390913103FC01E20FF31F79
:1012A0008081089580559109803B910528F4FC01C7
:1012B000EC5CFC4F808108958FEF0895A0E0B0E0D2
:1012C000E4E6F9E00C946F13D62EEA018C011A952E
:1012D0000F3F110509F070F5CFB6F8940E94871200
:1012E0007C01CC200CF47894F70117830683D58217
:1012F00010869701275F3F4F4D2D50E06C2F7D2FBB
:10130000822F932F0E94F214809130039091310329
:10131000080F191F4D2D50E06C2F7D2F802F912F1E
:101320000E94F2144BED58E0B70187E091E00E9473
:1013300098121CC08036910521F488818093F503B2
:1013400015C080559109803B910580F4662371F0AA
:10135000FA01DC01AC5CBC4FDA94CA018D0D911D21
:10136000019621912D93E817F907D9F7CDB7DEB78C
:10137000E8E00C948B132091070130910801232B96
:1013800029F02FB321FB882780F9089580E090E0B1
:101390000895EF92FF920F931F93CF93DF938C01E9
:1013A000C0E0D0E0B8016C0F7D1FFB0125913491A6
:1013B0007901FB0132966491C9019A958F3F91059D
:1013C00009F010F40E940B158FEFE816F10429F0D4
:1013D0002396C23585E0D80729F740913203509112
:1013E000330360E070E080913003909131030E94FC
:1013F000FB14CDB7DEB7E6E00C948D13AB01FD9A7C
:10140000FC9870933303609332039093310380937D
:10141000300360E070E00E94FB140895E82FF0E0D4
:10142000EF58FE4F84910895E82FE695E695E695EE
:10143000F0E0EB51FC4F208130E08770A90102C041
:10144000559547958A95E2F7CA0181700895E82F6E
:10145000E695E695E695F0E0877041E050E0082ECD
:1014600002C0440F551F0A94E2F74095EB51FC4F20
:1014700090814923262F217030E002C0220F331FB4
:101480008A95E2F7242B2083089520910D012111E4
:101490000CC021E020930D01FC01368130930E0138
:1014A000878180930F012093100180E0089530918F
:1014B0000E01FC01268132130EC020910F0187819D
:1014C000281309C080910D01882329F010920D0185
:1014D00081E08093100180E0089580E008950E94EB
:1014E000BB098111FCCF0E94FB0E80E00895EF92B2
:1014F000FF920F931F93CF93DF938C01F62EEFB6DD
:10150000F8940E948712EC01EE200CF47894209756
:1015100071F183E08E8F80EB8D83E0910B01F09170
:101520000C0181818E8382818F838EE091E00E9405
:101530003D0980779F2D9150892B8A8780E48C8785
:101540000115110531F0F801808188878181898733
:1015500002C0188619868885811106C08985811187
:1015600003C08A8580688A878F2D8A5F8C838C2F41
:101570009D2FCDB7DEB7E6E00C948D13CF93DF93AC
:10158000EC0161E006960E94770A009739F02B85FE
:101590002C732E53FC0123870E945712DF91CF91A9
:1015A00008950F931F93CF93DF938C0164E0069609
:1015B0000E94770AEC01009779F0C8010E94BE0AE8
:1015C0008CEB8D8383E48B871D8682E18E87CE0131
:1015D0000E9457128CEC01C080E0DF91CF911F91E7
:1015E0000F910895A0E0B0E0E8EFFAE00C946F13DB
:1015F000EC018C850F2EFFE0EF2EF02DE8221D85EB
:1016000000E08E85080F111D6E2D6C5FCE010696D1
:101610000E94770A6C010097C9F1CE010E94BE0AB0
:101620008CEBF60185838091100190E0880F991F63
:10163000880F991F8264838784858E2984878D858E
:1016400085878E858687EE20B1F0E6012F96EA9495
:10165000F12CF0E1EF0EF11CEC0CFD1C0F50110908
:101660000C191D09C8018C0F9D1F0E943D0989930B
:10167000CE15DF05B9F7C6010E945712E0E1F1E08F
:1016800080818F5F8F7080838CEC01C080E0CDB74C
:10169000DEB7E8E00C948B13A1E0B0E0E2E5FBE0FC
:1016A0000C9471138C01FC0184858770898365E03B
:1016B000C80106960E94770A7C01009759F1C8017B
:1016C0000E94BE0A8091100190E0880F991F880F38
:1016D000991F8164F70183878981806C8487F80171
:1016E0008585F7018587F981F13031F485E0F701CF
:1016F000868785EC878703C0F70116861786C701A2
:101700000E945712E0E1F1E080818F5F8F7080834B
:101710008CEC01C080E02196E6E00C948D13809162
:10172000F50380FF0CC062E080E090E00E94770A41
:101730002CEBFC01258321E023870E9457128CECBF
:101740000895CF93DF93EC01AC01415F5F4F6C854F
:101750006F709D8580E02E85820F911D0E945E092D
:10176000CE010E94BE0A8CECDF91CF9108952091AA
:10177000F50320FF08C0AC01435F5F4F62E087E1E3
:1017800091E00E945E0980E00895A1E0B0E0EBECFA
:10179000FBE00C9475136983AE014F5F5F4F61E00E
:1017A0000E945E092196E2E00C949113A0E0B0E063
:1017B000ECEDFBE00C946E13EC01B62EC09015011D
:1017C000D0901601042F10E07801EE0CFF1CE00E03
:1017D000F11EEC0CFD1CF70184810E940E0A482FBB
:1017E000F701828190E00F5F1F4F9801220F331F96
:1017F000020F131FF601E00FF11F208125FD9395C5
:10180000B41213C0B11006C068816F730E94C50B7B
:1018100081E00CC069918C010F5F1F4F0E94C50BC6
:10182000BA94C801B9F781E001C080E0CDB7DEB756
:10183000E9E00C948A13CF93C62FFC0162856F7088
:10184000615011F40C9601C00D964C2F0E94D60BDE
:1018500061E08C2F0E94270ACF910895A0E0B0E0AC
:10186000E4E3FCE00C946A13C82ED62E842E00917B
:10187000150110911601E82EF12CE701CC0FDD1FA8
:10188000CE0DDF1DC00FD11F8C810E940E0A982E35
:1018900097012F5F3F4FC901880F991F280F391FEC
:1018A000F801E20FF31F80810F2EF3E07F2EF02D61
:1018B0007822AA80B12C692D6E5F8D2D90E0880F63
:1018C000991F019620910B0130910C01820F931FFB
:1018D0000E94770A8C01009709F471C0772019F0F3
:1018E00082E0781204C0F801838182608383F8016A
:1018F0008486770C770C8581782A7582828580684A
:1019000082871386911008C0C5010E943D098F731C
:10191000882AF80184860DC0C8010D96EC01A81A2A
:10192000B90ACE018A0D9B1D0E943D0989939A94A4
:10193000C1F7E0911301F0911401B080FFEFBF16E1
:1019400019F1BB2009F1C0E0D0E0209113013091E2
:101950001401AE01FE01EE0FFF1FE20FF31F8181A4
:101960008E3F79F0D8120DC04F5F5F4F440F551F67
:10197000F901E40FF51F60816C1519F0C8010E9490
:101980001B0C2196CB1508F3E0911501F09116017F
:101990008FEFE81AF80AC701880F991FE80EF91EA1
:1019A000EE0DFF1D808186FF05C0C8010E94571201
:1019B00081E006C0C8010E94491481E001C080E0B6
:1019C000CDB7DEB7EDE00C948613DC01E0910B019E
:1019D000F0910C0115968C91159788236CF0139655
:1019E0009C9113978181981334C014969C918281A5
:1019F000981789F180E0089513962C91139721117F
:101A000005C014968C911497882339F130813F3F9B
:101A100031F13396332329F181E03F5F908129131F
:101A200010C014964C9114979181491307C0611509
:101A30007105C9F0FB01808380E40895491718F40B
:101A400014C02917A0F032968F5F3813E7CF80E0DB
:101A5000089580E0089582E0089580E8089580E088
:101A6000089580E0089580E4089580E0089580E07E
:101A70000895FC012481223048F040E050E0BC0190
:101A800089E091E00E94981281E008950E94491433
:101A900080E00895AF92BF92DF92EF92FF920F9392
:101AA0001F93CF93DF931F92CDB7DEB780910901CB
:101AB00090910A01892B09F4E1C089E091E00E942C
:101AC000CF128C01DC0115968C91159785FD16C0FF
:101AD000E0911101F0911201448114968C91481308
:101AE0000DC0B8016B5F7F4F50E0CF0105960E949B
:101AF000E514282F392F232B09F4BDC0E0901101E4
:101B0000F0901201F8018481D70114968C9358014A
:101B1000B5E0AB0EB11C97012B5F3F4F448150E005
:101B20006A2D7B2D822F932F0E94F214F70185815D
:101B30008F7D8583D8011A968C911A978F70D82E35
:101B4000D3941B96FC901B97E12C1C968C91E82A51
:101B5000BE016F5F7F4FC5010E94E50C86FF60C02C
:101B6000D980E0911301F0911401B080BFEFBB1652
:101B700009F481C08091F50385FF7DC0BB2009F485
:101B80007AC0E12CF12C80911301909114019701FE
:101B9000F701EE0FFF1FE80FF91F41814E3FC9F11A
:101BA000D41237C02F5F3F4F220F331FFC01E20FCB
:101BB000F31F8081E0911501F0911601282F30E08C
:101BC0002F5F3F4FA901440F551F240F351FE20F10
:101BD000F31F9081F801248592FF1BC0207C99237C
:101BE0003CF4203429F4682FC8010E941B0C11C05A
:101BF00094FF07C0203829F4682FC8010E941B0CED
:101C000008C093FF06C0211104C040E46D2D0E945E
:101C10002E0CFFEFEF1AFF0AEB1408F4B4CF2BC021
:101C200027E131E0F9019491319645915491F90100
:101C3000339665917491F9013596A491F901369620
:101C4000E491982391F06E217F214617570769F49C
:101C5000DA1658F0ED1548F0295F3F4FF90125914C
:101C60003491C801F901099506C0275F3F4FF1E0A3
:101C700021373F07B9F6C8010E9449140F90DF9140
:101C8000CF911F910F91FF90EF90DF90BF90AF9099
:101C900008950E94140A08950E94270A0895CF9378
:101CA00014BE88E10FB6F894809360001092600033
:101CB0000FBE0E94E31266EC71E08DE291E00E949B
:101CC000FE090E9460120E940913CFB7F8940E9487
:101CD0008712CC230CF47894909312018093110115
:101CE000009711F0FC011482789485E091E00E9445
:101CF0003D098F3F71F486E091E00E943D098F3FDE
:101D000041F4EDE7F0E025913491822F932F0E946A
:101D1000C90980913F0190E0835D9E4F9093160129
:101D20008093150180913E0190E0835D9E4F9093DA
:101D300014018093130183E491E090930C0180934C
:101D40000B018091F5038E638093F5030E94AE052D
:101D5000CF9108950E944F0E0E944A0DA8950E94AF
:101D6000B90E8091F50385FD0E94C9070E94620F9C
:101D7000F3CF809117018F5F883020F48093170193
:101D800080E00895109217012098289A8AE00000B8
:101D90008150E9F7189B12C08091F50380FF03C0C2
:101DA000209A289802C0209A289A809118018823A6
:101DB000E1F081508093180180E00895809118012E
:101DC0008F3FA9F08F5F80931801883C91F4809138
:101DD000F50380FD05C081608093F50381E00895DF
:101DE0008E7F8093F50381E0089580E0089580E080
:101DF000089580E00895F89428E088E190E00FB617
:101E0000F894A895809360000FBE20936000FFCFE8
:101E1000E0912401F0912501309739F0838181FF11
:101E200004C081E38093200103C084E380932001F8
:101E300084E080932101089580911C0182FF0BC0F2
:101E400081E080931D0187E686BD86E085BB809397
:101E50006E0082E085BD0895809127019091280150
:101E6000009731F00E944914109228011092270126
:101E700080911C018F7380931C010895E0912401CF
:101E8000F0912501868D982F9150968F882369F0C7
:101E900085818F7D858381E080931D0181E380931F
:101EA000200184E080932101089584E080931D0146
:101EB00084E291E00E94B71281E080931D010E94AC
:101EC000080F089508951F920F920FB60F921124D4
:101ED0008F939F934A9941C08091F6038570853016
:101EE00071F45C9881E080931D0182E08093F60399
:101EF00094E396BD96E095BB90936E0085BD80916E
:101F00001E0190911F010097A9F48FEF97EF909316
:101F10001F0180931E018091F60380FD08C084E3B9
:101F200086BD86E085BB80936E0082E085BD109201
:101F3000200107C04A9905C0977F90931F018093A5
:101F40001E0180911C018B7F80931C011092210146
:101F50008091F60382608093F6039F918F910F909A
:101F60000FBE0F901F9018951F920F920FB60F92F1
:101F700011242F933F934F935F936F937F938F938E
:101F80009F93AF93BF93CF93DF93EF93FF93809192
:101F9000F60395B59E7F95BDC82FC17080FF04C024
:101FA0009091220190FF5C9A81FFA3C18091200152
:101FB000882321F08150809320019BC180912101D1
:101FC000823009F4F8C030F4882359F0813009F0E8
:101FD00090C161C0833009F41FC1843009F089C108
:101FE0001EC180911E0190911F01AC01569547952D
:101FF0009A01306880FD4AC044275670411556400A
:1020000031F080911C01806880931C0137C0D22F71
:10201000822F082E82958025082E8695869580250C
:1020200090E0019681FB662760F970E0232F33274B
:10203000217033276217730731F080911C0180648F
:1020400080931C011BC0E0912701F091280130977B
:1020500049F40E948712FC01909328018093270184
:10206000009761F08481DF01A80FB11D1596DC9304
:102070008F5F8A3110F4848301C0148282E08093E0
:10208000200181E08093210120E030E030931F01A6
:1020900020931E012EC18091270190912801892B48
:1020A00071F480911D01833021F080911D018230F7
:1020B00019F40E943E0F79C00E94080F76C085B5C2
:1020C000816085BD83E08093200182E080932101BF
:1020D00080911C01807C41F080911C0180911C0149
:1020E0008CE080931B0155C0A0912701B09128017D
:1020F00014963C9114973130C9F480911D018330BE
:1021000009F047C015968C918C3C69F484E080936B
:102110001D0184E291E00E94B71281E080931D01CD
:102120000E94080F36C00E943E0F33C03230A0F02C
:10213000315051F0FD01359690E080E021919227D9
:102140008F5F3813FBCF01C090E09095FD01E30F46
:10215000F11D8581981721F08CE080931B0119C037
:1021600014963C93149760E070E0CD0105960E94B0
:10217000E50C882371F08CEC80931B018091270182
:10218000909128010E94390D109228011092270188
:102190000CC08091270190912801009731F00E9496
:1021A0004914109228011092270180911C018F730D
:1021B00080931C019EC080911B01882351F1809166
:1021C0001B01282F30E0220F331F082E8295802517
:1021D000082E86958695802590E0019681FD06C0A3
:1021E0003C61309323012093220105C03E6130936E
:1021F00023012093220181E08CBBE89A8093F603AF
:1022000082E286BD86E085BB80936E0082E085BD5C
:1022100070C00E94080F6DC00E943E0F6AC0E0911E
:102220002401F0912501309709F45BC080911D01D4
:10223000823009F45EC080911C018B7F80931C0169
:1022400082E080931D0110921A011092190181E021
:102250008093260180911A0190911901DF01A80F46
:10226000B11D15968C9189278093190180911A01CF
:10227000DF01A80FB11D15962C918F5F80931A0175
:10228000822F90E0880F991F022E22952025022E82
:1022900026952695202530E02F5F3F4F21FD06C073
:1022A0009C61909323018093220105C09E619093CD
:1022B00023018093220180911A019481891718F0DB
:1022C00082E08093260181E08CBBE89A8093F6033C
:1022D00082E286BD86E085BB80936E0082E085BD8C
:1022E00008C015BC10926E0080911C018460809320
:1022F0001C01CC2309F4AAC08091220190912301F2
:102300008130910509F09CC080911B01882371F0F8
:102310000E942C0F10921B0110921F0110921E019F
:1023200082E08093F6030E94080F90C0E0912401A0
:10233000F0912501309709F489C0809126018230FF
:1023400009F446C020F4813009F080C007C0833012
:1023500009F45FC0843009F079C06FC080911A0120
:1023600090911901DF01A80FB11D15968C91892755
:102370008093190190911A01DF01A90FB11D1596E3
:102380008C919F5F90931A01282F30E0220F331F0A
:10239000082E82958025082E86958695802590E0CA
:1023A000019681FD06C03C613093230120932201F8
:1023B00005C03E61309323012093220180911A01D0
:1023C0009481891708F442C082E0809326013EC0C0
:1023D000809119018095282F30E0220F331F082E9D
:1023E00082958025082E86958695802590E0019619
:1023F00081FD06C03C61309323012093220105C07A
:102400003E61309323012093220183E080932601D3
:102410001DC00E942C0F83E080931D0110922601A5
:102420008093210182E08093F6038EE08093200167
:1024300010921F0110921E0109C00E943E0F06C09B
:10244000969587959093230180932201FF91EF91B8
:10245000DF91CF91BF91AF919F918F917F916F91BC
:102460005F914F913F912F910F900FBE0F901F9052
:1024700018951F920F920FB60F9211248F939F936E
:102480005C988091220180FF06C08091F6038460F1
:102490008093F60305C08091F6038B7F8093F6034B
:1024A0009F918F910F900FBE0F901F9018954CE148
:1024B0005FE0BC0184E291E00E94981280E0089500
:1024C0002098289A52985A9A549A5C98E9E6F0E033
:1024D00080818260808380818E7F8083E89A92E011
:1024E00094BD88E687BD88E288BD109223011092D2
:1024F000220110921F0110921E0184E080931C01A2
:102500009093F603809321011092F50308958FE1D3
:1025100090E00E94AE13E82FF92F309731F081E060
:10252000828383831482118210828E2F9F2F0895BD
:10253000CF93CFB7F894FC01A081B181109711F42B
:1025400009C0DC018D919C9111970097D1F76D9393
:102550007C9308C0FC01718360834115510511F023
:10256000FA010995CC230CF47894CF910895CF9378
:10257000CFB7F894DC01ED91FC9111972081318166
:10258000309741F02D933C93838180FF03C0CF01AE
:102590000E944914CC230CF47894CF9108954FB73E
:1025A000F894DC01ED91FC911197208131813097F5
:1025B00021F02D933C931182108244230CF47894E3
:1025C0008E2F9F2F089508951F920F920FB60F928E
:1025D00011248F939F93AF93BF9380912901909182
:1025E0002A01A0912B01B0912C010196A11DB11DD2
:1025F0008093290190932A01A0932B01B0932C0181
:10260000BF91AF919F918F910F900FBE0F901F9030
:1026100018951092290110922A0110922B01109204
:102620002C01109280008BE0809381001092850035
:102630001092840082EE94E0909389008093880049
:10264000EFE6F0E080818260808308950F931F930E
:10265000EFB7F8940091290110912A0120912B01E4
:1026600030912C01EE230CF47894040F151F261FD3
:10267000371FFC0100831183228333831F910F9145
:1026800008954091290150912A0160912B01709188
:102690002C01FC0180819181A281B381481B590BDF
:1026A0006A0B7B0B81E014161506160617060CF054
:1026B00080E008950E94A213A59F900DB49F900DF5
:1026C000A49F800D911D112408952F923F924F9247
:1026D0005F926F927F928F929F92AF92BF92CF92B2
:1026E000DF92EF92FF920F931F93CF93DF93CDB7BB
:1026F000DEB7CA1BDB0B0FB6F894DEBF0FBECDBF33
:1027000009942A88398848885F846E847D848C8403
:102710009B84AA84B984C884DF80EE80FD800C810C
:102720001B81AA81B981CE0FD11D0FB6F894DEBFEF
:102730000FBECDBFED010895EE0FFF1F0590F49180
:10274000E02D0994A29FB001B39FC001A39F01D0C7
:10275000B29F700D811D1124911D08950F931F9339
:10276000CF93DF938230910510F482E090E0E09106
:10277000F903F091FA0320E030E0C0E0D0E023C09C
:102780004081518148175907A8F04817590761F44B
:1027900082819381209719F09B838A832EC0909326
:1027A000FA038093F90329C02115310529F0421756
:1027B000530710F0A90102C0BE01DF01028113819D
:1027C000EF019A01F8013097D9F62115310509F189
:1027D000281B390B2430310590F412968D919C9171
:1027E00013976115710521F0FB019383828304C067
:1027F0009093FA038093F903FD01329644C0FD01E2
:10280000E20FF31F81939193225031092D933C9352
:102810003AC02091F7033091F803232B41F4209123
:102820000201309103013093F8032093F7032091C4
:102830000001309101012115310541F42DB73EB75A
:102840004091040150910501241B350BE091F703E1
:10285000F091F803E217F307A0F42E1B3F0B2817A3
:10286000390778F0AC014E5F5F4F2417350748F009
:102870004E0F5F1F5093F8034093F703819391939A
:1028800002C0E0E0F0E0CF01DF91CF911F910F9106
:102890000895EF92FF920F931F93CF93DF930097CA
:1028A00009F48EC0DC01129713961C921E921297A7
:1028B000E090F903F090FA03E114F10489F42D910A
:1028C0003C911197280F391F8091F7039091F803DD
:1028D0008217930789F5B093F803A093F70370C0AC
:1028E000E70120E030E001C0EA01CA17DB0738F455
:1028F0004A815B819E0141155105B1F722C0AC01AF
:1029000042505109FA01D383C28300811181BC0175
:10291000600F711F6C177D0761F468817981600F0A
:10292000711F6E5F7F4F718360836A817B817383C8
:1029300062832115310529F4B093FA03A093F903BA
:102940003FC0F901B383A283E90149915991C40FB2
:10295000D51FAC17BD0771F4DC019E918E91840FD9
:10296000951F02969183808312968D919C91139767
:1029700093838283A0E0B0E002C0D7017C01F7011D
:10298000828193810097C9F7C70102962081318126
:10299000820F931F2091F7033091F803281739070E
:1029A00079F4109729F41092FA031092F90304C0F5
:1029B00013961C921E921297F092F803E092F7037E
:1029C000CDB7DEB7E6E00C948D13FB01DC0104C04B
:1029D0008D910190801921F441505040C8F7881B17
:1029E000990B0895FB01DC0102C001900D9241504A
:1029F0005040D8F70895DC01CB01FC01F999FECFD6
:102A000006C0F2BDE1BDF89A319600B40D92415076
:102A10005040B8F70895262FF999FECF1FBA92BDFE
:102A200081BD20BD0FB6F894FA9AF99A0FBE0196AF
:062A30000895F894FFCFA9
:062A36000000FB0320007C
:00000001FF
