:100000000C94C0000C94DD000C94DD000C94DD0019
:100010000C94DD000C94DD000C94DD000C94501564
:100020000C94DD000C94DD000C94ED100C94DD00BC
:100030000C94DD000C94DD000C9402120C944E1113
:100040000C94DD000C94DD000C94DD000C94DD00BC
:100050000C94DD000C94DD000C94AF0A0C94DD00D0
:100060000C94DD000C94DD0011015901F60192029F
:100070000D0399033504CB044B05D0050191000015
:100080000000000000000000000000000000000070
:10009000000701010D01FF12019A0C010000000090
:1000A000030100040104050120060170FF00FF00A8
:1000B00000000076170000DF2E000055460000BE4D
:1000C0005D0000347500009D8C000013A400007CCE
:1000D000BB00005BEA0000D10101003A190100C336
:1000E000D4010086A903003C7E050085FC0A0000BF
:1000F00000000000000000010000000D000000D022
:10010000000000D90C00003400000068000000D09E
:10011000000000EE01000002008000FF0101000C61
:1001200002008100FF0101120C0200C200C30101A4
:10013000280C82C000FF0304047C0D820001FF0331
:1001400002024A0D028001C0030303070D020042B0
:10015000C0C30404AD0C028042C0C301105C0D0298
:100160000043FFFF02028C0C028003FF0302022AFD
:100170000C0000000000000101020304060A0E0E3C
:1001800011241FBECFEFD8E0DEBFCDBF13E0A6E045
:10019000B1E001C01D92AB3FB107E1F711E0A0E073
:1001A000B1E0E6E0FFE202C005900D92A630B10793
:1001B000D9F70E946C100C9481170C940000A9E0F0
:1001C000B0E0E5EEF0E00C94CD1505EF12E00F2E57
:1001D000FAED6F2E77247394F02D0F2EFAEE2F2E5A
:1001E00033243394F02DE12CF12CC12CD12C0F2E83
:1001F000F3E0AF2EB12CF02D44244394512CD9863A
:10020000C88628852983888499846801D801EC915F
:10021000F0E0EA30F10508F0EAC4EC5CFF4F0C9422
:100220000416C5010E2C02C0880F991F0A94E2F72C
:100230008095E9EFF2E0908189238083A4EFB2E01A
:100240008C9190E09C010E2C02C0359527950A9464
:10025000E2F720FF04C083E0F8018083CAC422E0F3
:1002600030E00E2C02C0220F331F0A94E2F78223E3
:100270009323892B21F0E7E0D801EC93BAC4A3EFD4
:10028000B2E08C9190E0FC010E2C02C0F595E79550
:100290000A94E2F7E0FF04C081E0D8018C93A9C47E
:1002A00028233923232B09F4A4C425E0F801208353
:1002B000A0C4C2010E2C02C0880F991F0A94E2F755
:1002C000282F2095A3EFB2E09C9192239C93E9EF15
:1002D000F2E05081582B5083C5010E2C02C0880FCC
:1002E000991F0A94E2F7A4EFB2E02C9130E02823A2
:1002F0003923232B31F0809558235083F801108245
:1003000078C4A9E1B3E08C9190E00E2C02C09595E1
:1003100087950A94E2F780FF6CC482EF91E00E9417
:10032000F80A282F30E080E190E0082C02C0880F06
:10033000991F0A94E2F782239323892B09F052C074
:100340008981869590E085509E4F0E94F80AB88575
:10035000B0FF06C0869586958695E82FE77002C0A7
:10036000E82FE770F0E0EE0FFF1FEE0FFF1FE151E7
:10037000FF4F459155916591749149835A836B83E1
:100380007C83C3010E94F80AF82FADE9B0E029810F
:100390003A814B815C810E94C2159B01AC01AF2F59
:1003A000B0E00E94C215AB01BC01689416F87695C6
:1003B0006795579547951694D1F7C401880F991FF3
:1003C000880F991F86509D4F0E948E15C201082CE0
:1003D00002C0880F991F0A94E2F7AAE0B3E09C914B
:1003E000892B8C9382E0F601808303C4C2010E2C1A
:1003F00002C0880F991F0A94E2F7A9EFB2E09C911E
:10040000892B8C9395010E2C02C0220F331F0A9466
:10041000E2F7E4EFF2E0808190E082239323892BDE
:1004200081F0C201082C02C0880F991F0A94E2F7DC
:100430008095AAE0B3E09C9189238C93F801108207
:10044000D8C3A3EFB2E08C9190E022E030E00E2C14
:1004500002C0220F331F0A94E2F728233923232BEB
:1004600081F0C201082C02C0880F991F0A94E2F79C
:100470008095EAE0F3E0908189238083D8011C9283
:10048000B8C30E2C02C0959587950A94E2F780FFB9
:1004900011C0C201082C02C0880F991F0A94E2F70C
:1004A0008095EAE0F3E090818923808381E0D801A0
:1004B0008C939FC3EAE0F3E0808190E0082C02C0B7
:1004C000959587950A94E2F780FF93C3C401880F3E
:1004D000991F880F991F86509D4F0E94A915882348
:1004E00009F487C3C201082C02C0880F991F0A941F
:1004F000E2F78095AAE0B3E09C9189238C93EBE02E
:10050000F3E0808190E0082C02C0959587950A94CD
:10051000E2F780FF04C0E9E0D801EC936AC3D80198
:100520001C9267C3ED82C2010E2C02C0880F991F76
:100530000A94E2F7282F2095E4EFF2E090819223CD
:100540009083A9EFB2E09C91892B8C93C1010E940A
:10055000F80A811110C0C5010D8002C0880F991FD3
:100560000A94E2F78095E9EFF2E090818923808395
:10057000D8011C923EC3E9E1F3E0808190E00D8058
:1005800002C0959587950A94E2F780FF32C389816E
:10059000869590E088519E4F0E94F80AF885F0FFFA
:1005A00005C0869586958695877001C08770E82F6F
:1005B000F0E0EE0FFF1FEE0FFF1FE151FF4F4591DF
:1005C00055916591749149835A836B837C83C101F2
:1005D0000E94F80AA82FB0E029813A814B815C8102
:1005E0000E94C215AB01BC01C401880F991F880F7E
:1005F000991F86509D4F0E948E15C201082C02C083
:10060000880F991F0A94E2F7AAE0B3E09C91892B26
:100610008C9384E0F6018083ECC2C2010E2C02C0F0
:10062000880F991F0A94E2F7A9EFB2E09C91892BF9
:100630008C9395010E2C02C0220F331F0A94E2F70F
:10064000E3EFF2E0808190E082239323892B81F015
:10065000C201082C02C0880F991F0A94E2F7809506
:10066000AAE0B3E09C9189238C93F8011082C1C267
:10067000A4EFB2E08C9190E022E030E00E2C02C0BA
:10068000220F331F0A94E2F728233923232B81F00A
:10069000C201082C02C0880F991F0A94E2F78095C6
:1006A000EAE0F3E0908189238083D8011C92A1C203
:1006B0000E2C02C0959587950A94E2F780FF11C031
:1006C000C201082C02C0880F991F0A94E2F7809596
:1006D000EAE0F3E090818923808383E0D8018C9362
:1006E00088C2EAE0F3E0808190E0082C02C0959592
:1006F00087950A94E2F780FF7CC2C401880F991F96
:10070000880F991F86509D4F0E94A915882309F4D0
:1007100070C2C201082C02C0880F991F0A94E2F728
:100720008095AAE0B3E09C9189238C93F801108214
:1007300060C282E090E00E2C02C0880F991F0A94DC
:10074000E2F7482F4095A3EFB2E03C9134233C936D
:10075000E9EFF2E06081682B6083A5010E2C02C0F6
:10076000440F551F0A94E2F79A01A4EFB2E04C91AE
:1007700050E042235323452B31F0209562236083C0
:10078000F801108236C2A9E1B3E02C9130E0822357
:100790009323892B09F42DC282EF91E00E94F80A7D
:1007A000282F30E080E190E0082C02C0880F991FCC
:1007B0000A94E2F782239323892B09F052C089819E
:1007C000869590E085509E4F0E94F80AB885B0FF4C
:1007D00006C0869586958695E82FE77002C0E82FBB
:1007E000E770F0E0EE0FFF1FEE0FFF1FE151FF4F2C
:1007F000459155916591749149835A836B837C83AC
:10080000C3010E94F80AF82FA9E9B0E029813A81D2
:100810004B815C810E94C2159B01AC01AF2FB0E0FF
:100820000E94C215AB01BC01689416F876956795D5
:10083000579547951694D1F7C401880F991F880FD3
:10084000991F86509D4F0E948E15C201082C02C030
:10085000880F991F0A94E2F7AAE0B3E09C91892BD4
:100860008C9386E0F6018083C4C182E090E00E2C78
:1008700002C0880F991F0A94E2F7A9EFB2E02C9109
:10088000282B2C93A5010E2C02C0440F551F0A944F
:10089000E2F7E4EFF2E0208130E024233523232B3C
:1008A00081F0C201082C02C0880F991F0A94E2F758
:1008B0008095AAE0B3E09C9189238C93F801108283
:1008C00098C1A3EFB2E02C9130E0A9010E2C02C038
:1008D000559547950A94E2F740FF10C0C201082CD5
:1008E00002C0880F991F0A94E2F78095EAE0F3E0CE
:1008F000908189238083D8011C927BC1822393231A
:10090000892B89F0C201082C02C0880F991F0A9414
:10091000E2F78095EAE0F3E0908189238083E5E0C7
:10092000D801EC9366C1AAE0B3E08C9190E0082C6A
:1009300002C0959587950A94E2F780FF5AC1C401D9
:10094000880F991F880F991F86509D4F0E94A915E7
:10095000882309F44EC1C201082C02C0880F991FD8
:100960000A94E2F78095EAE0F3E09081892380839E
:10097000ABE0B3E08C9190E0082C02C09595879590
:100980000A94E2F780FF04C029E0F801208331C116
:10099000D8011C922EC1EF82E2E0F0E00E2C02C0E2
:1009A000EE0FFF1F0A94E2F7FE83ED839D81909581
:1009B000A4EFB2E08C9189238C93E9EFF2E080817F
:1009C000FD818F2BA9EFB2E08C93C1010E94F80A40
:1009D000811110C045010F8002C0880C991C0A9437
:1009E000E2F78094E9EFF2E0808188228082D801EA
:1009F0001C92FFC0E9E1F3E0808190E02D813E810F
:100A000082239323892B09F4F4C08981869590E091
:100A100088519E4F0E94F80A388530FF05C08695A0
:100A200086958695877001C08770E82FF0E0EE0FFD
:100A3000FF1FEE0FFF1FE151FF4F4591559165914B
:100A4000749149835A836B837C83C1010E94F80AA5
:100A5000A82FB0E029813A814B815C810E94C215A8
:100A6000AB01BC01C401880F991F880F991F8650E4
:100A70009D4F0E948E15C201082C02C0880F991F3D
:100A80000A94E2F7AAE0B3E09C91892B8C9328E0CA
:100A9000F6012083AEC082E090E00E2C02C0880FE9
:100AA000991F0A94E2F7A9EFB2E02C91282B2C931E
:100AB000A5010E2C02C0440F551F0A94E2F7E3EF84
:100AC000F2E0208130E024233523232B81F0C20182
:100AD000082C02C0880F991F0A94E2F78095AAE0BB
:100AE000B3E09C9189238C93F801108282C0A4EF1B
:100AF000B2E02C9130E0A9010E2C02C0559547952B
:100B00000A94E2F740FF10C0C201082C02C0880F0F
:100B1000991F0A94E2F78095EAE0F3E09081892337
:100B20008083D8011C9265C082239323892B89F08E
:100B3000C201082C02C0880F991F0A94E2F7809521
:100B4000EAE0F3E0908189238083E7E0D801EC9329
:100B500050C0AAE0B3E08C9190E0082C02C09595BB
:100B600087950A94E2F780FF44C0C401880F991F5B
:100B7000880F991F86509D4F0E94A9158823C9F19F
:100B8000C201082C02C0880F991F0A94E2F78095D1
:100B9000EAE0F3E0908189238083D8011C9229C088
:100BA000EBE0F3E0808190E0082C02C095958795FA
:100BB0000A94E2F780FF18C0C5010E2C02C0880F0E
:100BC000991F0A94E2F78095A9EFB2E09C919823CF
:100BD0009C93E3EFF2E0908198239083A4EFB2E03E
:100BE0009C9189238C9305C0F801108202C0D80122
:100BF0001C92E885F9853196F987E8870F5F1F4FCA
:100C0000F2E0EF0EF11C2FEF221A320A3FEF631AC7
:100C1000730A488559854430510509F0F2CA29966E
:100C2000E2E10C94E915A0E0B0E0E9E1F6E00C9413
:100C3000D2158091140380FF0BC08CE093E00E94DA
:100C4000A915882329F0EBE0F3E08081806480839C
:100C50008091140381FF9FC080E193E00E94A91559
:100C6000882309F498C0EBE0F3E0808180688083FA
:100C700092C081EF91E00E94F80A482D90E0082C84
:100C800002C0959587950A94E2F781719927803182
:100C9000910591F081319105E1F0019731F5F8016D
:100CA000808186FF22C0C701082C02C0880F991FCF
:100CB0000A94E2F7782A19C0F80180818823ACF4FD
:100CC000C701082C02C0880F991F0A94E2F7782AFE
:100CD0000CC0F8018081807C41F09701082C02C093
:100CE000220F331F0A94E2F7722A872D90E0042E18
:100CF00002C0959587950A94E2F780FF1FC0F8011E
:100D0000208130E0C90102C0959587954A95E2F7A8
:100D100080FD31C080EF91E00E94F80A95010C2E11
:100D200002C0220F331F0A94E2F7822321F120959B
:100D3000F60190812923822B80831DC0F8018081D8
:100D400090E002C0959587954A95E2F780FF13C021
:100D50008FEE91E00E94F80A95010C2E02C0220F3E
:100D6000331F0A94E2F7822331F02095F601908137
:100D70002923822B8083FFEF8F1A9F0A229684E01B
:100D80008816910409F075CFEBE0F3E08081807F55
:100D9000782A708216C0C0E0D0E0812C912C712C92
:100DA0000BE013E0EE24E394F12C0F2EF3E0AF2ED2
:100DB000B12CF02D0F2EF3EFCF2EF2E0DF2EF02D21
:100DC00058CFCDB7DEB7EDE00C94EE15389A399ACE
:100DD0003A9A3B9A3C9A3D9A569A579A219A89EDAB
:100DE00091E00E94F80A807C803459F0803899F0B4
:100DF0001092F5021092F6021092F7021092F80289
:100E000013C081E08093F5028093F6028093F7028D
:100E10008093F80209C085E08093F5028093F60282
:100E20008093F7028093F8021092F3021092F4027A
:100E30001092F90210920A031092150310921603F1
:100E400010921703109218031092190310921A03AC
:100E500010922B0310920B031092060181E008956B
:100E6000CF93C82F60956823E9F047E250E060E037
:100E700070E08CE293E00E948E1580910601846000
:100E800080930601E1E8F0E0808181608083E0E802
:100E9000F0E08081816C80832AE832E03093890021
:100EA00020938800C0FF02C0409A01C04098C1FF53
:100EB00002C0419A01C04198C2FF02C0429A01C0DB
:100EC0004298C3FF02C0439A01C04398C4FF02C0C6
:100ED000449A01C04498C5FF02C0459A01C0459894
:100EE000C6FF02C05E9A01C05E98CC2314F45F9ADC
:100EF00001C05F98CF910895A3E0B0E0E2E8F7E089
:100F00000C94CD1505E113E0E12CF12CA12CB12CB2
:100F10000F2EF9E1CF2EF3E0DF2EF02D0F2EF3E0B0
:100F20004F2E512CF02D22242394312C68946624CA
:100F300061F8712CBB82AA82AA80BB804801D801CB
:100F40008C91823009F489C030F4882359F08130C3
:100F500009F072C134C0833009F4D0C0843009F084
:100F60006BC117C192010E2C02C0220F331F0A94CD
:100F7000E2F72095F601808128232083A9EFB2E0D3
:100F80008C9190E09C010E2C02C0359527950A9417
:100F9000E2F720FF04C031E0F80130834FC1930134
:100FA0000E2C02C0220F331F0A94E2F782239323F0
:100FB000892B09F443C1E3E0D801EC933FC1E982F6
:100FC000C1010E2C02C0880F991F0A94E2F7D601C6
:100FD0009C91892B8C93E9EFF2E0808190E00E2CBC
:100FE00002C0959587950A94E2F780FD27C18EEEA1
:100FF00091E00E94F80AE82FF0E0098002C0F59520
:10100000E7950A94E2F7E370FF27EE0FFF1FEE0F5C
:10101000FF1FE95FFE4F85919591A591B4919501D0
:10102000220F331F220F331F482F592F6A2F7B2F78
:10103000C901855E9C4F0E948E15C10102C0880FB8
:10104000991FAA94E2F75C01ABE2B3E08C91A82A65
:10105000AC9232E0F8013083F1C092010E2C02C054
:10106000220F331F0A94E2F72095D6018C91282392
:101070002C93E9EFF2E0808190E00E2C02C0959570
:1010800087950A94E2F780FF11C0E1E0D801EC9364
:10109000C10102C0880F991FAA94E2F75C01A094D5
:1010A000ABE2B3E08C91A822AC92C8C0EBE2F3E0D3
:1010B000808190E00A2C02C0959587950A94E2F70A
:1010C00080FFBCC0C501880F991F880F991F855EDE
:1010D0009C4F0E94A915882309F4B0C0D8011C9226
:1010E000F10102C0EE0FFF1FAA94E2F75F01A09486
:1010F000ABE2B3E08C91A822AC92A0C0E982C3011C
:101100000E2C02C0880F991F0A94E2F7F601208185
:10111000282B2083A9EFB2E02C9130E08223932387
:10112000892B09F08BC08EEE91E00E94F80AE82F1F
:10113000F0E0098002C0F595E7950A94E2F7E370C4
:10114000FF27EE0FFF1FEE0FFF1FE95FFE4F859198
:101150009591A591B4919501220F331F220F331F52
:10116000482F592F6A2F7B2FC901855E9C4F0E9403
:101170008E15F10102C0EE0FFF1FAA94E2F75F0186
:10118000ABE2B3E08C91A82AAC9234E0F801308352
:1011900055C0A2010E2C02C0440F551F0A94E2F75D
:1011A0004095D6018C9148234C93F3010E2C02C03C
:1011B000EE0FFF1F0A94E2F7A9EFB2E08C9190E0E6
:1011C0008E239F23892B89F033E0F8013083C101FE
:1011D00002C0880F991FAA94E2F75C01A094ABE2C9
:1011E000B3E08C91A822AC9229C0EBE2F3E08081BD
:1011F00090E00A2C02C0959587950A94E2F780FF4B
:101200001DC0C501880F991F880F991F855E9C4FCF
:101210000E94A915882391F0D8011C92F10102C007
:10122000EE0FFF1FAA94E2F75F01A094ABE2B3E0D8
:101230008C91A822AC9202C0F40110828A819B8119
:1012400001969B838A830F5F1F4F92E0E90EF11C8A
:10125000AA81BB81149709F06FCE84EE91E00E94C1
:10126000F80A88230CF5E9E1F3E02081B0E12B9F37
:10127000C00111242F70822B808316C080E001C032
:1012800080E009E113E0F80180830F2EFAE1EF2EF0
:10129000F3E0FF2EF02DD7016C910E943007F8018A
:1012A0008081D7018C9317C080911903982F937078
:1012B000933029F0982F9C709C3011F406C080E088
:1012C000982F9073903311F4DBCF80E0982F907CAF
:1012D000903CB9F6D3CF2396E2E10C94E915A0E057
:1012E000B0E0E5E7F9E00C94CE1501E010E00F2E38
:1012F000FBE06F2EF3E07F2EF02D0F2EF3E0EF2EAC
:10130000F12CF02D0F2EF3EFCF2EF2E0DF2EF02D8B
:101310006894882481F8912CAA24A394B12C0F2ED0
:10132000F4EF4F2EF2E05F2EF02D02C01F5F0F5F33
:10133000812F0E940B10882309F4CBC0C12FD0E06D
:10134000FE01EC5CFC4F328060E0812F0E940E10A9
:10135000143050F5CC0FDD1FC7010C2E02C0880FD2
:10136000991F0A94E2F78095F20190818923311048
:101370000AC0950102C0220F331FCA95E2F7E901A6
:10138000C82BC083A6C0E1E03E1619F0F2018083AD
:10139000A0C094010C2E02C0220F331F0A94E2F762
:1013A000822BF201808395C0183058F52497CC0F1A
:1013B000DD1FC7010C2E02C0880F991F0A94E2F7A7
:1013C0008095F6019081892331100AC0950102C0F1
:1013D000220F331FCA95E2F7E901C82BC08379C0F9
:1013E000E1E03E1619F0F601808373C094010C2EE3
:1013F00002C0220F331F0A94E2F7822BF60180838A
:1014000068C0103191F582EE91E00E94F80AF0E494
:101410003F9E900111248227282F20952074F301EC
:1014200080818F7B822B808389ED91E00E94F80A76
:101430008F7009F47BCFE82FF0E0EE0FFF1FEE0F67
:10144000FF1FE155FF4F85919591A591B491482FCC
:10145000592F6A2F7B2F8CE093E00E948E15E4E1D8
:10146000F3E080818160808361CF113191F582EE5C
:1014700091E00E94F80AEBE0F3E090E8399E9001D9
:1014800011248227282F2095207880818F77822B26
:10149000808389ED91E00E94F80A8F70E9F0E82FCF
:1014A000F0E0EE0FFF1FEE0FFF1FE155FF4F85919C
:1014B0009591A591B491482F592F6A2F7B2F80E1E8
:1014C00093E00E948E15E4E1F3E0808182608083E6
:1014D00003C0023108F42ACF0E9413060E94DF00E5
:1014E0008091060182FF1BC08CE293E00E94A91547
:1014F0008823A9F0E1E8F0E0808181608083E0E862
:10150000F0E08081816C808388ED90E09093890089
:1015100080938800809106018B7F809306010E9452
:101520007C07CDB7DEB7E1E10C94EA15CF93DF93EA
:10153000C0910701D0910801209771F08A81823013
:1015400059F082E08A8369858E819F810E9473179A
:1015500088858F5F8887FB9ADF91CF9108951F92CE
:101560000F920FB60F9211242F933F934F935F93D7
:101570006F937F938F939F93AF93BF93CF93DF939B
:10158000EF93FF93C0910701D091080188859D8159
:1015900098130CC087E091E00E9423158091070109
:1015A00090910801892B89F4FB980FC090E0FE010F
:1015B000E80FF91F2E813F816185820F931F0E94E2
:1015C000731788858F5F8887FB9AFF91EF91DF9172
:1015D000CF91BF91AF919F918F917F916F915F91CB
:1015E0004F913F912F910F900FBE0F901F90189524
:1015F0008036910519F48091F50308959C013A9580
:10160000223041E0340748F4809130039091310357
:10161000FC01E20FF31F8081089580559109803B02
:10162000910528F4FC01EC5CFC4F808108958FEF5C
:101630000895A0E0B0E0EFE1FBE00C94D715D62EC2
:10164000EA018C011A950F3F110509F070F5CFB62C
:10165000F8940E94F3147C01CC200CF47894F701E8
:1016600017830683D58210869701275F3F4F4D2D44
:1016700050E06C2F7D2F822F932F0E945A1780915C
:10168000300390913103080F191F4D2D50E06C2F3E
:101690007D2F802F912F0E945A1746E95AE0B701FB
:1016A00087E091E00E9404151CC08036910521F46A
:1016B00088818093F50315C080559109803B910581
:1016C00080F4662371F0FA01DC01AC5CBC4FDA9463
:1016D000CA018D0D911D019621912D93E817F907EF
:1016E000D9F7CDB7DEB7E8E00C94F31520910701E8
:1016F00030910801232B29F02FB321FB882780F993
:10170000089580E090E00895EF92FF920F931F9369
:10171000CF93DF938C01C0E0D0E0B8016C0F7D1F48
:10172000FB01259134917901FB0132966491C90145
:101730009A958F3F910509F010F40E9473178FEF6F
:10174000E816F10429F02396C23585E0D80729F779
:10175000409132035091330360E070E08091300398
:10176000909131030E946317CDB7DEB7E6E00C9489
:10177000F515AB01FD9AFC98709333036093320327
:10178000909331038093300360E070E00E94631710
:101790000895E82FF0E0EF58FE4F84910895E82F68
:1017A000E695E695E695F0E0EB51FC4F208130E0C0
:1017B0008770A90102C0559547958A95E2F7CA013D
:1017C00081700895E82FE695E695E695F0E087703C
:1017D00041E050E0082E02C0440F551F0A94E2F782
:1017E0004095EB51FC4F90814923262F217030E02A
:1017F00002C0220F331F8A95E2F7242B208308951D
:1018000020910D0121110CC021E020930D01FC015C
:10181000368130930E01878180930F012093100150
:1018200080E0089530910E01FC01268132130EC034
:1018300020910F018781281309C080910D01882311
:1018400029F010920D0181E08093100180E008954D
:1018500080E008950E94760B8111FCCF0E94BD109C
:1018600080E00895EF92FF920F931F93CF93DF9341
:101870008C01F62EEFB6F8940E94F314EC01EE20E2
:101880000CF47894209771F183E08E8F80EB8D8338
:10189000E0910B01F0910C0181818E8382818F8315
:1018A0008EE091E00E94F80A80779F2D9150892B5D
:1018B0008A8780E48C870115110531F0F801808159
:1018C00088878181898702C0188619868885811159
:1018D00006C08985811103C08A8580688A878F2D1B
:1018E0008A5F8C838C2F9D2FCDB7DEB7E6E00C94FA
:1018F000F515CF93DF93EC0161E006960E94320C60
:10190000009739F02B852C732E53FC0123870E94FE
:101910008411DF91CF9108950F931F93CF93DF939D
:101920008C0164E006960E94320CEC01009779F07D
:10193000C8010E94790C8CEB8D8383E48B871D8614
:1019400082E18E87CE010E9484118CEC01C080E080
:10195000DF91CF911F910F910895A0E0B0E0E3EBEC
:10196000FCE00C94D715EC018C850F2EFFE0EF2ED8
:10197000F02DE8221D8500E08E85080F111D6E2DCB
:101980006C5FCE0106960E94320C6C010097C9F183
:10199000CE010E94790C8CEBF601858380911001B9
:1019A00090E0880F991F880F991F82648387848530
:1019B0008E2984878D8585878E858687EE20B1F078
:1019C000E6012F96EA94F12CF0E1EF0EF11CEC0CFD
:1019D000FD1C0F5011090C191D09C8018C0F9D1F0A
:1019E0000E94F80A8993CE15DF05B9F7C6010E9457
:1019F0008411E0E1F1E080818F5F8F7080838CEC57
:101A000001C080E0CDB7DEB7E8E00C94F315A1E0AB
:101A1000B0E0EDE0FDE00C94D9158C01FC0184856B
:101A20008770898365E0C80106960E94320C7C01AC
:101A3000009759F1C8010E94790C8091100190E043
:101A4000880F991F880F991F8164F7018387898107
:101A5000806C8487F8018585F7018587F981F130ED
:101A600031F485E0F701868785EC878703C0F701AD
:101A700016861786C7010E948411E0E1F1E080819B
:101A80008F5F8F7080838CEC01C080E02196E6E050
:101A90000C94F5158091F50380FF0CC062E080E0A6
:101AA00090E00E94320C2CEBFC01258321E023877F
:101AB0000E9484118CEC0895CF93DF93EC016C8528
:101AC0009D8580E02E85820F911D811520E892076B
:101AD00031F48091F50380648093F50306C0AE0174
:101AE000415F5F4F6F700E94190BCE010E94790C0D
:101AF0008CECDF91CF9108952091F50320FF08C071
:101B0000AC01435F5F4F62E087E191E00E94190BF7
:101B100080E00895A1E0B0E0E0E9FDE00C94DD157F
:101B20006983AE014F5F5F4F61E00E94190B219600
:101B3000E2E00C94F915A0E0B0E0E1EAFDE00C94DD
:101B4000D615EC01B62EC0901501D0901601042FC9
:101B500010E07801EE0CFF1CE00EF11EEC0CFD1CF9
:101B6000F70184810E94C90B482FF701828190E020
:101B70000F5F1F4F9801220F331F020F131FF60133
:101B8000E00FF11F208125FD9395B41213C0B11011
:101B900006C068816F730E948A0D81E00CC0699154
:101BA0008C010F5F1F4F0E948A0DBA94C801B9F7CC
:101BB00081E001C080E0CDB7DEB7E9E00C94F2151A
:101BC000CF93C62FFC0162856F70615011F40C96A3
:101BD00001C00D964C2F0E949B0D61E08C2F0E943E
:101BE000E20BCF910895A0E0B0E0E9EFFDE00C94A6
:101BF000D315C82ED62E0091150110911601E82E8E
:101C0000F12CE701CC0FDD1FCE0DDF1DC00FD11F62
:101C10008C810E94C90B982EC70101969C01220F4E
:101C2000331F820F931FF801E80FF91F80810F2ED9
:101C3000F3E08F2EF02D8822AA80B12C692D6E5FE3
:101C40008D2D90E0880F991F019620910B01309106
:101C50000C01820F931F0E94320C8C01009709F433
:101C600071C0882019F082E0881204C0F8018381D5
:101C700082608383880C880CF8018581882A85829C
:101C80008285806882871386911009C0C485C5014A
:101C90000E94F80A8F73C82BF801C4870DC0C801D1
:101CA0000D96EC01A81AB90ACE018A0D9B1D0E945F
:101CB000F80A89939A94C1F7E0911301F091140105
:101CC000B080FFEFBF1619F1BB2009F1C0E0D0E0F2
:101CD0002091130130911401AE01FE01EE0FFF1FA0
:101CE000E20FF31F81818E3F79F0D8120DC04F5F54
:101CF0005F4F440F551FF901E40FF51F60816C150C
:101D000019F0C8010E94E00D2196CB1508F3E0916F
:101D10001501F09116018FEFE81AF80AC701880F34
:101D2000991FE80EF91EEE0DFF1D808186FF05C08C
:101D3000C8010E94841181E006C0C8010E94B1164A
:101D400081E001C080E0CDB7DEB7ECE00C94EF1588
:101D5000DC01E0910B01F0910C0115968C91159727
:101D600088236CF013969C9113978181981334C04B
:101D700014969C918281981789F180E008951396BA
:101D80002C911397211105C014968C9114978823D8
:101D900039F130813F3F31F13396332329F181E02E
:101DA0003F5F9081291310C014964C911497918134
:101DB000491307C061157105C9F0FB01808380E4F8
:101DC0000895491718F414C02917A0F032968F5FB0
:101DD0003813E7CF80E0089580E0089582E0089509
:101DE00080E8089580E0089580E0089580E40895F3
:101DF00080E0089580E00895FC012481223048F0BD
:101E000040E050E0BC0189E091E00E94041581E0CF
:101E100008950E94B11680E00895AF92BF92DF92BC
:101E2000EF92FF920F931F93CF93DF931F92CDB743
:101E3000DEB78091090190910A01892B09F4E0C075
:101E400089E091E00E943B158C01DC0115968C9194
:101E5000159785FD16C0E0911101F09112014481A2
:101E600014968C9148130DC0B8016B5F7F4F50E002
:101E7000CF0105960E944D17282F392F232B09F4E7
:101E8000BCC0E0901101F0901201F8018481D701EB
:101E900014968C935801B5E0AB0EB11C97012B5FE3
:101EA0003F4F448150E06A2D7B2D822F932F0E945B
:101EB0005A17F70185818F7D8583D8011A968C91F9
:101EC0001A978F70D82ED3941B96FC901B97E12CF9
:101ED0001C968C91E82ABE016F5F7F4FC5010E945E
:101EE000A80E86FF5FC0D980E0911301F091140124
:101EF000B080BFEFBB1609F480C08091F50385FF69
:101F00007CC0BB2009F479C0E12CF12C8091130135
:101F1000909114019701F701EE0FFF1FE80FF91FD1
:101F200041814E3FC1F1D41236C02F5F3F4F220F87
:101F3000331FFC01E20FF31F8081E0911501F09146
:101F40001601282F30E02F5F3F4FA901440F551F86
:101F5000240F351FE20FF31F9081F801248592FFB3
:101F60001AC0207C99233CF4203429F4682FC8013E
:101F70000E94E00D10C094FF07C0203829F4682F9C
:101F8000C8010E94E00D07C093FF05C0211103C0E6
:101F90006D2D0E94F30DFFEFEF1AFF0AEB1408F40A
:101FA000B5CF2BC027E131E0F901949131964591ED
:101FB0005491F901339665917491F9013596A49184
:101FC000F9013696E491982391F06E217F2146170E
:101FD000570769F4DA1658F0ED1548F0295F3F4FBE
:101FE000F90125913491C801F901099506C0275FCF
:101FF0003F4FF1E021373F07B9F6C8010E94B11603
:102000000F90DF91CF911F910F91FF90EF90DF9094
:10201000BF90AF9008950E94CF0B08950E94E20BED
:102020000895CF9314BE88E10FB6F89480936000B2
:10203000109260000FBE0E944F1566EC71E08DE2B9
:1020400091E00E94B90B0E948D110E947515CFB7C7
:10205000F8940E94F314CC230CF47894909312011A
:1020600080931101009711F0FC011482789485E0AF
:1020700091E00E94F80A8F3F71F486E091E00E949F
:10208000F80A8F3F41F4EDE7F0E025913491822F7B
:10209000932F0E94840B80913F0190E0835D9E4FBF
:1020A000909316018093150180913E0190E0835D2D
:1020B0009E4F909314018093130183E491E09093D9
:1020C0000C0180930B018091F5038E638093F503DF
:1020D0000E94E606CF9108950E9411100E940D0FF4
:1020E000A8950E947B108091F50385FD0E946F09E1
:1020F0000E94EC10F3CF809117018F5F883020F49D
:102100008093170180E008951092170154985C9A0B
:102110008AE000008150E9F74C9B12C08091F503E2
:1021200080FF03C0549A5C9802C0549A5C9A8091D4
:1021300018018823E1F081508093180180E0089510
:10214000809118018F3FA9F08F5F80931801883C20
:1021500091F48091F50380FD05C081608093F503C3
:1021600081E008958E7F8093F50381E0089580E0FB
:10217000089580E0089580E00895F89428E088E1CB
:1021800090E00FB6F894A895809360000FBE20935E
:102190006000FFCF80911C0182FF0BC081E0809323
:1021A0001D0187E686BD86E085BB80936E0082E0D8
:1021B00085BD08958091270190912801009731F005
:1021C0000E94B116109228011092270180911C01E3
:1021D0008F7380931C01089508951F920F920FB67C
:1021E0000F9211248F939F93189951C08091F603F9
:1021F00080FF1FC090911B01911149C082FF19C03F
:1022000084B5806284BD84B58F7E84BD85B58064CD
:1022100085BD85B58F7B85BD81E080931D0182E002
:102220008093F60394E396BD96E095BB90936E0081
:1022300085BD80911E0190911F010097A9F48FEF39
:1022400097EF90931F0180931E018091F60380FD0C
:1022500008C084E386BD86E085BB80936E0082E083
:1022600085BD1092200107C0189905C0977F9093F3
:102270001F0180931E0180911C018B7F80931C01A4
:10228000109221018091F60382608093F6039F9162
:102290008F910F900FBE0F901F9018951F920F9265
:1022A0000FB60F9211242F938F939F93EF93FF9369
:1022B0002091F60320FF1EC08091220190912301FE
:1022C00096958795909323018093220180FD0FC0FE
:1022D00018BC84B5806384BDEEE6F0E080818B7F1E
:1022E00080838091F6038B7F8093F60303C0246084
:1022F0002093F603FF91EF919F918F912F910F9073
:102300000FBE0F901F9018954AEC50E1BC0184E27B
:1023100091E00E94041580E0089554985C9A2098FA
:10232000289A559A5D9892E094BD88E687BD84B559
:10233000806284BD84B58F7E84BD85B5806485BD93
:1023400085B58F7B85BD80E286BBEFE6F0E08081BE
:1023500080628083E1E8F0E0808180688083109271
:1023600023011092220110921F0110921E0184E09D
:1023700080931C019093F603809321011092F50342
:102380000895F8940C94003808958091F50386FD23
:102390000E94C111E0912401F0912501309739F09C
:1023A000838181FF04C081E38093200103C084E323
:1023B0008093200184E0809321010895E09124011D
:1023C000F0912501868D982F9150968F882369F082
:1023D00085818F7D858381E080931D0181E38093DA
:1023E000200184E080932101089584E080931D0101
:1023F00084E291E00E94231581E080931D010E94F8
:10240000C51108951F920F920FB60F9211242F93AA
:102410003F934F935F936F937F938F939F93AF936C
:10242000BF93CF93DF93EF93FF93C091F60385B5EE
:102430008E7F85BDC1FFDFC180912001882321F0FF
:10244000815080932001D7C180912101823009F40D
:10245000F8C030F4882359F0813009F0CCC161C054
:10246000833009F43CC1843009F0C5C13BC180917F
:102470001E0190911F01AC01569547959A01306855
:1024800080FD4AC0442756704115564031F0809176
:102490001C01806880931C0137C0D22F822F082E28
:1024A00082958025082E86958695802590E0019658
:1024B00081FB662760F970E0232F332721703327D3
:1024C0006217730731F080911C01806480931C01B6
:1024D0001BC0E0912701F0912801309749F40E9438
:1024E000F314FC019093280180932701009761F079
:1024F0008481DF01A80FB11D1596DC938F5F8A31AF
:1025000010F4848301C0148282E08093200181E072
:102510008093210120E030E030931F0120931E01C1
:102520006AC18091270190912801892B71F48091D3
:102530001D01833021F080911D01823019F40E9429
:10254000DE1179C00E94C51176C085B5816085BD58
:1025500083E08093200182E08093210180911C011F
:10256000807C41F080911C0180911C018CE0809363
:102570001B0155C0A0912701B091280114963C91F0
:1025800014973130C9F480911D01833009F047C0A0
:1025900015968C918C3C69F484E080931D0184E253
:1025A00091E00E94231581E080931D010E94C511D6
:1025B00036C00E94DE1133C03230A0F0315051F0ED
:1025C000FD01359690E080E0219192278F5F3813CE
:1025D000FBCF01C090E09095FD01E30FF11D8581D7
:1025E000981721F08CE080931B0119C014963C933E
:1025F000149760E070E0CD0105960E94A80E882334
:1026000071F08CEC80931B0180912701909128013F
:102610000E94FC0E10922801109227010CC080919C
:10262000270190912801009731F00E94B116109275
:1026300028011092270180911C018F7380931C0147
:10264000DAC080911B01882309F446C080911B01E8
:10265000282F30E0220F331F082E82958025082E68
:1026600086958695802590E0019681FD06C03C61A7
:10267000309323012093220105C03E613093230152
:102680002093220118BC84B5806384BDEEE6F0E09F
:1026900080818B7F808384E085BB808184608083A0
:1026A0008091F6038B7F8093F60380E286BBAFE6D2
:1026B000B0E08C9180628C93A1E8B0E08C9180684E
:1026C0008C9381E08093F60382E286BD86E085BB31
:1026D000808382E085BD8FC00E94C5118CC00E949E
:1026E000DE1189C08091240190912501009709F4A1
:1026F0007AC020911D01223009F47DC020911C0177
:102700002B7F20931C0122E020931D0110921A01BF
:102710001092190121E02093260120911A01309195
:102720001901FC01E20FF11D2581232720931901D6
:1027300030911A01FC01E30FF11D25813F5F3093B9
:102740001A01822F90E0880F991F022E22952025D2
:10275000022E26952695202530E02F5F3F4F21FD44
:1027600006C09C61909323018093220105C09E6165
:10277000909323018093220118BC84B5806384BDAB
:10278000EEE6F0E080818B7F808384E085BB8081F2
:10279000846080838091F6038B7F8093F603809121
:1027A0001A01E0912401F09125019481891718F014
:1027B00082E08093260180E286BBEFE6F0E0808134
:1027C00080628083E1E8F0E080818068808381E03E
:1027D0008093F60382E286BD86E085BB80936E001F
:1027E00082E085BD08C015BC10926E0080911C016E
:1027F000846080931C01C0FFE3C088B581110FC0C5
:1028000082E288BD84B5806284BD84B58F7E84BD3C
:1028100084E085BBEEE6F0E0808184608083809177
:10282000220190912301019709F0CAC0EEE6F0E081
:1028300080818B7F808380911B01882371F00E94AF
:10284000DA1010921B0110921F0110921E0182E0FB
:102850008093F6030E94C511B3C08091240190912A
:102860002501009709F4ACC020912601223009F41B
:102870005CC020F4213009F0A3C007C0233009F464
:1028800089C0243009F09CC099C020911A01309170
:102890001901FC01E20FF11D258123272093190165
:1028A00030911A01FC01E30FF11D25813F5F309348
:1028B0001A01822F90E0880F991F022E2295202561
:1028C000022E26952695202530E02F5F3F4F21FDD3
:1028D00006C09C61909323018093220105C09E61F4
:1028E000909323018093220118BC84B5806384BD3A
:1028F000EEE6F0E080818B7F808384E085BB808181
:10290000846080838091F6038B7F8093F6038091AF
:102910001A01E0912401F09125019481891708F4AE
:102920004FC082E0809326014BC020911901209571
:10293000822F90E0880F991F022E22952025022ECB
:1029400026952695202530E02F5F3F4F21FD06C0BC
:102950009C61909323018093220105C09E61909316
:1029600023018093220118BC84B5806384BDEEE608
:10297000F0E080818B7F808384E085BB80818460F0
:1029800080838091F6038B7F8093F60383E08093AE
:10299000260116C00E94DA1083E080931D01109278
:1029A00026018093210182E08093F6038EE08093DC
:1029B000200110921F0110921E0102C00E94DE1120
:1029C000FF91EF91DF91CF91BF91AF919F918F9147
:1029D0007F916F915F914F913F912F910F900FBE1B
:1029E0000F901F9018958FE190E00E941616E82F27
:1029F000F92F309731F081E0828383831482118232
:102A000010828E2F9F2F0895CF93CFB7F894FC019B
:102A1000A081B181109711F409C0DC018D919C91C6
:102A200011970097D1F76D937C9308C0FC017183D7
:102A300060834115510511F0FA010995CC230CF47E
:102A40007894CF910895CF93CFB7F894DC01ED91AE
:102A5000FC91119720813181309741F02D933C9367
:102A6000838180FF03C0CF010E94B116CC230CF4F8
:102A70007894CF9108954FB7F894DC01ED91FC91D3
:102A8000119720813181309721F02D933C93118251
:102A9000108244230CF478948E2F9F2F089508956C
:102AA0001F920F920FB60F9211248F939F93AF93A3
:102AB000BF938091290190912A01A0912B01B0919F
:102AC0002C010196A11DB11D8093290190932A012B
:102AD000A0932B01B0932C01BF91AF919F918F9147
:102AE0000F900FBE0F901F90189510922901109211
:102AF0002A0110922B0110922C0182E08093B000E9
:102B000087E08093B1001092B2008DE48093B3000F
:102B1000E0E7F0E080818260808308950F931F9347
:102B2000EFB7F8940091290110912A0120912B010F
:102B300030912C01EE230CF47894040F151F261FFE
:102B4000371FFC0100831183228333831F910F9170
:102B500008954091290150912A0160912B017091B3
:102B60002C01FC0180819181A281B381481B590B0A
:102B70006A0B7B0B81E014161506160617060CF07F
:102B800080E008950E940A16A59F900DB49F900DB5
:102B9000A49F800D911D112408952F923F924F9272
:102BA0005F926F927F928F929F92AF92BF92CF92DD
:102BB000DF92EF92FF920F931F93CF93DF93CDB7E6
:102BC000DEB7CA1BDB0B0FB6F894DEBF0FBECDBF5E
:102BD00009942A88398848885F846E847D848C842F
:102BE0009B84AA84B984C884DF80EE80FD800C8138
:102BF0001B81AA81B981CE0FD11D0FB6F894DEBF1B
:102C00000FBECDBFED010895EE0FFF1F0590F491AB
:102C1000E02D0994A29FB001B39FC001A39F01D0F2
:102C2000B29F700D811D1124911D08950F931F9364
:102C3000CF93DF938230910510F482E090E0E09131
:102C4000F903F091FA0320E030E0C0E0D0E023C0C7
:102C50004081518148175907A8F04817590761F476
:102C600082819381209719F09B838A832EC0909351
:102C7000FA038093F90329C02115310529F0421781
:102C8000530710F0A90102C0BE01DF0102811381C8
:102C9000EF019A01F8013097D9F62115310509F1B4
:102CA000281B390B2430310590F412968D919C919C
:102CB00013976115710521F0FB019383828304C092
:102CC0009093FA038093F903FD01329644C0FD010D
:102CD000E20FF31F81939193225031092D933C937E
:102CE0003AC02091F7033091F803232B41F420914F
:102CF0000201309103013093F8032093F7032091F0
:102D00000001309101012115310541F42DB73EB785
:102D10004091040150910501241B350BE091F7030C
:102D2000F091F803E217F307A0F42E1B3F0B2817CE
:102D3000390778F0AC014E5F5F4F2417350748F034
:102D40004E0F5F1F5093F8034093F70381939193C5
:102D500002C0E0E0F0E0CF01DF91CF911F910F9131
:102D60000895EF92FF920F931F93CF93DF930097F5
:102D700009F48EC0DC01129713961C921E921297D2
:102D8000E090F903F090FA03E114F10489F42D9135
:102D90003C911197280F391F8091F7039091F80308
:102DA0008217930789F5B093F803A093F70370C0D7
:102DB000E70120E030E001C0EA01CA17DB0738F480
:102DC0004A815B819E0141155105B1F722C0AC01DA
:102DD00042505109FA01D383C28300811181BC01A1
:102DE000600F711F6C177D0761F468817981600F36
:102DF000711F6E5F7F4F718360836A817B817383F4
:102E000062832115310529F4B093FA03A093F903E5
:102E10003FC0F901B383A283E90149915991C40FDD
:102E2000D51FAC17BD0771F4DC019E918E91840F04
:102E3000951F02969183808312968D919C91139792
:102E400093838283A0E0B0E002C0D7017C01F70148
:102E5000828193810097C9F7C70102962081318151
:102E6000820F931F2091F7033091F8032817390739
:102E700079F4109729F41092FA031092F90304C020
:102E800013961C921E921297F092F803E092F703A9
:102E9000CDB7DEB7E6E00C94F515FB01DC0104C00C
:102EA0008D910190801921F441505040C8F7881B42
:102EB000990B0895FB01DC0102C001900D92415075
:102EC0005040D8F70895DC01CB01FC01F999FECF01
:102ED00006C0F2BDE1BDF89A319600B40D924150A2
:102EE0005040B8F70895262FF999FECF1FBA92BD2A
:102EF00081BD20BD0FB6F894FA9AF99A0FBE0196DB
:062F00000895F894FFCFD4
:062F06000000FB032000A7
:00000001FF
