:100000000C94A8000C94C5000C94C5000C94C50079
:100010000C94C5000C94C5000C94C5000C944C10B5
:100020000C94C5000C94C5000C94E90B0C94C5000D
:100030000C94C5000C94C5000C94FE0C0C944A0C56
:100040000C94C5000C94C5000C94C5000C94C5001C
:100050000C94C5000C94C5000C9447050C94C50085
:100060000C94C5000C94C500017D00000000000048
:100070000000000000000000000000000007010177
:100080000D01FF12019A0C0100000100EA0100F2CB
:100090000100F60155F701550301000401040501B3
:1000A00020060162FF00FF0D0000001A000000346E
:1000B00000000068000000D0000000A00100004027
:1000C00003000080060000000D0000001A00000080
:1000D0003400000068000000D0000000A001000013
:1000E0004003000080060002008000FF0101AB0613
:1000F00002008100FF0101BD060200C200C3010130
:10010000D30682C000FF0304044508820001FF03F8
:1001100002021308028001C0030303D00702004259
:10012000C0C304047607028042C0C3011025080240
:100130000043FFFF02025507028003FF030202F3A0
:10014000060000000000000101020304060A0E0E72
:1001500011241FBECFEFD8E0DEBFCDBF13E0A6E075
:10016000B1E001C01D92AA3EB107E1F711E0A0E0A5
:10017000B1E0E2EFF4E202C005900D92A630B107C3
:10018000D9F70E94680B0C9477120C940000A0E041
:10019000B0E0EDECF0E00C94CD10B82E962EC82F08
:1001A000D0E0CE0101969595879587509E4F0E948D
:1001B0009005E82FB0FC01C0E295EF7084E0E89F65
:1001C000F0011124E955FF4FC590D590E590F490CA
:1001D0008AEE91E00E94900501E010E00B2C02C035
:1001E000000F111F0A94E2F7A02E682E6022CE01A4
:1001F0008E519E4F0E949005882ECE0186529E4FB2
:100200000E949005782E9091F302611056C0892FBC
:1002100090E00B2C02C0959587950A94E2F780FF39
:100220001FC08820E9F091101BC0A82DB0E0A701E5
:1002300096010E94BE10AB01BC01CE01880F991F30
:10024000880F991F8B509D4F0E948A10809119032F
:10025000802B8093190380910601826080930601B0
:100260008091F30290E00B2C02C0959587950A943B
:10027000E2F780FDB5C0772009F4B2C081E09812A2
:10028000AFC0A72DB0E0A70196010E94BE10AB0140
:10029000BC01CE01880F991F880F991F8B509D4F6D
:1002A0000E948A10809119038A29809319038091F2
:1002B000060182608093060193C0811111C0292F2D
:1002C00030E00B2C02C0359527950A94E2F720FD0B
:1002D00058C081E0981255C0902B9093F30236C01D
:1002E000892F90E00B2C02C0959587950A94E2F730
:1002F00080FD1EC081E098121BC0A72DB0E0A701B1
:1003000096010E94BE10AB01BC01CE01880F991F5F
:10031000880F991F8B509D4F0E948A10809119035E
:10032000802B8093190380910601826080930601DF
:100330008091F30290E00B2C02C0959587950A946A
:10034000E2F780FF1EC081E098121BC0A82DB0E02C
:10035000A70196010E94BE10AB01BC01CE01880F1F
:10036000991F880F991F8B509D4F0E948A10809172
:1003700019038A2980931903809106018260809372
:1003800006018091F30290E00B2C02C095958795B1
:100390000A94E2F780FF24C0911022C08BEE91E016
:1003A0000E94900590E00B2C02C0959587950A94C9
:1003B000E2F780FD15C020911903822F90E00B2CED
:1003C00002C0959587950A94E2F780FF09C00095D1
:1003D0002023209319038091F30280238093F3025A
:1003E000CDB7DEB7EEE00C94E910CF93C82F60953F
:1003F000682399F047E250E060E070E085E193E027
:100400000E948A1080910601846080930601809189
:1004100080008F73809380002998C0FF02C0409AAB
:1004200001C04098C1FF02C0419A01C04198C2FF7B
:1004300002C0429A01C04298C3FF02C0439A01C061
:100440004398C4FF02C0449A01C04498C5FF02C04B
:10045000459A01C04598C6FF02C05E9A01C05E98E9
:10046000C7FF02C05F9A01C05F988091F30280933A
:10047000F402CF910895EF92FF920F931F93CF93C1
:10048000DF9380E091E00E9490059091F30289173C
:10049000F1F086EF91E00E94B10520E030E0AC0180
:1004A000022E02C0569547950A94E2F743705527ED
:1004B000452B41F443EF52E061E080E091E00E947F
:1004C000C40505C02E5F3F4F2031310541F7009133
:1004D000F302D091F402D02769F482EF91E00E94F8
:1004E00090056091F40268279091F30289270E9499
:1004F000F5011EC083EF91E00E949005F82E1CE0EC
:10050000C1E0E02EE0948C2F8D2369F08C2F8F2199
:1005100011F09E2D01C0902F9C2361E009F460E052
:10052000812F0E94F60ACC0F1F5F143161F7D5CFDF
:10053000CDB7DEB7E6E00C94F110A4E0B0E0E3EA5A
:10054000F2E00C94CA10382E7C836B83FB0180810F
:1005500020911A0330911B03882359F081E090E029
:10056000032C02C0880F991F0A94E2F7822B932B69
:100570000CC081E090E0032C02C0880F991F0A9400
:10058000E2F7809590958223932390931B038093A9
:100590001A03F7E0F31580F5832D90E00897959501
:1005A000879588529E4F0E94900590E0032D017020
:1005B00010E0000F111F000F111F002E02C09595B3
:1005C00087950A94E2F78F709927882309F400C170
:1005D000893008F0FDC0382E3A94019720911A0313
:1005E00030911B0302C0369527958A95E2F721705A
:1005F0003327EB81FC81208300E010E0A32CB12C99
:1006000095012F5F3F4F3A832983C02EC694D12C8A
:10061000C60188529E4F0E949005EE24E394F12C6F
:10062000E022F122EE0CFF1CEE0CFF1C90E00E2CE1
:1006300002C0959587950A94E2F78F7099272981D2
:100640003A818217930709F0BDC0802E8DEE91E0AC
:100650000E9490053801660C771C90E0062C02C0C1
:10066000959587950A94E2F7837040901A0350900D
:100670001B03811126C0C201002E02C096958795EA
:100680000A94E2F7FF24F394F9228EEE91E00E949F
:10069000900590E0062C02C0959587950A94E2F7A4
:1006A0008370813029F4EB81FC8180818F2907C020
:1006B000823009F087C0EB81FC8180818F218083AB
:1006C00081C0813009F07EC021E030E0002E02C000
:1006D000220F331F0A94E2F74901722E81EF91E055
:1006E0000E949005452C5524482648205920809189
:1006F0001C034114510409F446C0982D982309F0B5
:1007000067C0882980931C03C60181519E4F0E94B7
:10071000900590E00E2C02C0959587950A94E2F71B
:1007200083709927EB81FC818083882309F450C072
:10073000813089F481E090E00A2C01C0880F0A948E
:10074000EAF780959091F30289238093F30260E0A9
:10075000832D0E94F60AEB81FC818081823081F436
:1007600081E090E00A2C01C0880F0A94EAF790918A
:10077000F302982B9093F30261E0832D0E94F60A16
:100780000E943B0225C07822E9F080948822809262
:100790001C03C60181519E4F0E94900590E0F2E03B
:1007A000EF0EF11C0E2C02C0959587950A94E2F786
:1007B00083709927EB81FC818083892B49F03197E5
:1007C000FC83EB830F5F1F4F0430110509F01DCF31
:1007D0002496E1E10C94E610A1E0B0E0E2EFF3E052
:1007E0000C94D41000E010E0D12CEE24E394F12C12
:1007F000802F0E94070B8823D1F160E0802F0E9498
:100800000A0BD02EF801ED5DFC4F84818983BE0177
:100810006F5F7F4F802F0E949D0287E0801720F03E
:100820006981802F0E94C7008091190390E00D2CF0
:1008300002C0959587950A94E2F780FD16C08981DC
:100840002091F302813041F4C7010D2C01C0880FC3
:100850000A94EAF7822B07C0C70101C0880FDA9417
:10086000EAF7809582238093F302DD24D3940F5F0F
:100870001F4F0C30110509F0BBCF8091060182FF9C
:100880001BC085E193E00E94A5108823A9F0809108
:10089000810081608093810080918000816C8093D1
:1008A000800084E590E09093890080938800809197
:1008B00006018B7F809306018091060181FF49C06C
:1008C00000E010E0EE24E394F12C8091190390E015
:1008D000002E02C0959587950A94E2F780FF2BC001
:1008E000C801880F991F880F991F8B509D4F0E9438
:1008F000A510882301F1C701002E01C0880F0A94BA
:10090000EAF7982F90952091190392239093190359
:100910006091F30268276093F30270E0002E02C03A
:10092000759567950A94E2F761707727802F0E948A
:10093000C700DD24D3940F5F1F4F0830110529F63F
:1009400080911903811105C0809106018D7F8093EC
:100950000601D1100E943B022196E7E00C94F010B2
:10096000A1E0B0E0E6EBF4E00C94D310389A399AA9
:100970003A9A3B9A3C9A3D9A569A579A219A80EC19
:1009800091E00E949005803651F488E68983AE019B
:100990004F5F5F4F61E080EC91E00E94C40580E012
:1009A00091E00E9490058093F30286EF91E00E940F
:1009B000B1056C0100E010E0EE24E394F12C802FEF
:1009C000402F9801220F331FB60102C0769567951C
:1009D0002A95E2F79B012370213069F49701002EDC
:1009E00001C0220F0A94EAF720959091F30229237F
:1009F0002093F3020DC0223059F49701002E01C05C
:100A0000220F0A94EAF79091F302922B9093F3024B
:100A10006091F30270E002C0759567954A95E2F720
:100A2000617077270E94F60A0F5F1F4F083011058B
:100A300031F61092060182EF91E00E9490059091AC
:100A4000F302692F60956093F402682789270E945A
:100A5000F50181E02196E8E00C94EF10CF93DF934D
:100A6000C0910701D0910801209771F08A818230EE
:100A700059F082E08A8369858E819F810E94691284
:100A800088858F5F8887FB9ADF91CF9108951F92A9
:100A90000F920FB60F9211242F933F934F935F93B2
:100AA0006F937F938F939F93AF93BF93CF93DF9376
:100AB000EF93FF93C0910701D091080188859D8134
:100AC00098130CC087E091E00E941F1080910701ED
:100AD00090910801892B89F4FB980FC090E0FE01EA
:100AE000E80FF91F2E813F816185820F931F0E94BD
:100AF000691288858F5F8887FB9AFF91EF91DF915C
:100B0000CF91BF91AF919F918F917F916F915F91A5
:100B10004F913F912F910F900FBE0F901F901895FE
:100B20008036910519F48091E40308959C013A956B
:100B3000223041E0340748F480911F039091200354
:100B4000FC01E20FF31F8081089580559109803BDD
:100B5000910528F4FC01ED5DFC4F808108958FEF35
:100B600008951F93CF93DF93EC0101960E949005A7
:100B7000182FCE010E94900520E0282B822F912F64
:100B8000DF91CF911F910895A0E0B0E0EAECF5E08D
:100B90000C94D310D62EEA018C011A950F3F110543
:100BA00009F070F5CFB6F8940E94EF0F7C01CC20CD
:100BB0000CF47894F70117830683D5821086970189
:100BC000275F3F4F4D2D50E06C2F7D2F822F932FAD
:100BD0000E94501280911F0390912003080F191F4B
:100BE0004D2D50E06C2F7D2F802F912F0E945012A1
:100BF0004EE255E0B70187E091E00E9400101CC072
:100C00008036910521F488818093E40315C08055D6
:100C10009109803B910580F4662371F0FA01DC01B3
:100C2000AD5DBC4FDA94CA018D0D911D01962191E5
:100C30002D93E817F907D9F7CDB7DEB7E8E00C94A4
:100C4000EF102091070130910801232B29F02FB3D9
:100C500021FB882780F9089580E090E00895EF92C5
:100C6000FF920F931F93CF93DF938C01C0E0D0E0EE
:100C7000B8016C0F7D1FFB01259134917901FB01B7
:100C800032966491C9019A958F3F910509F010F44D
:100C90000E9469128FEFE816F10429F02396C235FD
:100CA00085E0D80729F7409121035091220360E0A5
:100CB00070E080911F03909120030E945912CDB7DC
:100CC000DEB7E6E00C94F110AB01FD9AFC9870934E
:100CD0002203609321039093200380931F0360E01D
:100CE00070E00E9459120895E82FF0E0EF5BFE4F8C
:100CF00084910895E82FE695E695E695F0E0EC52AC
:100D0000FC4F208130E08770A90102C055954795BE
:100D10008A95E2F7CA0181700895E82FE695E69575
:100D2000E695F0E0877041E050E0082E02C0440FE5
:100D3000551F0A94E2F74095EC52FC4F90814923ED
:100D4000262F217030E002C0220F331F8A95E2F770
:100D5000242B2083089520910D0121110CC021E046
:100D600020930D01FC01368130930E018781809321
:100D70000F012093100180E0089530910E01FC01D5
:100D8000268132130EC020910F018781281309C0DC
:100D900080910D01882329F010920D0181E080934C
:100DA000100180E0089580E00895482FE09113013C
:100DB000F091140130813F3F91F0332391F032964E
:100DC00090E0DF0111978C918E3F19F0208124175C
:100DD00049F09F5F32969313F4CF80E0089580E04E
:100DE000089580E008950E9421068111FCCF0E94A1
:100DF000B90B80E00895EF92FF920F931F93CF936A
:100E0000DF938C01F62EEFB6F8940E94EF0FEC0101
:100E1000EE200CF47894209771F183E08E8F80EBB4
:100E20008D83E0910B01F0910C0181818E83828191
:100E30008F838EE091E00E94900580779F2D9150E6
:100E4000892B8A8780E48C870115110531F0F80120
:100E5000808188878181898702C018861986888564
:100E6000811106C08985811103C08A8580688A87BF
:100E70008F2D8A5F8C838C2F9D2FCDB7DEB7E6E058
:100E80000C94F110CF93DF93EC0161E006960E9481
:100E9000FB06009739F02B852C732E53FC0123871A
:100EA0000E94800CDF91CF9108950F931F93CF93F1
:100EB000DF938C0164E006960E94FB06EC0100972C
:100EC00079F0C8010E9442078CEB8D8383E48B8705
:100ED0001D8682E18E87CE010E94800C8CEC01C0C1
:100EE00080E0DF91CF911F910F910895A0E0B0E0D5
:100EF000ECE7F7E00C94D310EC018C850F2EFFE0AB
:100F0000EF2EF02DE8221D8500E08E85080F111DC3
:100F10006E2D6C5FCE0106960E94FB066C01009759
:100F2000C9F1CE010E9442078CEBF60185838091C6
:100F3000100190E0880F991F880F991F82648387A2
:100F400084858E2984878D8585878E858687EE208A
:100F5000B1F0E6012F96EA94F12CF0E1EF0EF11CCE
:100F6000EC0CFD1C0F5011090C191D09C8018C0F48
:100F70009D1F0E9490058993CE15DF05B9F7C60124
:100F80000E94800CE0E1F1E080818F5F8F708083B0
:100F90008CEC01C080E0CDB7DEB7E8E00C94EF1038
:100FA000A1E0B0E0E6EDF7E00C94D5108C01FC0177
:100FB00084858770898365E0C80106960E94FB06D8
:100FC0007C01009759F1C8010E94420780911001ED
:100FD00090E0880F991F880F991F8164F70183871C
:100FE0008981806C8487F8018585F7018587F9817F
:100FF000F13031F485E0F701868785EC878703C0FF
:10100000F70116861786C7010E94800CE0E1F1E027
:1010100080818F5F8F7080838CEC01C080E021968F
:10102000E6E00C94F1108091E40380FF0CC062E0D4
:1010300080E090E00E94FB062CEBFC01258321E080
:1010400023870E94800C8CEC0895CF93DF93EC01F2
:101050006C859D8580E02E85820F911D811520E88D
:10106000920731F48091E40380648093E40306C026
:10107000AE01415F5F4F6F700E94C405CE010E94B8
:1010800042078CECDF91CF9108952091E40320FF7B
:1010900008C0AC01435F5F4F62E087E191E00E94CE
:1010A000C40580E00895A1E0B0E0E9E5F8E00C9423
:1010B000D9106983AE014F5F5F4F61E00E94C405A4
:1010C0002196E2E00C94F510A0E0B0E0EAE6F8E04A
:1010D0000C94D210EC01B62EC0901501D0901601E0
:1010E000042F10E07801EE0CFF1CE00EF11EEC0C5A
:1010F000FD1CF70184810E947406482FF70182814C
:1011000090E00F5F1F4F9801220F331F020F131F34
:10111000F601E00FF11F208125FD9395B41213C055
:10112000B11006C068816F730E94530881E00CC043
:1011300069918C010F5F1F4F0E945308BA94C80138
:10114000B9F781E001C080E0CDB7DEB7E9E00C94EB
:10115000EE10CF93C62FFC0162856F70615011F4C1
:101160000C9601C00D964C2F0E94640861E08C2FF4
:101170000E948D06CF910895A0E0B0E0E2ECF8E087
:101180000C94CE10C82ED62E842E009115011091ED
:101190001601E82EF12CE701CC0FDD1FCE0DDF1D6F
:1011A000C00FD11F8C810E947406982E97012F5F6B
:1011B0003F4FC901880F991F280F391FF801E20F0F
:1011C000F31F80810F2EF3E07F2EF02D7822AA806E
:1011D000B12C692D6E5F8D2D90E0880F991F0196BF
:1011E00020910B0130910C01820F931F0E94FB068E
:1011F0008C01009709F471C0772019F082E0781211
:1012000004C0F801838182608383F8018486770CAF
:10121000770C8581782A758282858068828713861B
:10122000911008C0C5010E9490058F73882AF801AB
:1012300084860DC0C8010D96EC01A81AB90ACE012A
:101240008A0D9B1D0E94900589939A94C1F7E091A5
:101250001301F0911401B080FFEFBF1619F1BB200C
:1012600009F1C0E0D0E02091130130911401AE01EA
:10127000FE01EE0FFF1FE20FF31F81818E3F79F019
:10128000D8120DC04F5F5F4F440F551FF901E40F97
:10129000F51F60816C1519F0C8010E94A9082196FC
:1012A000CB1508F3E0911501F09116018FEFE81AC4
:1012B000F80AC701880F991FE80EF91EEE0DFF1DF1
:1012C000808186FF05C0C8010E94800C81E006C0B5
:1012D000C8010E94A71181E001C080E0CDB7DEB750
:1012E000EDE00C94EA10CF93DF93C82FD62F0E9425
:1012F000D506882331F04D2F682F8C2F0E94BC0813
:1013000001C08CE0DF91CF910895DC01E0910B01E9
:10131000F0910C0115968C91159788236CF013961B
:101320009C9113978181981334C014969C9182816B
:10133000981789F180E0089513962C911397211145
:1013400005C014968C911497882339F130813F3F62
:1013500031F13396332329F181E03F5F90812913E6
:1013600010C014964C9114979181491307C06115D0
:101370007105C9F0FB01808380E40895491718F4D2
:1013800014C02917A0F032968F5F3813E7CF80E0A2
:10139000089580E0089582E0089580E8089580E04F
:1013A000089580E0089580E4089580E0089580E045
:1013B0000895FC012481223048F040E050E0BC0157
:1013C00089E091E00E94001081E008950E94A71139
:1013D00080E00895AF92BF92DF92EF92FF920F9359
:1013E0001F93CF93DF931F92CDB7DEB78091090192
:1013F00090910A01892B09F4E1C089E091E00E94F3
:1014000037108C01DC0115968C91159785FD16C05F
:10141000E0911101F0911201448114968C914813CE
:101420000DC0B8016B5F7F4F50E0CF0105960E9461
:101430004312282F392F232B09F4BDC0E09011014E
:10144000F0901201F8018481D70114968C93580111
:10145000B5E0AB0EB11C97012B5F3F4F448150E0CC
:101460006A2D7B2D822F932F0E945012F7018581C8
:101470008F7D8583D8011A968C911A978F70D82EFC
:10148000D3941B96FC901B97E12C1C968C91E82A18
:10149000BE016F5F7F4FC5010E94850986FF60C056
:1014A000D980E0911301F0911401B080BFEFBB1619
:1014B00009F481C08091E40385FF7DC0BB2009F45D
:1014C0007AC0E12CF12C80911301909114019701C5
:1014D000F701EE0FFF1FE80FF91F41814E3FC9F1E1
:1014E000D41237C02F5F3F4F220F331FFC01E20F92
:1014F000F31F8081E0911501F0911601282F30E053
:101500002F5F3F4FA901440F551F240F351FE20FD6
:10151000F31F9081F801248592FF1BC0207C992342
:101520003CF4203429F4682FC8010E94A90811C096
:1015300094FF07C0203829F4682FC8010E94A90829
:1015400008C093FF06C0211104C040E46D2D0E9425
:10155000BC08FFEFEF1AFF0AEB1408F4B4CF2BC05E
:1015600027EE30E0F9019491319645915491F901BB
:10157000339665917491F9013596A491F9013696E7
:10158000E491982391F06E217F214617570769F463
:10159000DA1658F0ED1548F0295F3F4FF901259113
:1015A0003491C801F901099506C0275F3F4FF1E06A
:1015B00021343F07B9F6C8010E94A7110F90DF91AF
:1015C000CF911F910F91FF90EF90DF90BF90AF9060
:1015D0000895CF93C82FCB01642F4C2F0E9464082D
:1015E00060E88C2F0E947309CF910895A1E0B0E0CC
:1015F000ECEFFAE00C94D910698340E0BE016F5F14
:101600007F4F0E94E90A2196E2E00C94F5100E94B7
:101610007A0608950E948D060895CF9314BE88E13E
:101620000FB6F89480936000109260000FBE0E9485
:101630004B1066EC71E08DE291E00E9464060E941E
:10164000890C0E947110CFB7F8940E94EF0FCC2341
:101650000CF478949093120180931101009711F08B
:10166000FC011482789485E091E00E9490058F3F00
:1016700071F486E091E00E9490058F3F41F4E9E625
:10168000F0E025913491822F932F0E942F068091B4
:101690003F0190E0835D9E4F90931601809315016A
:1016A00080913E0190E0835D9E4F90931401809362
:1016B000130183E491E090930C0180930B018091DE
:1016C000E4038E638093E4030E94B004CF910895F5
:1016D0000E940D0B0E94EA09A8950E94770B809149
:1016E000E40385FD0E94EC030E94E80BF3CF809198
:1016F00017018F5F883020F48093170180E00895F0
:101700001092170154985C9A8AE000008150E9F722
:101710004C9B12C08091E40380FF03C0549A5C98F4
:1017200002C0549A5C9A809118018823E1F081509C
:101730008093180180E00895809118018F3FA9F0EF
:101740008F5F80931801883C91F48091E40380FDC1
:1017500005C081608093E40381E008958E7F8093CB
:10176000E40381E0089580E0089580E0089580E03A
:101770000895F89428E088E190E00FB6F894A895D1
:10178000809360000FBE20936000FFCF80911C010A
:1017900082FF0BC081E080931D0187E686BD86E055
:1017A00085BB80936E0082E085BD089580912701FE
:1017B00090912801009731F00E94A7111092280102
:1017C0001092270180911C018F7380931C01089552
:1017D00008951F920F920FB60F9211248F939F932B
:1017E000189951C08091E50380FF1FC090911B01A3
:1017F000911149C082FF19C084B5806284BD84B54F
:101800008F7E84BD85B5806485BD85B58F7B85BDA4
:1018100081E080931D0182E08093E50394E396BD0F
:1018200096E095BB90936E0085BD80911E019091CE
:101830001F010097A9F48FEF97EF90931F018093FA
:101840001E018091E50380FD08C084E386BD86E02B
:1018500085BB80936E0082E085BD1092200107C099
:10186000189905C0977F90931F0180931E01809166
:101870001C018B7F80931C01109221018091E50354
:1018800082608093E5039F918F910F900FBE0F9020
:101890001F9018951F920F920FB60F9211242F933D
:1018A0008F939F93EF93FF932091E50320FF1EC03A
:1018B0008091220190912301969587959093230121
:1018C0008093220180FD0FC018BC84B5806384BD65
:1018D000EEE6F0E080818B7F80838091E5038B7F53
:1018E0008093E50303C024602093E503FF91EF910B
:1018F0009F918F912F910F900FBE0F901F90189571
:1019000046EC5BE0BC0184E291E00E94001080E0C4
:10191000089554985C9A2098289A559A5D9892E078
:1019200094BD88E687BD84B5806284BD84B58F7E12
:1019300084BD85B5806485BD85B58F7B85BD80E21E
:1019400086BBEFE6F0E0808180628083E1E8F0E032
:10195000808180688083109223011092220110926E
:101960001F0110921E0184E080931C019093E503F7
:10197000809321011092E4030895F8940C940038A8
:1019800008958091E40386FD0E94BD0CE09124013E
:10199000F0912501309739F0838181FF04C081E304
:1019A0008093200103C084E38093200184E080932E
:1019B00021010895E0912401F0912501868D982F51
:1019C0009150968F882369F085818F7D858381E092
:1019D00080931D0181E38093200184E080932101A5
:1019E000089584E080931D0184E291E00E941F101D
:1019F00081E080931D010E94C10C08951F920F92F7
:101A00000FB60F9211242F933F934F935F936F93D1
:101A10007F938F939F93AF93BF93CF93DF93EF9376
:101A2000FF93C091E50385B58E7F85BDC1FFDFC102
:101A300080912001882321F0815080932001D7C11B
:101A400080912101823009F4F8C030F4882359F0E4
:101A5000813009F0CCC161C0833009F43CC18430CD
:101A600009F0C5C13BC180911E0190911F01AC01DD
:101A7000569547959A01306880FD4AC044275670B4
:101A80004115564031F080911C01806880931C0103
:101A900037C0D22F822F082E82958025082E86955A
:101AA0008695802590E0019681FB662760F970E0BD
:101AB000232F3327217033276217730731F080916A
:101AC0001C01806480931C011BC0E0912701F091F0
:101AD0002801309749F40E94EF0FFC0190932801F0
:101AE00080932701009761F08481DF01A80FB11D69
:101AF0001596DC938F5F8A3110F4848301C01482C1
:101B000082E08093200181E08093210120E030E099
:101B100030931F0120931E016AC18091270190918B
:101B20002801892B71F480911D01833021F080916F
:101B30001D01823019F40E94DA0C79C00E94C10C98
:101B400076C085B5816085BD83E08093200182E009
:101B50008093210180911C01807C41F080911C01C7
:101B600080911C018CE080931B0155C0A09127013E
:101B7000B091280114963C9114973130C9F48091AA
:101B80001D01833009F047C015968C918C3C69F497
:101B900084E080931D0184E291E00E941F1081E0A7
:101BA00080931D010E94C10C36C00E94DA0C33C024
:101BB0003230A0F0315051F0FD01359690E080E0D8
:101BC000219192278F5F3813FBCF01C090E0909551
:101BD000FD01E30FF11D8581981721F08CE08093C2
:101BE0001B0119C014963C93149760E070E0CD017E
:101BF00005960E948509882371F08CEC80931B0167
:101C000080912701909128010E94D9091092280102
:101C1000109227010CC08091270190912801009714
:101C200031F00E94A7111092280110922701809193
:101C30001C018F7380931C01DAC080911B018823E3
:101C400009F446C080911B01282F30E0220F331F7A
:101C5000082E82958025082E86958695802590E011
:101C6000019681FD06C03C6130932301209322013F
:101C700005C03E61309323012093220118BC84B536
:101C8000806384BDEEE6F0E080818B7F808384E01A
:101C900085BB8081846080838091E5038B7F809306
:101CA000E50380E286BBAFE6B0E08C9180628C9366
:101CB000A1E8B0E08C9180688C9381E08093E5038B
:101CC00082E286BD86E085BB808382E085BD8FC0D1
:101CD0000E94C10C8CC00E94DA0C89C08091240142
:101CE00090912501009709F47AC020911D012230BE
:101CF00009F47DC020911C012B7F20931C0122E060
:101D000020931D0110921A011092190121E02093D5
:101D1000260120911A0130911901FC01E20FF11DF9
:101D2000258123272093190130911A01FC01E30F2B
:101D3000F11D25813F5F30931A01822F90E0880FBB
:101D4000991F022E22952025022E269526952025C4
:101D500030E02F5F3F4F21FD06C09C61909323012F
:101D60008093220105C09E619093230180932201FC
:101D700018BC84B5806384BDEEE6F0E080818B7F83
:101D8000808384E085BB8081846080838091E503CB
:101D90008B7F8093E50380911A01E0912401F091FB
:101DA00025019481891718F082E08093260180E252
:101DB00086BBEFE6F0E0808180628083E1E8F0E0BE
:101DC00080818068808381E08093E50382E286BD24
:101DD00086E085BB80936E0082E085BD08C015BC9F
:101DE00010926E0080911C01846080931C01C0FFE2
:101DF000E3C088B581110FC082E288BD84B58062DE
:101E000084BD84B58F7E84BD84E085BBEEE6F0E0C2
:101E100080818460808380912201909123010197C9
:101E200009F0CAC0EEE6F0E080818B7F808380916C
:101E30001B01882371F00E94D60B10921B01109297
:101E40001F0110921E0182E08093E5030E94C10CE5
:101E5000B3C08091240190912501009709F4ACC092
:101E600020912601223009F45CC020F4213009F0D1
:101E7000A3C007C0233009F489C0243009F09CC0F6
:101E800099C020911A0130911901FC01E20FF11D56
:101E9000258123272093190130911A01FC01E30FBA
:101EA000F11D25813F5F30931A01822F90E0880F4A
:101EB000991F022E22952025022E26952695202553
:101EC00030E02F5F3F4F21FD06C09C6190932301BE
:101ED0008093220105C09E6190932301809322018B
:101EE00018BC84B5806384BDEEE6F0E080818B7F12
:101EF000808384E085BB8081846080838091E5035A
:101F00008B7F8093E50380911A01E0912401F09189
:101F100025019481891708F44FC082E0809326013F
:101F20004BC0209119012095822F90E0880F991FB6
:101F3000022E22952025022E26952695202530E07A
:101F40002F5F3F4F21FD06C09C619093230180933A
:101F5000220105C09E61909323018093220118BC49
:101F600084B5806384BDEEE6F0E080818B7F808362
:101F700084E085BB8081846080838091E5038B7FD2
:101F80008093E50383E08093260116C00E94D60B60
:101F900083E080931D01109226018093210182E04D
:101FA0008093E5038EE08093200110921F01109230
:101FB0001E0102C00E94DA0CFF91EF91DF91CF91D8
:101FC000BF91AF919F918F917F916F915F914F9151
:101FD0003F912F910F900FBE0F901F9018958FE19A
:101FE00090E00E940C11E82FF92F309731F081E03A
:101FF000828383831482118210828E2F9F2F0895F3
:10200000CF93CFB7F894FC01A081B181109711F460
:1020100009C0DC018D919C9111970097D1F76D93C8
:102020007C9308C0FC01718360834115510511F058
:10203000FA010995CC230CF47894CF910895CF93AD
:10204000CFB7F894DC01ED91FC911197208131819B
:10205000309741F02D933C93838180FF03C0CF01E3
:102060000E94A711CC230CF47894CF9108954FB718
:10207000F894DC01ED91FC9111972081318130972A
:1020800021F02D933C931182108244230CF4789418
:102090008E2F9F2F089508951F920F920FB60F92C3
:1020A00011248F939F93AF93BF93809129019091B7
:1020B0002A01A0912B01B0912C010196A11DB11D07
:1020C0008093290190932A01A0932B01B0932C01B6
:1020D000BF91AF919F918F910F900FBE0F901F9066
:1020E00018951092290110922A0110922B0110923A
:1020F0002C0182E08093B00087E08093B1001092C1
:10210000B2008DE48093B300E0E7F0E0808182606C
:10211000808308950F931F93EFB7F89400912901DE
:1021200010912A0120912B0130912C01EE230CF407
:102130007894040F151F261F371FFC01008311839D
:10214000228333831F910F9108954091290150916B
:102150002A0160912B0170912C01FC0180819181F9
:10216000A281B381481B590B6A0B7B0B81E01416CB
:102170001506160617060CF080E008950E9400115F
:10218000A59F900DB49F900DA49F800D911D1124CB
:1021900008952F923F924F925F926F927F928F920B
:1021A0009F92AF92BF92CF92DF92EF92FF920F93E6
:1021B0001F93CF93DF93CDB7DEB7CA1BDB0B0FB6F0
:1021C000F894DEBF0FBECDBF09942A8839884888AD
:1021D0005F846E847D848C849B84AA84B984C88443
:1021E000DF80EE80FD800C811B81AA81B981CE0F3A
:1021F000D11D0FB6F894DEBF0FBECDBFED0108951F
:10220000A29FB001B39FC001A39F01D0B29F700DE8
:10221000811D1124911D08950F931F93CF93DF9378
:102220008230910510F482E090E0E091E803F091B3
:10223000E90320E030E0C0E0D0E023C040815181DC
:1022400048175907A8F04817590761F4828193810C
:10225000209719F09B838A832EC09093E903809383
:10226000E80329C02115310529F04217530710F062
:10227000A90102C0BE01DF0102811381EF019A01B1
:10228000F8013097D9F62115310509F1281B390BD2
:102290002430310590F412968D919C91139761151D
:1022A000710521F0FB019383828304C09093E903BD
:1022B0008093E803FD01329644C0FD01E20FF31F55
:1022C00081939193225031092D933C933AC02091F0
:1022D000E6033091E703232B41F420910201309172
:1022E00003013093E7032093E6032091000130912E
:1022F00001012115310541F42DB73EB7409104018C
:1023000050910501241B350BE091E603F091E703A2
:10231000E217F307A0F42E1B3F0B2817390778F0BC
:10232000AC014E5F5F4F2417350748F04E0F5F1F1B
:102330005093E7034093E6038193919302C0E0E05A
:10234000F0E0CF01DF91CF911F910F910895EF92AF
:10235000FF920F931F93CF93DF93009709F48EC0E2
:10236000DC01129713961C921E921297E090E803DC
:10237000F090E903E114F10489F42D913C91119757
:10238000280F391F8091E6039091E7038217930786
:1023900089F5B093E703A093E60370C0E70120E05E
:1023A00030E001C0EA01CA17DB0738F44A815B81DB
:1023B0009E0141155105B1F722C0AC0142505109AF
:1023C000FA01D383C28300811181BC01600F711FA8
:1023D0006C177D0761F468817981600F711F6E5FF2
:1023E0007F4F718360836A817B8173836283211550
:1023F000310529F4B093E903A093E8033FC0F90144
:10240000B383A283E90149915991C40FD51FAC1739
:10241000BD0771F4DC019E918E91840F951F029689
:102420009183808312968D919C91139793838283DD
:10243000A0E0B0E002C0D7017C01F7018281938166
:102440000097C9F7C701029620813181820F931F3F
:102450002091E6033091E7032817390779F41097A4
:1024600029F41092E9031092E80304C013961C9219
:102470001E921297F092E703E092E603CDB7DEB723
:10248000E6E00C94F110FB01DC0104C08D91019099
:10249000801921F441505040C8F7881B990B0895CA
:1024A000FB01DC0102C001900D9241505040D8F771
:1024B0000895DC01CB01FC01F999FECF06C0F2BD05
:1024C000E1BDF89A319600B40D9241505040B8F7F2
:1024D0000895262FF999FECF1FBA92BD81BD20BD68
:1024E0000FB6F894FA9AF99A0FBE01960895F894E7
:0224F000FFCF1C
:0624F2000000EA032000D7
:00000001FF
