:100000000C9479000C9496000C9496000C94960035
:100010000C9496000C9496000C9496000C94960008
:100020000C9496000C9496000C940C0B0C94960077
:100030000C9498000C9496000C94700C0C946F0B1C
:100040000C9496000C9496000C9496000C949600D8
:100050000C9496000C9496000C949B050C949600BE
:100060000C9496000C94960004010405017006019E
:10007000540701020D01FF1201840C010017011148
:10008000180134FF00FF408000C003000E17094034
:100090000000FF030010FE082000000000010163C3
:1000A000061000000000010149060200C200C30161
:1000B00001440682C000FF0304048C07820001FF94
:1000C0000302024207028001C0030303F00602009C
:1000D00042C0C30404B607028042C0C301106907CE
:1000E000020043FFFF0202C206028003FF03020276
:1000F0003C0611241FBECFEFD8E0DEBFCDBF12E01B
:10010000A6E0B1E001C01D92A43AB107E1F711E009
:10011000A0E0B1E0EAEFFFE102C005900D92A63049
:10012000B107D9F70E945E040C94FB0F0C940000F9
:100130001F920F920FB60F9211240F900FBE0F90C7
:100140001F9018958CEC08958CEC08950F931F93D5
:1001500096B126B146B166B1E6B1A6B109B189B191
:1001600080789170892B269530E021703070220FB5
:10017000331F822B4695469550E041705070440FD6
:10018000551F440F551F842B66956695669570E044
:100190006170707043E0660F771F4A95E1F7862B18
:1001A000E295EF70F0E0E170F07034E0EE0FFF1FC9
:1001B0003A95E1F78E2BA295A695A770B0E0A170B5
:1001C000B07025E0AA0FBB1F2A95E1F78A2B029594
:1001D00006950695037010E00170107096E0000F10
:1001E000111F9A95E1F7802B1F910F91089583308D
:1001F000D1F0843028F4813081F0823088F40AC054
:100200008530D1F08530A8F08630C9F08730E9F02C
:1002100080E008958EEC91E014C08EEC91E005C072
:100220008FEC91E00EC08FEC91E00E94A1048295CA
:100230000AC080ED91E005C080ED91E0F6CF81ED40
:1002400091E00E94A1048F70089581ED91E00E94D9
:10025000A10482958F7008950F931F931092080147
:10026000EFE4F2E010821182329682E0EF35F80777
:10027000C9F784ED91E00E94A104082F8EEF91E070
:100280000E94A10410E082958F7002C0000F111F20
:100290008A95E2F700930C0110920A01109209016D
:1002A00010920B01389839983A983B983C983D98B1
:1002B00056985798219882E08093800081E080933F
:1002C00081001F910F910895DF92EF92FF920F939B
:1002D0001F93CF93DF93082FD62E142FE82EFF24E1
:1002E000C7018A589F4F880F991F880F991F0E9436
:1002F000A104382FA701440F551FEA01C05BDD4F51
:100300002881822F829586958695837090E0813032
:10031000910509F46BC08230910509F4E3C0892B83
:1003200009F00EC11D21812F90E0002E02C096958C
:1003300087950A94E2F780FF03C133FD02C0802F46
:1003400016C034FF05C02F7D2883802F885F0FC023
:1003500035FF05C020622883802F885F0CC036FFE0
:100360000EC0802F885F25FF04C02F7D288360E0AA
:1003700003C02062288361E040E00E945608C70164
:100380000196959587958A509E4F0E94A10490E012
:10039000E0FE06C034E0969587953A95E1F7019620
:1003A0008C010F701070C701880F991F880F991F5B
:1003B0008A529E4F0E94A104F701EE0FFF1FDF013A
:1003C000A15BBD4F90E09C01209FC001219F900D3B
:1003D000309F900D112401978C939F7011968C91F2
:1003E000E05BFD4F8073892B80647AC0632F33FDFF
:1003F0007BC0FA01E15BFD4F80813181932F9F70BB
:100400000097D1F08150904F9F708083892F8F701B
:10041000307F382B3183212F30E08D2D90E0809577
:10042000909528233923002E02C0369527950A94EB
:10043000E2F720FF85C07EC064FF05C02F7D2883C2
:10044000802F885F0FC065FF05C020622883802F42
:10045000885F0CC066FF0EC0802F885F25FF04C038
:100460002F7D288360E003C02062288361E040E0A4
:100470000E945608C70101969595879586509E4F14
:100480000E94A10490E0E0FE06C014E096958795D6
:100490001A95E1F701968C010F701070C701880F53
:1004A000991F880F991F89529E4F0E94A104F7013E
:1004B000EE0FFF1FDF01A15BBD4F90E09C01209F6D
:1004C000C001219F900D309F900D112401978C93B6
:1004D0009F7011968C91E05BFD4F8073892B806833
:1004E00080832EC033FD2AC0FA01E15BFD4F80817D
:1004F0003181932F9F70009709F18150904F9F7029
:100500008083892F8F70307F382B3183212F30E00B
:100510008D2D90E0809590952823392302C0369543
:100520002795EA94E2F720FF0BC0802F60E040E0BF
:100530000E94560888818F73888302C02F73288396
:10054000DF91CF911F910F91FF90EF90DF90089571
:10055000CF92DF92FF920F931F93CF93DF93F82EEA
:10056000D62E042FC82FD0E0CE01880F991F880FF8
:10057000991F89529E4F0E94A104282F10E00F2C32
:1005800002C0169507950A94E2F700FFCAC08D2DA8
:1005900090E00F2C02C0959587950A94E2F7C22E41
:1005A000DD2480FF4BC0C6018C70907084309105B3
:1005B00061F48F2D61E040E00E945608FE01EE0FCD
:1005C000FF1FE15BFD4F81E028C08830910559F4A1
:1005D0008F2D60E040E00E945608FE01EE0FFF1FE5
:1005E000E15BFD4F11C00C97C9F48E01000F111F84
:1005F000015B1D4FF8018081882341F08F2D60E061
:1006000040E00E945608F801108208C08F2D61E07A
:1006100040E00E94560881E0F8018083C601807C9A
:1006200090708034910509F44AC08038910509F42E
:1006300054C0803C910509F074C05CC0C601837051
:1006400090708130910561F48F2D61E040E00E944F
:100650005608FE01EE0FFF1FE15BFD4F81E028C051
:100660008230910559F48F2D60E040E00E945608D9
:10067000FE01EE0FFF1FE15BFD4F11C00397C9F4B0
:100680008E01000F111F015B1D4FF801808188232F
:1006900041F08F2D60E040E00E945608F801108282
:1006A00008C08F2D61E040E00E94560881E0F8010B
:1006B0008083C601807390708031910559F48F2D2D
:1006C000885F61E040E00E945608CC0FDD1FC15BEF
:1006D000DD4F25C08032910559F48F2D885F60E091
:1006E00040E00E945608CC0FDD1FC15BDD4F10C0FB
:1006F000C097B9F4CC0FDD1FC15BDD4F89819F2D01
:10070000985F882339F0892F60E040E00E94560806
:10071000198207C0892F61E040E00E94560881E0FD
:100720008983DF91CF911F910F91FF90DF90CF9040
:100730000895DF92EF92FF920F931F93CF93DF9371
:100740008DE091E00E94A1048F3F09F0AFC080913D
:100750000C01882309F460C0815080930C01882328
:1007600009F0A4C00E94A60080930801C0E0D0E078
:1007700045EDE42E41E0F42E08E0C7010E94A104FB
:10078000182F107C8C2F0E94F700813019F08330D5
:10079000C9F52CC0103431F48C2F61E040E00E9488
:1007A000560826C0103831F48C2F60E040E00E94DB
:1007B000560823C0103C31F56091080170E00C2E02
:1007C00002C0759567950A94E2F761708C2F40E03E
:1007D0000E9456086091080170E00C2E02C07595C9
:1007E00067950A94E2F76170802F09C0103419F4FC
:1007F000802F61E004C0103829F4802F60E040E0D1
:100800000E945608219684E090E0E80EF91E0F5FE2
:10081000003109F0B2CF4AC08091090190910A01DC
:100820002FEF8F3F920751F410920A0110920901A5
:1008300080910B018F5F80930B0105C0019690930F
:100840000A0180930901009108010E94A600F82E78
:10085000F02689F082ED91E00E94A10490E028EE5C
:1008600033E004C0F9013197F1F79F5F9817D0F397
:100870000E94A600082F10E0812F0E94F70081300F
:1008800019F0833061F406C0812F602F4F2D0E9434
:10089000A80205C0812F602F4F2D0E9464011F5FA9
:1008A000183051F7FF2011F000930801DF91CF912C
:1008B0001F910F91FF90EF90DF900895CF93DF93FA
:1008C00014BE88E10FB6F894809360001092600027
:1008D0000FBE0E94A70E87E291E068E271E00E94DD
:1008E000D4040E94030C789488E690E00E943009BA
:1008F0000E942C012CE088E190E00FB6F894A895B6
:10090000809360000FBE20936000C0E1D4E0A89502
:100910000E94710A0E94A009B09BF9CFB09A809101
:1009200006019091070101979093070180930601BA
:10093000019669F7D0930701C09306010E949903BD
:10094000E6CF8036910519F480919E0208959C01AE
:100950002050314041E02230340740F4E0915F0202
:10096000F0916002E20FF31F80810895FC01EE5CBC
:10097000F040E331F10510F08FEF0895ED59FD4F90
:100980008081089580910D0190910E01892B19F4B9
:1009900080E090E008958FB38695817008958091EE
:1009A0005F02909160020895AB01FD9AFC987093EC
:1009B0006202609361029093600280935F0260E044
:1009C00070E00E94DD0F0895EF92FF920F931F9346
:1009D000CF93DF937C01C0E0D0E097012C0F3D1F47
:1009E000F901059114912E5F3F4FF9016491C801FF
:1009F000805091408F3F910509F010F40E94ED0F57
:100A00000F3F110529F02396F3E0C837DF0729F7D8
:100A1000409161025091620280915F029091600268
:100A200060E070E00E94DD0FDF91CF911F910F9188
:100A3000FF90EF9008950F931F93E0910D01F091B7
:100A40000E01309799F08281823081F082E08283BA
:100A50008F010B5F1F4FF8018181928164810E9499
:100A6000ED0FF80183818F5F8383FB9A1F910F91B4
:100A70000895CF92DF92EF92FF920F931F93CF933F
:100A8000DF93062FEA01C12C2FEFD22EC80ED91EFC
:100A90002FEFC216D10409F068F51FB7F8940E9431
:100AA000C00E7C0117FF01C07894F7013596D28201
:100AB000C182D70115960C9313829701275F3F4F90
:100AC000C901BE01402F50E00E94D40F20915F0267
:100AD000309160022C0D3D1DC901BE01402F50E038
:100AE0000E94D40F8DE091E0B7014BE155E00E94E8
:100AF000880E18C09C012E5C30402331310560F413
:100B0000D901AD59BD4FFA0102C081918D938E2F4D
:100B10008C1B8017D0F306C08036910519F48881AC
:100B200080939E02DF91CF911F910F91FF90EF90E4
:100B3000DF90CF9008951F920F920FB60F9211245D
:100B40002F933F934F935F936F937F938F939F93D5
:100B5000AF93BF93CF93DF93EF93FF93E0910D019A
:100B6000F0910E01EF0125969B818581891761F433
:100B70008DE091E00E94A80E80910D0190910E01F0
:100B8000892B91F4FB9810C0892F90E029813A813C
:100B9000FE01E80FF91F820F931F64810E94ED0F81
:100BA0008B818F5F8B83FB9AFF91EF91DF91CF91C8
:100BB000BF91AF919F918F917F916F915F914F9175
:100BC0003F912F910F900FBE0F901F9018956F922D
:100BD0007F928F929F92BF92CF92DF92EF92FF927D
:100BE0000F931F93FC01B62EEE24FF24870147EBE1
:100BF000642E4DE1742E41EC842E44E0942E2CC0E2
:100C0000C08038E0D32ED801C7018827B7FD83956F
:100C10009927AA27BB279695982F88279795879578
:100C20002C2D30E020783070B801A701440F551FFB
:100C3000661F771F8217930739F07A018B01E6242C
:100C4000F7240825192502C07A018B01DA9411F0E6
:100C5000CC0CD9CF3196BA94BB2091F6B701C8011C
:100C60001F910F91FF90EF90DF90CF90BF909F90DA
:100C70008F907F906F9008950E94C2048823E1F7BF
:100C80000E94B00A80E008958CEC0E94AD0A80E0DA
:100C90000895FC013596909110018181981771F4A7
:100CA000909111018281981749F480910F01882356
:100CB00029F010920F0181E0809312018CEC0E94C8
:100CC000AD0A80E00895FC0180910F01882361F452
:100CD000359691E090930F0181818093100182817C
:100CE00080931101909312018CEC0E94AD0A80E078
:100CF00008951F93CF93DF93EC01162F0E94C00E2F
:100D0000DC01009709F1FC01359683E05E968C9337
:100D10005E9780EB15968C93159790919C0280912D
:100D20009D0281839283812F8150806F85832097DC
:100D300029F0888183838981848302C0138214828D
:100D40001A5F14961C931497CD01DF91CF911F91D8
:100D50000895CF93DF93EC012596069661E00E94FB
:100D600079069C01009759F0FC01359680E6858351
:100D70008E818C738E538683C9010E94410CDF9152
:100D8000CF910895EF92FF920F931F93CF93DF932C
:100D90007C01069664E00E947906EC01009711F44C
:100DA00080E017C08C010B5F1F4F8CEC0E94AD0AD6
:100DB000C7010E94A90683E6F801858383E4868340
:100DC00080E487831D8682E18E87CE010E94410CDC
:100DD0008CECDF91CF911F910F91FF90EF900895D0
:100DE000CF92DF92EF92FF920F931F93DF93CF93F7
:100DF0000F92CDB7DEB77C01FC010485069665E055
:100E00000E9479066C01009711F480E031C00770F0
:100E100009838C010B5F1F4F8CEC0E94AD0AC70148
:100E20000E94A90684E7F801858380911201880F4A
:100E3000880F816486838981806C8783F70185852B
:100E4000F6018587F981F13031F485E0F601868776
:100E500085EC878703C0F60116861786C6010E94B7
:100E6000410C809112018F5F8F70809312018CEC86
:100E70000F90CF91DF911F910F91FF90EF90DF9036
:100E8000CF900895EF92FF920F931F9380919E024F
:100E900080FF19C080E090E062E00E9479068C013A
:100EA00055E0E52EF12CE80EF91E8CEC0E94AD0AFF
:100EB0008CEBF801858381E0F701868380E48783EA
:100EC000C8010E94410C8CEC1F910F91FF90EF9094
:100ED0000895CF93DF93EC016C859D8580E02E858E
:100EE000820F911D20E88030920731F480919E029C
:100EF000806480939E0206C06F70AE01415F5F4FB9
:100F00000E9439058CEC0E94AD0ACE010E94A90610
:100F10008CECDF91CF9108950F931F93CF93DF93C4
:100F2000EC0180919E0280FF1BC08E01035F1F4F6A
:100F30008CEC0E94AD0A3D8520E030939D02209309
:100F40009C02F801818190E0822B932B90939D026B
:100F500080939C0287E191E062E0A8010E9439053C
:100F600080E0DF91CF911F910F9108958F929F9212
:100F7000AF92BF92CF92DF92EF92FF920F93DF93E7
:100F8000CF9300D0CDB7DEB74C01FC0104850F70C4
:100F9000958580E026855C01A20EB11C6501602F5D
:100FA0006C5FC40106960E9479067C01009711F4DB
:100FB00080E03AC005969A8389838CEC0E94AD0A42
:100FC000C4010E94A9060D59E981FA8105830356DF
:100FD00080911201880F880F82648683802F80643D
:100FE0008783F4018585F7018587F4018685F701FC
:100FF0008687470108C0C6010E94A104F4018687C4
:101000000894C11CD11C0894811C911C8C2D8A1938
:10101000801788F3C7010E94410C809112018F5FF5
:101020008F70809312018CEC0F900F90CF91DF9115
:101030000F91FF90EF90DF90CF90BF90AF909F9077
:101040008F900895CF92DF92EF92FF920F931F93AC
:10105000F82ED62E81E191E00E94A104082F10E025
:10106000C80180509F4F0E94A104C82EDF0C0F5F63
:101070001E4FEE2410C0C8010E94A104F82E8EEF6E
:10108000F81631F0C80101960E94A1048D1531F0C7
:10109000E3940E5F1F4FEC1470F3FF248F2D1F910C
:1010A0000F91FF90EF90DF90CF900895EF92FF9215
:1010B0000F931F93CF93DF93F62E642F0E94220885
:1010C000E82E8823D1F10E94C00EEC010097A9F10F
:1010D0008C010B5F1F4F83E08E8F88E08C838CEB3D
:1010E0008D8387E191E00E94A104D80111968C9331
:1010F00088E191E00E94A104F8018283EE2DF0E0E6
:10110000EE0FFF1FED58FD4F8281D80113968C938F
:101110001397818114968C93149781EE15968C9376
:10112000159716961C92BFE7FB22E0E8FE0ED80149
:101130001796FC92CE010E94410CDF91CF911F9136
:101140000F91FF90EF900895DF92EF92FF920F932F
:101150001F93CF93DF93E82ED62E642F0E94220890
:10116000F82E882309F442C00E94C00EEC010097BB
:10117000E9F18C010B5F1F4F83E08E8F89E08C8338
:101180008CEB8D8387E191E00E94A104D801119638
:101190008C9388E191E00E94A104F8018283EF2DF5
:1011A000F0E0EE0FFF1FED58FD4F8281D80113963E
:1011B0008C931397818114968C93149781ED1596D7
:1011C0008C93159716961C9283EF91E00E94A104D0
:1011D00090E002C095958795EA94E2F781708D259D
:1011E0008058F8018783CE010E94410CDF91CF9196
:1011F0001F910F91FF90EF90DF900895CF93DF93B1
:10120000EC018DE091E00E94A1048F3F61F4CE01DA
:101210000E94A2008C3C21F40E94AD0A8CEC04C018
:101220008CE00E94AD0A8CE0DF91CF910895CF93BE
:10123000DF93EC018DE091E00E94A1048F3F61F407
:10124000CE010E94A4008C3C21F40E94AD0A8CECDB
:1012500004C08CE00E94AD0A8CE0DF91CF9108952C
:10126000BF92CF92DF92EF92FF920F931F93CF9393
:10127000DF93EC0187E191E00E94A104182F00E0C8
:1012800010939D0200939C0288E191E00E94A104CA
:1012900090E0082B192B10939D0200939C0285E08F
:1012A00091E00E94A1048F3F49F486E091E00E9402
:1012B000A1048F3F19F4CE010E94E40486E191E07D
:1012C0000E94A1048F3F41F410927502F9E1CF2EE4
:1012D000F1E0DF2EBB2426C081508093750284315B
:1012E000A8F3F2CF0B2D10E076010894E11CF11C5D
:1012F000C6010E94A104D82FC0E0000F111F0B5897
:101300001D4FF801D283C18382E090E0C80ED91E40
:10131000C7010E94A10490E08C2B9D2BF8019283C1
:101320008183B39480917502B816E0F2DF91CF917A
:101330001F910F91FF90EF90DF90CF90BF90089595
:10134000EF92FF920F931F93CF93DF93809113013E
:1013500090911401892B09F4B4C0E0911301F0912C
:101360001401448141506091130170911401442390
:1013700009F4A3C090E020E030E0E0911301F09187
:101380001401E20FF31F858198272F5F3F4F241729
:10139000A0F3E0911301F09114019095E40FF11D79
:1013A0008581981721F08CE00E94AD0A86C0DB0190
:1013B000159613962C91139714963C911497922F8F
:1013C00080E0432F50E0482B592B15960C91159730
:1013D00016968C911697C82FD0E0902F80E0BC0114
:1013E0006C2B7D2BCB018C7F907880509048B1F492
:1013F000222331F030917502E6E7F2E020E00CC0E4
:101400003323C1F710E80BC0819191914817590718
:1014100011F410E41BC02F5F2317B0F310E080918C
:101420009C0290919D024817590769F4CB0190786E
:101430008038910511F4106204C08138910509F4D7
:10144000106107FF1260112309F437C00F700F5F9E
:10145000FC2EEE2417968C9190E0E82AF92AC6E833
:10146000D0E0FE018491319645915491FE0133966E
:10147000259134912596FE0164912196FE01949167
:1014800026978123A1F02E213F214217530779F49B
:10149000061768F0901758F0CE010796FC012591C9
:1014A00034918091130190911401F9010995F0E0B4
:1014B000C93EDF0711F02996D4CF83E191E00E9465
:1014C000A80EDF91CF911F910F91FF90EF9008959B
:1014D000BC0183E191E040E050E00E94880E80E092
:1014E0000895809115018F5F80931501803198F1E7
:1014F0001092150154985C9A80E000008F5F8A304A
:10150000E1F74C9B12C080919E0280FF03C0549A69
:101510005C9802C0549A5C9A809116018823D9F095
:1015200081508093160180E00895809116018F3FCD
:1015300019F08F5F8093160180911601883C59F451
:1015400080919E0280FD02C0816001C08E7F8093E9
:101550009E0281E0089580E008958093230108951C
:10156000F89428E088E190E00FB6F894A89580936D
:1015700060000FBE20936000FFCF482F50E0440F63
:10158000551F9A013C6130931B0120931A01082ECC
:1015900082958025082E86958695802590E0019677
:1015A00081FF05C05E6150931B0140931A0118BC76
:1015B00084B5806384BD80916E008B7F80936E00C4
:1015C00084E085BB80916E00846080936E00809182
:1015D0009F028B7F80939F02089580919E0286FFD9
:1015E00009C0F89480919C0290919D028EBB9ABD97
:1015F0000C940038E0912101F0912201309729F0FC
:10160000838181FF02C081E301C084E380932601CE
:1016100084E08093170108951F920F920FB60F92E6
:1016200011248F939F93189953C080919F02982FF4
:1016300080FF20C080912301882309F049C092FFD8
:1016400019C084B5806284BD84B58F7E84BD85B5A4
:10165000806485BD85B58F7B85BD81E08093190150
:1016600092E090939F0284E386BD86E085BB8093E1
:101670006E0095BD80911C0190911D010097A9F409
:101680008FEF97EF90931D0180931C0180919F0233
:1016900080FD08C084E386BD86E085BB80936E0034
:1016A00082E085BD1092260107C0189905C0977F7A
:1016B00090931D0180931C0180911E018B7F80936C
:1016C0001E011092170180919F02826080939F02F9
:1016D0009F918F910F900FBE0F901F9018951F92A2
:1016E0000F920FB60F9211242F938F939F932091F7
:1016F0009F0220FF1AC080911A0190911B019695BC
:10170000879590931B0180931A0180FD0BC018BC34
:1017100084B5806384BD80916E008B7F80936E0062
:101720002B7F01C0246020939F029F918F912F9166
:101730000F900FBE0F901F90189590912501A091CA
:101740002101B091220180912401FD01E80FF11DDA
:10175000858198279093250190912401A90FB11DAF
:1017600015968C919F5F909324010E94BD0A9091E1
:101770002401E0912101F09122018481981718F051
:1017800082E080931801089580911E0182FF0BC0B2
:1017900081E08093190187E686BD86E085BB809352
:1017A0006E0082E085BD08955D98549A5C9891E042
:1017B00040E45CE960E27EE417C05C9821E030E040
:1017C000FA013197F1F72F5F3F4F23333105C1F70E
:1017D0005C9A21E030E0FA013197F1F72F5F3F4F3B
:1017E00023333105C1F79F5F891738F721E030E0D7
:1017F000FB013197F1F72F5F3F4F93E0293E390707
:10180000B9F791E0F1CF54985C9A2098289A559AAC
:101810005D9892E094BD88E687BD84B5806284BD02
:1018200084B58F7E84BD85B5806485BD85B58F7B8D
:1018300085BD80E286BBEFE6F0E080818062808338
:10184000E1E8F0E080818068808310921B011092B3
:101850001A0110921D0110921C0184E080931E0158
:1018600090939F028093170110929E020895F8941E
:1018700080919C0290919D028EBB9ABD0C94003881
:101880000895BC0181E291E044EC5BE00E94880E87
:1018900080E0089584E08093190181E291E00E9444
:1018A000A80E81E0809319010E94ED0A0895E0914D
:1018B0002101F0912201868D8150868F8F5F69F022
:1018C00085818F7D858381E08093190181E38093F9
:1018D000260184E08093170108950E944A0C089520
:1018E0001F920F920FB60F921124FF920F931F9326
:1018F0002F933F934F935F936F937F938F939F9318
:10190000AF93BF93EF93FF9385B58E7F85BD809195
:101910009F02F82E81FF28C180912601882321F0A3
:1019200081508093260120C110911701123009F4D3
:10193000BDC0133030F4112359F0113009F014C137
:1019400065C0133009F4D4C0143009F00DC1D3C000
:1019500080911C0190911D019C013695279530685E
:1019600080FD4FC0C901807096708050964021F074
:1019700080911E01806819C0122F822F082E829537
:101980008025082E86958695802590E00196959570
:10199000879581709070232F3327217030708217C4
:1019A000930731F080911E01806480931E0121C055
:1019B00080911F0190912001892B31F40E94C00E6B
:1019C0009093200180931F01A0911F01B0912001ED
:1019D000109779F014968C911497FD01E80FF11D82
:1019E00015838F5F14968C9314978A3110F0149698
:1019F0001C9282E08093260181E08093170120E011
:101A000030E030931D0120931C01AEC0E0911F0116
:101A1000F0912001309771F480911901833021F009
:101A200080911901823019F40E94570C3BC00E942A
:101A3000ED0A38C085B5816085BD83E080932601BD
:101A400082E08093170180911E01807C41F080919B
:101A50001E0180911E018CE08093230117C08481B8
:101A6000813069F480911901833081F485818C3C47
:101A700019F40E944A0C0AC00E94570C07C0CF01FB
:101A80000E94680A1092200110921F0180911F018C
:101A900090912001009731F00E947C0F109220015C
:101AA00010921F0180911E018F735CC080912301F1
:101AB0008823D9F0809123010E94BD0A80E286BB71
:101AC00080916F00806280936F00809181008068B8
:101AD0008093810081E080939F0282E286BD86E050
:101AE00085BB80936E0015BD3FC00E94ED0A3CC0CF
:101AF0000E94570C39C08091210190912201892BBD
:101B000059F180911901823079F180911E018B7F0A
:101B100080931E0102E0009319011092240110929B
:101B2000250111E0109318010E949D0B80E286BBF5
:101B300080916F00806280936F0080918100806847
:101B40008093810010939F0282E286BD86E085BB70
:101B500080936E0005BD08C015BC10926E00809188
:101B60001E01846080931E01F0FE85C088B5882325
:101B700079F482E288BD84B5806284BD84B58F7EAD
:101B800084BD84E085BB80916E00846080936E008C
:101B900080911A0190911B01019709F06CC080910E
:101BA0006E008B7F80936E00809123018823E9F083
:101BB00080911F0190912001009731F00E947C0FCD
:101BC0001092200110921F0180911E018F7380934B
:101BD0001E011092230110921D0110921C0182E03F
:101BE00080939F020E94ED0A46C08091210190914E
:101BF0002201892B09F43FC080911801823069F0DD
:101C0000833018F48130B9F505C0833079F0843021
:101C100091F52FC00E949D0B2EC0809125018095CB
:101C20000E94BD0A83E08093180125C080911F01A6
:101C300090912001009731F00E947C0F10922001BA
:101C400010921F0180911E018F7380931E0183E00B
:101C500080931901109218018093170182E08093FC
:101C60009F028EE08093260110921D0110921C01AC
:101C700002C00E94570CFF91EF91BF91AF919F91CD
:101C80008F917F916F915F914F913F912F911F9114
:101C90000F91FF900F900FBE0F901F9018950F930C
:101CA0001F93CF93DF930E94C00EEC01009759F170
:101CB0008C010B5F1F4F80911E01846080931E0179
:101CC00083E08E8F89E08C8380EB8D8387E191E0C8
:101CD0000E94A104F801818388E191E00E94A1049F
:101CE000F801828381E183838EEF848383EF858390
:101CF00080EC868380E8878381E291E0BE0144EC3A
:101D00005BE00E94880EDF91CF911F910F910895A3
:101D10001F93DC011FB7F894ED91FC911197309758
:101D200051F0CF010190F081E02D3097D1F7FC0107
:101D30007183608307C06D937C934115510511F049
:101D4000FA01099517FF01C078941F91089508952D
:101D50001F93DC011FB7F894ED91FC9111978081DE
:101D60009181309741F08D939C93838180FF03C0D4
:101D7000CF010E947C0F17FF01C078941F91089536
:101D80008FE190E00E94CF0EFC01009731F081E0DE
:101D900082838383148211821082CF010895CF93AE
:101DA000DF93BC018230910510F462E070E0A091F5
:101DB000A202B091A302ED01E0E0F0E040E050E0CB
:101DC00021C0888199818617970769F48A819B8150
:101DD000309719F09383828304C09093A302809379
:101DE000A202FE0134C06817790738F44115510585
:101DF00019F08417950708F4AC01FE018A819B81D4
:101E00009C01E9012097E9F641155105A9F1CA01A4
:101E1000861B970B049708F4BA01E0E0F0E02AC0B3
:101E20008D919C91119784179507F9F464177507A4
:101E300081F412968D919C911397309719F09383AA
:101E4000828304C09093A3028093A202FD01329684
:101E50004FC0CA01861B970BFD01E80FF91F619364
:101E6000719302978D939C9343C0FD01828193816E
:101E70009C01D9011097A1F68091A0029091A10236
:101E8000892B41F480910201909103019093A1026A
:101E90008093A00240910401509105014115510524
:101EA00041F44DB75EB78091000190910101481B4C
:101EB000590B2091A0023091A10224173507B0F4EC
:101EC000CA01821B930B8617970780F0AB014E5F08
:101ED0005F4F8417950750F0420F531F5093A10294
:101EE0004093A002F9016193719302C0E0E0F0E039
:101EF000CF01DF91CF910895CF93DF93009709F43D
:101F000050C0EC0122971B821A82A091A202B091CC
:101F1000A302109709F140E050E0AC17BD0708F1AB
:101F2000BB83AA83FE0121913191E20FF31FAE170B
:101F3000BF0779F48D919C911197280F391F2E5F5F
:101F40003F4F3983288312968D919C9113979B83E1
:101F50008A834115510571F4D093A302C093A20264
:101F600020C012968D919C911397AD01009711F0AE
:101F7000DC01D3CFFA01D383C28321913191E20FE7
:101F8000F31FCE17DF0769F488819981280F391F65
:101F90002E5F3F4FFA01318320838A819B81938397
:101FA0008283DF91CF910895FB01DC0102C0019093
:101FB0000D9241505040D8F70895DC01CB01FC014F
:101FC000F999FECF06C0F2BDE1BDF89A319600B492
:101FD0000D9241505040B8F70895262FF999FECF41
:101FE0001FBA92BD81BD20BD0FB6F894FA9AF99A36
:0A1FF0000FBE01960895F894FFCF8C
:061FFA002000A40200001B
:00000001FF
