:100000000C94A2000C94BF000C94BF000C94BF0091
:100010000C94BF000C94BF000C94BF000C942513EB
:100020000C94BF000C94BF000C94C20E0C94BF0043
:100030000C94BF000C94BF000C94D70F0C94230FAA
:100040000C94BF000C94BF000C94BF000C94BF0034
:100050000C94BF000C94BF000C94E2070C94BF00FA
:100060000C94BF000C94BF00017D00000000000054
:100070000000000000000000000000000007010276
:100080000D01FF1201840C010000000003010004B7
:100090000104050170060154FF00FF0D0000001A65
:1000A0000000003400000068000000D0000000A044
:1000B0000100004003000080060000000D00000069
:1000C0001A0000003400000068000000D0000000AA
:1000D000A00100004003000080060002008000FF35
:1000E0000101330902008100FF010145090200C23C
:1000F00000C301015B0982C000FF030404CD0A8232
:100100000001FF0302029B0A028001C0030303589F
:100110000A020042C0C30404FE09028042C0C301B7
:1001200010AD0A020043FFFF0202DD09028003FF57
:100130000302027B09000000000000010102030429
:10014000060A0E0E11241FBECFEFD8E0DEBFCDBFD2
:1001500014E0A6E0B1E001C01D92A331B107E1F7C0
:1001600011E0A0E0B1E0E4EAFAE202C005900D92ED
:10017000A630B107D9F70E94410E0C9450150C948B
:100180000000A4E0B0E0E7ECF0E00C94B213389883
:1001900039983A983B983C983D9856985798219AA8
:1001A00086E5E2EFF2E0DF011D928A95E9F78EEF36
:1001B00091E00E942B0882958F70B4E08B9FF00134
:1001C0001124E556FF4F259135914591549184EDC9
:1001D00091E029833A834B835C830E942B088F77BD
:1001E000A82FB0E029813A814B815C810E9497134E
:1001F000AB01BC0183E493E00E946313E7E4F3E006
:1002000080818160808381E02496E2E00C94CE13AB
:1002100076B146B136B126B196B186B169B159B160
:1002200050787170572B4270452B3470342B2870E6
:10023000232B9071922B8072892B6074862B0895EA
:10024000A0E0B0E0E6E2F1E00C94AB1305ED11E0C4
:1002500088E0D82EC0E0D0E0EE24E394F12CCC2E40
:100260002C2F2695822F90E082539E4F0E942B08C0
:10027000C0FF02C082958F708F70813021F0833073
:1002800009F042C033C0BC2EC8010E942B08807CFC
:10029000803409F411C0803809F423C0803CA1F5F2
:1002A0000E940801282F30E00C2E02C035952795BA
:1002B0000A94E2F720FF15C09E2D0B2C01C0990F68
:1002C0000A94EAF78091F402892B8093F4028091DA
:1002D000F502892B8093F50261E08C2D0E94D50DEB
:1002E0000BC060E08C2D0E94D50D0AC0C8010E9491
:1002F0002B08807C803411F461E003C0803821F445
:1003000060E08D2D0E94D50D2196D3940C5F1F4F78
:1003100080E1D812A4CFCDB7DEB7E9E00C94C713C3
:10032000A4E0B0E0E6E9F1E00C94A813082FE82E71
:10033000F12C8091F20290E0002E02C095958795F5
:100340000A94E2F7BB24B394B822A090F3024701C9
:10035000880C991C880C991C64018BE2C81A8EEFDA
:10036000D80AC6010E942B08837009F4FEC240918E
:10037000400350E0002E02C0559547950A94E2F7DD
:10038000417055272091410330E0002E02C0359581
:1003900027950A94E2F721703327823021F4E1E0B7
:1003A0004E27F1E02F27413009F076C02111EBC232
:1003B000C6010E942B088073803181F481E090E0B7
:1003C000002E01C0880F0A94EAF79091F402982B4E
:1003D0009093F4029091F502982B12C0803299F418
:1003E00081E090E0002E01C0880F0A94EAF7809522
:1003F0009091F40298239093F4029091F50298233F
:100400009093F5023CC0803309F0BDC24091F402E4
:10041000242F30E0002E02C0359527950A94E2F78C
:1004200020FF0CC021E030E0002E01C0220F0A9412
:10043000EAF7209524232093F4020AC081E090E09B
:10044000002E01C0880F0A94EAF7842B8093F402EF
:100450004091F502242F30E0002E02C035952795FB
:100460000A94E2F720FF0DC021E030E0002E01C029
:10047000220F0A94EAF7209524232093F50213E033
:1004800083C281E090E0002E01C0880F0A94EAF751
:10049000842B8093F502F3CF213009F066C2C701A7
:1004A0008A589F4F880F991F880F991F0E942B0809
:1004B0008370813069F481E090E0002E01C0880FE4
:1004C0000A94EAF79091F402982B9093F40221C0D9
:1004D000823071F421E030E0002E01C0220F0A9436
:1004E000EAF720958091F40282238093F40223C0DE
:1004F000833009F03AC24091F402BB2089F081E0D8
:1005000090E0002E01C0880F0A94EAF7482B409330
:10051000F4029091F502982B9093F50213E026C215
:1005200021E030E0002E01C0220F0A94EAF7209566
:1005300042234093F4028091F50282238093F502D6
:10054000EDCFC40189529E4F2C830E942B082C8131
:10055000982FB11051C0213009F04EC093709130E6
:1005600069F421E030E0002E01C0220F0A94EAF77E
:100570009091F402922B9093F40232C0923061F485
:1005800021E030E0002E01C0220F0A94EAF7209506
:100590009091F402292322C0933019F59091F4022E
:1005A000492F50E0002E02C0559547950A94E2F776
:1005B00040FF0CC041E050E0002E01C0440F0A94FF
:1005C000EAF7409549234093F4020AC021E030E065
:1005D000002E01C0220F0A94EAF7292B2093F4027F
:1005E00011E08073803109F44DC0803209F459C0A4
:1005F000803309F087C063C09C70943069F421E0B7
:1006000030E0002E01C0220F0A94EAF79091F40224
:10061000922B9093F40232C0983061F421E030E0E4
:10062000002E01C0220F0A94EAF720959091F4025F
:10063000292322C09C3019F59091F402492F50E0F3
:10064000002E02C0559547950A94E2F740FF0CC072
:1006500041E050E0002E01C0440F0A94EAF74095B3
:1006600049234093F4020AC021E030E0002E01C08B
:10067000220F0A94EAF7292B2093F40211E0807CE0
:10068000803469F481E090E0002E01C0880F0A9464
:10069000EAF79091F502982B9093F50232C08038DA
:1006A00061F481E090E0002E01C0880F0A94EAF71F
:1006B00080959091F502892322C0803C19F54091E4
:1006C000F502242F30E0002E02C0359527950A94BC
:1006D000E2F720FF0CC021E030E0002E01C0220F25
:1006E0000A94EAF7209524232093F5020AC081E0BA
:1006F00090E0002E01C0880F0A94EAF7842B8093C3
:10070000F5021260B12CC6010E942B088C70843057
:1007100061F48091F40290E0002E02C095958795D7
:100720000A94E2F780FD1DC1D6C0883061F4809143
:10073000F40290E0002E02C0959587950A94E2F7A6
:1007400080FF0FC1C8C08C3009F0C5C00AC120911C
:10075000160330E0002E02C0359527950A94E2F783
:10076000C701019620FF19C0880F991F880F991F94
:100770008E509D4F0E947E13882309F44DC081E066
:1007800090E0002E01C0880F0A94EAF780959091BE
:1007900016038923809316033FC0959587958A5049
:1007A0009E4F0E942B08E82F00FD01C0E295EF70DC
:1007B00084E0E89FF0011124E556FF4F2591359123
:1007C00045915491C4018A529E4F2C8339834A83A8
:1007D0005B830E942B088F77A82FB0E02C81398192
:1007E0004A815B810E949713AB01BC01C701880F4E
:1007F000991F880F991F8A509D4F0E94631381E0B3
:1008000090E0002E01C0880F0A94EAF79091160339
:10081000982B9093160311608091370390E0002E7F
:1008200002C0959587950A94E2F780FF16C0C4012F
:10083000895E9C4F0E947E13882309F45EC081E08C
:1008400090E0002E01C0880F0A94EAF780959091FD
:10085000370389238093370350C0C70101969595CC
:10086000879586509E4F0E942B08E82F00FD01C0FF
:10087000E295EF7084E0E89FF0011124E556FF4F08
:100880002591359145915491C4018A529E4F2C83F4
:1008900039834A835B830E942B088F77A82FB0E0AF
:1008A0002C8139814A815B810E949713AB01BC0185
:1008B000C401895E9C4F0E94631381E090E0002E8A
:1008C00001C0880F0A94EAF790913703982B909310
:1008D0003703126012C081E090E0002E01C0880F43
:1008E0000A94EAF780959091160398239093160343
:1008F0009091370398239093370310FF17C080918E
:100900004203882399F06091F40270E0002E02C047
:10091000759567950A94E2F761707727802F0E949A
:10092000D50D8091420381508093420311FF2FC067
:1009300080914203882359F16091F50270E0002E06
:1009400002C0759567950A94E2F761707727802F4A
:10095000885F0E94D50D80914203815080934203AD
:1009600016C0BB2009F4F3CEB6CF10E08A2D90E07C
:10097000002E02C0959587950A94E2F7282F2170E2
:10098000B212DFCDBFCE10E0BB24B394BCCE249610
:10099000ECE00C94C4138F929F92BF92CF92DF929F
:1009A000EF92FF920F931F93CF93DF9300D000D06D
:1009B000CDB7DEB7F82E882E912C8091F20290E010
:1009C0000F2C02C0959587950A94E2F7BB24B39447
:1009D000B8228091F30290E00F2C02C09595879584
:1009E0000A94E2F7EE24E394E82294012E503D4F5E
:1009F000690166E4C60ED11CF6019081923009F4BB
:100A000015C130F4992359F0913009F026C18AC0FC
:100A1000933009F40BC1943009F01FC122C1F1E0F9
:100A2000BF121FC1E1101DC1C401019695958795A4
:100A30008A509E4F0E942B08E82FF0FC01C0E295DF
:100A4000EF7064E0E69FF0011124E556FF4F259119
:100A5000359145915491E4E0FE9EC00111248A52E3
:100A60009E4F29833A834B835C830E942B088F77A8
:100A7000A82FB0E029813A814B815C810E949713B5
:100A8000AB01BC01C401880F991F880F991F8A50C0
:100A90009D4F0E946313C4018A589F4F880F991F6E
:100AA000880F991F0E942B0883FF36C08073803106
:100AB00039F1803241F1803349F54091F502242F1C
:100AC00030E00F2C02C0359527950A94E2F720FFFD
:100AD0000CC021E030E00F2C01C0220F0A94EAF78D
:100AE000209524232093F5020BC081E090E00F2C89
:100AF00001C0880F0A94EAF7842B8093F50203C0A3
:100B0000DD24D39404C062E0D62E01C0D12CF401C0
:100B1000E85CFC4F83E082C0F401E85CFC4F81E0BC
:100B2000808398C08401000F111F000F111F0A500D
:100B30001D4FC8010E947E13882309F471C0C401AF
:100B40008A589F4F880F991F880F991F0E942B0862
:100B50008073803139F1803241F1803349F5409121
:100B6000F502242F30E00F2C02C0359527950A940A
:100B7000E2F720FF0CC021E030E00F2C01C0220F73
:100B80000A94EAF7209524232093F5020BC081E014
:100B900090E00F2C01C0880F0A94EAF7842B809311
:100BA000F50203C0DD24D39404C032E0D32E01C08B
:100BB000D12CC40101969595879586509E4F0E9431
:100BC0002B08E82FF0FC01C0E295EF7064E0E69F8F
:100BD000F0011124E556FF4F25913591459154912F
:100BE000E4E0FE9EC001112489529E4F29833A837E
:100BF0004B835C830E942B088F77A82FB0E029815C
:100C00003A814B815C810E949713AB01BC01C80102
:100C10000E946313F401E85CFC4F82E0808322C0F1
:100C2000B1101FC0F1E0EF121CC00BC0C401880F4F
:100C3000991F880F991F8A509D4F0E947E13882309
:100C400011F0F6010DC0B1100CC0F1E0EF1209C0B7
:100C5000F6011082A4E0DA2E05C0F901EA5BFF4F2D
:100C60001082D12CF4E0FF9E800111240B521E4F04
:100C7000C8010E942B08837009F48EC04091400384
:100C800050E00F2C02C0559547950A94E2F7417049
:100C900055272091410330E00F2C02C03595279550
:100CA0000A94E2F721703327823021F461E046276D
:100CB00081E028274130C9F5211131C0C8010E94C7
:100CC0002B088073803131F1803239F1803339F56E
:100CD0004091F502242F30E00F2C02C03595279566
:100CE0000A94E2F720FF0CC021E030E00F2C01C095
:100CF000220F0A94EAF7209524232093F5020DC0D1
:100D000081E090E00F2C01C0880F0A94EAF7842B51
:100D10008093F502F2E0DF2E02C0DD24D394F401CB
:100D2000E85CFC4F84E0808337C0213089F5C8013E
:100D30000E942B088C70843031F1883039F18C306E
:100D400039F54091F502242F30E00F2C02C0359583
:100D500027950A94E2F720FF0CC021E030E00F2C29
:100D600001C0220F0A94EAF7209524232093F5026C
:100D70000DC081E090E00F2C01C0880F0A94EAF7C3
:100D8000842B8093F502E2E0DE2E02C0DD24D394B2
:100D9000F401E85CFC4F10828D2D837081F080910E
:100DA0004203882361F0D1FA662760F98F2D885FAE
:100DB0000E94D50D809142038150809342038D2D76
:100DC000847069F080914203882349F061E08F2D9F
:100DD0000E94D50D809142038150809342030F9071
:100DE0000F900F900F90DF91CF911F910F91FF9077
:100DF000EF90DF90CF90BF909F908F900895A1E0EB
:100E0000B0E0E5E0F7E00C94B01310E000E0110F63
:100E100009F411E040E0BE016F5F7F4F802F0E9418
:100E2000710D882371F18981083070F49091F4027A
:100E3000882321F0912B9093F40223C0812F809579
:100E400089238093F4021DC0003170F49091F50263
:100E5000882321F0912B9093F50213C0812F809568
:100E600089238093F5020DC090914003882321F0DF
:100E7000912B9093400305C0812F80958923809307
:100E800040030F5F083119F68091470380FF27C0A8
:100E900083E493E00E947E13882309F476C0809156
:100EA00047038E7F809347030E94200183ED91E0EA
:100EB0000E942B08809342038E3108F466C040E8FC
:100EC00056E060E070E083E493E00E9463131092C8
:100ED00042038091470382608093470356C081FF9D
:100EE00013C083E493E00E947E13882381F040E8DE
:100EF00056E060E070E083E493E00E94631383EDCA
:100F000091E00E942B0801C08FEF80934203109163
:100F1000F3020E940801181799F082ED91E00E94F7
:100F20002B0890E007C0E7EEF3E03197F1F700C03F
:100F300000009F5F9813F7CF0E9408018093F20290
:100F400010E0212F2695822F90E082539E4F0E9421
:100F50002B0810FF02C082958F708F70813019F0BE
:100F6000833041F404C0812F0E94900103C0812F7F
:100F70000E94CB041F5F183021F78091F20280930A
:100F8000F30280914003809341032196E4E00C94A6
:100F9000CC13CF93DF93C0910601D0910701209726
:100FA00071F08A81823059F082E08A8369858E816E
:100FB0009F810E94421588858F5F8887FB9ADF9109
:100FC000CF9108951F920F920FB60F9211242F9375
:100FD0003F934F935F936F937F938F939F93AF93C1
:100FE000BF93CF93DF93EF93FF93C0910601D0910E
:100FF000070188859D8198130CC086E091E00E94CE
:10100000F8128091060190910701892B89F4FB98D1
:101010000FC090E0FE01E80FF91F2E813F8161852E
:10102000820F931F0E94421588858F5F8887FB9AE5
:10103000FF91EF91DF91CF91BF91AF919F918F91F0
:101040007F916F915F914F913F912F910F900FBEC4
:101050000F901F9018958036910519F480910D041A
:1010600008959C013A95223041E0340748F480917C
:10107000480390914903FC01E20FF31F808108951A
:1010800080559109803B910528F4FC01E45BFC4FFD
:10109000808108958FEF0895A0E0B0E0E2E5F8E0E8
:1010A0000C94AC13D62EEA018C011A950F3F110552
:1010B00009F070F5CFB6F8940E94C8127C01CC20DC
:1010C0000CF47894F70117830683D5821086970174
:1010D000275F3F4F4D2D50E06C2F7D2F822F932F98
:1010E0000E9429158091480390914903080F191F08
:1010F0004D2D50E06C2F7D2F802F912F0E942915B0
:1011000049EC57E0B70186E091E00E94D9121CC07B
:101110008036910521F4888180930D0415C0805597
:101120009109803B910580F4662371F0FA01DC019E
:10113000A45BBC4FDA94CA018D0D911D01962191DB
:101140002D93E817F907D9F7CDB7DEB7E8E00C948F
:10115000C8132091060130910701232B29F02FB3EA
:1011600021FB882780F9089580E090E00895EF92B0
:10117000FF920F931F93CF93DF938C01C0E0D0E0D9
:10118000B8016C0F7D1FFB01259134917901FB01A2
:1011900032966491C9019A958F3F910509F010F438
:1011A0000E9442158FEFE816F10429F02396C2350C
:1011B00085E0D80729F740914A0350914B0360E03E
:1011C00070E080914803909149030E943215CDB799
:1011D000DEB7E6E00C94CA13AB01FD9AFC9870935D
:1011E0004B0360934A03909349038093480360E064
:1011F00070E00E9432150895E82FF0E0EB5CFE4F9E
:1012000084910895E82FE695E695E695F0E0E350A1
:10121000FC4F208130E08770A90102C055954795A9
:101220008A95E2F7CA0181700895E82FE695E69560
:10123000E695F0E0877041E050E0082E02C0440FD0
:10124000551F0A94E2F74095E350FC4F90814923E3
:10125000262F217030E002C0220F331F8A95E2F75B
:10126000242B2083089520910C0121110CC021E032
:1012700020930C01FC01368130930D01878180930E
:101280000E0120930F0180E0089530910D01FC01C3
:10129000268132130EC020910E018781281309C0C8
:1012A00080910C01882329F010920C0181E0809339
:1012B0000F0180E0089580E00895482FE091120129
:1012C000F091130130813F3F91F0332391F032963A
:1012D00090E0DF0111978C918E3F19F02081241747
:1012E00049F09F5F32969313F4CF80E0089580E039
:1012F000089580E008950E94A9088111FCCF0E9402
:10130000920E80E00895EF92FF920F931F93CF9378
:10131000DF938C01F62EEFB6F8940E94C812EC0110
:10132000EE200CF47894209771F183E08E8F80EB9F
:101330008D83E0910A01F0910B0181818E8382817E
:101340008F838EE091E00E942B0880779F2D915033
:10135000892B8A8780E48C870115110531F0F8010B
:10136000808188878181898702C01886198688854F
:10137000811106C08985811103C08A8580688A87AA
:101380008F2D8A5F8C838C2F9D2FCDB7DEB7E6E043
:101390000C94CA13CF93DF93EC0161E006960E9490
:1013A0008309009739F02B852C732E53FC0123877A
:1013B0000E94590FDF91CF9108950F931F93CF9300
:1013C000DF938C0164E006960E948309EC0100978C
:1013D00079F0C8010E94CA098CEB8D8383E48B8766
:1013E0001D8682E18E87CE010E94590F8CEC01C0D0
:1013F00080E0DF91CF911F910F910895A0E0B0E0C0
:10140000E4E0FAE00C94AC13EC018C850F2EFFE0C5
:10141000EF2EF02DE8221D8500E08E85080F111DAE
:101420006E2D6C5FCE0106960E9483096C010097B9
:10143000C9F1CE010E94CA098CEBF6018583809127
:101440000F0190E0880F991F880F991F826483878E
:1014500084858E2984878D8585878E858687EE2075
:10146000B1F0E6012F96EA94F12CF0E1EF0EF11CB9
:10147000EC0CFD1C0F5011090C191D09C8018C0F33
:101480009D1F0E942B088993CE15DF05B9F7C60171
:101490000E94590FEFE0F1E080818F5F8F708083B1
:1014A0008CEC01C080E0CDB7DEB7E8E00C94C81347
:1014B000A1E0B0E0EEE5FAE00C94AE138C01FC0183
:1014C00084858770898365E0C80106960E94830938
:1014D0007C01009759F1C8010E94CA0980910F014F
:1014E00090E0880F991F880F991F8164F701838707
:1014F0008981806C8487F8018585F7018587F9816A
:10150000F13031F485E0F701868785EC878703C0E9
:10151000F70116861786C7010E94590FEFE0F1E028
:1015200080818F5F8F7080838CEC01C080E021967A
:10153000E6E00C94CA1380910D0480FF0CC062E0B9
:1015400080E090E00E9483092CEBFC01258321E0E0
:1015500023870E94590F8CEC0895CF93DF93EC0101
:101560006C859D8580E02E85820F911D811520E878
:10157000920731F480910D04806480930D0406C0BD
:10158000AE01415F5F4F6F700E944C08CE010E9418
:10159000CA098CECDF91CF91089520910D0420FFB2
:1015A00008C0AC01435F5F4F62E087E191E00E94B9
:1015B0004C0880E00895A1E0B0E0E1EEFAE00C9480
:1015C000B2136983AE014F5F5F4F61E00E944C0828
:1015D0002196E2E00C94CE13A0E0B0E0E2EFFAE056
:1015E0000C94AB13EC01B62EC0901401D0901501F1
:1015F000042F10E07801EE0CFF1CE00EF11EEC0C45
:10160000FD1CF70184810E94FC08482FF7018281AC
:1016100090E00F5F1F4F9801220F331F020F131F1F
:10162000F601E00FF11F208125FD9395B41213C040
:10163000B11006C068816F730E94DB0A81E00CC0A4
:1016400069918C010F5F1F4F0E94DB0ABA94C80199
:10165000B9F781E001C080E0CDB7DEB7E9E00C94D6
:10166000C713CF93C62FFC0162856F70615011F4D0
:101670000C9601C00D964C2F0E94EC0A61E08C2F55
:101680000E941509CF910895A0E0B0E0EAE4FBE0E4
:101690000C94A713C82ED62E842E009114011091FD
:1016A0001501E82EF12CE701CC0FDD1FCE0DDF1D5B
:1016B000C00FD11F8C810E94FC08982E97012F5FCC
:1016C0003F4FC901880F991F280F391FF801E20FFA
:1016D000F31F80810F2EF3E07F2EF02D7822AA8059
:1016E000B12C692D6E5F8D2D90E0880F991F0196AA
:1016F00020910A0130910B01820F931F0E948309F0
:101700008C01009709F471C0772019F082E07812FB
:1017100004C0F801838182608383F8018486770C9A
:10172000770C8581782A7582828580688287138606
:10173000911008C0C5010E942B088F73882AF801F8
:1017400084860DC0C8010D96EC01A81AB90ACE0115
:101750008A0D9B1D0E942B0889939A94C1F7E091F2
:101760001201F0911301B080FFEFBF1619F1BB20F9
:1017700009F1C0E0D0E02091120130911301AE01D7
:10178000FE01EE0FFF1FE20FF31F81818E3F79F004
:10179000D8120DC04F5F5F4F440F551FF901E40F82
:1017A000F51F60816C1519F0C8010E94310B21965C
:1017B000CB1508F3E0911401F09115018FEFE81AB1
:1017C000F80AC701880F991FE80EF91EEE0DFF1DDC
:1017D000808186FF05C0C8010E94590F81E006C0C4
:1017E000C8010E94801481E001C080E0CDB7DEB75F
:1017F000EDE00C94C313CF93DF93C82FD62F0E9434
:101800005D09882331F04D2F682F8C2F0E94440BE7
:1018100001C08CE0DF91CF910895DC01E0910A01D5
:10182000F0910B0115968C91159788236CF0139607
:101830009C9113978181981334C014969C91828156
:10184000981789F180E0089513962C911397211130
:1018500005C014968C911497882339F130813F3F4D
:1018600031F13396332329F181E03F5F90812913D1
:1018700010C014964C9114979181491307C06115BB
:101880007105C9F0FB01808380E40895491718F4BD
:1018900014C02917A0F032968F5F3813E7CF80E08D
:1018A000089580E0089582E0089580E8089580E03A
:1018B000089580E0089580E4089580E0089580E030
:1018C0000895FC012481223048F040E050E0BC0142
:1018D00088E091E00E94D91281E008950E9480146E
:1018E00080E00895AF92BF92DF92EF92FF920F9344
:1018F0001F93CF93DF931F92CDB7DEB7809108017E
:1019000090910901892B09F4E1C088E091E00E94DF
:1019100010138C01DC0115968C91159785FD16C06E
:10192000E0911001F0911101448114968C914813BB
:101930000DC0B8016B5F7F4F50E0CF0105960E944C
:101940001C15282F392F232B09F4BDC0E09010015E
:10195000F0901101F8018481D70114968C935801FD
:10196000B5E0AB0EB11C97012B5F3F4F448150E0B7
:101970006A2D7B2D822F932F0E942915F7018581D7
:101980008F7D8583D8011A968C911A978F70D82EE7
:10199000D3941B96FC901B97E12C1C968C91E82A03
:1019A000BE016F5F7F4FC5010E940D0C86FF60C0B6
:1019B000D980E0911201F0911301B080BFEFBB1606
:1019C00009F481C080910D0485FF7DC0BB2009F41E
:1019D0007AC0E12CF12C80911201909113019701B2
:1019E000F701EE0FFF1FE80FF91F41814E3FC9F1CC
:1019F000D41237C02F5F3F4F220F331FFC01E20F7D
:101A0000F31F8081E0911401F0911501282F30E03F
:101A10002F5F3F4FA901440F551F240F351FE20FC1
:101A2000F31F9081F801248592FF1BC0207C99232D
:101A30003CF4203429F4682FC8010E94310B11C0F6
:101A400094FF07C0203829F4682FC8010E94310B89
:101A500008C093FF06C0211104C040E46D2D0E9410
:101A6000440BFFEFEF1AFF0AEB1408F4B4CF2BC0BE
:101A70002BED30E0F9019491319645915491F901A3
:101A8000339665917491F9013596A491F9013696D2
:101A9000E491982391F06E217F214617570769F44E
:101AA000DA1658F0ED1548F0295F3F4FF9012591FE
:101AB0003491C801F901099506C0275F3F4FF1E055
:101AC00025333F07B9F6C8010E9480140F90DF91BB
:101AD000CF911F910F91FF90EF90DF90BF90AF904B
:101AE0000895A0E0B0E0E7E7FDE00C94AA13B82E5B
:101AF000EB01A42E0E9402098823C1F1C0901401B9
:101B0000D09015010B2D10E07801EE0CFF1CE00EBB
:101B1000F11EEC0CFD1CF70184810E94FC08382F9B
:101B2000F7012281822F90E00F5F1F4FA801440F21
:101B3000551F040F151FF601E00FF11F208125FD31
:101B40009395A3120DC0AA20A9F012C08C010F5FBB
:101B50001F4F0E942B088993C801CE15DF05B1F7EE
:101B600060E08B2D0E94150981E00DC080E00BC064
:101B7000AA9401C0A12CEA2CF12CFFEFEF1AFF0A66
:101B8000EC0EFD1EE3CFCDB7DEB7EAE00C94C61332
:101B9000CF93C82FCB01642F4C2F0E94EC0A60E832
:101BA0008C2F0E94FB0BCF910895A1E0B0E0EBEDEC
:101BB000FDE00C94B213698340E0BE016F5F7F4F7C
:101BC0000E94C80D2196E2E00C94CE13CF9314BE70
:101BD00088E10FB6F89480936000109260000FBE09
:101BE0000E94241366EC71E08CE291E00E94EC0804
:101BF0000E94620F0E944A13CFB7F8940E94C81245
:101C0000CC230CF4789490931101809310010097E9
:101C100011F0FC011482789485E091E00E942B0879
:101C20008F3F71F486E091E00E942B088F3F41F4D2
:101C3000E9E6F0E025913491822F932F0E94B708B6
:101C400080913E0190E0845D9E4F909315018093BA
:101C5000140180913D0190E0845D9E4F90931301AB
:101C60008093120182E491E090930B0180930A012A
:101C700080910D048E6380930D040E94C100CF916A
:101C800008950E94E60D0E94720CA8950E94500EC5
:101C900080910D0485FD0E94FF060E94C10EF3CFC6
:101CA000809116018F5F883020F48093160180E0C8
:101CB00008951092160154985C9A8AE000008150B1
:101CC000E9F74C9B12C080910D0480FF03C0549A29
:101CD0005C9802C0549A5C9A809117018823E1F0C5
:101CE00081508093170180E00895809117018F3F04
:101CF000A9F08F5F80931701883C91F480910D04C7
:101D000080FD05C0816080930D0481E008958E7F81
:101D100080930D0481E0089580E0089580E00895A7
:101D200080E00895F89428E088E190E00FB6F894F8
:101D3000A895809360000FBE20936000FFCF809134
:101D40001B0182FF0BC081E080931C0187E686BDEA
:101D500086E085BB80936E0082E085BD089580910A
:101D6000260190912701009731F00E948014109273
:101D700027011092260180911B018F7380931B0114
:101D8000089508951F920F920FB60F9211248F930A
:101D90009F93189951C080910E0480FF1FC09091AD
:101DA0001A01911149C082FF19C084B5806284BDB7
:101DB00084B58F7E84BD85B5806485BD85B58F7BF8
:101DC00085BD81E080931C0182E080930E0494E342
:101DD00096BD96E095BB90936E0085BD80911D01E8
:101DE00090911E010097A9F48FEF97EF90931E0139
:101DF00080931D0180910E0480FD08C084E386BDA0
:101E000086E085BB80936E0082E085BD10921F0145
:101E100007C0189905C0977F90931E0180931D01FC
:101E200080911B018B7F80931B0110922001809178
:101E30000E04826080930E049F918F910F900FBECD
:101E40000F901F9018951F920F920FB60F921124AA
:101E50002F938F939F93EF93FF9320910E0420FF76
:101E60001EC08091210190912201969587959093B3
:101E700022018093210180FD0FC018BC84B58063CE
:101E800084BDEEE6F0E080818B7F808380910E043C
:101E90008B7F80930E0403C0246020930E04FF9177
:101EA000EF919F918F912F910F900FBE0F901F90E8
:101EB00018954FE95EE0BC0183E291E00E94D912DF
:101EC00080E0089554985C9A2098289A559A5D98D5
:101ED00092E094BD88E687BD84B5806284BD84B5F8
:101EE0008F7E84BD85B5806485BD85B58F7B85BDBE
:101EF00080E286BBEFE6F0E0808180628083E1E8EB
:101F0000F0E080818068808310922201109221018C
:101F100010921E0110921D0184E080931B0190938A
:101F20000E048093200110920D040895F8940C94EF
:101F30000038089580910D0486FD0E94960FE0916F
:101F40002301F0912401309739F0838181FF04C08F
:101F500081E380931F0103C084E380931F0184E029
:101F6000809320010895E0912301F0912401868D52
:101F7000982F9150968F882369F085818F7D858376
:101F800081E080931C0181E380931F0184E08093B2
:101F90002001089584E080931C0183E291E00E9477
:101FA000F81281E080931C010E949A0F08951F92FD
:101FB0000F920FB60F9211242F933F934F935F937D
:101FC0006F937F938F939F93AF93BF93CF93DF9341
:101FD000EF93FF93C0910E0485B58E7F85BDC1FF41
:101FE000DFC180911F01882321F0815080931F0160
:101FF000D7C180912001823009F4F8C030F48823E1
:1020000059F0813009F0CCC161C0833009F43CC182
:10201000843009F0C5C13BC180911D0190911E0122
:10202000AC01569547959A01306880FD4AC0442717
:1020300056704115564031F080911B0180688093A5
:102040001B0137C0D22F822F082E82958025082EA3
:1020500086958695802590E0019681FB662760F93C
:1020600070E0232F3327217033276217730731F075
:1020700080911B01806480931B011BC0E0912601AD
:10208000F0912701309749F40E94C812FC01909307
:10209000270180932601009761F08481DF01A80F5A
:1020A000B11D1596DC938F5F8A3110F4848301C0D3
:1020B000148282E080931F0181E08093200120E060
:1020C00030E030931E0120931D016AC180912601EA
:1020D00090912701892B71F480911C01833021F0AC
:1020E00080911C01823019F40E94B30F79C00E94C4
:1020F0009A0F76C085B5816085BD83E080931F010E
:1021000082E08093200180911B01807C41F08091CE
:102110001B0180911B018CE080931A0155C0A09196
:102120002601B091270114963C9114973130C9F4DF
:1021300080911C01833009F047C015968C918C3C2E
:1021400069F484E080931C0183E291E00E94F8121C
:1021500081E080931C010E949A0F36C00E94B30F49
:1021600033C03230A0F0315051F0FD01359690E08F
:1021700080E0219192278F5F3813FBCF01C090E060
:102180009095FD01E30FF11D8581981721F08CE0FA
:1021900080931A0119C014963C93149760E070E084
:1021A000CD0105960E940D0C882371F08CEC809374
:1021B0001A0180912601909127010E94610C1092D2
:1021C0002701109226010CC08091260190912701D1
:1021D000009731F00E94801410922701109226017E
:1021E00080911B018F7380931B01DAC080911A01CB
:1021F000882309F446C080911A01282F30E0220F6D
:10220000331F082E82958025082E86958695802579
:1022100090E0019681FD06C03C613093220120933D
:10222000210105C03E61309322012093210118BC99
:1022300084B5806384BDEEE6F0E080818B7F80838F
:1022400084E085BB80818460808380910E048B7FD5
:1022500080930E0480E286BBAFE6B0E08C91806292
:102260008C93A1E8B0E08C9180688C9381E080939E
:102270000E0482E286BD86E085BB808382E085BD58
:102280008FC00E949A0F8CC00E94B30F89C08091AA
:10229000230190912401009709F47AC020911C0138
:1022A000223009F47DC020911B012B7F20931B015C
:1022B00022E020931C01109219011092180121E0D4
:1022C000209325012091190130911801FC01E20FA2
:1022D000F11D258123272093180130911901FC015C
:1022E000E30FF11D25813F5F30931901822F90E0AC
:1022F000880F991F022E22952025022E26952695BD
:10230000202530E02F5F3F4F21FD06C09C61909358
:1023100022018093210105C09E6190932201809348
:10232000210118BC84B5806384BDEEE6F0E08081B5
:102330008B7F808384E085BB8081846080838091F3
:102340000E048B7F80930E0480911901E09123018C
:10235000F09124019481891718F082E0809325017F
:1023600080E286BBEFE6F0E0808180628083E1E876
:10237000F0E080818068808381E080930E0482E2B7
:1023800086BD86E085BB80936E0082E085BD08C077
:1023900015BC10926E0080911B01846080931B011C
:1023A000C0FFE3C088B581110FC082E288BD84B54B
:1023B000806284BD84B58F7E84BD84E085BBEEE6FB
:1023C000F0E08081846080838091210190912201DE
:1023D000019709F0CAC0EEE6F0E080818B7F808330
:1023E00080911A01882371F00E94AF0E10921A0199
:1023F00010921E0110921D0182E080930E040E9433
:102400009A0FB3C08091230190912401009709F4A1
:10241000ACC020912501223009F45CC020F42130A9
:1024200009F0A3C007C0233009F489C0243009F0A3
:102430009CC099C02091190130911801FC01E20F54
:10244000F11D258123272093180130911901FC01EA
:10245000E30FF11D25813F5F30931901822F90E03A
:10246000880F991F022E22952025022E269526954B
:10247000202530E02F5F3F4F21FD06C09C619093E7
:1024800022018093210105C09E61909322018093D7
:10249000210118BC84B5806384BDEEE6F0E0808144
:1024A0008B7F808384E085BB808184608083809182
:1024B0000E048B7F80930E0480911901E09123011B
:1024C000F09124019481891708F44FC082E0809331
:1024D00025014BC0209118012095822F90E0880F94
:1024E000991F022E22952025022E2695269520251D
:1024F00030E02F5F3F4F21FD06C09C619093220189
:102500008093210105C09E61909322018093210157
:1025100018BC84B5806384BDEEE6F0E080818B7FDB
:10252000808384E085BB80818460808380910E04F9
:102530008B7F80930E0483E08093250116C00E9458
:10254000AF0E83E080931C0110922501809320013F
:1025500082E080930E048EE080931F0110921E0192
:1025600010921D0102C00E94B30FFF91EF91DF9105
:10257000CF91BF91AF919F918F917F916F915F911B
:102580004F913F912F910F900FBE0F901F90189574
:102590008FE190E00E94E513E82FF92F309731F09A
:1025A00081E0828383831482118210828E2F9F2F79
:1025B0000895CF93CFB7F894FC01A081B181109713
:1025C00011F409C0DC018D919C9111970097D1F70E
:1025D0006D937C9308C0FC017183608341155105A4
:1025E00011F0FA010995CC230CF47894CF91089559
:1025F000CF93CFB7F894DC01ED91FC911197208136
:102600003181309741F02D933C93838180FF03C04B
:10261000CF010E948014CC230CF47894CF910895BC
:102620004FB7F894DC01ED91FC9111972081318135
:10263000309721F02D933C931182108244230CF4A7
:1026400078948E2F9F2F089508951F920F920FB6A2
:102650000F9211248F939F93AF93BF938091280182
:1026600090912901A0912A01B0912B010196A11D01
:10267000B11D8093280190932901A0932A01B09362
:102680002B01BF91AF919F918F910F900FBE0F9033
:102690001F901895109228011092290110922A017A
:1026A00010922B0182E08093B00087E08093B1000C
:1026B0001092B2008DE48093B300E0E7F0E08081F7
:1026C0008260808308950F931F93EFB7F894009171
:1026D00028011091290120912A0130912B01EE232C
:1026E0000CF47894040F151F261F371FFC0100837C
:1026F0001183228333831F910F9108954091280104
:102700005091290160912A0170912B01FC01808177
:102710009181A281B381481B590B6A0B7B0B81E02D
:1027200014161506160617060CF080E008950E9490
:10273000D913A59F900DB49F900DA49F800D911D5E
:10274000112408952F923F924F925F926F927F9241
:102750008F929F92AF92BF92CF92DF92EF92FF92B1
:102760000F931F93CF93DF93CDB7DEB7CA1BDB0B5D
:102770000FB6F894DEBF0FBECDBF09942A88398802
:1027800048885F846E847D848C849B84AA84B98409
:10279000C884DF80EE80FD800C811B81AA81B98115
:1027A000CE0FD11D0FB6F894DEBF0FBECDBFED0129
:1027B0000895A29FB001B39FC001A39F01D0B29F13
:1027C000700D811D1124911D08950F931F93CF93B8
:1027D000DF938230910510F482E090E0E0911104E3
:1027E000F091120420E030E0C0E0D0E023C040814E
:1027F000518148175907A8F04817590761F4828199
:102800009381209719F09B838A832EC090931204A2
:102810008093110429C02115310529F0421753076F
:1028200010F0A90102C0BE01DF0102811381EF0196
:102830009A01F8013097D9F62115310509F1281BC5
:10284000390B2430310590F412968D919C91139799
:102850006115710521F0FB019383828304C090937D
:10286000120480931104FD01329644C0FD01E20F71
:10287000F31F81939193225031092D933C933AC0D9
:1028800020910F0430911004232B41F42091020178
:10289000309103013093100420930F042091000124
:1028A000309101012115310541F42DB73EB740911A
:1028B000040150910501241B350BE0910F04F091A8
:1028C0001004E217F307A0F42E1B3F0B281739075B
:1028D00078F0AC014E5F5F4F2417350748F04E0F7C
:1028E0005F1F5093100440930F048193919302C093
:1028F000E0E0F0E0CF01DF91CF911F910F910895BB
:10290000EF92FF920F931F93CF93DF93009709F4F9
:102910008EC0DC01129713961C921E921297E090C3
:102920001104F0901204E114F10489F42D913C910A
:102930001197280F391F80910F049091100482176E
:10294000930789F5B0931004A0930F0470C0E701BA
:1029500020E030E001C0EA01CA17DB0738F44A8101
:102960005B819E0141155105B1F722C0AC01425077
:102970005109FA01D383C28300811181BC01600F28
:10298000711F6C177D0761F468817981600F711F79
:102990006E5F7F4F718360836A817B817383628303
:1029A0002115310529F4B0931204A09311043FC0FE
:1029B000F901B383A283E90149915991C40FD51F4D
:1029C000AC17BD0771F4DC019E918E91840F951FA9
:1029D00002969183808312968D919C911397938395
:1029E0008283A0E0B0E002C0D7017C01F7018281C0
:1029F00093810097C9F7C701029620813181820F28
:102A0000931F20910F04309110042817390779F48F
:102A1000109729F4109212041092110404C0139616
:102A20001C921E921297F0921004E0920F04CDB700
:102A3000DEB7E6E00C94CA13FB01DC0104C08D9103
:102A40000190801921F441505040C8F7881B990B20
:102A50000895FB01DC0102C001900D9241505040ED
:102A6000D8F70895DC01CB01FC01F999FECF06C02F
:102A7000F2BDE1BDF89A319600B40D92415050403C
:102A8000B8F70895262FF999FECF1FBA92BD81BDE0
:102A900020BD0FB6F894FA9AF99A0FBE01960895E0
:042AA000F894FFCFD8
:062AA400000013042000F5
:00000001FF
