:100000000C9479000C94E30A0C9496000C949600DE
:100010000C9496000C9496000C9496000C94960008
:100020000C9496000C9496000C9496000C949600F8
:100030000C9498000C9496000C94150C0C943F0BA7
:100040000C9496000C9496000C9496000C949600D8
:100050000C9496000C9496000C949D050C949600BC
:100060000C9496000C94960004010405017006019E
:10007000540701020D01FF1201840C010017011148
:10008000180134FF00FF408000C003000E1009403B
:100090000000FF030010F7082000000000010165C8
:1000A00006100000000001014B060200C200C3015F
:1000B00001460682C000FF0304048507820001FF99
:1000C0000302024407028001C0030303F206020098
:1000D00042C0C30404AF07028042C0C301106B07D3
:1000E000020043FFFF0202C406028003FF03020274
:1000F0003E0611241FBECFEFD8E0DEBFCDBF12E019
:10010000A6E0B1E001C01D92A23AB107E1F711E00B
:10011000A0E0B1E0E8E1FFE102C005900D92A63059
:10012000B107D9F70E9471040C948A0F0C94000057
:100130001F920F920FB60F9211240F900FBE0F90C7
:100140001F9018958CEC08958CEC08951F9313B1B3
:1001500026B149B169B1E9B199B1A6B186B1991F8A
:100160009927991F9295990F907E869586958695E9
:10017000879588278795892B169516951170812B61
:10018000269530E021703070220F331F822B469568
:100190004695469550E041705070440F551F440FEE
:1001A000551F842B62956695677070E06170707062
:1001B00033E0660F771F3A95E1F7862BE295E695D7
:1001C000E695E370F0E0E170F07024E0EE0FFF1FC1
:1001D0002A95E1F78E2BA695A695B0E0A170B07098
:1001E00096E0AA0FBB1F9A95E1F78A2B1F910895FD
:1001F0008330D1F0843028F4813081F0823088F46B
:100200000AC08530D1F08530A8F08630C9F087303B
:10021000E9F080E008958EEC91E014C08EEC91E05E
:1002200005C08FEC91E00EC08FEC91E00E94A3041A
:1002300082950AC080ED91E005C080ED91E0F6CF97
:1002400081ED91E00E94A3048F70089581ED91E00B
:100250000E94A30482958F7008950F931F931092AC
:100260000601EDE4F2E010821182329682E0ED3573
:10027000F807C9F784ED91E00E94A304082F8EEFE0
:1002800091E00E94A30410E082958F7002C0000FDD
:10029000111F8A95E2F700930A011092080110924B
:1002A0000701109209012298399853985598569849
:1002B00057983A983B982198299A3898409A50989C
:1002C000589A5198599A2398109280008BE0809305
:1002D000810089E79FE390938900809388001092C2
:1002E00085001092840081E01F910F910895DF92A4
:1002F000EF92FF920F931F93CF93DF93082FD62E89
:10030000142FE82EFF24C7018A589F4F880F991F8A
:10031000880F991F0E94A304382FA701440F551F6F
:10032000EA01C25BDD4F2881822F829586958695F2
:10033000837090E08130910509F46BC082309105A3
:1003400009F4E3C0892B09F00EC11D21812F90E033
:10035000002E02C0969587950A94E2F780FF03C1AC
:1003600033FD02C0802F16C034FF05C02F7D2883C7
:10037000802F885F0FC035FF05C020622883802F43
:10038000885F0CC036FF0EC0802F885F25FF04C039
:100390002F7D288360E003C02062288361E040E075
:1003A0000E944F08C7010196959587958A509E4FE8
:1003B0000E94A30490E0E0FE06C034E09695879585
:1003C0003A95E1F701968C010F701070C701880F04
:1003D000991F880F991F8A529E4F0E94A304F7010C
:1003E000EE0FFF1FDF01A35BBD4F90E09C01209F3C
:1003F000C001219F900D309F900D112401978C9387
:100400009F7011968C91E25BFD4F8073892B806405
:100410007AC0632F33FD7BC0FA01E35BFD4F80811F
:100420003181932F9F700097D1F08150904F9F7032
:100430008083892F8F70307F382B3183212F30E0DC
:100440008D2D90E08095909528233923002E02C0B1
:10045000369527950A94E2F720FF85C07EC064FF99
:1004600005C02F7D2883802F885F0FC065FF05C0E2
:1004700020622883802F885F0CC066FF0EC0802F0B
:10048000885F25FF04C02F7D288360E003C02062C1
:10049000288361E040E00E944F08C70101969595CE
:1004A000879586509E4F0E94A30490E0E0FE06C010
:1004B00014E0969587951A95E1F701968C010F70D7
:1004C0001070C701880F991F880F991F89529E4F7E
:1004D0000E94A304F701EE0FFF1FDF01A35BBD4FD6
:1004E00090E09C01209FC001219F900D309F900DB6
:1004F000112401978C939F7011968C91E25BFD4FB4
:100500008073892B806880832EC033FD2AC0FA0156
:10051000E35BFD4F80813181932F9F70009709F13C
:100520008150904F9F708083892F8F70307F382B40
:100530003183212F30E08D2D90E0809590952823F8
:10054000392302C036952795EA94E2F720FF0BC0C5
:10055000802F60E040E00E944F0888818F7388837D
:1005600002C02F732883DF91CF911F910F91FF90CD
:10057000EF90DF900895CF92DF92FF920F931F9339
:10058000CF93DF93F82ED62E042FC82FD0E0CE01C4
:10059000880F991F880F991F89529E4F0E94A304AC
:1005A000282F10E00F2C02C0169507950A94E2F749
:1005B00000FFCAC08D2D90E00F2C02C09595879545
:1005C0000A94E2F7C22EDD2480FF4BC0C6018C7076
:1005D00090708430910561F48F2D61E040E00E94BD
:1005E0004F08FE01EE0FFF1FE35BFD4F81E028C0C7
:1005F0008830910559F48F2D60E040E00E944F084B
:10060000FE01EE0FFF1FE35BFD4F11C00C97C9F415
:100610008E01000F111F035B1D4FF801808188239D
:1006200041F08F2D60E040E00E944F08F8011082F9
:1006300008C08F2D61E040E00E944F0881E0F80182
:100640008083C601807C90708034910509F44AC093
:100650008038910509F454C0803C910509F074C0BC
:100660005CC0C601837090708130910561F48F2D5C
:1006700061E040E00E944F08FE01EE0FFF1FE35BC8
:10068000FD4F81E028C08230910559F48F2D60E044
:1006900040E00E944F08FE01EE0FFF1FE35BFD4F9D
:1006A00011C00397C9F48E01000F111F035B1D4F8A
:1006B000F8018081882341F08F2D60E040E00E94A6
:1006C0004F08F801108208C08F2D61E040E00E94C1
:1006D0004F0881E0F8018083C601807390708031FB
:1006E000910559F48F2D885F61E040E00E944F082A
:1006F000CC0FDD1FC35BDD4F25C08032910559F45F
:100700008F2D885F60E040E00E944F08CC0FDD1F16
:10071000C35BDD4F10C0C097B9F4CC0FDD1FC35BC6
:10072000DD4F89819F2D985F882339F0892F60E004
:1007300040E00E944F08198207C0892F61E040E025
:100740000E944F0881E08983DF91CF911F910F9123
:10075000FF90DF90CF900895DF92EF92FF920F937A
:100760001F93CF93DF938DE091E00E94A3048F3F0E
:1007700009F0AFC080910A01882309F460C081505C
:1007800080930A01882309F0A4C00E94A6008093E8
:100790000601C0E0D0E045EDE42E41E0F42E08E093
:1007A000C7010E94A304182F107C8C2F0E94F80010
:1007B000813019F08330C9F52CC0103431F48C2FFE
:1007C00061E040E00E944F0826C0103831F48C2FC1
:1007D00060E040E00E944F0823C0103C31F560917A
:1007E000060170E00C2E02C0759567950A94E2F739
:1007F00061708C2F40E00E944F086091060170E00C
:100800000C2E02C0759567950A94E2F76170802FEF
:1008100009C0103419F4802F61E004C0103829F4A5
:10082000802F60E040E00E944F08219684E090E035
:10083000E80EF91E0F5F003109F0B2CF4AC0809177
:100840000701909108012FEF8F3F920751F410920A
:10085000080110920701809109018F5F80930901BF
:1008600005C001969093080180930701009106014D
:100870000E94A600F82EF02689F082ED91E00E94F9
:10088000A30490E028EE33E004C0F9013197F1F7BA
:100890009F5F9817D0F30E94A600082F10E0812FC9
:1008A0000E94F800813019F0833061F406C0812F76
:1008B000602F4F2D0E94BB0205C0812F602F4F2D4E
:1008C0000E9477011F5F183051F7FF2011F000934D
:1008D0000601DF91CF911F910F91FF90EF90DF9074
:1008E00008951F9314BE88E10FB6F89480936000BA
:1008F000109260000FBE0E94360E85E291E068E221
:1009000071E00E94D6040E94BF0B789488E690E0C4
:100910000E9429090E942D012CE088E190E00FB689
:10092000F894A895809360000FBE2093600012E0B9
:10093000A8950E946A0A0E949909B19BF9CF16BB3B
:100940000E94AC03F5CF8036910519F480919C028A
:1009500008959C012050314041E02230340740F49A
:10096000E0915D02F0915E02E20FF31F8081089535
:10097000FC01EE5CF040E331F10510F08FEF0895DB
:10098000EF59FD4F8081089580910B0190910C01EA
:10099000892B19F480E090E008958FB386958170DB
:1009A000089580915D0290915E020895AB01FD9AD9
:1009B000FC987093600260935F0290935E02809354
:1009C0005D0260E070E00E946C0F0895EF92FF926C
:1009D0000F931F93CF93DF937C01C0E0D0E097018A
:1009E0002C0F3D1FF901059114912E5F3F4FF90126
:1009F0006491C801805091408F3F910509F010F437
:100A00000E947C0F0F3F110529F02396F3E0C837B1
:100A1000DF0729F740915F025091600280915D02EB
:100A200090915E0260E070E00E946C0FDF91CF91C8
:100A30001F910F91FF90EF9008950F931F93E091F6
:100A40000B01F0910C01309799F08281823081F096
:100A500082E082838F010B5F1F4FF80181819281B9
:100A600064810E947C0FF80183818F5F8383FB9AEE
:100A70001F910F910895CF92DF92EF92FF920F9303
:100A80001F93CF93DF93062FEA01C12C2FEFD22EB5
:100A9000C80ED91E2FEFC216D10409F068F51FB792
:100AA000F8940E944F0E7C0117FF01C07894F70163
:100AB0003596D282C182D70115960C931382970185
:100AC000275F3F4FC901BE01402F50E00E94630FD6
:100AD00020915D0230915E022C0D3D1DC901BE01C9
:100AE000402F50E00E94630F8BE091E0B7014DE191
:100AF00055E00E94170E18C09C012E5C3040233137
:100B0000310560F4D901AF59BD4FFA0102C081919E
:100B10008D938E2F8C1B8017D0F306C080369105E5
:100B200019F4888180939C02DF91CF911F910F91DE
:100B3000FF90EF90DF90CF9008951F920F920FB625
:100B40000F9211242F933F934F935F936F937F9353
:100B50008F939F93AF93BF93CF93DF93EF93FF93C5
:100B6000E0910B01F0910C01EF0125969B818581AD
:100B7000891761F48BE091E00E94370E80910B01A0
:100B800090910C01892B91F4FB9810C0892F90E073
:100B900029813A81FE01E80FF91F820F931F6481BA
:100BA0000E947C0F8B818F5F8B83FB9AFF91EF916B
:100BB000DF91CF91BF91AF919F918F917F916F9175
:100BC0005F914F913F912F910F900FBE0F901F900B
:100BD00018956F927F928F929F92BF92CF92DF92E1
:100BE000EF92FF920F931F93FC01B62EEE24FF2489
:100BF000870147EB642E4DE1742E41EC842E44E0D6
:100C0000942E2CC0C08038E0D32ED801C70188278D
:100C1000B7FD83959927AA27BB279695982F8827F4
:100C2000979587952C2D30E020783070B801A7017A
:100C3000440F551F661F771F8217930739F07A01FB
:100C40008B01E624F7240825192502C07A018B01BF
:100C5000DA9411F0CC0CD9CF3196BA94BB2091F62E
:100C6000B701C8011F910F91FF90EF90DF90CF90D7
:100C7000BF909F908F907F906F9008950E94C404C2
:100C80008823E1F70E94A90A80E008958CEC0E9475
:100C9000A60A80E00895FC01359690910E018181AD
:100CA000981771F490910F018281981749F48091FF
:100CB0000D01882329F010920D0181E0809310012D
:100CC0008CEC0E94A60A80E00895FC0180910D0141
:100CD000882361F4359691E090930D018181809392
:100CE0000E01828180930F01909310018CEC0E9481
:100CF000A60A80E008951F93CF93DF93EC01162F8F
:100D00000E944F0EDC01009709F1FC01359683E04B
:100D10005E968C935E9780EB15968C9315979091C9
:100D20009A0280919B0281839283812F8150806FF0
:100D30008583209729F0888183838981848302C0F9
:100D4000138214821A5F14961C931497CD01DF91BD
:100D5000CF911F910895CF93DF93EC0125960696CE
:100D600061E00E947B069C01009759F0FC013596DA
:100D700080E685838E818C738E538683C9010E94A1
:100D8000E60BDF91CF910895EF92FF920F931F939F
:100D9000CF93DF937C01069664E00E947B06EC0112
:100DA000009711F480E017C08C010B5F1F4F8CEC93
:100DB0000E94A60AC7010E94AB0683E6F80185835C
:100DC00083E4868380E487831D8682E18E87CE015B
:100DD0000E94E60B8CECDF91CF911F910F91FF9059
:100DE000EF900895CF92DF92EF92FF920F931F93AF
:100DF000DF93CF930F92CDB7DEB77C01FC01048562
:100E0000069665E00E947B066C01009711F480E075
:100E100031C0077009838C010B5F1F4F8CEC0E945F
:100E2000A60AC7010E94AB0684E7F801858380917A
:100E30001001880F880F816486838981806C878385
:100E4000F7018585F6018587F981F13031F485E078
:100E5000F601868785EC878703C0F601168617861C
:100E6000C6010E94E60B809110018F5F8F70809306
:100E700010018CEC0F90CF91DF911F910F91FF909B
:100E8000EF90DF90CF900895EF92FF920F931F9312
:100E900080919C0280FF19C080E090E062E00E9497
:100EA0007B068C0155E0E52EF12CE80EF91E8CEC4A
:100EB0000E94A60A8CEBF801858381E0F701868306
:100EC00080E48783C8010E94E60B8CEC1F910F9190
:100ED000FF90EF9008950F931F938C01F801958573
:100EE00080E0268564856F70A801415F5F4F820FA7
:100EF000911D0E943B058CEC0E94A60AC8010E942D
:100F0000AB068CEC1F910F9108950F931F93CF9315
:100F1000DF93EC0180919C0280FF1BC08E01035F78
:100F20001F4F8CEC0E94A60A3D8520E030939B0267
:100F300020939A02F801818190E0822B932B909369
:100F40009B0280939A0287E191E062E0A8010E94EF
:100F50003B0580E0DF91CF911F910F9108958F9213
:100F60009F92AF92BF92CF92DF92EF92FF920F9338
:100F7000DF93CF9300D0CDB7DEB74C01FC010485E1
:100F80000F70958580E026855C01A20EB11C65017D
:100F9000602F6C5FC40106960E947B067C0100975F
:100FA00011F480E03AC005969A8389838CEC0E9404
:100FB000A60AC4010E94AB060D59E981FA81058396
:100FC000035680911001880F880F82648683802FDA
:100FD00080648783F4018585F7018587F401868520
:100FE000F7018687470108C0C6010E94A304F401E7
:100FF00086870894C11CD11C0894811C911C8C2DDF
:101000008A19801788F3C7010E94E60B80911001AE
:101010008F5F8F70809310018CEC0F900F90CF91A9
:10102000DF910F91FF90EF90DF90CF90BF90AF9046
:101030009F908F900895CF92DF92EF92FF920F933F
:101040001F93F82ED62E81E191E00E94A304082F71
:1010500010E0C80180509F4F0E94A304C82EDF0CEF
:101060000F5F1E4FEE2410C0C8010E94A304F82E8B
:101070008EEFF81631F0C80101960E94A3048D1579
:1010800031F0E3940E5F1F4FEC1470F3FF248F2DAB
:101090001F910F91FF90EF90DF90CF900895EF9206
:1010A000FF920F931F93CF93DF93F62E642F0E942E
:1010B0001B08E82E8823D1F10E944F0EEC01009707
:1010C000A9F18C010B5F1F4F83E08E8F88E08C832A
:1010D0008CEB8D8387E191E00E94A304D8011196E7
:1010E0008C9388E191E00E94A304F8018283EE2DA5
:1010F000F0E0EE0FFF1FEF58FD4F8281D8011396ED
:101100008C931397818114968C93149781EE159686
:101110008C93159716961C92BFE7FB22E0E8FE0E13
:10112000D8011796FC92CE010E94E60BDF91CF9179
:101130001F910F91FF90EF900895DF92EF92FF9231
:101140000F931F93CF93DF93E82ED62E642F0E9428
:101150001B08F82E882309F442C00E944F0EEC01B0
:101160000097E9F18C010B5F1F4F83E08E8F89E0C0
:101170008C838CEB8D8387E191E00E94A304D801DE
:1011800011968C9388E191E00E94A304F801828378
:10119000EF2DF0E0EE0FFF1FEF58FD4F8281D801D9
:1011A00013968C931397818114968C93149781EDE9
:1011B00015968C93159716961C9283EF91E00E94DA
:1011C000A30490E002C095958795EA94E2F78170B8
:1011D0008D258058F8018783CE010E94E60BDF91B0
:1011E000CF911F910F91FF90EF90DF900895CF93D3
:1011F000DF93EC018DE091E00E94A3048F3F61F446
:10120000CE010E94A2008C3C21F40E94A60A8CEC24
:1012100004C08CE00E94A60A8CE0DF91CF91089573
:10122000CF93DF93EC018DE091E00E94A3048F3F08
:1012300061F4CE010E94A4008C3C21F40E94A60A15
:101240008CEC04C08CE00E94A60A8CE0DF91CF9168
:101250000895BF92CF92DF92EF92FF920F931F9368
:10126000CF93DF93EC0187E191E00E94A304182F54
:1012700000E010939B0200939A0288E191E00E94A3
:10128000A30490E0082B192B10939B0200939A0261
:1012900085E091E00E94A3048F3F49F486E091E04D
:1012A0000E94A3048F3F19F4CE010E94E60486E158
:1012B00091E00E94A3048F3F41F410927302F9E180
:1012C000CF2EF1E0DF2EBB2426C081508093730225
:1012D0008431A8F3F2CF0B2D10E076010894E11CC5
:1012E000F11CC6010E94A304D82FC0E0000F111FFB
:1012F0000D581D4FF801D283C18382E090E0C80EE3
:10130000D91EC7010E94A30490E08C2B9D2BF801ED
:1013100092838183B39480917302B816E0F2DF91D7
:10132000CF911F910F91FF90EF90DF90CF90BF90E2
:101330000895EF92FF920F931F93CF93DF938091C5
:10134000110190911201892B09F4B4C0E0911101AF
:10135000F09112014481415060911101709112018C
:10136000442309F4A3C090E020E030E0E0911101B3
:10137000F0911201E20FF31F858198272F5F3F4FF5
:101380002417A0F3E0911101F09112019095E40F60
:10139000F11D8581981721F08CE00E94A60A86C075
:1013A000DB01159613962C91139714963C91149784
:1013B000922F80E0432F50E0482B592B15960C912B
:1013C000159716968C911697C82FD0E0902F80E035
:1013D000BC016C2B7D2BCB018C7F9078805090488A
:1013E000B1F4222331F030917302E4E7F2E020E01F
:1013F0000CC03323C1F710E80BC0819191914817BD
:10140000590711F410E41BC02F5F2317B0F310E04D
:1014100080919A0290919B024817590769F4CB0179
:1014200090788038910511F4106204C081389105DC
:1014300009F4106107FF1260112309F437C00F701F
:101440000F5FFC2EEE2417968C9190E0E82AF92A83
:10145000C6E8D0E0FE018491319645915491FE0199
:101460003396259134912596FE0164912196FE01D3
:10147000949126978123A1F02E213F2142175307F3
:1014800079F4061768F0901758F0CE010796FC0122
:10149000259134918091110190911201F9010995E2
:1014A000F0E0C93EDF0711F02996D4CF81E191E049
:1014B0000E94370EDF91CF911F910F91FF90EF9017
:1014C0000895BC0181E191E040E050E00E94170ED8
:1014D00080E00895809113018F5F80931301803124
:1014E00098F1109213012098289A80E000008F5FF5
:1014F0008A30E1F7189B12C080919C0280FF03C0E4
:10150000209A289802C0209A289A80911401882352
:10151000D9F081508093140180E0089580911401E6
:101520008F3F19F08F5F8093140180911401883CE4
:1015300059F480919C0280FD02C0816001C08E7FC1
:1015400080939C0281E0089580E0089580932101BA
:101550000895F89428E088E190E00FB6F894A895F3
:10156000809360000FBE20936000FFCF482F50E0B3
:10157000440F551F9A013C613093190120931801C3
:10158000082E82958025082E86958695802590E0E8
:10159000019681FF05C05E615093190140931801C7
:1015A0000895E0911F01F0912001309729F0838187
:1015B00081FF02C081E301C084E38093240184E0C1
:1015C0008093150108951F920F920FB60F92112468
:1015D0002F933F938F939F9389B18695869580FD36
:1015E00045C080919D028570853071F45C9881E0E2
:1015F0008093170192E090939D0284E386BD86E07C
:1016000085BB80936E0095BD20911A0130911B011E
:1016100021153105A9F48FEF97EF90931B0180936B
:101620001A0180919D0280FD08C084E386BD86E09A
:1016300085BB80936E0082E085BD109224010AC0B4
:1016400089B18695869580FD05C0377F30931B0153
:1016500020931A0180911C018B7F80931C011092B2
:10166000150180919D02826080939D029F918F91D0
:101670003F912F910F900FBE0F901F9018951F92C2
:101680000F920FB60F9211248F939F935C988091C5
:10169000180190919D0280FF02C0946001C09B7F61
:1016A00090939D029F918F910F900FBE0F901F906E
:1016B000189590912301A0911F01B0912001809174
:1016C0002201FD01E80FF11D8581982790932301E8
:1016D00090912201A90FB11D15968C919F5F909357
:1016E00022010E94B60A90912201E0911F01F0911F
:1016F00020018481981718F082E0809316010895E4
:1017000080911C0182FF0BC081E08093170187E666
:1017100086BD86E085BB80936E0082E085BD08951E
:101720005C98209A289891E040E45CE960E27EE4CD
:1017300017C0289821E030E0FA013197F1F72F5FC8
:101740003F4F23333105C1F7289A21E030E0FA01F9
:101750003197F1F72F5F3F4F23333105C1F79F5F7B
:10176000891738F721E030E0FB013197F1F72F5F5F
:101770003F4F93E0293E3907B9F791E0F1CF209828
:10178000289A52985A9A549A5C98E9E6F0E0808137
:101790008260808380818E7F8083E89A92E094BD0E
:1017A00088E687BD88E288BD109219011092180161
:1017B00010921B0110921A0184E080931C019093F7
:1017C0009D028093150110929C020895BC018FE147
:1017D00091E040E85BE00E94170E80E0089584E00D
:1017E000809317018FE191E00E94370E81E0809392
:1017F00017010E94D10A0895E0911F01F091200184
:10180000868D8150868F8F5F69F085818F7D85837E
:1018100081E08093170181E38093240184E0809329
:10182000150108950E94EF0B08951F920F920FB6B5
:101830000F9211240F931F932F933F934F935F9316
:101840006F937F938F939F93AF93BF93CF93DF93C8
:10185000EF93FF9385B58E7F85BD80919D02282FE4
:1018600030E0E901C170D07080FF04C080911801A0
:1018700080FF5C9A21FF14C180912401882321F00C
:101880008150809324010CC110911501123009F48C
:10189000BDC0133030F4112359F0113009F000C1EC
:1018A00065C0133009F4CAC0143009F0F9C0C9C0CA
:1018B00080911A0190911B019C0136952795306803
:1018C00080FD4FC0C901807096708050964021F015
:1018D00080911C01806819C0122F822F082E8295DA
:1018E0008025082E86958695802590E00196959511
:1018F000879581709070232F332721703070821765
:10190000930731F080911C01806480931C0121C0F9
:1019100080911D0190911E01892B31F40E944F0E80
:1019200090931E0180931D01A0911D01B0911E0195
:10193000109779F014968C911497FD01E80FF11D22
:1019400015838F5F14968C9314978A3110F0149638
:101950001C9282E08093240181E08093150120E0B5
:1019600030E030931B0120931A019AC0E0911D01D1
:10197000F0911E01309771F480911701833021F0AE
:1019800080911701823019F40E94FC0B3BC00E9429
:10199000D10A38C085B5816085BD83E0809324017C
:1019A00082E08093150180911C01807C41F0809140
:1019B0001C0180911C018CE08093210117C084815F
:1019C000813069F480911701833081F485818C3CEA
:1019D00019F40E94EF0B0AC00E94FC0B07C0CF0154
:1019E0000E94610A10921E0110921D0180911D013A
:1019F00090911E01009731F00E940B0F10921E0172
:101A000010921D0180911C018F7348C080912101AB
:101A1000882389F0809121010E94B60A81E08CBB65
:101A2000E89A80939D0282E286BD86E085BB809322
:101A30006E0015BD35C00E94D10A32C00E94FC0B59
:101A40002FC080911F0190912001892B09F1809175
:101A50001701823029F180911C018B7F80931C013A
:101A600002E000931701109222011092230111E06D
:101A7000109316010E94590B1CBBE89A10939D020B
:101A800082E286BD86E085BB80936E0005BD08C0FE
:101A900015BC10926E0080911C01846080931C0123
:101AA000CD2B09F476C080911801909119018130F5
:101AB000910509F068C0809121018823E9F08091A7
:101AC0001D0190911E01009731F00E940B0F1092A2
:101AD0001E0110921D0180911C018F7380931C01C7
:101AE0001092210110921B0110921A0182E0809342
:101AF0009D020E94D10A4DC080911F01909120014A
:101B0000892B09F446C080911601823069F0833038
:101B100018F48130F1F505C0833079F08430C9F5CF
:101B20002FC00E94590B35C08091230180950E94DF
:101B3000B60A83E0809316012CC080911D0190911C
:101B40001E01009731F00E940B0F10921E0110929F
:101B50001D0180911C018F7380931C0183E0809391
:101B60001701109216018093150182E080939D0267
:101B70008EE08093240110921B0110921A0109C07B
:101B80000E94FC0B06C0969587959093190180934F
:101B90001801FF91EF91DF91CF91BF91AF919F918C
:101BA0008F917F916F915F914F913F912F911F91F5
:101BB0000F910F900FBE0F901F9018950F931F93CA
:101BC000CF93DF930E944F0EEC01009759F18C01E7
:101BD0000B5F1F4F80911C01846080931C0183E088
:101BE0008E8F89E08C8380EB8D8387E191E00E946A
:101BF000A304F801818388E191E00E94A304F80125
:101C0000828381E183838EEF848383EF858380ECFD
:101C1000868380E887838FE191E0BE0140E85BE046
:101C20000E94170EDF91CF911F910F9108951F937E
:101C3000DC011FB7F894ED91FC911197309751F0AA
:101C4000CF010190F081E02D3097D1F7FC01718335
:101C5000608307C06D937C934115510511F0FA0123
:101C6000099517FF01C078941F91089508951F9357
:101C7000DC011FB7F894ED91FC911197808191815F
:101C8000309741F08D939C93838180FF03C0CF01F7
:101C90000E940B0F17FF01C078941F9108958FE1E8
:101CA00090E00E945E0EFC01009731F081E082839B
:101CB0008383148211821082CF010895CF93DF9322
:101CC000BC018230910510F462E070E0A091A002A6
:101CD000B091A102ED01E0E0F0E040E050E021C071
:101CE000888199818617970769F48A819B8130974B
:101CF00019F09383828304C09093A1028093A00281
:101D0000FE0134C06817790738F44115510519F000
:101D10008417950708F4AC01FE018A819B819C0120
:101D2000E9012097E9F641155105A9F1CA01861B81
:101D3000970B049708F4BA01E0E0F0E02AC08D9117
:101D40009C91119784179507F9F46417750781F42E
:101D500012968D919C911397309719F093838283FB
:101D600004C09093A1028093A002FD0132964FC05F
:101D7000CA01861B970BFD01E80FF91F6193719350
:101D800002978D939C9343C0FD01828193819C01B6
:101D9000D9011097A1F680919E0290919F02892B04
:101DA00041F4809102019091030190939F028093EE
:101DB0009E0240910401509105014115510541F4E5
:101DC0004DB75EB78091000190910101481B590BFE
:101DD00020919E0230919F0224173507B0F4CA016A
:101DE000821B930B8617970780F0AB014E5F5F4F06
:101DF0008417950750F0420F531F50939F02409352
:101E00009E02F9016193719302C0E0E0F0E0CF011E
:101E1000DF91CF910895CF93DF93009709F450C0DD
:101E2000EC0122971B821A82A091A002B091A1021C
:101E3000109709F140E050E0AC17BD0708F1BB83F3
:101E4000AA83FE0121913191E20FF31FAE17BF0764
:101E500079F48D919C911197280F391F2E5F3F4F78
:101E60003983288312968D919C9113979B838A8343
:101E70004115510571F4D093A102C093A00220C076
:101E800012968D919C911397AD01009711F0DC0192
:101E9000D3CFFA01D383C28321913191E20FF31F93
:101EA000CE17DF0769F488819981280F391F2E5FCB
:101EB0003F4FFA01318320838A819B819383828300
:101EC000DF91CF910895FB01DC0102C001900D92DA
:101ED00041505040D8F70895DC01CB01FC01F9993D
:101EE000FECF06C0F2BDE1BDF89A319600B40D9266
:101EF00041505040B8F70895262FF999FECF1FBAE8
:101F000092BD81BD20BD0FB6F894FA9AF99A0FBE22
:081F100001960895F894FFCF3B
:061F18002000A2020000FF
:00000001FF
