:100000000C94A2000C94BF000C94BF000C94BF0091
:100010000C94BF000C94BF000C94BF000C942014EF
:100020000C94BF000C94BF000C94BD0F0C94BF0047
:100030000C94BF000C94BF000C94D2100C941E10B2
:100040000C94BF000C94BF000C94BF000C94BF0034
:100050000C94BF000C94BF000C9436090C94BF00A4
:100060000C94BF000C94BF00017D00000000000054
:100070000000000000000000000000000007010276
:100080000D01FF1201840C010000000003010004B7
:100090000104050170060154FF00FF0D0000001A65
:1000A0000000003400000068000000D0000000A044
:1000B0000100004003000080060000000D00000069
:1000C0001A0000003400000068000000D0000000AA
:1000D000A00100004003000080060002008000FF35
:1000E0000101870A02008100FF0101990A0200C292
:1000F00000C30101AF0A82C000FF030404210C8287
:100100000001FF030202EF0B028001C0030303ACF6
:100110000B020042C0C30404520B028042C0C30160
:1001200010010C020043FFFF0202310B028003FFAB
:10013000030202CF0A0000000000000101020304D4
:10014000060A0E0E11241FBECFEFD8E0DEBFCDBFD2
:1001500014E0A6E0B1E001C01D92A331B107E1F7C0
:1001600011E0A0E0B1E0EAE9FCE202C005900D92E6
:10017000A630B107D9F70E943C0F0C944B160C9493
:100180000000CF92DF92EF92FF92389839983A9818
:100190003B983C983D9856985798219A86E5E2EF0F
:1001A000F2E0DF011D928A95E9F78EEF91E00E945F
:1001B0007F0982958F70E82FF0E0EE0FFF1FEE0FA2
:1001C000FF1FE556FF4FC590D590E590F49084ED64
:1001D00091E00E947F098F77A82FB0E0A7019601D8
:1001E0000E949214AB01BC0183E493E00E945E1470
:1001F000E7E4F3E080818160808381E0FF90EF900D
:10020000DF90CF90089566B156B146B136B126B1B0
:1002100096B189B179B170786170672B5270562BA5
:100220004470452B3870342B2071232B9072922B05
:100230008074892B0895A0E0B0E0E1E2F1E00C9435
:10024000A2148EEC91E00E947F0905ED11E0689404
:10025000992493F8C0E0D0E0AA24A394B12C0F2EE7
:10026000F4EFCF2EF2E0DF2EF02D0F2EF5EFEF2E74
:10027000F2E0FF2EF02D0FC0882D869590E082537E
:100280009E4F0E947F0980FE02C082958F7021964A
:1002900093940C5F1F4F8C2E8F70813021F0833030
:1002A00009F069C057C07C2EC8010E947F09807C7C
:1002B0008034B9F48A2D0C2E01C0880F0A94EAF715
:1002C000F6019081982B9083F7019081892B808390
:1002D00061E08C2F0E94CA0E61E0892D0E94CA0E37
:1002E0004AC0803849F460E08C2F0E94CA0E60E05A
:1002F000892D0E94CA0E3FC0803CE9F50E9403018F
:10030000282F30E00C2E02C0359527950A94E2F78D
:1003100020FF17C08A2D0C2E01C0880F0A94EAF71F
:10032000F6019081982B9083F7019081892B80832F
:1003300061E08C2F0E94CA0E61E0892D0E94CA0ED6
:100340001AC060E08C2F0E94CA0E60E0892D0E94C6
:10035000CA0E11C0C8010E947F09807C803429F434
:1003600061E0892D0E94CA0E06C0803821F460E049
:10037000892D0E94CA0E8394FFE09F127DCFCDB7D6
:10038000DEB7EDE00C94BE14A0E0B0E0EAECF1E0E2
:100390000C94A514B82EC82FD0E08091F20290E002
:1003A0000B2C02C0959587950A94E2F7DD24D3942F
:1003B000D822C090F3028E01000F111F000F111FF1
:1003C00078012BE2E21A2EEFF20AC7010E947F09A0
:1003D000837009F4BDC34091400350E00B2C02C070
:1003E000559547950A94E2F74170552720914103AE
:1003F00030E00B2C02C0359527950A94E2F7217066
:100400003327823019F0942F822F08C091E0452BBA
:1004100009F090E081E0232B09F080E0913009F0B1
:100420008CC08111A8C3C7010E947F0980738031ED
:10043000B1F481E090E00B2C01C0880F0A94EAF738
:10044000E4EFF2E09081982B9083E5EFF2E0908169
:10045000892B80830F2EF3E0AF2EF02D8FC38032D7
:10046000C1F481E090E00B2C02C0880F991F0A9420
:10047000E2F78095E4EFF2E0908198239083E5EF36
:10048000F2E09081892380830F2EF3E0AF2EF02DD0
:1004900075C3803309F071C34091F402842F90E05A
:1004A0000B2C02C0959587950A94E2F780FF0DC04A
:1004B00021E030E00B2C02C0220F331F0A94E2F738
:1004C000209542234093F4020BC081E090E00B2C76
:1004D00002C0880F991F0A94E2F7842B8093F402DC
:1004E0004091F502842F90E00B2C02C095958795E2
:1004F0000A94E2F780FF11C021E030E00B2C02C02B
:10050000220F331F0A94E2F7209542234093F5020D
:100510000F2EF3E0AF2EF02D31C381E090E00B2CD5
:1005200002C0880F991F0A94E2F7842B8093F5028A
:100530000F2EF3E0AF2EF02D21C3813009F00AC356
:10054000CE018A589F4F880F991F880F991F0E94CC
:100550007F0983708130B1F481E090E00B2C01C001
:10056000880F0A94EAF7E4EFF2E09081982B9083E9
:10057000E5EFF2E09081892B80830F2EF3E0AF2E20
:10058000F02DEBC28230C1F481E090E00B2C02C070
:10059000880F991F0A94E2F78095E4EFF2E09081CA
:1005A00098239083E5EFF2E09081892380830F2EDA
:1005B000F3E0AF2EF02DD1C2833009F0CDC2DD20A3
:1005C000B1F081E090E00B2C01C0880F0A94EAF7AB
:1005D000E4EFF2E09081982B9083E5EFF2E09081D8
:1005E000892B80830F2EF3E0AF2EF02DB6C281E071
:1005F00090E00B2C02C0880F991F0A94E2F78095B7
:10060000E4EFF2E0908198239083E5EFF2E09081AF
:10061000892380830F2EF3E0AF2EF02D9EC2C801F8
:1006200089529E4F0E947F09D110A7C091E0C91244
:10063000A4C0982F9370913081F4E4EFF2E021E0B0
:1006400030E00B2C02C0220F331F0A94E2F7908196
:10065000292B2083AA24A3943DC0923089F4E4EF8F
:10066000F2E021E030E00B2C02C0220F331F0A948D
:10067000E2F72095908129232083AA24A3942AC0FD
:10068000933041F59091F402292F30E00B2C02C0F9
:10069000359527950A94E2F720FF0FC041E050E01E
:1006A0000B2C02C0440F551F0A94E2F74095942387
:1006B0009093F402AA24A3940DC021E030E00B2C07
:1006C00002C0220F331F0A94E2F7922B9093F40298
:1006D000AA24A3948073803189F4E5EFF2E081E0ED
:1006E00090E00B2C02C0880F991F0A94E2F79081CA
:1006F000892B808322E0A22AD12CE9C0803291F498
:10070000E5EFF2E081E090E00B2C02C0880F991F2A
:100710000A94E2F7809590818923808382E0A82A59
:10072000D12CD5C0803309F0CDC04091F502842F83
:1007300090E00B2C02C0959587950A94E2F780FF14
:100740000DC021E030E00B2C02C0220F331F0A94B1
:10075000E2F7209542234093F5020BC081E090E040
:100760000B2C02C0880F991F0A94E2F7842B809308
:10077000F50292E0A92AD12CAAC0982F9C7094303F
:1007800081F4E4EFF2E021E030E00B2C02C0220F14
:10079000331F0A94E2F79081292B2083AA24A39483
:1007A0003EC0983089F4E4EFF2E021E030E00B2C19
:1007B00002C0220F331F0A94E2F72095908129236B
:1007C0002083AA24A3942BC09C3049F59091F40275
:1007D000292F30E00B2C02C0359527950A94E2F7BB
:1007E00020FF0FC041E050E00B2C02C0440F551F0A
:1007F0000A94E2F7409594239093F402AA24A394D8
:100800000EC041E050E09A010B2C02C0220F331FB2
:100810000A94E2F7292B2093F402AA24A394807C63
:10082000803489F4E5EFF2E081E090E00B2C02C027
:10083000880F991F0A94E2F79081892B808322E028
:10084000A22AD12C44C0803891F4E5EFF2E081E097
:1008500090E00B2C02C0880F991F0A94E2F7809554
:1008600090818923808382E0A82AD12C30C0803CEB
:1008700059F54091F502842F90E00B2C02C095951C
:1008800087950A94E2F780FF0DC021E030E00B2C41
:1008900002C0220F331F0A94E2F7209542234093AF
:1008A000F5020CC021E030E0C9010B2C02C0880F1A
:1008B000991F0A94E2F7842B8093F50292E0A92A0B
:1008C000D12C05C0D12C03C0D12C01C0D12CC70123
:1008D0000E947F098C70843061F48091F40290E072
:1008E0000B2C02C0959587950A94E2F7982F91708A
:1008F00014C0883071F48091F40290E00B2C02C097
:10090000959587950A94E2F721E08227982F9170B8
:1009100004C091E08C3009F090E0992309F4D1C033
:10092000D110CFC08091160390E00B2C02C095959A
:1009300087950A94E2F780FF1BC0CE01880F991FAC
:10094000880F991F8A509D4F0E947914882309F4BB
:1009500050C0E6E1F3E081E090E00B2C02C0880F8C
:10096000991F0A94E2F7809590818923808341C082
:10097000CE010196959587958A509E4F0E947F09DA
:10098000B0FE03C0E82FEF7003C0E82FE295EF70D0
:10099000F0E0EE0FFF1FEE0FFF1FE556FF4FC59073
:1009A000D590E590F490C8018A529E4F0E947F092D
:1009B0008F77A82FB0E0A70196010E949214AB0197
:1009C000BC01CE01880F991F880F991F8A509D4F37
:1009D0000E945E14E6E1F3E081E090E00B2C02C09F
:1009E000880F991F0A94E2F79081892B808381E018
:1009F000A82A8091370390E00B2C02C0959587952B
:100A00000A94E2F780FF1BC0CE01880F991F880F60
:100A1000991F895E9C4F0E947914882309F464C051
:100A2000E7E3F3E081E090E00B2C02C0880F991F10
:100A30000A94E2F7809590818923808355C0CE0186
:100A400001969595879586509E4F0E947F09B0FE2E
:100A500003C0E82FEF7003C0E82FE295EF70F0E0DD
:100A6000EE0FFF1FEE0FFF1FE556FF4FC590D5900D
:100A7000E590F490C8018A529E4F0E947F098F77BB
:100A8000A82FB0E0A70196010E949214AB01BC010F
:100A9000CE01880F991F880F991F895E9C4F0E9475
:100AA0005E14E7E3F3E081E090E00B2C02C0880FD6
:100AB000991F0A94E2F79081892B808392E0A92AFA
:100AC00013C081E090E00B2C02C0880F991F0A949C
:100AD000E2F78095E6E1F3E0908198239083E7E3E5
:100AE000F3E0908189238083A0FE17C080914203A8
:100AF000882399F06091F40270E00B2C02C0759588
:100B000067950A94E2F7617077278B2D0E94CA0ED1
:100B1000E2E4F3E0808181508083A1FE32C08091C5
:100B20004203882371F16091F50270E00B2C02C042
:100B3000759567950A94E2F7617077278B2D885F2A
:100B40000E94CA0EE2E4F3E080818150808319C0E4
:100B5000A12C03C0A12C01C0A12C8C2D90E00B2C4A
:100B600002C0959587950A94E2F7CC24C394C822D5
:100B7000DC1055CDABCEA12C01C0A12CDD24D3942B
:100B8000A6CECDB7DEB7EAE00C94C114A0E0B0E089
:100B9000ECECF5E00C94A514B82EC82FD0E08091B1
:100BA000F20290E00B2C02C0959587950A94E2F72B
:100BB000FF24F394F8228091F30290E00B2C02C002
:100BC000959587950A94E2F7EE24E394E822FE01D6
:100BD000E85CFC4F9081923009F42BC130F49923EA
:100BE00059F0913009F061C194C0933009F43FC1CC
:100BF000943009F05AC15FC181E0F8125EC1E11082
:100C00005EC1CE010196959587958A509E4F0E94B0
:100C10007F09B0FE02C08F7002C082958F70E82FEE
:100C2000F0E0EE0FFF1FEE0FFF1FE556FF4FC590E0
:100C3000D590E590F490CE01880F991F880F991FE9
:100C40008A529E4F0E947F098F77A82FB0E0A7019C
:100C500096010E949214AB01BC01CE01880F991F2E
:100C6000880F991F8A509D4F0E945E14CE018A58AA
:100C70009F4F880F991F880F991F0E947F0983FF3C
:100C80003FC08073803171F1803279F1803389F512
:100C90002091F502822F90E00B2C02C0959587954C
:100CA0000A94E2F780FF0FC081E090E00B2C02C0B5
:100CB000880F991F0A94E2F7809528232093F50264
:100CC000AA24A39417C081E090E00B2C02C0880FE7
:100CD000991F0A94E2F7822B8093F5026894AA2464
:100CE000A1F808C0AA24A39405C06894AA24A1F876
:100CF00001C0A12CFE01E85CFC4F83E08083ECC0C6
:100D0000FE01E85CFC4F81E080836894AA24A2F88D
:100D1000E3C08E01000F111F000F111F0A501D4F5D
:100D2000C8010E947914882309F478C0CE018A583A
:100D30009F4F880F991F880F991F0E947F0980730A
:100D4000803171F1803279F1803389F54091F5027B
:100D5000842F90E00B2C02C0959587950A94E2F7BA
:100D600080FF0FC021E030E00B2C02C0220F331FA8
:100D70000A94E2F7209542234093F502AA24A39413
:100D800017C081E090E00B2C02C0880F991F0A94D5
:100D9000E2F7842B8093F5026894AA24A1F808C096
:100DA000AA24A39405C06894AA24A1F801C0A12C88
:100DB000CE0101969595879586509E4F0E947F099A
:100DC000B0FE03C0E82FEF7003C0E82FE295EF708C
:100DD000F0E0EE0FFF1FEE0FFF1FE556FF4FC5902F
:100DE000D590E590F490CE01880F991F880F991F38
:100DF00089529E4F0E947F098F77A82FB0E0A701EC
:100E000096010E949214AB01BC01C8010E945E14BD
:100E1000FE01E85CFC4F82E080835EC0F11051C0AF
:100E200081E0E81250C0FE01E85CFC4F1082A12C6A
:100E300053C0CE01880F991F880F991F8A509D4F6C
:100E40000E947914882331F0FE01E85CFC4F108287
:100E5000A12C42C0F11039C081E0E81238C0FE0177
:100E6000E85CFC4F10826894AA24A2F835C0CE0139
:100E7000880F991F880F991F8A509D4F0E947914DF
:100E8000882331F0FE01E85CFC4F1082A12C24C0C5
:100E9000F1101FC081E0E8121EC0FE01E85CFC4FAB
:100EA00010826894AA24A2F817C0FE01E85CFC4FE7
:100EB0001082A12C11C0A12C0FC0A12C0DC0A12CFF
:100EC0000BC0A12C09C0A12C07C0A12C05C0A12CCE
:100ED00003C0A12C01C0A12C8E01000F111F000F17
:100EE000111F0B521E4FC8010E947F09837009F425
:100EF000A6C04091400350E00B2C02C05595479589
:100F00000A94E2F7417055272091410330E00B2C01
:100F100002C0359527950A94E2F721703327823075
:100F200019F0942F822F08C091E0452B09F090E032
:100F300081E0232B09F080E0913009F041C081115C
:100F40003AC0C8010E947F098073803171F18032FC
:100F500081F1803381F54091F502842F90E00B2CD4
:100F600002C0959587950A94E2F780FF0FC021E0B3
:100F700030E00B2C02C0220F331F0A94E2F72095B9
:100F800042234093F502AA24A39415C081E090E087
:100F90000B2C02C0880F991F0A94E2F7842B8093D0
:100FA000F5026894AA24A1F806C06894AA24A1F8BE
:100FB00002C0AA24A394C85CDC4F84E088833FC0AD
:100FC0008130D1F5C8010E947F098C70843071F1A5
:100FD000883081F18C3081F54091F502842F90E0CA
:100FE0000B2C02C0959587950A94E2F780FF0FC0FD
:100FF00021E030E00B2C02C0220F331F0A94E2F7ED
:10100000209542234093F502AA24A39415C081E0C1
:1010100090E00B2C02C0880F991F0A94E2F7842BF2
:101020008093F5026894AA24A1F806C06894AA24C3
:10103000A1F802C0AA24A394C85CDC4F18828A2DB0
:10104000837081F080914203882361F0A1FA6627C2
:1010500060F98B2D885F0E94CA0EE2E4F3E0808184
:10106000815080838A2D847069F0809142038823A7
:1010700049F061E08B2D0E94CA0EE2E4F3E080812A
:1010800081508083CDB7DEB7EAE00C94C114AF92F3
:10109000BF92CF92EF92FF921F93CF93DF93C0EF57
:1010A000DFEF0F2EF0E4AF2EF3E0BF2EF02DEE2495
:1010B000E394F12C1C2F105F812F0E94DB0E8823FC
:1010C00029F1FE01E45BFC4FC38C60E0812F0E949C
:1010D000DE0E21E0C2120CC0C7010C2E02C0880F28
:1010E000991F0A94E2F7F5019081892B80830EC045
:1010F000C1100CC0C7010C2E02C0880F991F0A94A2
:10110000E2F78095F5019081892380832196C8308C
:10111000D10581F68091470380FF27C083E493E0E7
:101120000E947914882309F47FC0E7E4F3E080810A
:101130008E7F80830E941B0183ED91E00E947F09D6
:10114000809342038E3108F46FC040E856E060E0BF
:1011500070E083E493E00E945E1410924203E7E49F
:10116000F3E08081826080835FC081FF15C083E4EB
:1011700093E00E947914882391F040E856E060E003
:1011800070E083E493E00E945E1483ED91E00E949E
:101190007F098093420303C08FEF80934203C09185
:1011A000F3020E940301C817C9F182ED91E00E9489
:1011B0007F09882351F090E0E7EEF3E03197F1F7F3
:1011C00000C000009F5F9813F7CF0E940301809337
:1011D000F20224C08C2F869590E082539E4F0E948D
:1011E0007F09C0FF02C082958F708F70813019F027
:1011F000833041F404C08C2F0E94C40103C08C2FA3
:101200000E94C605CF5FC83029F78091F202809313
:10121000F302809140038093410306C08EEC91E07D
:101220000E947F09C0E0E1CFDF91CF911F91FF9035
:10123000EF90CF90BF90AF900895CF93DF93C09180
:101240000601D0910701209771F08A81823059F010
:1012500082E08A8369858E819F810E943D16888500
:101260008F5F8887FB9ADF91CF9108951F920F922D
:101270000FB60F9211242F933F934F935F936F9369
:101280007F938F939F93AF93BF93CF93DF93EF930E
:10129000FF93C0910601D091070188859D81981325
:1012A0000CC086E091E00E94F313809106019091BA
:1012B0000701892B89F4FB980FC090E0FE01E80F2D
:1012C000F91F2E813F816185820F931F0E943D1679
:1012D00088858F5F8887FB9AFF91EF91DF91CF918F
:1012E000BF91AF919F918F917F916F915F914F913E
:1012F0003F912F910F900FBE0F901F901895803641
:10130000910519F480910D0408959C013A952230BD
:1013100041E0340748F48091480390914903FC016F
:10132000E20FF31F8081089580559109803B91055C
:1013300028F4FC01E45BFC4F808108958FEF089551
:10134000A0E0B0E0E6EAF9E00C94A714D62EEA019A
:101350008C011A950F3F110509F070F5CFB6F8947E
:101360000E94C3137C01CC200CF47894F7011783FE
:101370000683D58210869701275F3F4F4D2D50E0A1
:101380006C2F7D2F822F932F0E942416809148036B
:1013900090914903080F191F4D2D50E06C2F7D2FA0
:1013A000802F912F0E9424164DE159E0B70186E06D
:1013B00091E00E94D4131CC08036910521F48881ED
:1013C00080930D0415C080559109803B910580F4F0
:1013D000662371F0FA01DC01A45BBC4FDA94CA0108
:1013E0008D0D911D019621912D93E817F907D9F7DD
:1013F000CDB7DEB7E8E00C94C3142091060130911C
:101400000701232B29F02FB321FB882780F90895AA
:1014100080E090E00895EF92FF920F931F93CF9397
:10142000DF938C01C0E0D0E0B8016C0F7D1FFB01A1
:10143000259134917901FB0132966491C9019A9505
:101440008F3F910509F010F40E943D168FEFE816CA
:10145000F10429F02396C23585E0D80729F7409199
:101460004A0350914B0360E070E0809148039091F3
:1014700049030E942D16CDB7DEB7E6E00C94C514E3
:10148000AB01FD9AFC9870934B0360934A039093D1
:1014900049038093480360E070E00E942D16089590
:1014A000E82FF0E0EB5CFE4F84910895E82FE6957D
:1014B000E695E695F0E0E350FC4F208130E0877040
:1014C000A90102C0559547958A95E2F7CA01817036
:1014D0000895E82FE695E695E695F0E0877041E0FF
:1014E00050E0082E02C0440F551F0A94E2F74095C1
:1014F000E350FC4F90814923262F217030E002C039
:10150000220F331F8A95E2F7242B20830895209120
:101510000C0121110CC021E020930C01FC0136814B
:1015200030930D01878180930E0120930F0180E09D
:10153000089530910D01FC01268132130EC02091D7
:101540000E018781281309C080910C01882329F09E
:1015500010920C0181E080930F0180E0089580E0FB
:101560000895482FE0911201F091130130813F3F1F
:1015700091F0332391F0329690E0DF0111978C9136
:101580008E3F19F02081241749F09F5F3296931304
:10159000F4CF80E0089580E0089580E008950E94EF
:1015A000FD098111FCCF0E948D0F80E00895EF921C
:1015B000FF920F931F93CF93DF938C01F62EEFB61C
:1015C000F8940E94C313EC01EE200CF47894209759
:1015D00071F183E08E8F80EB8D83E0910A01F091B1
:1015E0000B0181818E8382818F838EE091E00E9446
:1015F0007F0980779F2D9150892B8A8780E48C8783
:101600000115110531F0F801808188878181898772
:1016100002C0188619868885811106C089858111C6
:1016200003C08A8580688A878F2D8A5F8C838C2F80
:101630009D2FCDB7DEB7E6E00C94C514CF93DF93B2
:10164000EC0161E006960E94D70A009739F02B85DD
:101650002C732E53FC0123870E945410DF91CF91ED
:1016600008950F931F93CF93DF938C0164E0069648
:101670000E94D70AEC01009779F0C8010E941E0B66
:101680008CEB8D8383E48B871D8682E18E87CE0170
:101690000E9454108CEC01C080E0DF91CF911F912B
:1016A0000F910895A0E0B0E0E8E5FBE00C94A714EA
:1016B000EC018C850F2EFFE0EF2EF02DE8221D852A
:1016C00000E08E85080F111D6E2D6C5FCE01069611
:1016D0000E94D70A6C010097C9F1CE010E941E0B2F
:1016E0008CEBF601858380910F0190E0880F991FA4
:1016F000880F991F8264838784858E2984878D85CE
:1017000085878E858687EE20B1F0E6012F96EA94D4
:10171000F12CF0E1EF0EF11CEC0CFD1C0F50110947
:101720000C191D09C8018C0F9D1F0E947F09899308
:10173000CE15DF05B9F7C6010E945410EFE0F1E0C5
:1017400080818F5F8F7080838CEC01C080E0CDB78B
:10175000DEB7E8E00C94C314A1E0B0E0E2EBFBE0FC
:101760000C94A9148C01FC0184858770898365E041
:10177000C80106960E94D70A7C01009759F1C8015A
:101780000E941E0B80910F0190E0880F991F880F17
:10179000991F8164F70183878981806C8487F801B0
:1017A0008585F7018587F981F13031F485E0F7010E
:1017B000868785EC878703C0F70116861786C701E1
:1017C0000E945410EFE0F1E080818F5F8F70808382
:1017D0008CEC01C080E02196E6E00C94C514809169
:1017E0000D0480FF0CC062E080E090E00E94D70A08
:1017F0002CEBFC01258321E023870E9454108CEC04
:101800000895CF93DF93EC016C859D8580E02E8554
:10181000820F911D811520E8920731F480910D040B
:10182000806480930D0406C0AE01415F5F4F6F700E
:101830000E94A009CE010E941E0B8CECDF91CF917B
:10184000089520910D0420FF08C0AC01435F5F4F55
:1018500062E087E191E00E94A00980E00895A1E0A4
:10186000B0E0E5E3FCE00C94AD146983AE014F5F9A
:101870005F4F61E00E94A0092196E2E00C94C91438
:10188000A0E0B0E0E6E4FCE00C94A614EC01B62E77
:10189000C0901401D0901501042F10E07801EE0CD7
:1018A000FF1CE00EF11EEC0CFD1CF70184810E9470
:1018B000500A482FF701828190E00F5F1F4F980177
:1018C000220F331F020F131FF601E00FF11F2081BB
:1018D00025FD9395B41213C0B11006C068816F73D3
:1018E0000E942F0C81E00CC069918C010F5F1F4F8B
:1018F0000E942F0CBA94C801B9F781E001C080E0C2
:10190000CDB7DEB7E9E00C94C214CF93C62FFC012B
:1019100062856F70615011F40C9601C00D964C2FCA
:101920000E94400C61E08C2F0E94690ACF910895BB
:10193000A0E0B0E0EEE9FCE00C94A314C82ED62E93
:101940000091140110911501E82EF12CE701CC0F44
:10195000DD1FCE0DDF1DC00FD11F8C810E94500AEC
:10196000982EC70101969C01220F331F820F931FEF
:10197000F801E80FF91F80810F2EF3E08F2EF02D74
:101980008822AA80B12C692D6E5F8D2D90E0880F82
:10199000991F019620910A0130910B01820F931F2C
:1019A0000E94D70A8C01009709F471C0882019F0B1
:1019B00082E0881204C0F801838182608383880CEE
:1019C000880CF8018581882A8582828580688287D3
:1019D0001386911009C0C485C5010E947F098F73C9
:1019E000C82BF801C4870DC0C8010D96EC01A81AD8
:1019F000B90ACE018A0D9B1D0E947F0989939A9492
:101A0000C1F7E0911201F0911301B080FFEFBF1612
:101A100019F1BB2009F1C0E0D0E020911201309112
:101A20001301AE01FE01EE0FFF1FE20FF31F8181D4
:101A30008E3F79F0D8120DC04F5F5F4F440F551F96
:101A4000F901E40FF51F60816C1519F0C8010E94BF
:101A5000850C2196CB1508F3E0911401F091150146
:101A60008FEFE81AF80AC701880F991FE80EF91ED0
:101A7000EE0DFF1D808186FF05C0C8010E94541035
:101A800081E006C0C8010E947B1581E001C080E0B2
:101A9000CDB7DEB7ECE00C94BF14CF93C82F0E94F3
:101AA000B10A882329F0682F8C2F0E94980C01C05E
:101AB0008CE0CF910895DC01E0910A01F0910B01D7
:101AC00015968C91159788236CF013969C9113971B
:101AD0008181981334C014969C918281981789F162
:101AE00080E0089513962C911397211105C0149648
:101AF0008C911497882339F130813F3F31F133962F
:101B0000332329F181E03F5F9081291310C014969F
:101B10004C9114979181491307C061157105C9F063
:101B2000FB01808380E40895491718F414C0291735
:101B3000A0F032968F5F3813E7CF80E0089580E001
:101B4000089582E0089580E8089580E0089580E097
:101B5000089580E4089580E0089580E00895FC01F0
:101B60002481223048F040E050E0BC0188E091E060
:101B70000E94D41381E008950E947B1580E00895AF
:101B8000AF92BF92DF92EF92FF920F931F93CF938A
:101B9000DF931F92CDB7DEB78091080190910901C4
:101BA000892B09F4E0C088E091E00E940B148C01BD
:101BB000DC0115968C91159785FD16C0E0911001FA
:101BC000F0911101448114968C9148130DC0B80115
:101BD0006B5F7F4F50E0CF0105960E941716282FAC
:101BE000392F232B09F4BCC0E0901001F0901101B3
:101BF000F8018481D70114968C935801B5E0AB0E9F
:101C0000B11C97012B5F3F4F448150E06A2D7B2D23
:101C1000822F932F0E942416F70185818F7D858363
:101C2000D8011A968C911A978F70D82ED3941B9640
:101C3000FC901B97E12C1C968C91E82ABE016F5FEB
:101C40007F4FC5010E945B0D86FF5FC0D980E09188
:101C50001201F0911301B080BFEFBB1609F480C0F0
:101C600080910D0485FF7CC0BB2009F479C0E12C74
:101C7000F12C80911201909113019701F701EE0F61
:101C8000FF1FE80FF91F41814E3FC1F1D41236C04A
:101C90002F5F3F4F220F331FFC01E20FF31F8081A4
:101CA000E0911401F0911501282F30E02F5F3F4F94
:101CB000A901440F551F240F351FE20FF31F908118
:101CC000F801248592FF1AC0207C99233CF420342B
:101CD00029F4682FC8010E94850C10C094FF07C02A
:101CE000203829F4682FC8010E94850C07C093FF93
:101CF00005C0211103C06D2D0E94980CFFEFEF1A53
:101D0000FF0AEB1408F4B5CF2BC02BED30E0F9013E
:101D10009491319645915491F9013396659174915E
:101D2000F9013596A491F9013696E491982391F042
:101D30006E217F214617570769F4DA1658F0ED1522
:101D400048F0295F3F4FF90125913491C801F9010D
:101D5000099506C0275F3F4FF1E025333F07B9F6ED
:101D6000C8010E947B150F90DF91CF911F910F91B9
:101D7000FF90EF90DF90BF90AF900895CF93C82F62
:101D8000CB01642F4C2F0E94400C8C2F0E944D0DD4
:101D9000CF910895A1E0B0E0E0EDFEE00C94AD1429
:101DA000698340E0BE016F5F7F4F0E94BE0E2196A7
:101DB000E2E00C94C9140E94560A08950E94690A30
:101DC0000895CF9314BE88E10FB6F8948093600015
:101DD000109260000FBE0E941F1466EC71E08CE24E
:101DE00091E00E94400A0E945D100E944514CFB706
:101DF000F8940E94C313CC230CF4789490931101AF
:101E000080931001009711F0FC011482789485E012
:101E100091E00E947F098F3F71F486E091E00E947B
:101E20007F098F3F41F4E9E6F0E025913491822F5C
:101E3000932F0E940B0A80913E0190E0845D9E4F9B
:101E4000909315018093140180913D0190E0845D91
:101E50009E4F909313018093120182E491E090933E
:101E60000B0180930A0180910D048E6380930D0411
:101E70000E94C100CF9108950E94E10E0E94C00D02
:101E8000A8950E944B0F80910D0485FD0E94470884
:101E90000E94BC0FF3CF809116018F5F883020F431
:101EA0008093160180E008951092160154985C9A70
:101EB0008AE000008150E9F74C9B12C080910D042C
:101EC00080FF03C0549A5C9802C0549A5C9A809137
:101ED00017018823E1F081508093170180E0089575
:101EE000809117018F3FA9F08F5F80931701883C85
:101EF00091F480910D0480FD05C0816080930D04F4
:101F000081E008958E7F80930D0481E0089580E044
:101F1000089580E0089580E00895F89428E088E12D
:101F200090E00FB6F894A895809360000FBE2093C0
:101F30006000FFCF80911B0182FF0BC081E0809386
:101F40001C0187E686BD86E085BB80936E0082E03B
:101F500085BD08958091260190912701009731F069
:101F60000E947B15109227011092260180911B017F
:101F70008F7380931B01089508951F920F920FB6DF
:101F80000F9211248F939F93189951C080910E0442
:101F900080FF1FC090911A01911149C082FF19C0A2
:101FA00084B5806284BD84B58F7E84BD85B5806430
:101FB00085BD85B58F7B85BD81E080931C0182E066
:101FC00080930E0494E396BD96E095BB90936E00CB
:101FD00085BD80911D0190911E010097A9F48FEF9E
:101FE00097EF90931E0180931D0180910E0480FD58
:101FF00008C084E386BD86E085BB80936E0082E0E6
:1020000085BD10921F0107C0189905C0977F909356
:102010001E0180931D0180911B018B7F80931B010A
:102020001092200180910E04826080930E049F9193
:102030008F910F900FBE0F901F9018951F920F92C7
:102040000FB60F9211242F938F939F93EF93FF93CB
:1020500020910E0420FF1EC0809121019091220149
:1020600096958795909322018093210180FD0FC062
:1020700018BC84B5806384BDEEE6F0E080818B7F80
:10208000808380910E048B7F80930E0403C02460B4
:1020900020930E04FF91EF919F918F912F910F90BC
:1020A0000FBE0F901F9018954AE95FE0BC0183E2D4
:1020B00091E00E94D41380E0089554985C9A20988F
:1020C000289A559A5D9892E094BD88E687BD84B5BC
:1020D000806284BD84B58F7E84BD85B5806485BDF6
:1020E00085B58F7B85BD80E286BBEFE6F0E0808121
:1020F00080628083E1E8F0E08081806880831092D4
:1021000022011092210110921E0110921D0184E003
:1021100080931B0190930E048093200110920D0474
:102120000895F8940C940038089580910D0486FD6C
:102130000E949110E0912301F0912401309739F031
:10214000838181FF04C081E380931F0103C084E386
:1021500080931F0184E0809320010895E091230182
:10216000F0912401868D982F9150968F882369F0E5
:1021700085818F7D858381E080931C0181E380933D
:102180001F0184E080932001089584E080931C0166
:1021900083E291E00E94F31381E080931C010E948E
:1021A000951008951F920F920FB60F9211242F933E
:1021B0003F934F935F936F937F938F939F93AF93CF
:1021C000BF93CF93DF93EF93FF93C0910E0485B538
:1021D0008E7F85BDC1FFDFC180911F01882321F063
:1021E000815080931F01D7C180912001823009F472
:1021F000F8C030F4882359F0813009F0CCC161C0B7
:10220000833009F43CC1843009F0C5C13BC18091E1
:102210001D0190911E01AC01569547959A013068B9
:1022200080FD4AC0442756704115564031F08091D8
:102230001B01806880931B0137C0D22F822F082E8C
:1022400082958025082E86958695802590E00196BA
:1022500081FB662760F970E0232F33272170332735
:102260006217730731F080911B01806480931B011A
:102270001BC0E0912601F0912701309749F40E949C
:10228000C313FC019093270180932601009761F00E
:102290008481DF01A80FB11D1596DC938F5F8A3111
:1022A00010F4848301C0148282E080931F0181E0D6
:1022B0008093200120E030E030931E0120931D0127
:1022C0006AC18091260190912701892B71F4809138
:1022D0001C01833021F080911C01823019F40E948E
:1022E000AE1079C00E94951076C085B5816085BD1D
:1022F00083E080931F0182E08093200180911B0185
:10230000807C41F080911B0180911B018CE08093C7
:102310001A0155C0A0912601B091270114963C9155
:1023200014973130C9F480911C01833009F047C003
:1023300015968C918C3C69F484E080931C0183E2B7
:1023400091E00E94F31381E080931C010E9495109C
:1023500036C00E94AE1033C03230A0F0315051F080
:10236000FD01359690E080E0219192278F5F381330
:10237000FBCF01C090E09095FD01E30FF11D858139
:10238000981721F08CE080931A0119C014963C93A1
:10239000149760E070E0CD0105960E945B0D8823E4
:1023A00071F08CEC80931A018091260190912701A5
:1023B0000E94AF0D10922701109226010CC080914F
:1023C000260190912701009731F00E947B15109211
:1023D00027011092260180911B018F7380931B01AE
:1023E000DAC080911A01882309F446C080911A014D
:1023F000282F30E0220F331F082E82958025082ECB
:1024000086958695802590E0019681FD06C03C6109
:10241000309322012093210105C03E6130932201B7
:102420002093210118BC84B5806384BDEEE6F0E002
:1024300080818B7F808384E085BB80818460808302
:1024400080910E048B7F80930E0480E286BBAFE602
:10245000B0E08C9180628C93A1E8B0E08C918068B0
:102460008C9381E080930E0482E286BD86E085BB7A
:10247000808382E085BD8FC00E9495108CC00E9431
:10248000AE1089C08091230190912401009709F436
:102490007AC020911C01223009F47DC020911B01DB
:1024A0002B7F20931B0122E020931C011092190125
:1024B0001092180121E020932501209119013091FB
:1024C0001801FC01E20FF11D25812327209318013B
:1024D00030911901FC01E30FF11D25813F5F30931D
:1024E0001901822F90E0880F991F022E2295202536
:1024F000022E26952695202530E02F5F3F4F21FDA7
:1025000006C09C61909322018093210105C09E61C9
:10251000909322018093210118BC84B5806384BD0F
:10252000EEE6F0E080818B7F808384E085BB808154
:102530008460808380910E048B7F80930E04809151
:102540001901E0912301F09124019481891718F079
:1025500082E08093250180E286BBEFE6F0E0808197
:1025600080628083E1E8F0E080818068808381E0A0
:1025700080930E0482E286BD86E085BB80936E0068
:1025800082E085BD08C015BC10926E0080911B01D1
:10259000846080931B01C0FFE3C088B581110FC028
:1025A00082E288BD84B5806284BD84B58F7E84BD9F
:1025B00084E085BBEEE6F0E08081846080838091DA
:1025C000210190912201019709F0CAC0EEE6F0E0E6
:1025D00080818B7F808380911A01882371F00E9413
:1025E000AA0F10921A0110921E0110921D0182E092
:1025F00080930E040E949510B3C0809123019091A6
:102600002401009709F4ACC020912501223009F47F
:102610005CC020F4213009F0A3C007C0233009F4C6
:1026200089C0243009F09CC099C0209119013091D3
:102630001801FC01E20FF11D2581232720931801C9
:1026400030911901FC01E30FF11D25813F5F3093AB
:102650001901822F90E0880F991F022E22952025C4
:10266000022E26952695202530E02F5F3F4F21FD35
:1026700006C09C61909322018093210105C09E6158
:10268000909322018093210118BC84B5806384BD9E
:10269000EEE6F0E080818B7F808384E085BB8081E3
:1026A0008460808380910E048B7F80930E048091E0
:1026B0001901E0912301F09124019481891708F414
:1026C0004FC082E0809325014BC0209118012095D6
:1026D000822F90E0880F991F022E22952025022E2E
:1026E00026952695202530E02F5F3F4F21FD06C01F
:1026F0009C61909322018093210105C09E6190937B
:1027000022018093210118BC84B5806384BDEEE66C
:10271000F0E080818B7F808384E085BB8081846052
:10272000808380910E048B7F80930E0483E08093DE
:10273000250116C00E94AA0F83E080931C0110920D
:1027400025018093200182E080930E048EE0809327
:102750001F0110921E0110921D0102C00E94AE10B6
:10276000FF91EF91DF91CF91BF91AF919F918F91A9
:102770007F916F915F914F913F912F910F900FBE7D
:102780000F901F9018958FE190E00E94E014E82FC1
:10279000F92F309731F081E0828383831482118294
:1027A00010828E2F9F2F0895CF93CFB7F894FC01FE
:1027B000A081B181109711F409C0DC018D919C9129
:1027C00011970097D1F76D937C9308C0FC0171833A
:1027D00060834115510511F0FA010995CC230CF4E1
:1027E0007894CF910895CF93CFB7F894DC01ED9111
:1027F000FC91119720813181309741F02D933C93CA
:10280000838180FF03C0CF010E947B15CC230CF491
:102810007894CF9108954FB7F894DC01ED91FC9135
:10282000119720813181309721F02D933C931182B3
:10283000108244230CF478948E2F9F2F08950895CE
:102840001F920F920FB60F9211248F939F93AF9305
:10285000BF938091280190912901A0912A01B09104
:102860002B010196A11DB11D809328019093290190
:10287000A0932A01B0932B01BF91AF919F918F91AB
:102880000F900FBE0F901F90189510922801109274
:10289000290110922A0110922B0182E08093B0004E
:1028A00087E08093B1001092B2008DE48093B30072
:1028B000E0E7F0E080818260808308950F931F93AA
:1028C000EFB7F894009128011091290120912A0175
:1028D00030912B01EE230CF47894040F151F261F62
:1028E000371FFC0100831183228333831F910F91D3
:1028F0000895409128015091290160912A01709119
:102900002B01FC0180819181A281B381481B590B6D
:102910006A0B7B0B81E014161506160617060CF0E1
:1029200080E008950E94D414A59F900DB49F900D4F
:10293000A49F800D911D112408952F923F924F92D4
:102940005F926F927F928F929F92AF92BF92CF923F
:10295000DF92EF92FF920F931F93CF93DF93CDB748
:10296000DEB7CA1BDB0B0FB6F894DEBF0FBECDBFC0
:1029700009942A88398848885F846E847D848C8491
:102980009B84AA84B984C884DF80EE80FD800C819A
:102990001B81AA81B981CE0FD11D0FB6F894DEBF7D
:1029A0000FBECDBFED010895A29FB001B39FC0013E
:1029B000A39F01D0B29F700D811D1124911D089518
:1029C0000F931F93CF93DF938230910510F482E031
:1029D00090E0E0911104F091120420E030E0C0E0BA
:1029E000D0E023C04081518148175907A8F048170B
:1029F000590761F482819381209719F09B838A8320
:102A00002EC0909312048093110429C02115310522
:102A100029F04217530710F0A90102C0BE01DF01DF
:102A200002811381EF019A01F8013097D9F621153F
:102A3000310509F1281B390B2430310590F4129629
:102A40008D919C9113976115710521F0FB01938382
:102A5000828304C09093120480931104FD01329686
:102A600044C0FD01E20FF31F81939193225031097D
:102A70002D933C933AC020910F0430911004232BE6
:102A800041F420910201309103013093100420930E
:102A90000F0420910001309101012115310541F40D
:102AA0002DB73EB74091040150910501241B350B11
:102AB000E0910F04F0911004E217F307A0F42E1B2D
:102AC0003F0B2817390778F0AC014E5F5F4F241792
:102AD000350748F04E0F5F1F5093100440930F04CA
:102AE0008193919302C0E0E0F0E0CF01DF91CF91BC
:102AF0001F910F910895EF92FF920F931F93CF9321
:102B0000DF93009709F48EC0DC01129713961C9294
:102B10001E921297E0901104F0901204E114F10457
:102B200089F42D913C911197280F391F80910F0442
:102B3000909110048217930789F5B0931004A09325
:102B40000F0470C0E70120E030E001C0EA01CA17BD
:102B5000DB0738F44A815B819E0141155105B1F7CD
:102B600022C0AC0142505109FA01D383C2830081D3
:102B70001181BC01600F711F6C177D0761F46881C2
:102B80007981600F711F6E5F7F4F718360836A81EF
:102B90007B81738362832115310529F4B09312047C
:102BA000A09311043FC0F901B383A283E9014991C5
:102BB0005991C40FD51FAC17BD0771F4DC019E916C
:102BC0008E91840F951F02969183808312968D912A
:102BD0009C91139793838283A0E0B0E002C0D70159
:102BE0007C01F701828193810097C9F7C7010296A2
:102BF00020813181820F931F20910F0430911004A6
:102C00002817390779F4109729F4109212041092BA
:102C1000110404C013961C921E921297F092100495
:102C2000E0920F04CDB7DEB7E6E00C94C514FB01CB
:102C3000DC0104C08D910190801921F44150504075
:102C4000C8F7881B990B0895FB01DC0102C00190B5
:102C50000D9241505040D8F70895DC01CB01FC01A2
:102C6000F999FECF06C0F2BDE1BDF89A319600B4E5
:102C70000D9241505040B8F70895262FF999FECF94
:102C80001FBA92BD81BD20BD0FB6F894FA9AF99A89
:0A2C90000FBE01960895F894FFCFDF
:062C9A00000013042000FD
:00000001FF
