:100000000C948D000C94AA000C94AA000C94AA00E5
:100010000C94AA000C94AA000C94AA000C94E2146C
:100020000C94AA000C94AA000C9445100C94AA00FD
:100030000C94AA000C94AA000C9486110C94A6109F
:100040000C94AA000C94AA000C94AA000C94AA0088
:100050000C94AA000C94AA000C94B2080C94AA0068
:100060000C94AA000C94AA000701010D01FF1201D3
:100070008A0C010003010004010805013006011586
:10008000FF00FF0168000000000000000000000009
:100090000000000000000000000000000000000060
:1000A000010000000D000000D0000000000D000065
:1000B00002008000FF01011B0A02008100FF010114
:1000C0002D0A0200C200C30101430A82C000FF03DF
:1000D0000404B50B820001FF030202830B028001BE
:1000E000C0030303400B020042C0C30404E60A023B
:1000F0008042C0C30110950B020043FFFF0202C5FE
:100100000A028003FF030202630A000000000000ED
:100110000101020304060A0E0E0011241FBECFEFD8
:10012000D8E0DEBFCDBF11E0A0E0B1E0E8E4FEE240
:1001300002C005900D92A631B107D9F713E0A6E1F0
:10014000B1E001C01D92AA3FB107E1F70E94950FEF
:100150000C9422170C94000020913C0130E0C9015E
:10016000880F991F820F931FFC01EE0FFF1FEE0FE8
:10017000FF1FEE0FFF1FE81BF90BE20FF31FE95EF5
:10018000FC4F8081887F808308958730A9F1883073
:1001900070F4833029F1843028F48130C1F082304A
:1001A000C9F41BC0853011F1863018F51CC08A30A7
:1001B00061F18B3028F4883011F1893059F422C074
:1001C0008C3049F18C3020F18E3021F43DC0E0E8D4
:1001D000F0E052C0E0E0F0E04FC0E0E8FCE04CC0EE
:1001E000E0E8F9E149C0E0E0F6E246C0E0E0F3E330
:1001F00043C0E0E8FFE340C0E0E8FCE43DC0E0E0ED
:10020000F9E53AC0E0E0F6E637C0E0E8F2E734C0EE
:10021000E0E8FFE731C020913C0130E0C901880FE0
:10022000991F820F931FFC01EE0FFF1FEE0FFF1FA0
:10023000EE0FFF1FE81BF90BE20FF31FED5EFC4F03
:100240000190F081E02D18C020913C0130E0C901FF
:10025000880F991F820F931FFC01EE0FFF1FEE0FF7
:10026000FF1FEE0FFF1FE81BF90BE20FF31FE15F0B
:10027000FC4F0190F081E02D8E2F9F2F0895982F35
:1002800080913C01882311F092959F70892F0895E9
:10029000DF93CF930F92CDB7DEB780913C01482F0B
:1002A00050E09A01220F331F240F351FF901EE0F82
:1002B000FF1FEE0FFF1FEE0FFF1FE21BF30BE40FFC
:1002C000F51FE15FFC4F20813181220F232F221F78
:1002D000330B31952983885FBE016F5F7F4F41E00B
:1002E0000E94EF0E0F90CF91DF910895CF93DF938F
:1002F00082EE91E00E94FB080E943F0190913C0138
:10030000C92FD0E08F700E94C5009E01220F331FBD
:100310002C0F3D1FF901EE0FFF1FEE0FFF1FEE0F19
:10032000FF1FE21BF30BEC0FFD1FE15FFC4F9183FE
:100330008083892B91F4F901EE0FFF1FEE0FFF1F51
:10034000EE0FFF1FE21BF30BEC0FFD1FEF5EFC4FE8
:1003500080E890E09183808314C0CE01880F991FBC
:100360008C0F9D1FFC01EE0FFF1FEE0FFF1FEE0F06
:10037000FF1FE81BF90BEC0FFD1FEF5EFC4F118216
:100380001082DF91CF910895E4E2F0E080818660F1
:10039000808383EA8093800082E0809381001092C2
:1003A0003C010E94760181E080933C010E9476012D
:1003B00081E008950F931F93CF93DF93EC0181E0C9
:1003C000C634D80758F182EC91E00E94FB080E94E5
:1003D0003F01E82FF0E0E770F070EE0FFF1FE050F4
:1003E000FF4F00811181980140E050E060E87FE715
:1003F00080E090E0621B730B840B950B9E012654EA
:10040000314040E050E00E9471152AE33EE740E0B1
:1004100050E00E949015E801C20FD31F80913C016B
:10042000882371F0CE0196958795929582958F706D
:1004300089279F70892790938B0080938A000DC035
:10044000CE0196958795929582958F7089279F709A
:1004500089279093890080938800DF91CF911F9125
:100460000F910895EF92FF920F931F9380913C019B
:10047000282F30E0C901880F991F820F931FFC01BC
:10048000EE0FFF1FEE0FFF1FEE0FFF1FE81BF90B14
:10049000E20FF31FE85EFC4F8081813009F06EC0EF
:1004A00084EC91E00E94FB080E943F010F2EFFE0C8
:1004B000EF2EF02DE82280913C0190E08D529E4F6E
:1004C0000E94FB08F82E8823D9F48E2D0E94C500C7
:1004D00040913C0150E09A01220F331F240F351F39
:1004E000F901EE0FFF1FEE0FFF1FEE0FFF1FE21BC4
:1004F000F30BE40FF51FE15FFC4F9183808398C0FD
:1005000082ED91E00E94FB080E943F0140913C0176
:1005100050E0877090E0880F991F880F991FFC01A9
:10052000E856FF4F65917591859194919A01220F3C
:10053000331F240F351F8901000F111F000F111FDA
:10054000000F111F021B130B040F151F0D5F1C4F13
:100550002F2D30E040E050E00E947115F8016483D7
:1005600075838683978374968081816080838E2DC6
:100570000E94C500F801938B828B5AC0C901895231
:100580009E4F0E94FB08F82E8823C1F420913C0165
:1005900030E0C901880F991F820F931FFC01EE0FF5
:1005A000FF1FEE0FFF1FEE0FFF1FE81BF90BE20FFF
:1005B000F31FE15FFC4F118210823AC086ED91E09B
:1005C0000E94FB080E943F0140913C0150E087706F
:1005D00090E0880F991F880F991FFC01E856FF4F84
:1005E00065917591859194919A01220F331F240F83
:1005F000351F8901000F111F000F111F000F111F60
:10060000021B130B040F151F0D5F1C4F2F2D30E025
:1006100040E050E00E947115F80164837583868381
:1006200097837496808182608083F801138A128A8E
:100630001F910F91FF90EF9008950F931F9380915A
:100640003C01482F50E0CA01880F991F840F951F65
:10065000FC01EE0FFF1FEE0FFF1FEE0FFF1FE81B49
:10066000F90BE40FF51FED5FFC4F648575858685FA
:1006700097856817790709F4BCC003E013E09A0175
:10068000220F331F240F351FC901880F991F880FB0
:10069000991F880F991F821B930B840F951FF801D8
:1006A000E80FF91F718B608BCB010E94DA0160911A
:1006B0003C01462F50E09A01220F331F240F351FB3
:1006C000C901880F991F880F991F880F991F821BD6
:1006D000930B840F951F080F191FF80186859785C6
:1006E000892BE1F4862F8A5F61E00E94FC0E209145
:1006F0003C0130E0C901880F991F820F931FFC0154
:10070000EE0FFF1FEE0FFF1FEE0FFF1FE81BF90B91
:10071000E20FF31FE85EFC4F81E0808340913C01D3
:10072000242F30E0C901880F991F820F931FFC010D
:10073000EE0FFF1FEE0FFF1FEE0FFF1FE81BF90B61
:10074000E20FF31FE15FFC4F80819181892BD9F487
:10075000842F8A5F60E00E94FC0E20913C0130E013
:10076000C901880F991F820F931FFC01EE0FFF1F15
:10077000EE0FFF1FEE0FFF1FE81BF90BE20FF31F39
:10078000E85EFC4F108220913C0130E0C901880FE7
:10079000991F820F931FFC01EE0FFF1FEE0FFF1F2B
:1007A000EE0FFF1FE81BF90BE20FF31FE95EFC4F92
:1007B000808190E083709070892B11F40E94480131
:1007C00020913C0130E0C901880F991F820F931FCF
:1007D000FC01EE0FFF1FEE0FFF1FEE0FFF1FE81BC8
:1007E000F90BE20FF31FED5FFC4F8485958597872A
:1007F00086871F910F91089580913C01482F50E00A
:10080000CA01880F991F840F951FFC01EE0FFF1F6F
:10081000EE0FFF1FEE0FFF1FE81BF90BE40FF51F94
:10082000E95EFC4F808182FF30C09A01220F331FA6
:10083000240F351FC901880F991F880F991F880F32
:10084000991F821B930B840F951F855F9C4F0E94FD
:1008500058158823D1F00E94AC0020913C0130E073
:10086000C901880F991F820F931FFC01EE0FFF1F14
:10087000EE0FFF1FEE0FFF1FE81BF90BE20FF31F38
:10088000E85EFC4F10820E943202089580913C0184
:10089000482F50E0CA01880F991F840F951FFC0153
:1008A000EE0FFF1FEE0FFF1FEE0FFF1FE81BF90BF0
:1008B000E40FF51FE95EFC4F808180FF57C09A016D
:1008C000220F331F240F351FC901880F991F880F6E
:1008D000991F880F991F821B930B840F951F8D5FA3
:1008E0009C4F0E945815882309F440C080913C0118
:1008F000482F50E0CA01880F991F840F951FFC01F3
:10090000EE0FFF1FEE0FFF1FEE0FFF1FE81BF90B8F
:10091000E40FF51FED5FFC4FDF011C968D919C915C
:10092000119780589F4F8D939C932289338982170A
:100930009307D0F4CA01880F991F840F951FFC01FB
:10094000EE0FFF1FEE0FFF1FEE0FFF1FE81BF90B4F
:10095000E40FF51FED5FFC4F44815581668177817F
:10096000CF010E943D1502C00E94AC0080913C0165
:10097000482F50E0CA01880F991F840F951FFC0172
:10098000EE0FFF1FEE0FFF1FEE0FFF1FE81BF90B0F
:10099000E40FF51FE95EFC4F808181FF57C09A018B
:1009A000220F331F240F351FC901880F991F880F8D
:1009B000991F880F991F821B930B840F951F8D5FC2
:1009C0009C4F0E945815882309F440C080913C0137
:1009D000482F50E0CA01880F991F840F951FFC0112
:1009E000EE0FFF1FEE0FFF1FEE0FFF1FE81BF90BAF
:1009F000E40FF51FED5FFC4FDF011C968D919C917C
:100A00001197805890408D939C93228933892817A1
:100A10003907D0F4CA01880F991F840F951FFC0174
:100A2000EE0FFF1FEE0FFF1FEE0FFF1FE81BF90B6E
:100A3000E40FF51FED5FFC4F44815581668177819E
:100A4000CF010E943D1508950E94AC000895EF92D9
:100A5000FF920F931F9380913C0190E09C01220F25
:100A6000331F280F391FF901EE0FFF1FEE0FFF1F75
:100A7000EE0FFF1FE21BF30BE80FF91FE15FFC4FC6
:100A80000081118185539E4F0E94FB0890E096954E
:100A9000982F8827979587950817190708F072C02F
:100AA0008EEC91E00E94FB080E943F01082F83FF1B
:100AB00069C080913C01282F30E0C901880F991F3F
:100AC000820F931FFC01EE0FFF1FEE0FFF1FEE0FB3
:100AD000FF1FE81BF90BE20FF31FE95EFC4F80815B
:100AE00090E087709070892B09F04CC0C901815348
:100AF0009E4F0E94FB08202F277030E0220F331FEB
:100B0000220F331FF901E856FF4F2591359145918A
:100B1000549100913C0196E1099F80011124085FE6
:100B20001F4F0F2EF3E0EF2EF3E0FF2EF02D90E09D
:100B3000A0E0B0E0BC01CD010E947115AB01BC0189
:100B4000C701800F911F0E943D1540913C0150E06C
:100B50009A01220F331F240F351FC901880F991FD7
:100B6000880F991F880F991F821B930B840F951F65
:100B7000E80EF91E84E190E0E80EF91EF70180818D
:100B8000846080831F910F91FF90EF900895EF9202
:100B9000FF920F931F93DF93CF930F92CDB7DEB7E2
:100BA00080913C0191E0892780933C01BE016F5FF9
:100BB0007F4F40E00E94980E882309F44AC080913C
:100BC0003C01282F30E0C901880F991F820F931F25
:100BD000FC01EE0FFF1FEE0FFF1FEE0FFF1FE81BC4
:100BE000F90BE20FF31FE85EFC4F908189819817A3
:100BF00081F1C901880F991F820F931FFC01EE0F2D
:100C0000FF1FEE0FFF1FEE0FFF1FE81BF90BE20F98
:100C1000F31FE95EFC4F808183FD1BC00E94AC0086
:100C200020913C0130E0C901880F991F820F931F6A
:100C3000FC01EE0FFF1FEE0FFF1FEE0FFF1FE81B63
:100C4000F90BE20FF31FE85EFC4F898180830E945D
:100C5000320280913C018E5FBE016F5F7F4F40E0AA
:100C60000E94980E882309F4DDC089818F708983E2
:100C700086EC91E00E94FB080E943F01082F8091C2
:100C80003C0190E088539E4F0E94FB08077010E0E3
:100C9000000F111F000F111FF801E856FF4F25919B
:100CA000359145915491E0913C01F0E0BF01660F10
:100CB000771F6E0F7F1F8B01000F111F000F111F79
:100CC000000F111F061B170B0E0F1F1F095F1C4F74
:100CD00090E0A0E0B0E0BC01CD010E947115F801E8
:100CE00060837183828393838981E82FF0E0BF0161
:100CF000677070706115710509F490C062307105FC
:100D00001CF44FEF50E00BC04FEF50E021E0569540
:100D100047952F5F822F90E086179707C4F3BA019B
:100D20007695762F662777956795E3FF3DC02091EE
:100D30003C0130E0C901880F991F820F931FFC010D
:100D4000EE0FFF1FEE0FFF1FEE0FFF1FE81BF90B4B
:100D5000E20FF31FED5FFC4FDF0154968C91816031
:100D60008C934485558580E89FE7841B950B681715
:100D7000790718F040E85FE702C0460F571FC90126
:100D8000880F991F820F931FFC01EE0FFF1FEE0FBC
:100D9000FF1FEE0FFF1FE81BF90BE20FF31FEB5EC7
:100DA000FC4F518340833EC020913C0130E0C9019B
:100DB000880F991F820F931FFC01EE0FFF1FEE0F8C
:100DC000FF1FEE0FFF1FE81BF90BE20FF31FED5F94
:100DD000FC4FDF0154968C9182608C9384859585BD
:100DE0006817790718F040E050E003C0AC01461BDB
:100DF000570BC901880F991F820F931FFC01EE0F3B
:100E0000FF1FEE0FFF1FEE0FFF1FE81BF90BE20F96
:100E1000F31FEB5EFC4F5183408304C00E94AC0083
:100E20000E94480180913C018C5FBE016F5F7F4F43
:100E300041E00E94980E882309F4B6C00E94AC00DD
:100E400086EC91E00E94FB080E943F01082F83FF7F
:100E50001FC020913C0130E0C901880F991F820F0B
:100E6000931FFC01EE0FFF1FEE0FFF1FEE0FFF1F82
:100E7000E81BF90BE20FF31FE15FFC4F898190E063
:100E80009695982F882797958795918380838CC016
:100E900080913C0190E088539E4F0E94FB08202FD8
:100EA000277030E0220F331F220F331FF901E8565D
:100EB000FF4F2591359145915491E0903C01FF24DD
:100EC000B701660F771F6E0D7F1D8B01000F111F7D
:100ED000000F111F000F111F061B170B0E0D1F1DFA
:100EE0000D5F1C4F90E0A0E0B0E0BC01CD010E947E
:100EF0007115F8016483758386839783A7018981BF
:100F000090E09695982F8827979587952485358525
:100F100028173907B0F4CA01880F991F840F951F4D
:100F2000FC01EE0FFF1FEE0FFF1FEE0FFF1FE81B70
:100F3000F90BE40FF51FE95EFC4F8081816080832F
:100F400015C0CA01880F991F840F951FFC01EE0F71
:100F5000FF1FEE0FFF1FEE0FFF1FE81BF90BE40F43
:100F6000F51FE95EFC4F80818260808320913C0107
:100F700030E0C901880F991F820F931FFC01EE0F0B
:100F8000FF1FEE0FFF1FEE0FFF1FE81BF90BE20F15
:100F9000F31FEB5EFC4F898190E09695982F882790
:100FA000979587959183808380913C01865FBE01F0
:100FB0006F5F7F4F40E00E94980E882309F491C034
:100FC0000E94AC0080913C0190E081529E4F0E94B3
:100FD000FB08182F83EC91E00E94FB0800913C0174
:100FE000002329F08071982F92959F7005C088701A
:100FF000982F96959695969589818917D9F1812F85
:101000008F700E94C500602F70E003E013E0AB0119
:10101000440F551F460F571F9A01220F331F220FEF
:10102000331F220F331F241B350B260F371FF801E8
:10103000E20FF31F958784870E941D0340913C01B6
:1010400050E09A01220F331F240F351FC901880F6A
:10105000991F880F991F880F991F821B930B840F6C
:10106000951F080F191F0C5E1F4FF80180818860C3
:10107000808337C0812F82958F700E94C500602FBA
:1010800070E0A3E0B3E0AB01440F551F460F571FBC
:101090009A01220F331F220F331F220F331F241BED
:1010A000350B260F371FFD01E20FF31F958784874D
:1010B00040913C0150E09A01220F331F240F351F4D
:1010C000C901880F991F880F991F880F991F821BCC
:1010D000930B840F951FA80FB91F54968C91877F8F
:1010E0008C9320913C0130E0C901880F991F820F39
:1010F000931FFC01EE0FFF1FEE0FFF1FEE0FFF1FF0
:10110000E81BF90BE20FF31FE95EFC4F808183FDC2
:1011100002C00E941D030E9446040E9427050E94EF
:10112000FC030F90CF91DF911F910F91FF90EF90F3
:101130000895CF93DF93C0911601D09117012097A6
:1011400071F08A81823059F082E08A8369858E81CC
:101150009F810E94141788858F5F8887FB9ADF9193
:10116000CF9108951F920F920FB60F9211242F93D3
:101170003F934F935F936F937F938F939F93AF931F
:10118000BF93CF93DF93EF93FF93C0911601D0915C
:10119000170188859D8198130CC086E191E00E941B
:1011A000B5148091160190911701892B89F4FB9851
:1011B0000FC090E0FE01E80FF91F2E813F8161858D
:1011C000820F931F0E94141788858F5F8887FB9A70
:1011D000FF91EF91DF91CF91BF91AF919F918F914F
:1011E0007F916F915F914F913F912F910F900FBE23
:1011F0000F901F9018958036910519F48091F40393
:1012000008959C013A95223041E0340748F48091DA
:101210002F0390913003FC01E20FF31F80810895AA
:1012200080559109803B910528F4FC01ED5CFC4F51
:10123000808108958FEF08951F93CF93DF93EC0182
:1012400001960E94FB08182FCE010E94FB0820E0A7
:10125000282B822F912FDF91CF911F910895A0E02D
:10126000B0E0E5E3F9E00C94BC15D62EEA018C0160
:101270001A950F3F110509F070F5CFB6F8940E944A
:1012800085147C01CC200CF47894F7011783068335
:10129000D58210869701275F3F4F4D2D50E06C2F70
:1012A0007D2F822F932F0E94FB1680912F03909108
:1012B0003003080F191F4D2D50E06C2F7D2F802F0C
:1012C000912F0E94FB1649E958E0B70186E191E0B1
:1012D0000E9496141CC08036910521F48881809369
:1012E000F40315C080559109803B910580F4662375
:1012F00071F0FA01DC01AD5CBC4FDA94CA018D0DCE
:10130000911D019621912D93E817F907D9F7CDB7D3
:10131000DEB7E8E00C94D815209116013091170142
:10132000232B29F02FB321FB882780F9089580E033
:1013300090E00895EF92FF920F931F93CF93DF9366
:101340008C01C0E0D0E0B8016C0F7D1FFB0125913E
:1013500034917901FB0132966491C9019A958F3FCE
:10136000910509F010F40E9414178FEFE816F104AC
:1013700029F02396C23585E0D80729F7409131033B
:101380005091320360E070E080912F039091300320
:101390000E940417CDB7DEB7E6E00C94DA15809111
:1013A0002F03909130030895AB01FD9AFC98709340
:1013B0003203609331039093300380932F0360E0F6
:1013C00070E00E9404170895E82FF0E0E65FFE4FFA
:1013D00084910895E82FE695E695E695F0E0EC51C6
:1013E000FC4F208130E08770A90102C055954795D8
:1013F0008A95E2F7CA0181700895E82FE695E6958F
:10140000E695F0E0877041E050E0082E02C0440FFE
:10141000551F0A94E2F74095EC51FC4F9081492307
:10142000262F217030E002C0220F331F8A95E2F789
:10143000242B2083089520911C0121110CC021E050
:1014400020931C01FC01368130931D01878180931C
:101450001E0120931F0180E0089530911D01FC01C1
:10146000268132130EC020911E018781281309C0E6
:1014700080911C01882329F010921C0181E0809347
:101480001F0180E0089580E00895482FE091220137
:10149000F091230130813F3F91F0332391F0329658
:1014A00090E0DF0111978C918E3F19F02081241775
:1014B00049F09F5F32969313F4CF80E0089580E067
:1014C000089580E008950E948C098111FCCF0E944C
:1014D000E60F80E00895EF92FF920F931F93CF9352
:1014E000DF938C01F62EEFB6F8940E948514EC0180
:1014F000EE200CF47894209771F183E08E8F80EBCE
:101500008D83E0911A01F0911B0181818E8382818C
:101510008F838EE091E00E94FB0880779F2D915091
:10152000892B8A8780E48C870115110531F0F80139
:10153000808188878181898702C01886198688857D
:10154000811106C08985811103C08A8580688A87D8
:101550008F2D8A5F8C838C2F9D2FCDB7DEB7E6E071
:101560000C94DA15CF93DF93EC0161E006960E94AC
:101570006B0A009739F02B852C732E53FC012387BF
:101580000E94DC10DF91CF9108950F931F93CF93AA
:10159000DF938C0164E006960E946B0AEC010097D1
:1015A00079F0C8010E94B20A8CEB8D8383E48B87AB
:1015B0001D8682E18E87CE010E94DC108CEC01C07A
:1015C00080E0DF91CF911F910F910895A0E0B0E0EE
:1015D000ECEEFAE00C94BC15EC018C850F2EFFE0CC
:1015E000EF2EF02DE8221D8500E08E85080F111DDD
:1015F0006E2D6C5FCE0106960E946B0A6C010097FF
:10160000C9F1CE010E94B20A8CEBF601858380916C
:101610001F0190E0880F991F880F991F82648387AC
:1016200084858E2984878D8585878E858687EE20A3
:10163000B1F0E6012F96EA94F12CF0E1EF0EF11CE7
:10164000EC0CFD1C0F5011090C191D09C8018C0F61
:101650009D1F0E94FB088993CE15DF05B9F7C601CF
:101660000E94DC10EFE1F1E080818F5F8F7080835A
:101670008CEC01C080E0CDB7DEB7E8E00C94D81563
:10168000A1E0B0E0E6E4FBE00C94BE158C01FC01A7
:1016900084858770898365E0C80106960E946B0A7D
:1016A0007C01009759F1C8010E94B20A80911F0184
:1016B00090E0880F991F880F991F8164F701838735
:1016C0008981806C8487F8018585F7018587F98198
:1016D000F13031F485E0F701868785EC878703C018
:1016E000F70116861786C7010E94DC10EFE1F1E0D2
:1016F00080818F5F8F7080838CEC01C080E02196A9
:10170000E6E00C94DA158091F40380FF0CC062E0EF
:1017100080E090E00E946B0A2CEBFC01258321E025
:1017200023870E94DC108CEC0895CF93DF93EC01AB
:101730006C859D8580E02E85820F911D811520E8A6
:10174000920731F48091F40380648093F40306C01F
:10175000AE01415F5F4F6F700E942F09CE010E9462
:10176000B20A8CECDF91CF9108952091F40320FF11
:1017700008C0AC01435F5F4F62E087E191E00E94E7
:101780002F0980E008950F931F93CF93DF93DC011F
:10179000C62F00E010E09801D8E029C09D918D2F60
:1017A000B901A801442777FD439555276627772778
:1017B0005695542F442757954795E92FE078F0E048
:1017C0004E175F0769F0000F111F221F331F47EBF1
:1017D00004274DE1142741EC242744E0342704C0BA
:1017E000000F111F221F331F990F8150C9F6C150DE
:1017F000A8F6602F712F822F932FDF91CF911F9129
:101800000F910895A1E0B0E0E8E0FCE00C94C2156F
:101810006983AE014F5F5F4F61E00E942F092196FF
:10182000E2E00C94DE15A0E0B0E0E9E1FCE00C940D
:10183000BB15EC01B62EC0902401D0902501042FD9
:1018400010E07801EE0CFF1CE00EF11EEC0CFD1C0C
:10185000F70184810E94E409482FF701828190E01A
:101860000F5F1F4F9801220F331F020F131FF60146
:10187000E00FF11F208125FD9395B41213C0B11024
:1018800006C068816F730E94020C81E00CC06991F0
:101890008C010F5F1F4F0E94020CBA94C801B9F768
:1018A00081E001C080E0CDB7DEB7E9E00C94D71548
:1018B000CF93C62FFC0162856F70615011F40C96B6
:1018C00001C00D964C2F0E94130C61E08C2F0E94DA
:1018D000FD09CF910895A0E0B0E0E1E7FCE00C94B1
:1018E000B715C82ED62E842E009124011091250103
:1018F000E82EF12CE701CC0FDD1FCE0DDF1DC00F50
:10190000D11F8C810E94E409982E97012F5F3F4FD1
:10191000C901880F991F280F391FF801E20FF31F23
:1019200080810F2EF3E07F2EF02D7822AA80B12C3B
:10193000692D6E5F8D2D90E0880F991F0196209183
:101940001A0130911B01820F931F0E946B0A8C01B8
:10195000009709F471C0772019F082E0781204C072
:10196000F801838182608383F8018486770C770C89
:101970008581782A75828285806882871386911096
:1019800008C0C5010E94FB088F73882AF80184866D
:101990000DC0C8010D96EC01A81AB90ACE018A0D36
:1019A0009B1D0E94FB0889939A94C1F7E091220144
:1019B000F0912301B080FFEFBF1619F1BB2009F1B0
:1019C000C0E0D0E02091220130912301AE01FE0160
:1019D000EE0FFF1FE20FF31F81818E3F79F0D812C7
:1019E0000DC04F5F5F4F440F551FF901E40FF51F06
:1019F00060816C1519F0C8010E94580C2196CB1516
:101A000008F3E0912401F09125018FEFE81AF80A1C
:101A1000C701880F991FE80EF91EEE0DFF1D80818A
:101A200086FF05C0C8010E94DC1081E006C0C80125
:101A30000E94961681E001C080E0CDB7DEB7EDE0F0
:101A40000C94D315CF93DF93C82FD62F0E94450A4D
:101A5000882331F04D2F682F8C2F0E946B0C01C012
:101A60008CE0DF91CF910895DC01E0911A01F091B3
:101A70001B0115968C91159788236CF013969C91F9
:101A800013978181981334C014969C918281981782
:101A900089F180E0089513962C911397211105C0C8
:101AA00014968C911497882339F130813F3F31F19E
:101AB0003396332329F181E03F5F9081291310C0D1
:101AC00014964C9114979181491307C061157105C3
:101AD000C9F0FB01808380E40895491718F414C00D
:101AE0002917A0F032968F5F3813E7CF80E0089572
:101AF00080E0089582E0089580E8089580E00895E8
:101B000080E0089580E4089580E0089580E00895DD
:101B1000FC012481223048F040E050E0BC0188E123
:101B200091E00E94961481E008950E94961680E04C
:101B30000895AF92BF92DF92EF92FF920F931F939F
:101B4000CF93DF931F92CDB7DEB7809118019091AC
:101B50001901892B09F4E1C088E191E00E94CD14BC
:101B60008C01DC0115968C91159785FD16C0E091CE
:101B70002001F0912101448114968C9148130DC0ED
:101B8000B8016B5F7F4F50E0CF0105960E94EE16C3
:101B9000282F392F232B09F4BDC0E0902001F090AD
:101BA0002101F8018481D70114968C935801B5E086
:101BB000AB0EB11C97012B5F3F4F448150E06A2D63
:101BC0007B2D822F932F0E94FB16F70185818F7D3D
:101BD0008583D8011A968C911A978F70D82ED3943A
:101BE0001B96FC901B97E12C1C968C91E82ABE0159
:101BF0006F5F7F4FC5010E94340D86FF60C0D980A2
:101C0000E0912201F0912301B080BFEFBB1609F4EF
:101C100081C08091F40385FF7DC0BB2009F47AC0A8
:101C2000E12CF12C80912201909123019701F70181
:101C3000EE0FFF1FE80FF91F41814E3FC9F1D4128B
:101C400037C02F5F3F4F220F331FFC01E20FF31FFE
:101C50008081E0912401F0912501282F30E02F5F51
:101C60003F4FA901440F551F240F351FE20FF31FEB
:101C70009081F801248592FF1BC0207C99233CF4BD
:101C8000203429F4682FC8010E94580C11C094FF19
:101C900007C0203829F4682FC8010E94580C08C0DA
:101CA00093FF06C0211104C040E46D2D0E946B0C0F
:101CB000FFEFEF1AFF0AEB1408F4B4CF2BC020EBB0
:101CC00030E0F9019491319645915491F9013396A0
:101CD00065917491F9013596A491F9013696E491D4
:101CE000982391F06E217F214617570769F4DA1681
:101CF00058F0ED1548F0295F3F4FF90125913491D7
:101D0000C801F901099506C0275F3F4FF1E02A306D
:101D10003F07B9F6C8010E9496160F90DF91CF9148
:101D20001F910F91FF90EF90DF90BF90AF900895BB
:101D3000A0E0B0E0EEE9FEE00C94BA15B82EEB019D
:101D4000A42E0E94EA098823C1F1C0902401D090FA
:101D500025010B2D10E07801EE0CFF1CE00EF11EAA
:101D6000EC0CFD1CF70184810E94E409382FF70177
:101D70002281822F90E00F5F1F4FA801440F551F53
:101D8000040F151FF601E00FF11F208125FD93952B
:101D9000A3120DC0AA20A9F012C08C010F5F1F4F23
:101DA0000E94FB088993C801CE15DF05B1F760E0FA
:101DB0008B2D0E94FD0981E00DC080E00BC0AA942C
:101DC00001C0A12CEA2CF12CFFEFEF1AFF0AEC0E58
:101DD000FD1EE3CFCDB7DEB7EAE00C94D615CF9366
:101DE000C82FCB01642F4C2F0E94130C60E88C2F5E
:101DF0000E94220DCF910895A1E0B0E0E2E0FFE063
:101E00000C94C215698340E0BE016F5F7F4F0E9452
:101E1000EF0E2196E2E00C94DE150E94EA09089587
:101E200060E80E94220D08950E94450A8823D1F09F
:101E300090E0880F991F019620911A0130911B01A3
:101E400062E0820F931F0E946B0A009749F02CEB0F
:101E5000FC012583138614860E94DC1081E008951E
:101E600080E008958CE008950E94FD090895CF93C5
:101E700014BE88E10FB6F894809360001092600061
:101E80000FBE0E94E11466EC71E08DE391E00E94C8
:101E9000D4090E9411110E941815CFB7F8940E941E
:101EA0008514CC230CF47894909321018093200125
:101EB000009711F0FC011482789485E091E00E9473
:101EC000FB088F3F71F486E091E00E94FB088F3F92
:101ED00041F4E4E8F0E025913491822F932F0E94A1
:101EE0009A0980914F0190E0835C9E4F9093250169
:101EF0008093240180914E0190E0835C9E4F9093EB
:101F000023018093220183E591E090931B0180934C
:101F10001A018091F4038E638093F4030E94C4013C
:101F2000CF9108950E94771408950E94370F0E9460
:101F3000990DA8950E94A40F8091F40385FD0E943D
:101F4000C7050E944410F3CF809126018F5F88302F
:101F500020F48093260180E0089510922601549881
:101F60005C9A8AE000008150E9F74C9B12C0809196
:101F7000F40380FF03C0549A5C9802C0549A5C9AA0
:101F8000809127018823E1F081508093270180E030
:101F90000895809127018F3FA9F08F5F80932701DB
:101FA000883C91F48091F40380FD05C081608093AA
:101FB000F40381E008958E7F8093F40381E0089517
:101FC00080E0089580E0089580E00895F89428E086
:101FD00088E190E00FB6F894A895809360000FBE5A
:101FE00020936000FFCF5D98549A5C9891E048EE92
:101FF00053E061E019C05C9822E330E0EFE3FCE9D4
:102000003197F1F700C0000021503109B9F75C9A0F
:1020100022E330E0EFE3FCE93197F1F700C0000084
:1020200021503109B9F79F5F891728F79A01EFE12D
:10203000FEE43197F1F700C0000021503109B9F7F3
:10204000962FF2CF80912B0182FF0BC081E080930D
:102050002C0187E686BD86E085BB80936E0082E01A
:1020600085BD08958091360190913701009731F038
:102070000E949616109237011092360180912B0122
:102080008F7380932B01089508951F920F920FB6BE
:102090000F9211248F939F93189951C08091F5034B
:1020A00080FF1FC090912A01911149C082FF19C081
:1020B00084B5806284BD84B58F7E84BD85B580641F
:1020C00085BD85B58F7B85BD81E080932C0182E045
:1020D0008093F50394E396BD96E095BB90936E00D4
:1020E00085BD80912D0190912E010097A9F48FEF6D
:1020F00097EF90932E0180932D018091F50380FD41
:1021000008C084E386BD86E085BB80936E0082E0D4
:1021100085BD10922F0107C0189905C0977F909335
:102120002E0180932D0180912B018B7F80932B01B9
:10213000109230018091F50382608093F5039F91A6
:102140008F910F900FBE0F901F9018951F920F92B6
:102150000FB60F9211242F938F939F93EF93FF93BA
:102160002091F50320FF1EC0809131019091320132
:1021700096958795909332018093310180FD0FC031
:1021800018BC84B5806384BDEEE6F0E080818B7F6F
:1021900080838091F5038B7F8093F50303C02460D7
:1021A0002093F503FF91EF919F918F912F910F90C5
:1021B0000FBE0F901F90189542E250E1BC0183E3DF
:1021C00091E00E94961480E00895CF93DF930E94DF
:1021D0008514EC01009711F180912B0184608093AC
:1021E0002B0183E08E8F89E08C8380EB8D8387E1E8
:1021F00091E00E94FB088E8388E191E00E94FB0839
:102200008F8381E188878EEF898783EF8A8780ECCF
:102210008B8780E88C87CE010E94DC10DF91CF9104
:10222000089554985C9A2098289A559A5D9892E05F
:1022300094BD88E687BD84B5806284BD84B58F7EF9
:1022400084BD85B5806485BD85B58F7B85BD80E205
:1022500086BBEFE6F0E0808180628083E1E8F0E019
:102260008081806880831092320110923101109237
:102270002E0110922D0184E080932B019093F503A1
:10228000809330011092F4030895F8940C94003870
:1022900008958091F40386FD0E944511E091330179
:1022A000F0913401309739F0838181FF04C081E3DC
:1022B00080932F0103C084E380932F0184E08093F7
:1022C00030010895E0913301F0913401868D982F0B
:1022D0009150968F882369F085818F7D858381E079
:1022E00080932C0181E380932F0184E0809330015F
:1022F000089584E080932C0183E391E00E94B5145B
:1023000081E080932C010E94491108951F920F9241
:102310000FB60F9211242F933F934F935F936F93B8
:102320007F938F939F93AF93BF93CF93DF93EF935D
:10233000FF93C091F50385B58E7F85BDC1FFDFC1D9
:1023400080912F01882321F0815080932F01D7C1E4
:1023500080913001823009F4F8C030F4882359F0BC
:10236000813009F0CCC161C0833009F43CC18430B4
:1023700009F0C5C13BC180912D0190912E01AC01A6
:10238000569547959A01306880FD4AC0442756709B
:102390004115564031F080912B01806880932B01CC
:1023A00037C0D22F822F082E82958025082E869541
:1023B0008695802590E0019681FB662760F970E0A4
:1023C000232F3327217033276217730731F0809151
:1023D0002B01806480932B011BC0E0913601F091AA
:1023E0003701309749F40E948514FC01909337011E
:1023F00080933601009761F08481DF01A80FB11D41
:102400001596DC938F5F8A3110F4848301C01482A7
:1024100082E080932F0181E08093300120E030E062
:1024200030932E0120932D016AC180913601909145
:102430003701892B71F480912C01833021F0809138
:102440002C01823019F40E94621179C00E94491156
:1024500076C085B5816085BD83E080932F0182E0E1
:102460008093300180912B01807C41F080912B0181
:1024700080912B018CE080932A0155C0A0913601F8
:10248000B091370114963C9114973130C9F4809182
:102490002C01833009F047C015968C918C3C69F46F
:1024A00084E080932C0183E391E00E94B51481E0E5
:1024B00080932C010E94491136C00E94621133C0E2
:1024C0003230A0F0315051F0FD01359690E080E0BF
:1024D000219192278F5F3813FBCF01C090E0909538
:1024E000FD01E30FF11D8581981721F08CE08093A9
:1024F0002A0119C014963C93149760E070E0CD0156
:1025000005960E94340D882371F08CEC80932A018B
:1025100080913601909137010E94880D1092370109
:10252000109236010CC080913601909137010097CE
:1025300031F00E9496161092370110923601809168
:102540002B018F7380932B01DAC080912A0188239D
:1025500009F446C080912A01282F30E0220F331F52
:10256000082E82958025082E86958695802590E0F8
:10257000019681FD06C03C61309332012093310108
:1025800005C03E61309332012093310118BC84B5FF
:10259000806384BDEEE6F0E080818B7F808384E001
:1025A00085BB8081846080838091F5038B7F8093DD
:1025B000F50380E286BBAFE6B0E08C9180628C933D
:1025C000A1E8B0E08C9180688C9381E08093F50362
:1025D00082E286BD86E085BB808382E085BD8FC0B8
:1025E0000E9449118CC00E94621189C08091330100
:1025F00090913401009709F47AC020912C01223087
:1026000009F47DC020912B012B7F20932B0122E028
:1026100020932C01109229011092280121E020938F
:1026200035012091290130912801FC01E20FF11DB3
:10263000258123272093280130912901FC01E30FF4
:10264000F11D25813F5F30932901822F90E0880F93
:10265000991F022E22952025022E269526952025AB
:1026600030E02F5F3F4F21FD06C09C619093320107
:102670008093310105C09E619093320180933101B6
:1026800018BC84B5806384BDEEE6F0E080818B7F6A
:10269000808384E085BB8081846080838091F503A2
:1026A0008B7F8093F50380912901E0913301F091B4
:1026B00034019481891718F082E08093350180E21B
:1026C00086BBEFE6F0E0808180628083E1E8F0E0A5
:1026D00080818068808381E08093F50382E286BDFB
:1026E00086E085BB80936E0082E085BD08C015BC86
:1026F00010926E0080912B01846080932B01C0FFAB
:10270000E3C088B581110FC082E288BD84B58062C4
:1027100084BD84B58F7E84BD84E085BBEEE6F0E0A9
:102720008081846080838091310190913201019792
:1027300009F0CAC0EEE6F0E080818B7F8083809153
:102740002A01882371F00E94321010922A011092FF
:102750002E0110922D0182E08093F5030E94491111
:10276000B3C08091330190913401009709F4ACC05B
:1027700020913501223009F45CC020F4213009F0A9
:10278000A3C007C0233009F489C0243009F09CC0DD
:1027900099C02091290130912801FC01E20FF11D1F
:1027A000258123272093280130912901FC01E30F83
:1027B000F11D25813F5F30932901822F90E0880F22
:1027C000991F022E22952025022E2695269520253A
:1027D00030E02F5F3F4F21FD06C09C619093320196
:1027E0008093310105C09E61909332018093310145
:1027F00018BC84B5806384BDEEE6F0E080818B7FF9
:10280000808384E085BB8081846080838091F50330
:102810008B7F8093F50380912901E0913301F09142
:1028200034019481891708F44FC082E08093350108
:102830004BC0209128012095822F90E0880F991F8E
:10284000022E22952025022E26952695202530E061
:102850002F5F3F4F21FD06C09C6190933201809312
:10286000310105C09E61909332018093310118BC03
:1028700084B5806384BDEEE6F0E080818B7F808349
:1028800084E085BB8081846080838091F5038B7FA9
:102890008093F50383E08093350116C00E943210C7
:1028A00083E080932C01109235018093300182E007
:1028B0008093F5038EE080932F0110922E011092E9
:1028C0002D0102C00E946211FF91EF91DF91CF9123
:1028D000BF91AF919F918F917F916F915F914F9138
:1028E0003F912F910F900FBE0F901F9018958FB7AB
:1028F000F894EFE6F0E090819F7D908315BC1092F4
:102900006E0088230CF4789408958FE190E00E9483
:10291000E915E82FF92F309731F081E08283838326
:102920001482118210828E2F9F2F0895CF93CFB7DC
:10293000F894FC01A081B181109711F409C0DC0169
:102940008D919C9111970097D1F76D937C9308C05E
:10295000FC01718360834115510511F0FA0109955D
:10296000CC230CF47894CF910895CF93CFB7F894FB
:10297000DC01ED91FC91119720813181309741F07C
:102980002D933C93838180FF03C0CF010E94961654
:10299000CC230CF47894CF9108954FB7F894DC01D0
:1029A000ED91FC91119720813181309721F02D9389
:1029B0003C931182108244230CF478948E2F9F2F25
:1029C000089508951F920F920FB60F9211248F93BE
:1029D0009F93AF93BF938091380190913901A0915B
:1029E0003A01B0913B010196A11DB11D80933801C0
:1029F00090933901A0933A01B0933B01BF91AF91FD
:102A00009F918F910F900FBE0F901F9018950F936D
:102A10001F93009138011091390120913A013091B2
:102A20003B01602F712F822F932F1F910F910895DB
:102A3000109238011092390110923A0110923B0124
:102A400082E08093B00087E08093B1001092B200E2
:102A50008DE48093B300E0E7F0E0808182608083C2
:102A600008958FB7F894E0E7F0E090819D7F908320
:102A7000B99A88230CF4789408950F931F93EFB7B5
:102A8000F894009138011091390120913A01309168
:102A90003B01EE230CF47894040F151F261F371FFB
:102AA000FC0100831183228333831F910F910895CA
:102AB000409138015091390160913A0170913B0188
:102AC000FC0180819181A281B381481B590B6A0B63
:102AD0007B0B81E014161506160617060CF080E035
:102AE0000895629FD001739FF001829FE00DF11D58
:102AF000649FE00DF11D929FF00D839FF00D749F78
:102B0000F00D659FF00D9927729FB00DE11DF91F23
:102B1000639FB00DE11DF91FBD01CF011124089580
:102B2000A1E21A2EAA1BBB1BFD010DC0AA1FBB1FD1
:102B3000EE1FFF1FA217B307E407F50720F0A21B43
:102B4000B30BE40BF50B661F771F881F991F1A94B0
:102B500069F760957095809590959B01AC01BD01DA
:102B6000CF0108952F923F924F925F926F927F9282
:102B70008F929F92AF92BF92CF92DF92EF92FF928D
:102B80000F931F93CF93DF93CDB7DEB7CA1BDB0B39
:102B90000FB6F894DEBF0FBECDBF09942A883988DE
:102BA00048885F846E847D848C849B84AA84B984E5
:102BB000C884DF80EE80FD800C811B81AA81B981F1
:102BC000CE0FD11D0FB6F894DEBF0FBECDBFED0105
:102BD0000895CF93DF93BC018230910510F462E039
:102BE00070E0A091F803B091F903ED01E0E0F0E0AE
:102BF00040E050E021C0888199818617970769F4E9
:102C00008A819B81309719F09383828304C09093CB
:102C1000F9038093F803FE0134C06817790738F48C
:102C20004115510519F08417950708F4AC01FE0110
:102C30008A819B819C01E9012097E9F641155105A4
:102C4000A9F1CA01861B970B049708F4BA01E0E0CA
:102C5000F0E02AC08D919C91119784179507F9F4A3
:102C60006417750781F412968D919C911397309794
:102C700019F09383828304C09093F9038093F8033F
:102C8000FD0132964FC0CA01861B970BFD01E80F6C
:102C9000F91F6193719302978D939C9343C0FD013B
:102CA000828193819C01D9011097A1F68091F6034E
:102CB0009091F703892B41F48091120190911301B7
:102CC0009093F7038093F6034091140150911501FE
:102CD0004115510541F44DB75EB7809110019091B7
:102CE0001101481B590B2091F6033091F70324176B
:102CF0003507B0F4CA01821B930B8617970780F043
:102D0000AB014E5F5F4F8417950750F0420F531F82
:102D10005093F7034093F603F9016193719302C056
:102D2000E0E0F0E0CF01DF91CF910895CF93DF9302
:102D3000009709F450C0EC0122971B821A82A091DF
:102D4000F803B091F903109709F140E050E0AC1797
:102D5000BD0708F1BB83AA83FE0121913191E20FE7
:102D6000F31FAE17BF0779F48D919C911197280F2F
:102D7000391F2E5F3F4F3983288312968D919C9186
:102D800013979B838A834115510571F4D093F903FE
:102D9000C093F80320C012968D919C911397AD01BA
:102DA000009711F0DC01D3CFFA01D383C2832191C4
:102DB0003191E20FF31FCE17DF0769F48881998103
:102DC000280F391F2E5F3F4FFA01318320838A81FC
:102DD0009B8193838283DF91CF910895FB01DC0176
:102DE00004C08D910190801921F441505040C8F7E2
:102DF000881B990B0895FB01DC0102C001900D9224
:102E000041505040D8F70895DC01CB01FC01F999FD
:102E1000FECF06C0F2BDE1BDF89A319600B40D9226
:102E200041505040B8F70895262FF999FECF1FBAA8
:102E300092BD81BD20BD0FB6F894FA9AF99A0FBEE3
:082E400001960895F894FFCFFC
:102E4800460160067A0BC00C060E4D0F9310DA117E
:062E58002000FA03000057
:00000001FF
