:100000000C947E000C949B000C949B000C949B0021
:100010000C949B000C949B000C949B000C949B00F4
:100020000C949B000C949B000C94F90B0C949B007B
:100030000C949D000C949B000C945D0D0C945C0C36
:100040000C949B000C949B000C949B000C949B00C4
:100050000C949B000C949B000C9488060C949B00C1
:100060000C949B000C949B000701010D01FF1201F1
:100070009A0C0100000000EA0100F60155F7015555
:10008000F20100040104050120060160FF00FF40A9
:100090008000C003000E040A400000FF030010EBC4
:1000A00009200000000001015007100000000001BD
:1000B0000136070200C200C30101310782C000FF00
:1000C0000304047908820001FF0302022F08028062
:1000D00001C0030303DD07020042C0C30404A308F8
:1000E000028042C0C301105608020043FFFF020213
:1000F000AF07028003FF03020229070011241FBE7D
:10010000CFEFD8E0DEBFCDBF12E0A6E0B1E001C086
:100110001D92A43AB107E1F711E0A0E0B1E0E4EDEF
:10012000F1E202C005900D92A630B107D9F70E9406
:10013000AC040C94E8100C9400001F920F920FB6C0
:100140000F9211240F900FBE0F901F90189580FFF3
:1001500002C0409A01C04098869580FF02C0419A33
:1001600001C04198869580FF02C0429A01C0429822
:10017000869580FF02C0439A01C04398869580FF10
:1001800002C0449A01C04498869580FF02C0459AF7
:1001900001C04598869580FF02C05E9A01C05E98B6
:1001A000869511F05F9A08955F980895EF92FF92F7
:1001B0001F93CF93DF9383E0809319018091800098
:1001C000806C809380008EEF91E090938900809303
:1001D000880080E091E00E948E05182F8091080130
:1001E000181709F449C0C0E0D0E081E0E82EF12CF6
:1001F0003C2FC7010C2E02C0880F991F0A94E2F70A
:10020000982F20910801812F8227892341F060E0F7
:10021000922309F061E0832F4CE00E94430921966C
:10022000C830D10529F787EF91E00E948E05182F7D
:1002300086EF91E00E948E05312F20E0482F50E09C
:10024000422B532B20E030E0CA01022E02C09695CB
:1002500087950A94E2F783709070892B41F480E0CF
:1002600091E061E048E051E00E94260605C02E5F63
:100270003F4F2031310541F782EF91E00E948E051A
:100280009091080189270E94A700DF91CF911F91CB
:10029000FF90EF9008952F923F924F925F926F924E
:1002A0007F928F929F92AF92BF92CF92DF92EF9206
:1002B000FF920F931F93DF93CF9300D000D000D015
:1002C000CDB7DEB7F82E562E8AEE91E00E948E054D
:1002D000898382E191E00E948E05E82E2BE02F15A4
:1002E00008F428C220911A0130911B01552059F0C1
:1002F00081E090E00F2C02C0880F991F0A94E2F76A
:10030000282B392B0CC081E090E00F2C02C0880F05
:10031000991F0A94E2F7809590952823392330930A
:100320001B0120931A0137E03F1578F50F2D10E0DF
:1003300008501040C8019595879588529E4F0E949D
:100340008E0590E001701070000F111F000F111F3B
:1003500002C0959587950A95E2F7282F2F7009F42A
:10036000E9C1293008F0E6C1F22EFA9430E02150BC
:10037000304080911A0190911B0102C0969587959B
:100380002A95E2F75524539458220E2D10E00E5F63
:100390001E4FCF2CDD247601EE0CFF1CEC0CFD1C57
:1003A000C701800F911F0E948E050F5F1F4FC8016C
:1003B0008E0D9F1D0E948E050F5F1F4FC8018E0D71
:1003C0009F1D0E948E058AEE91E00E948E05C60157
:1003D00086529E4F0E948E058A83C6018E519E4F83
:1003E0000E948E05182FA6014F5F5F4F5C834B83E1
:1003F000CA019595879587509E4F0E948E05C0FE35
:1004000004C03FE0432E482204C0482E42942FE00F
:10041000422288249924882D8695682E7724C3014A
:1004200088529E4F0E948E0591E0E92EF12CE82023
:10043000F9201701220C331C220C331C90E0022CF3
:1004400002C0959587950A94E2F78F7090E0AB8192
:10045000BC818A179B0709F0A6C08DEE91E00E942F
:100460008E055401AA0CBB1C90E00A2C02C0959585
:1004700087950A94E2F78370E0911A01F0911B01CD
:10048000FE83ED838823F1F4082C02C0F695E795EE
:100490000A94E2F7FE83ED830E8101708EEE91E007
:1004A0000E948E0590E002C095958795AA94E2F788
:1004B0008370813011F4502A76C0823009F073C005
:1004C000502271C0813009F06EC0A1E0AA2EB12C7B
:1004D00081E090E0082C02C0880F991F0A94E2F78F
:1004E000082F81EF91E00E948E0590E04D815E81A2
:1004F000252F332782279327202F30E08223932331
:1005000020911C01892B81F1802F822309F012C1D7
:10051000022B00931C01C30181519E4F0E948E0546
:1005200090E002C0959587952A94E2F7837009F4CC
:1005300001C1813059F402C0AA0CBB1CCA94E2F775
:100540009A2D90958091080189230BC0823009F083
:10055000EAC002C0AA0CBB1CCA94E2F78091080151
:100560008A2980930801DFC0802F8223E1F0009563
:10057000022300931C01C30181519E4F0E948E05EE
:1005800090E0EE0CFF1C0894E11CF11CEE0CFF1C2B
:1005900002C095958795EA94E2F7682F637009F495
:1005A000C9C0562E5A940894811C911C54E085169B
:1005B000910409F030CF112349F4552039F4F601A4
:1005C000EE0FFF1FE75FFE4F11821082209108019E
:1005D000822F90E00C2C02C0959587950A94E2F743
:1005E00080FF16C0112349F1A9818A2F90E00C2CBD
:1005F00002C0959587950A94E2F780FD1EC05520AC
:10060000E1F4F601EE0FFF1FE75FFE4F812F0CC0F4
:10061000BA81BB2391F0E1E05E1679F4F601EE0FAA
:10062000FF1FE75FFE4F8B2F90E0042C02C0880F66
:10063000991F0A94E2F791838083F9818F2F90E0CC
:100640000C2C02C0959587950A94E2F780FF44C070
:10065000112309F441C0EE24E3945E1409F066C04E
:1006600081E090E00C2C02C0880F991F0A94E2F7F9
:10067000282B20930801F601EE0FFF1FE75FFE4FC6
:10068000812F90E002C0880F991F4A94E2F791836E
:10069000808322C08BEE91E00E948E0590E00C2CAE
:1006A00002C0959587950A94E2F780FD15C0F60182
:1006B000EE0FFF1FE75FFE4F1182108281E090E096
:1006C0000C2C02C0880F991F0A94E2F780952091A4
:1006D0000801282320930801F601EE0FFF1FE75FB2
:1006E000FE4F80819181892BF1F4552061F481E0E6
:1006F00090E002C0880F991FCA94E2F7809520917C
:10070000080128230EC0FF24F3945F1461F481E0F4
:1007100090E002C0880F991FCA94E2F72091080167
:10072000282B209308010E94D60004C0552009F40C
:10073000B1CFD2CF26960FB6F894DEBF0FBECDBF95
:10074000CF91DF911F910F91FF90EF90DF90CF90AD
:10075000BF90AF909F908F907F906F905F904F90E1
:100760003F902F900895AF92BF92CF92DF92EF9279
:10077000FF920F931F93CF93DF938C010B5F1F4F5B
:10078000F801938180E02481C22EDD24C82AD92A71
:1007900081E191E00E948E05E82EFF24C701805080
:1007A0009F4F0E948E05A82EF801B780F1E0BF226E
:1007B000E701CF5FDE4F10E01CC0CE010E948E0526
:1007C000082F8E3FA1F0CE0101960E948E05282FA2
:1007D000E02FF0E0EE0FFF1FED58FD4F8181928179
:1007E000C816D90621F4822F6B2D0E944B011F5F82
:1007F00022961A1510F38CECDF91CF911F910F9177
:10080000FF90EF90DF90CF90BF90AF9008951F932F
:10081000389A399A3A9A3B9A3C9A3D9A569A579AFC
:10082000219A80E091E00E948E058093080187EF75
:1008300091E00E948E05182F86EF91E00E948E05B0
:10084000312F20E0482F50E0422B532B60910801BC
:1008500020E030E0E1E0F0E0C901880F991FDA0103
:1008600002C0B695A7958A95E2F7CD0183708130D5
:1008700051F4CF01022E02C0880F991F0A94E2F7AB
:10088000809568230AC0823041F4CF01022E02C055
:10089000880F991F0A94E2F7682B2F5F3F4F28308B
:1008A0003105D1F6609308010E94D60082E0809362
:1008B000800081E0809381001F910895EF92FF9264
:1008C0000F931F93CF93DF938DE091E00E948E05ED
:1008D0008F3FD9F520911901213061F4809180007A
:1008E000806C809380008AEA90E0909389008093E6
:1008F000880002C0222319F021502093190109E039
:1009000011E0C0E0D0E081E0E82EF12CF801808118
:1009100091810097A1F0019791838083892B79F4CD
:10092000C7010C2E02C0880F991F0A94E2F79C01A0
:10093000809108018227809308010E94D6002196A9
:100940000E5F1F4FC830D10509F7DF91CF911F917E
:100950000F91FF90EF900895CF93DF9314BE88E13D
:100960000FB6F89480936000109260000FBE0E9452
:10097000940F87E391E068E271E00E94C1050E9454
:10098000F00C789488E690E00E941D0A0E9407040B
:100990002CE088E190E00FB6F894A8958093600071
:1009A0000FBE20936000C0E1D4E0A8950E945E0BCA
:1009B0000E948D0AB09BF9CFB09A80910601909168
:1009C000070101979093070180930601019669F74B
:1009D000D0930701C09306010E945E04E6CF2F92D8
:1009E0003F924F925F926F927F928F929F92AF92BF
:1009F000BF92CF92DF92EF92FF920F931F93CF930C
:100A0000DF93FC013596938180E02481A22EBB24E4
:100A1000A82AB92A81E191E00E948E05082F10E0F2
:100A2000C80180509F4F0E948E05582E51E0C52E60
:100A3000D52EC00ED11E772449E0242E3CEB332E58
:100A400021EE422E54C0C6010E948E05082F8E3F13
:100A500009F448C0C60101960E948E05682EC02F79
:100A6000D0E0CC0FDD1FCD58DD4F4E010894811C26
:100A7000911C89819A81A816B906A1F587E086158F
:100A800088F10E94AD0F7C01009711F48CE033C017
:100A90008C010B5F1F4F83E0F701868F2482358224
:100AA00087E191E00E948E05F801818388E191E061
:100AB0000E948E05F8018283F4018181F80183830D
:100AC00089818483458216828091080190E002C06A
:100AD000959587956A94E2F78170805C8783C7015A
:100AE0000E942E0D739482E090E0C80ED91E7514FA
:100AF00008F4A9CF8CECDF91CF911F910F91FF905B
:100B0000EF90DF90CF90BF90AF909F908F907F90AD
:100B10006F905F904F903F902F9008958036910591
:100B200019F480919E0208959C012050314041E0CB
:100B30002230340740F4E0915F02F0916002E20F4E
:100B4000F31F80810895FC01EE5CF040E331F10574
:100B500010F08FEF0895ED59FD4F80810895809139
:100B60001D0190911E01892B19F480E090E00895F9
:100B70008FB386958170089580915F029091600295
:100B80000895AB01FD9AFC98709362026093610234
:100B90009093600280935F0260E070E00E94CA1050
:100BA0000895EF92FF920F931F93CF93DF937C01F1
:100BB000C0E0D0E097012C0F3D1FF9010591149181
:100BC0002E5F3F4FF9016491C801805091408F3FE3
:100BD000910509F010F40E94DA100F3F110529F079
:100BE0002396F3E0C837DF0729F74091610250915F
:100BF000620280915F029091600260E070E00E946A
:100C0000CA10DF91CF911F910F91FF90EF9008953F
:100C10000F931F93E0911D01F0911E01309799F001
:100C20008281823081F082E082838F010B5F1F4FCF
:100C3000F8018181928164810E94DA10F801838138
:100C40008F5F8383FB9A1F910F910895CF92DF925C
:100C5000EF92FF920F931F93CF93DF93062FEA013A
:100C6000C12C2FEFD22EC80ED91E2FEFC216D104E1
:100C700009F068F51FB7F8940E94AD0F7C0117FFCB
:100C800001C07894F7013596D282C182D7011596BA
:100C90000C9313829701275F3F4FC901BE01402F7C
:100CA00050E00E94C11020915F02309160022C0D33
:100CB0003D1DC901BE01402F50E00E94C1108DE1D1
:100CC00091E0B70148E056E00E94750F18C09C0102
:100CD0002E5C30402331310560F4D901AD59BD4F50
:100CE000FA0102C081918D938E2F8C1B8017D0F357
:100CF00006C08036910519F4888180939E02DF91A9
:100D0000CF911F910F91FF90EF90DF90CF900895BA
:100D10001F920F920FB60F9211242F933F934F9370
:100D20005F936F937F938F939F93AF93BF93CF9373
:100D3000DF93EF93FF93E0911D01F0911E01EF010E
:100D400025969B818581891761F48DE191E00E9450
:100D5000950F80911D0190911E01892B91F4FB98B4
:100D600010C0892F90E029813A81FE01E80FF91F18
:100D7000820F931F64810E94DA108B818F5F8B83B7
:100D8000FB9AFF91EF91DF91CF91BF91AF919F912E
:100D90008F917F916F915F914F913F912F910F9024
:100DA0000FBE0F901F9018956F927F928F929F9217
:100DB000BF92CF92DF92EF92FF920F931F93FC01AD
:100DC000B62EEE24FF24870147EB642E4DE1742EEE
:100DD00041EC842E44E0942E2CC0C08038E0D32E09
:100DE000D801C7018827B7FD83959927AA27BB2774
:100DF0009695982F8827979587952C2D30E0207809
:100E00003070B801A701440F551F661F771F821766
:100E1000930739F07A018B01E624F7240825192578
:100E200002C07A018B01DA9411F0CC0CD9CF319643
:100E3000BA94BB2091F6B701C8011F910F91FF90A2
:100E4000EF90DF90CF90BF909F908F907F906F90AA
:100E500008950E94AF058823E1F70E949D0B80E072
:100E600008958CEC0E949A0B80E00895FC01359661
:100E7000909120018181981771F4909121018281D4
:100E8000981749F480911F01882329F010921F01BF
:100E900081E0809322018CEC0E949A0B80E00895FF
:100EA000FC0180911F01882361F4359691E09093B5
:100EB0001F01818180932001828180932101909381
:100EC00022018CEC0E949A0B80E008951F93CF932F
:100ED000DF93EC01162F0E94AD0FDC01009709F1A2
:100EE000FC01359683E05E968C935E9780EB1596B9
:100EF0008C93159790919C0280919D02818392839F
:100F0000812F8150806F8583209729F0888183838A
:100F10008981848302C0138214821A5F14961C9301
:100F20001497CD01DF91CF911F910895CF93DF9357
:100F3000EC012596069661E00E9466079C010097E9
:100F400059F0FC01359680E685838E818C738E5333
:100F50008683C9010E942E0DDF91CF910895EF92F3
:100F6000FF920F931F93CF93DF937C01069664E06B
:100F70000E946607EC01009711F480E017C08C0115
:100F80000B5F1F4F8CEC0E949A0BC7010E949607C3
:100F900083E6F801858383E4868380E487831D8666
:100FA00082E18E87CE010E942E0D8CECDF91CF91D5
:100FB0001F910F91FF90EF900895CF92DF92EF92E3
:100FC000FF920F931F93DF93CF930F92CDB7DEB7AE
:100FD0007C01FC010485069665E00E9466076C01B1
:100FE000009711F480E031C0077009838C010B5F1A
:100FF0001F4F8CEC0E949A0BC7010E94960784E752
:10100000F801858380912201880F880F816486838F
:101010008981806C8783F7018585F6018587F98151
:10102000F13031F485E0F601868785EC878703C0CF
:10103000F60116861786C6010E942E0D80912201A8
:101040008F5F8F70809322018CEC0F90CF91DF9196
:101050001F910F91FF90EF90DF90CF900895EF9246
:10106000FF920F931F9380919E0280FF19C080E032
:1010700090E062E00E9466078C0155E0E52EF12CBD
:10108000E80EF91E8CEC0E949A0B8CEBF80185831C
:1010900081E0F701868380E48783C8010E942E0DDA
:1010A0008CEC1F910F91FF90EF900895CF93DF93F9
:1010B000EC016C859D8580E02E85820F911D20E8D6
:1010C0008030920731F480919E02806480939E026A
:1010D00006C06F70AE01415F5F4F0E9426068CEC28
:1010E0000E949A0BCE010E9496078CECDF91CF9163
:1010F00008950F931F93CF93DF93EC0180919E028D
:1011000080FF1BC08E01035F1F4F8CEC0E949A0B67
:101110003D8520E030939D0220939C02F80181815F
:1011200090E0822B932B90939D0280939C0287E109
:1011300091E062E0A8010E94260680E0DF91CF9155
:101140001F910F9108958F929F92AF92BF92CF926D
:10115000DF92EF92FF920F93DF93CF9300D0CDB742
:10116000DEB74C01FC0104850F70958580E0268573
:101170005C01A20EB11C6501602F6C5FC401069674
:101180000E9466077C01009711F480E03AC0059642
:101190009A8389838CEC0E949A0BC4010E94960763
:1011A0000D59E981FA810583035680912201880F48
:1011B000880F82648683802F80648783F40185850D
:1011C000F7018587F4018685F7018687470108C006
:1011D000C6010E948E05F40186870894C11CD11CAB
:1011E0000894811C911C8C2D8A19801788F3C701E3
:1011F0000E942E0D809122018F5F8F7080932201BB
:101200008CEC0F900F90CF91DF910F91FF90EF90AA
:10121000DF90CF90BF90AF909F908F900895CF9226
:10122000DF92EF92FF920F931F93F82ED62E81E15B
:1012300091E00E948E05082F10E0C80180509F4F5A
:101240000E948E05C82EDF0C0F5F1E4FEE2410C0CB
:10125000C8010E948E05F82E8EEFF81631F0C801F5
:1012600001960E948E058D1531F0E3940E5F1F4F9D
:10127000EC1470F3FF248F2D1F910F91FF90EF90CE
:10128000DF90CF900895EF92FF920F931F93CF932B
:10129000DF93F62E642F0E940F09E82E8823D1F1E8
:1012A0000E94AD0FEC010097A9F18C010B5F1F4F5D
:1012B00083E08E8F88E08C838CEB8D8387E191E0D7
:1012C0000E948E05D80111968C9388E191E00E94CE
:1012D0008E05F8018283EE2DF0E0EE0FFF1FED5832
:1012E000FD4F8281D80113968C93139781811496B8
:1012F0008C93149781EE15968C93159716961C92E5
:10130000BFE7FB22E0E8FE0ED8011796FC92CE0163
:101310000E942E0DDF91CF911F910F91FF90EF90C2
:101320000895DF92EF92FF920F931F93CF93DF9375
:10133000E82ED62E642F0E940F09F82E882309F478
:1013400042C00E94AD0FEC010097E9F18C010B5FE8
:101350001F4F83E08E8F89E08C838CEB8D8387E138
:1013600091E00E948E05D80111968C9388E191E05E
:101370000E948E05F8018283EF2DF0E0EE0FFF1F33
:10138000ED58FD4F8281D80113968C93139781817C
:1013900014968C93149781ED15968C931597169649
:1013A0001C9283EF91E00E948E0590E002C095951B
:1013B0008795EA94E2F781708D258058F80187833C
:1013C000CE010E942E0DDF91CF911F910F91FF90C2
:1013D000EF90DF900895CF93DF93EC018DE091E0E3
:1013E0000E948E058F3F61F4CE010E94EF048C3C79
:1013F00021F40E949A0B8CEC04C08CE00E949A0BA2
:101400008CE0DF91CF910895CF93DF93EC018DE0D5
:1014100091E00E948E058F3F61F4CE010E94B303DC
:101420008C3C21F40E949A0B8CEC04C08CE00E944E
:101430009A0B8CE0DF91CF910895BF92CF92DF920B
:10144000EF92FF920F931F93CF93DF93EC0187E10D
:1014500091E00E948E05182F00E010939D020093EA
:101460009C0288E191E00E948E0590E0082B192BE8
:1014700010939D0200939C0285E091E00E948E05EE
:101480008F3F49F486E091E00E948E058F3F19F46A
:10149000CE010E94D10586E191E00E948E058F3F2A
:1014A00041F410927502F9E1CF2EF1E0DF2EBB245A
:1014B00026C08150809375028431A8F3F2CF0B2DA2
:1014C00010E076010894E11CF11CC6010E948E0513
:1014D000D82FC0E0000F111F0B581D4FF801D28309
:1014E000C18382E090E0C80ED91EC7010E948E051C
:1014F00090E08C2B9D2BF80192838183B394809193
:101500007502B816E0F2DF91CF911F910F91FF9015
:10151000EF90DF90CF90BF900895EF92FF920F93DE
:101520001F93CF93DF938091230190912401892B06
:1015300009F4B4C0E0912301F091240144814150A9
:101540006091230170912401442309F4A3C090E029
:1015500020E030E0E0912301F0912401E20FF31F3D
:10156000858198272F5F3F4F2417A0F3E091230137
:10157000F09124019095E40FF11D8581981721F0D9
:101580008CE00E949A0B86C0DB01159613962C9175
:10159000139714963C911497922F80E0432F50E0BC
:1015A000482B592B15960C91159716968C911697DA
:1015B000C82FD0E0902F80E0BC016C2B7D2BCB019D
:1015C0008C7F907880509048B1F4222331F0309194
:1015D0007502E6E7F2E020E00CC03323C1F710E823
:1015E0000BC0819191914817590711F410E41BC069
:1015F0002F5F2317B0F310E080919C0290919D0221
:101600004817590769F4CB0190788038910511F497
:10161000106204C08138910509F4106107FF12605F
:10162000112309F437C00F700F5FFC2EEE241796BC
:101630008C9190E0E82AF92ACFE8D0E0FE0184916D
:10164000319645915491FE0133962591349125961A
:10165000FE0164912196FE01949126978123A1F0C9
:101660002E213F214217530779F4061768F090178F
:1016700058F0CE010796FC01259134918091230109
:1016800090912401F9010995F0E0C23FDF0711F0C4
:101690002996D4CF83E291E00E94950FDF91CF91FC
:1016A0001F910F91FF90EF900895BC0183E291E0AC
:1016B00040E050E00E94750F80E008958091250180
:1016C0008F5F80932501803198F110922501549805
:1016D0005C9A80E000008F5F8A30E1F74C9B12C07B
:1016E00080919E0280FF03C0549A5C9802C0549A75
:1016F0005C9A809126018823D9F08150809326013D
:1017000080E00895809126018F3F19F08F5F8093CC
:10171000260180912601883C59F480919E0280FD2B
:1017200002C0816001C08E7F80939E0281E0089597
:1017300080E00895809333010895F89428E088E1CB
:1017400090E00FB6F894A895809360000FBE2093A8
:101750006000FFCF482F50E0440F551F9A013C61B5
:1017600030932B0120932A01082E82958025082E84
:1017700086958695802590E0019681FF05C05E6183
:1017800050932B0140932A0118BC84B5806384BD1B
:1017900080916E008B7F80936E0084E085BB80918A
:1017A0006E00846080936E0080919F028B7F809397
:1017B0009F02089580919E0286FF09C0F89480914F
:1017C0009C0290919D028EBB9ABD0C940038E091D2
:1017D0003101F0913201309729F0838181FF02C0FD
:1017E00081E301C084E38093360184E08093270184
:1017F00008951F920F920FB60F9211248F939F930B
:10180000189953C080919F02982F80FF20C080912B
:101810003301882309F049C092FF19C084B5806262
:1018200084BD84B58F7E84BD85B5806485BD85B556
:101830008F7B85BD81E08093290192E090939F0288
:1018400084E386BD86E085BB80936E0095BD809164
:101850002C0190912D010097A9F48FEF97EF9093B1
:101860002D0180932C0180919F0280FD08C084E3AC
:1018700086BD86E085BB80936E0082E085BD1092B8
:10188000360107C0189905C0977F90932D0180936A
:101890002C0180912E018B7F80932E0110922701C5
:1018A00080919F02826080939F029F918F910F9001
:1018B0000FBE0F901F9018951F920F920FB60F92A8
:1018C00011242F938F939F9320919F0220FF1AC082
:1018D00080912A0190912B019695879590932B01E9
:1018E00080932A0180FD0BC018BC84B5806384BD41
:1018F00080916E008B7F80936E002B7F01C02460EF
:1019000020939F029F918F912F910F900FBE0F9068
:101910001F90189590913501A0913101B09132013D
:1019200080913401FD01E80FF11D85819827909386
:10193000350190913401A90FB11D15968C919F5FCF
:10194000909334010E94AA0B90913401E0913101EF
:10195000F09132018481981718F082E08093280179
:10196000089580912E0182FF0BC081E080932901B0
:1019700087E686BD86E085BB80936E0082E085BDEC
:1019800008955D98549A5C9891E040E45CE960E2C7
:101990007EE417C05C9821E030E0FA013197F1F75E
:1019A0002F5F3F4F23333105C1F75C9A21E030E0D0
:1019B000FA013197F1F72F5F3F4F23333105C1F71C
:1019C0009F5F891738F721E030E0FB013197F1F78D
:1019D0002F5F3F4F93E0293E3907B9F791E0F1CFF0
:1019E00054985C9A2098289A559A5D9892E094BDF4
:1019F00088E687BD84B5806284BD84B58F7E84BD52
:101A000085B5806485BD85B58F7B85BD80E286BB4D
:101A1000EFE6F0E0808180628083E1E8F0E08081A1
:101A20008068808310922B0110922A0110922D0160
:101A300010922C0184E080932E0190939F0280935A
:101A4000270110929E020895F89480919C02909133
:101A50009D028EBB9ABD0C9400380895BC0181E3B1
:101A600091E041EB5CE00E94750F80E0089584E016
:101A70008093290181E391E00E94950F81E080939A
:101A800029010E94DA0B0895E0913101F0913201B1
:101A9000868D8150868F8F5F69F085818F7D8583EC
:101AA00081E08093290181E38093360184E0809373
:101AB000270108950E94370D08951F920F920FB6C7
:101AC0000F921124FF920F931F932F933F934F93E5
:101AD0005F936F937F938F939F93AF93BF93EF9396
:101AE000FF9385B58E7F85BD80919F02F82E81FF83
:101AF00028C180913601882321F0815080933601DE
:101B000020C110912701123009F4BDC0133030F408
:101B1000112359F0113009F014C165C0133009F4D4
:101B2000D4C0143009F00DC1D3C080912C01909124
:101B30002D019C0136952795306880FD4FC0C90165
:101B4000807096708050964021F080912E018068C0
:101B500019C0122F822F082E82958025082E869577
:101B60008695802590E00196959587958170907077
:101B7000232F3327217030708217930731F0809123
:101B80002E01806480932E0121C080912F019091BD
:101B90003001892B31F40E94AD0F90933001809376
:101BA0002F01A0912F01B0913001109779F0149678
:101BB0008C911497FD01E80FF11D15838F5F14962A
:101BC0008C9314978A3110F014961C9282E08093C3
:101BD000360181E08093270120E030E030932D0131
:101BE00020932C01AEC0E0912F01F091300130978D
:101BF00071F480912901833021F080912901823094
:101C000019F40E94440D3BC00E94DA0B38C085B520
:101C1000816085BD83E08093360182E08093270157
:101C200080912E01807C41F080912E0180912E01C7
:101C30008CE08093330117C08481813069F48091F6
:101C40002901833081F485818C3C19F40E94370D81
:101C50000AC00E94440D07C0CF010E94550B10928C
:101C6000300110922F0180912F0190913001009747
:101C700031F00E9469101092300110922F01809172
:101C80002E018F735CC0809133018823D9F080913D
:101C900033010E94AA0B80E286BB80916F008062B4
:101CA00080936F008091810080688093810081E043
:101CB00080939F0282E286BD86E085BB80936E00A2
:101CC00015BD3FC00E94DA0B3CC00E94440D39C0D4
:101CD0008091310190913201892B59F18091290134
:101CE000823079F180912E018B7F80932E0102E06A
:101CF00000932901109234011092350111E01093E4
:101D000028010E948A0C80E286BB80916F0080626D
:101D100080936F0080918100806880938100109390
:101D20009F0282E286BD86E085BB80936E0005BD82
:101D300008C015BC10926E0080912E0184608093C3
:101D40002E01F0FE85C088B5882379F482E288BD33
:101D500084B5806284BD84B58F7E84BD84E085BBFC
:101D600080916E00846080936E0080912A01909132
:101D70002B01019709F06CC080916E008B7F8093DE
:101D80006E00809133018823E9F080912F019091BA
:101D90003001009731F00E946910109230011092CA
:101DA0002F0180912E018F7380932E0110923301A9
:101DB00010922D0110922C0182E080939F020E94CC
:101DC000DA0B46C08091310190913201892B09F4E0
:101DD0003FC080912801823069F0833018F481304F
:101DE000B9F505C0833079F0843091F52FC00E9499
:101DF0008A0C2EC08091350180950E94AA0B83E049
:101E00008093280125C080912F0190913001009787
:101E100031F00E9469101092300110922F018091D0
:101E20002E018F7380932E0183E0809329011092FD
:101E300028018093270182E080939F028EE08093A7
:101E4000360110922D0110922C0102C00E94440D07
:101E5000FF91EF91BF91AF919F918F917F916F9182
:101E60005F914F913F912F911F910F91FF900F9094
:101E70000FBE0F901F9018950F931F93CF93DF9372
:101E80000E94AD0FEC01009759F18C010B5F1F4FC1
:101E900080912E01846080932E0183E08E8F89E0F3
:101EA0008C8380EB8D8387E191E00E948E05F801A1
:101EB000818388E191E00E948E05F801828381E1AF
:101EC00083838EEF848383EF858380EC868380E831
:101ED000878381E391E0BE0141EB5CE00E94750FD6
:101EE000DF91CF911F910F9108951F93DC011FB7D0
:101EF000F894ED91FC911197309751F0CF0101903A
:101F0000F081E02D3097D1F7FC017183608307C029
:101F10006D937C934115510511F0FA01099517FF56
:101F200001C078941F91089508951F93DC011FB795
:101F3000F894ED91FC91119780819181309741F057
:101F40008D939C93838180FF03C0CF010E94691011
:101F500017FF01C078941F9108958FE190E00E94CF
:101F6000BC0FFC01009731F081E0828383831482EF
:101F700011821082CF010895CF93DF93BC0182308C
:101F8000910510F462E070E0A091A202B091A3026A
:101F9000ED01E0E0F0E040E050E021C0888199816F
:101FA0008617970769F48A819B81309719F093838C
:101FB000828304C09093A3028093A202FE0134C0E6
:101FC0006817790738F44115510519F084179507FA
:101FD00008F4AC01FE018A819B819C01E9012097F4
:101FE000E9F641155105A9F1CA01861B970B049723
:101FF00008F4BA01E0E0F0E02AC08D919C911197BD
:1020000084179507F9F46417750781F412968D917A
:102010009C911397309719F09383828304C0909317
:10202000A3028093A202FD0132964FC0CA01861B13
:10203000970BFD01E80FF91F6193719302978D9340
:102040009C9343C0FD01828193819C01D90110972B
:10205000A1F68091A0029091A102892B41F4809178
:102060000201909103019093A1028093A0024091FC
:102070000401509105014115510541F44DB75EB77A
:102080008091000190910101481B590B2091A00201
:102090003091A10224173507B0F4CA01821B930BBB
:1020A0008617970780F0AB014E5F5F4F8417950747
:1020B00050F0420F531F5093A1024093A002F90128
:1020C0006193719302C0E0E0F0E0CF01DF91CF9126
:1020D0000895CF93DF93009709F450C0EC01229745
:1020E0001B821A82A091A202B091A302109709F15B
:1020F00040E050E0AC17BD0708F1BB83AA83FE01A6
:1021000021913191E20FF31FAE17BF0779F48D9142
:102110009C911197280F391F2E5F3F4F39832883D9
:1021200012968D919C9113979B838A83411551053B
:1021300071F4D093A302C093A20220C012968D9195
:102140009C911397AD01009711F0DC01D3CFFA01F8
:10215000D383C28321913191E20FF31FCE17DF07A2
:1021600069F488819981280F391F2E5F3F4FFA014A
:10217000318320838A819B8193838283DF91CF91F6
:102180000895FB01DC0102C001900D9241505040C6
:10219000D8F70895DC01CB01FC01F999FECF06C008
:1021A000F2BDE1BDF89A319600B40D924150504015
:1021B000B8F70895262FF999FECF1FBA92BD81BDB9
:1021C00020BD0FB6F894FA9AF99A0FBE01960895B9
:0421D000F894FFCFB1
:0621D4002000A40200003F
:00000001FF
