:100000000C94A8000C94C5000C94C5000C94C50079
:100010000C94C5000C94C5000C94C5000C94901071
:100020000C94C5000C94C5000C942D0C0C94C500C8
:100030000C94C5000C94C5000C94420D0C948E0CCD
:100040000C94C5000C94C5000C94C5000C94C5001C
:100050000C94C5000C94C5000C9493050C94C50039
:100060000C94C5000C94C500017D00000000000048
:100070000000000000000000000000000007010177
:100080000D01FF12019A0C0100000100EA0100F2CB
:100090000100F60155F701550301000401040501B3
:1000A00020060160FF00FF0D0000001A0000003470
:1000B00000000068000000D0000000A00100004027
:1000C00003000080060000000D0000001A00000080
:1000D0003400000068000000D0000000A001000013
:1000E0004003000080060002008000FF0101F706C7
:1000F00002008100FF010109070200C200C30101E3
:100100001F0782C000FF0304049108820001FF035F
:1001100002025F08028001C00303031C08020042C0
:10012000C0C30404C207028042C0C30110710802A8
:100130000043FFFF0202A107028003FF0302023F08
:10014000070000000000000101020304060A0E0E71
:1001500011241FBECFEFD8E0DEBFCDBF13E0A6E075
:10016000B1E001C01D92AA3EB107E1F711E0A0E0A5
:10017000B1E0EAE7F5E202C005900D92A630B107C2
:10018000D9F70E94AC0B0C94BB120C940000A0E0B9
:10019000B0E0EDECF0E00C941211082F962EC82F71
:1001A000D0E0CE0101969595879587509E4F0E948D
:1001B000DC0500FF03C0E82FEF7003C0E82FE295D5
:1001C000EF70F0E0EE0FFF1FEE0FFF1FE955FF4F3E
:1001D000C590D590E590F4908AEE91E00E94DC0500
:1001E00021E030E05901002E02C0AA0CBB1C0A9489
:1001F000E2F71A2D782E7A20CE018E519E4F0E9462
:10020000DC05882ECE0186529E4F0E94DC057110BF
:100210004EC02091F30230E0002E02C035952795A4
:100220000A94E2F720FF21C0882009F4EAC0911067
:10023000E8C0A82DB0E0A70196010E940211AB0111
:10024000BC01CE01880F991F880F991F8B509D4FBD
:100250000E94CE10E9E1F3E08081182B1083809199
:100260000601826080930601CCC0882309F4C9C0CE
:1002700041E09412C6C0A82FB0E0A70196010E94E9
:100280000211AB01BC01CE01880F991F880F991F85
:100290008B509D4F0E94CE10E9E1F3E08081182B36
:1002A000108380910601826080930601AAC08111AB
:1002B0002EC02091F302822F90E0002E02C095956F
:1002C00087950A94E2F780FD72C051E0951299C0BB
:1002D0002A292093F302A82DB0E0A70196010E94DD
:1002E0000211AB01BC01CE01880F991F880F991F25
:1002F0008B509D4F0E94CE10E9E1F3E08081182BD6
:100300001083809106018260809306017AC020915B
:10031000F30230E0002E02C0359527950A94E2F7EB
:1003200020FD6BC091E099126CC0A82FB0E0A7012E
:1003300096010E940211AB01BC01CE01880F991FEA
:10034000880F991F8B509D4F0E94CE10E9E1F3E07A
:1003500080818A29808380910601826080930601D2
:100360008091F30290E0002E02C0959587950A9443
:10037000E2F780FF46C0A82DB0E0A70196010E94D9
:100380000211AB01BC01CE01880F991F880F991F84
:100390008B509D4F0E94CE10E9E1F3E08081182B35
:1003A0001083809106018260809306012AC091101B
:1003B00028C08BEE91E00E94DC0590E0002E02C088
:1003C000959587950A94E2F780FD1BC0209119034B
:1003D000822F90E0AC0102C0559547950A95E2F74F
:1003E0008A0140FF0EC0A0942A2120931903E3EF55
:1003F000F2E08081A822A08204C051E09512D7CFFC
:10040000BACFCDB7DEB7EDE00C942E11CF93C82F45
:100410006095682399F047E250E060E070E085E184
:1004200093E00E94CE1080910601846080930601C3
:10043000E0E8F0E080818F7380832998C0FF02C0DC
:10044000409A01C04098C1FF02C0419A01C0419842
:10045000C2FF02C0429A01C04298C3FF02C0439A41
:1004600001C04398C4FF02C0449A01C04498C5FF2C
:1004700002C0459A01C04598C6FF02C05E9A01C0FD
:100480005E98CC2314F45F9A01C05F988091F302C8
:100490008093F402CF910895A0E0B0E0E2E5F2E0AD
:1004A0000C94171180E091E00E94DC059091F3021A
:1004B000981719F186EF91E00E94FD059C012370C9
:1004C0003327232B69F022E030E0AC01022E02C07A
:1004D000569547950A94E2F743705527452B41F40A
:1004E00043EF52E061E080E091E00E94100605C019
:1004F0002E5F3F4F2031310541F70091F3021091FB
:10050000F402102701F183EF91E00E94DC05E82E50
:10051000DCE0C1E0FF24F394C12CD02E00959C2F89
:10052000912369F09C2F9E2111F0902F01C09D2DE9
:100530009C236F2D09F46C2D8D2F0E943A0BCC0F4C
:10054000DF5FD43161F782EF91E00E94DC056091BA
:10055000F40268279091F30289270E940602CDB722
:10056000DEB7E8E00C943311A5E0B0E0EAEBF2E08E
:100570000C940D11382E5B01FB018081882389F0DA
:10058000EAE1F3E081E090E0032C02C0880F991FBC
:100590000A94E2F720813181822B932B918380830F
:1005A00012C0EAE1F3E081E090E0032C02C0880F82
:1005B000991F0A94E2F780959095208131818223DA
:1005C000932391838083F7E0F31598F5832D90E0D2
:1005D00008979595879588529E4F0E94DC0590E07C
:1005E000032D017010E0000F111F000F111F002ECE
:1005F00002C0959587950A94E2F79C012F703327E6
:10060000222309F408C1293008F005C1322E3A949A
:10061000B9016150710980911A0390911B0302C0C6
:10062000969587956A95E2F79C0121703327F5012D
:1006300020831D821C82032D10E06801FFEFCF1A7A
:10064000DF0AEC80E694F12CC70188529E4F0E948D
:10065000DC058C809D8021E082229924880C991CE5
:10066000880C991C202E90E0082C02C09595879547
:100670000A94E2F78F709927C816D90609F0C1C00D
:100680003C8139838DEE91E00E94DC056C807D8099
:10069000660C771C90E0062C02C0959587950A940D
:1006A000E2F78370EAE1F3E040805180811125C0D8
:1006B000C201098002C0969587950A94E2F7FF244B
:1006C000F394F9228EEE91E00E94DC0590E0062C76
:1006D00002C0959587950A94E2F78370813029F4DA
:1006E000F5018081F82AF0828CC0823009F089C03F
:1006F000F5018081F822F08284C0813009F081C048
:1007000066246394712C098002C0660C771C0A94DD
:10071000E2F76B8281EF91E00E94DC05252D332703
:10072000282726213721232B09F449C080911C0357
:100730009B81982309F06FC0FB818F2B80931C0352
:10074000C70181519E4F0E94DC0590E0082C02C039
:10075000959587950A94E2F783709927F501808330
:10076000882309F458C0813091F4E3EFF2E081E08E
:1007700090E0002E02C0880F991F0A94E2F780953E
:1007800090818923808360E0832D0E943A0BF501DC
:100790008081823089F4E3EFF2E081E090E0022C86
:1007A00002C0880F991F0A94E2F79081892B8083F9
:1007B00061E0832D0E943A0B0E944C022CC0ECE1B8
:1007C000F3E080819B819823E1F0962D9095892319
:1007D0008083C70181519E4F0E94DC0590E0F2E0CA
:1007E0008F0E911C082C02C0959587950A94E2F70C
:1007F00083709927F5018083892B69F0F1E0AF1AA6
:10080000B1082C813D812F5F3F4F3D832C832430E5
:10081000310509F016CF2596E2E10C942911A1E0EB
:10082000B0E0E5E1F4E00C940F1100E010E0712C71
:100830000F2EF9E1EF2EF3E0FF2EF02D9924939483
:100840000F2EF3EFCF2EF2E0DF2EF02DAA24A3948B
:10085000B12C602E802F0E944B0B882309F441C0DD
:1008600060E0802F0E944E0B802EF801ED5DFC4F62
:1008700084818983BE016F5F7F4F802F0E94B40205
:1008800087E0801720F06981802F0E94C700F70160
:10089000808190E0082C02C0959587950A94E2F734
:1008A00080FD1EC08981813069F4C501082C02C019
:1008B000880F991F0A94E2F7F6019081892B8083B3
:1008C000792C0FC0C501082C02C0880F991F0A940B
:1008D000E2F78095F601908189238083792C01C00D
:1008E000792C0F5F1F4F0C30110509F0B2CF8091AA
:1008F000060182FF1BC085E193E00E94E910882376
:10090000A9F0E1E8F0E0808181608083E0E8F0E038
:100910008081816C808384E590E09093890080934E
:100920008800809106018B7F8093060180910601EB
:1009300081FF55C000E010E0AA24A394B12C0F2E33
:10094000F9E1CF2EF3E0DF2EF02D0F2EF3EF8F2EF7
:10095000F2E09F2EF02D44244394602E502E9501FA
:10096000002E02C0220F331F0A94E2F7F601E08046
:10097000F12CE222F322E216F30619F5C801880FE2
:10098000991F880F991F8B509D4F0E94E910882353
:10099000C1F09E2D9095F601808189238083F4011A
:1009A0006081E626E0826E2D70E0002E02C0759513
:1009B00067950A94E2F761707727802F0E94C7003D
:1009C000742C0F5F1F4F0830110539F68091190301
:1009D000811105C0809106018D7F80930601711001
:1009E0000E944C022196E0E10C942B11A1E0B0E0B2
:1009F000ECEFF4E00C941511389A399A3A9A3B9A34
:100A00003C9A3D9A569A579A219A80EC91E00E941E
:100A1000DC05803651F488E68983AE014F5F5F4F75
:100A200061E080EC91E00E94100680E091E00E947D
:100A3000DC058093F30286EF91E00E94FD056C01D6
:100A400000E010E00F2EF3EFEF2EF2E0FF2EF02D7E
:100A5000AA24A394B12C802F902F9801220F331F2A
:100A6000A60102C0569547952A95E2F79A01237090
:100A7000213069F49501002E02C0220F331F0A9421
:100A8000E2F72095F7013081232320830DC0223027
:100A900059F49501002E02C0220F331F0A94E2F789
:100AA000F7013081232B2083F701608170E002C0C1
:100AB000759567959A95E2F7617077270E943A0BD2
:100AC0000F5F1F4F0830110531F61092060182EFBB
:100AD00091E00E94DC059091F302692F609560938C
:100AE000F402682789270E94060281E02196EAE045
:100AF0000C943111CF93DF93C0910701D09108017D
:100B0000209771F08A81823059F082E08A8369856A
:100B10008E819F810E94AD1288858F5F8887FB9AA6
:100B2000DF91CF9108951F920F920FB60F9211246B
:100B30002F933F934F935F936F937F938F939F93E5
:100B4000AF93BF93CF93DF93EF93FF93C0910701D0
:100B5000D091080188859D8198130CC087E091E0B1
:100B60000E9463108091070190910801892B89F4FC
:100B7000FB980FC090E0FE01E80FF91F2E813F8126
:100B80006185820F931F0E94AD1288858F5F8887D1
:100B9000FB9AFF91EF91DF91CF91BF91AF919F9120
:100BA0008F917F916F915F914F913F912F910F9016
:100BB0000FBE0F901F9018958036910519F4809103
:100BC000E40308959C013A95223041E0340748F44B
:100BD00080911F0390912003FC01E20FF31F80819D
:100BE000089580559109803B910528F4FC01ED5D45
:100BF000FC4F808108958FEF08951F93CF93DF936B
:100C0000EC0101960E94DC05182FCE010E94DC0544
:100C100020E0282B822F912FDF91CF911F910895F3
:100C2000A0E0B0E0E6E1F6E00C941711D62EEA0160
:100C30008C011A950F3F110509F070F5CFB6F894A5
:100C40000E9433107C01CC200CF47894F7011783B8
:100C50000683D58210869701275F3F4F4D2D50E0C8
:100C60006C2F7D2F822F932F0E94941280911F034F
:100C700090912003080F191F4D2D50E06C2F7D2FF0
:100C8000802F912F0E9494124AE755E0B70187E028
:100C900091E00E9444101CC08036910521F48881A7
:100CA0008093E40315C080559109803B910580F441
:100CB000662371F0FA01DC01AD5DBC4FDA94CA0124
:100CC0008D0D911D019621912D93E817F907D9F704
:100CD000CDB7DEB7E8E00C943311209107013091D5
:100CE0000801232B29F02FB321FB882780F90895D1
:100CF00080E090E00895EF92FF920F931F93CF93BF
:100D0000DF938C01C0E0D0E0B8016C0F7D1FFB01C8
:100D1000259134917901FB0132966491C9019A952C
:100D20008F3F910509F010F40E94AD128FEFE81685
:100D3000F10429F02396C23585E0D80729F74091C0
:100D400021035091220360E070E080911F03909195
:100D500020030E949D12CDB7DEB7E6E00C9435115A
:100D6000AB01FD9AFC98709322036093210390934A
:100D7000200380931F0360E070E00E949D1208959D
:100D8000E82FF0E0EF5BFE4F84910895E82FE695A1
:100D9000E695E695F0E0EC52FC4F208130E087705C
:100DA000A90102C0559547958A95E2F7CA0181705D
:100DB0000895E82FE695E695E695F0E0877041E026
:100DC00050E0082E02C0440F551F0A94E2F74095E8
:100DD000EC52FC4F90814923262F217030E002C055
:100DE000220F331F8A95E2F7242B20830895209148
:100DF0000D0121110CC021E020930D01FC01368171
:100E000030930E01878180930F012093100180E0C1
:100E1000089530910E01FC01268132130EC02091FD
:100E20000F018781281309C080910D01882329F0C3
:100E300010920D0181E08093100180E0089580E020
:100E40000895482FE0911301F091140130813F3F44
:100E500091F0332391F0329690E0DF0111978C915D
:100E60008E3F19F02081241749F09F5F329693132B
:100E7000F4CF80E0089580E0089580E008950E9416
:100E80006D068111FCCF0E94FD0B80E00895EF926A
:100E9000FF920F931F93CF93DF938C01F62EEFB643
:100EA000F8940E943310EC01EE200CF47894209713
:100EB00071F183E08E8F80EB8D83E0910B01F091D7
:100EC0000C0181818E8382818F838EE091E00E946C
:100ED000DC0580779F2D9150892B8A8780E48C8751
:100EE0000115110531F0F80180818887818189879A
:100EF00002C0188619868885811106C089858111EE
:100F000003C08A8580688A878F2D8A5F8C838C2FA7
:100F10009D2FCDB7DEB7E6E00C943511CF93DF936C
:100F2000EC0161E006960E944707009739F02B8597
:100F30002C732E53FC0123870E94C40CDF91CF91A8
:100F400008950F931F93CF93DF938C0164E006966F
:100F50000E944707EC01009779F0C8010E948E07B4
:100F60008CEB8D8383E48B871D8682E18E87CE0197
:100F70000E94C40C8CEC01C080E0DF91CF911F91E6
:100F80000F910895A0E0B0E0E8ECF7E00C941711A1
:100F9000EC018C850F2EFFE0EF2EF02DE8221D8551
:100FA00000E08E85080F111D6E2D6C5FCE01069638
:100FB0000E9447076C010097C9F1CE010E948E077D
:100FC0008CEBF60185838091100190E0880F991FCA
:100FD000880F991F8264838784858E2984878D85F5
:100FE00085878E858687EE20B1F0E6012F96EA94FC
:100FF000F12CF0E1EF0EF11CEC0CFD1C0F5011096F
:101000000C191D09C8018C0F9D1F0E94DC058993D6
:10101000CE15DF05B9F7C6010E94C40CE0E1F1E08E
:1010200080818F5F8F7080838CEC01C080E0CDB7B2
:10103000DEB7E8E00C943311A1E0B0E0E2E2F8E0C2
:101040000C9419118C01FC0184858770898365E0FB
:10105000C80106960E9447077C01009759F1C80114
:101060000E948E078091100190E0880F991F880FD1
:10107000991F8164F70183878981806C8487F801D7
:101080008585F7018587F981F13031F485E0F70135
:10109000868785EC878703C0F70116861786C70108
:1010A0000E94C40CE0E1F1E080818F5F8F7080834B
:1010B0008CEC01C080E02196E6E00C943511809123
:1010C000E40380FF0CC062E080E090E00E944707EC
:1010D0002CEBFC01258321E023870E94C40C8CECBF
:1010E0000895CF93DF93EC016C859D8580E02E857C
:1010F000820F911D811520E8920731F48091E4035D
:1011000080648093E40306C0AE01415F5F4F6F705F
:101110000E941006CE010E948E078CECDF91CF91C9
:1011200008952091E40320FF08C0AC01435F5F4FA6
:1011300062E087E191E00E94100680E00895A1E05E
:10114000B0E0E5EAF8E00C941D116983AE014F5F51
:101150005F4F61E00E9410062196E2E00C94391185
:10116000A0E0B0E0E6EBF8E00C941611EC01B62E2E
:10117000C0901501D0901601042F10E07801EE0CFC
:10118000FF1CE00EF11EEC0CFD1CF70184810E9497
:10119000C006482FF701828190E00F5F1F4F980132
:1011A000220F331F020F131FF601E00FF11F2081E2
:1011B00025FD9395B41213C0B11006C068816F73FA
:1011C0000E949F0881E00CC069918C010F5F1F4F46
:1011D0000E949F08BA94C801B9F781E001C080E07D
:1011E000CDB7DEB7E9E00C943211CF93C62FFC01E6
:1011F00062856F70615011F40C9601C00D964C2FF2
:101200000E94B00861E08C2F0E94D906CF9108950A
:10121000A0E0B0E0EEE0F9E00C941311C82ED62E59
:101220000091150110911601E82EF12CE701CC0F69
:10123000DD1FCE0DDF1DC00FD11F8C810E94C006A7
:10124000982EC70101969C01220F331F820F931F16
:10125000F801E80FF91F80810F2EF3E08F2EF02D9B
:101260008822AA80B12C692D6E5F8D2D90E0880FA9
:10127000991F019620910B0130910C01820F931F51
:101280000E9447078C01009709F471C0882019F06B
:1012900082E0881204C0F801838182608383880C15
:1012A000880CF8018581882A8582828580688287FA
:1012B0001386911009C0C485C5010E94DC058F7397
:1012C000C82BF801C4870DC0C8010D96EC01A81AFF
:1012D000B90ACE018A0D9B1D0E94DC0589939A9460
:1012E000C1F7E0911301F0911401B080FFEFBF1638
:1012F00019F1BB2009F1C0E0D0E020911301309139
:101300001401AE01FE01EE0FFF1FE20FF31F8181FA
:101310008E3F79F0D8120DC04F5F5F4F440F551FBD
:10132000F901E40FF51F60816C1519F0C8010E94E6
:10133000F5082196CB1508F3E0911501F0911601FF
:101340008FEFE81AF80AC701880F991FE80EF91EF7
:10135000EE0DFF1D808186FF05C0C8010E94C40CF0
:1013600081E006C0C8010E94EB1181E001C080E06D
:10137000CDB7DEB7ECE00C942F11CF93C82F0E94AD
:101380002107882329F0682F8C2F0E94080901C0AB
:101390008CE0CF910895DC01E0910B01F0910C01FC
:1013A00015968C91159788236CF013969C91139742
:1013B0008181981334C014969C918281981789F189
:1013C00080E0089513962C911397211105C014966F
:1013D0008C911497882339F130813F3F31F1339656
:1013E000332329F181E03F5F9081291310C01496C7
:1013F0004C9114979181491307C061157105C9F08B
:10140000FB01808380E40895491718F414C029175C
:10141000A0F032968F5F3813E7CF80E0089580E028
:10142000089582E0089580E8089580E0089580E0BE
:10143000089580E4089580E0089580E00895FC0117
:101440002481223048F040E050E0BC0189E091E086
:101450000E94441081E008950E94EB1180E00895FD
:10146000AF92BF92DF92EF92FF920F931F93CF93B1
:10147000DF931F92CDB7DEB78091090190910A01E9
:10148000892B09F4E0C089E091E00E947B108C0177
:10149000DC0115968C91159785FD16C0E091110120
:1014A000F0911201448114968C9148130DC0B8013B
:1014B0006B5F7F4F50E0CF0105960E948712282F67
:1014C000392F232B09F4BCC0E0901101F0901201D8
:1014D000F8018481D70114968C935801B5E0AB0EC6
:1014E000B11C97012B5F3F4F448150E06A2D7B2D4B
:1014F000822F932F0E949412F70185818F7D85831F
:10150000D8011A968C911A978F70D82ED3941B9667
:10151000FC901B97E12C1C968C91E82ABE016F5F12
:101520007F4FC5010E94CB0986FF5FC0D980E09143
:101530001301F0911401B080BFEFBB1609F480C015
:101540008091E40385FF7CC0BB2009F479C0E12CC5
:10155000F12C80911301909114019701F701EE0F86
:10156000FF1FE80FF91F41814E3FC1F1D41236C071
:101570002F5F3F4F220F331FFC01E20FF31F8081CB
:10158000E0911501F0911601282F30E02F5F3F4FB9
:10159000A901440F551F240F351FE20FF31F90813F
:1015A000F801248592FF1AC0207C99233CF4203452
:1015B00029F4682FC8010E94F50810C094FF07C0E5
:1015C000203829F4682FC8010E94F50807C093FF4E
:1015D00005C0211103C06D2D0E940809FFEFEF1A0D
:1015E000FF0AEB1408F4B5CF2BC027EE30E0F90169
:1015F0009491319645915491F90133966591749186
:10160000F9013596A491F9013696E491982391F069
:101610006E217F214617570769F4DA1658F0ED1549
:1016200048F0295F3F4FF90125913491C801F90134
:10163000099506C0275F3F4FF1E021343F07B9F617
:10164000C8010E94EB110F90DF91CF911F910F9174
:10165000FF90EF90DF90BF90AF900895CF93C82F89
:10166000CB01642F4C2F0E94B0088C2F0E94BD0923
:10167000CF910895A1E0B0E0E0E4FBE00C941D11EF
:10168000698340E0BE016F5F7F4F0E942E0B219661
:10169000E2E00C9439110E94C60608950E94D90612
:1016A0000895CF9314BE88E10FB6F894809360003C
:1016B000109260000FBE0E948F1066EC71E08DE208
:1016C00091E00E94B0060E94CD0C0E94B510CFB7E9
:1016D000F8940E943310CC230CF478949093120168
:1016E00080931101009711F0FC011482789485E039
:1016F00091E00E94DC058F3F71F486E091E00E944A
:10170000DC058F3F41F4E9E6F0E025913491822F2A
:10171000932F0E947B0680913F0190E0835D9E4F56
:10172000909316018093150180913E0190E0835DB6
:101730009E4F909314018093130183E491E0909362
:101740000C0180930B018091E4038E638093E4038A
:101750000E94F604CF9108950E94510B0E94300A16
:10176000A8950E94BB0B8091E40385FD0E940F04A5
:101770000E942C0CF3CF809117018F5F883020F4EA
:101780008093170180E008951092170154985C9A95
:101790008AE000008150E9F74C9B12C08091E4037D
:1017A00080FF03C0549A5C9802C0549A5C9A80915E
:1017B00018018823E1F081508093180180E008959A
:1017C000809118018F3FA9F08F5F80931801883CAA
:1017D00091F48091E40380FD05C081608093E4036F
:1017E00081E008958E7F8093E40381E0089580E096
:1017F000089580E0089580E00895F89428E088E155
:1018000090E00FB6F894A895809360000FBE2093E7
:101810006000FFCF80911C0182FF0BC081E08093AC
:101820001D0187E686BD86E085BB80936E0082E061
:1018300085BD08958091270190912801009731F08E
:101840000E94EB11109228011092270180911C0137
:101850008F7380931C01089508951F920F920FB605
:101860000F9211248F939F93189951C08091E50393
:1018700080FF1FC090911B01911149C082FF19C0C8
:1018800084B5806284BD84B58F7E84BD85B5806457
:1018900085BD85B58F7B85BD81E080931D0182E08C
:1018A0008093E50394E396BD96E095BB90936E001C
:1018B00085BD80911E0190911F010097A9F48FEFC3
:1018C00097EF90931F0180931E018091E50380FDA7
:1018D00008C084E386BD86E085BB80936E0082E00D
:1018E00085BD1092200107C0189905C0977F90937D
:1018F0001F0180931E0180911C018B7F80931C012E
:10190000109221018091E50382608093E5039F910D
:101910008F910F900FBE0F901F9018951F920F92EE
:101920000FB60F9211242F938F939F93EF93FF93F2
:101930002091E50320FF1EC0809122019091230198
:1019400096958795909323018093220180FD0FC087
:1019500018BC84B5806384BDEEE6F0E080818B7FA7
:1019600080838091E5038B7F8093E50303C024602F
:101970002093E503FF91EF919F918F912F910F900D
:101980000FBE0F901F9018954AE05CE0BC0184E206
:1019900091E00E94441080E0089554985C9A209849
:1019A000289A559A5D9892E094BD88E687BD84B5E3
:1019B000806284BD84B58F7E84BD85B5806485BD1D
:1019C00085B58F7B85BD80E286BBEFE6F0E0808148
:1019D00080628083E1E8F0E08081806880831092FB
:1019E00023011092220110921F0110921E0184E027
:1019F00080931C019093E503809321011092E403EE
:101A00000895F8940C94003808958091E40386FDBD
:101A10000E94010DE0912401F0912501309739F0E9
:101A2000838181FF04C081E38093200103C084E3AC
:101A30008093200184E0809321010895E0912401A6
:101A4000F0912501868D982F9150968F882369F00B
:101A500085818F7D858381E080931D0181E3809363
:101A6000200184E080932101089584E080931D018A
:101A700084E291E00E94631081E080931D010E9446
:101A8000050D08951F920F920FB60F9211242F93F8
:101A90003F934F935F936F937F938F939F93AF93F6
:101AA000BF93CF93DF93EF93FF93C091E50385B589
:101AB0008E7F85BDC1FFDFC180912001882321F089
:101AC000815080932001D7C180912101823009F497
:101AD000F8C030F4882359F0813009F0CCC161C0DE
:101AE000833009F43CC1843009F0C5C13BC1809109
:101AF0001E0190911F01AC01569547959A013068DF
:101B000080FD4AC0442756704115564031F08091FF
:101B10001C01806880931C0137C0D22F822F082EB1
:101B200082958025082E86958695802590E00196E1
:101B300081FB662760F970E0232F3327217033275C
:101B40006217730731F080911C01806480931C013F
:101B50001BC0E0912701F0912801309749F40E94C1
:101B60003310FC019093280180932701009761F0C6
:101B70008481DF01A80FB11D1596DC938F5F8A3138
:101B800010F4848301C0148282E08093200181E0FC
:101B90008093210120E030E030931F0120931E014B
:101BA0006AC18091270190912801892B71F480915D
:101BB0001D01833021F080911D01823019F40E94B3
:101BC0001E0D79C00E94050D76C085B5816085BD6A
:101BD00083E08093200182E08093210180911C01A9
:101BE000807C41F080911C0180911C018CE08093ED
:101BF0001B0155C0A0912701B091280114963C917A
:101C000014973130C9F480911D01833009F047C029
:101C100015968C918C3C69F484E080931D0184E2DC
:101C200091E00E94631081E080931D010E94050DE8
:101C300036C00E941E0D33C03230A0F0315051F03A
:101C4000FD01359690E080E0219192278F5F381357
:101C5000FBCF01C090E09095FD01E30FF11D858160
:101C6000981721F08CE080931B0119C014963C93C7
:101C7000149760E070E0CD0105960E94CB0988239F
:101C800071F08CEC80931B018091270190912801C9
:101C90000E941F0A10922801109227010CC0809107
:101CA000270190912801009731F00E94EB111092CA
:101CB00028011092270180911C018F7380931C01D1
:101CC000DAC080911B01882309F446C080911B0172
:101CD000282F30E0220F331F082E82958025082EF2
:101CE00086958695802590E0019681FD06C03C6131
:101CF000309323012093220105C03E6130932301DC
:101D00002093220118BC84B5806384BDEEE6F0E028
:101D100080818B7F808384E085BB80818460808329
:101D20008091E5038B7F8093E50380E286BBAFE67D
:101D3000B0E08C9180628C93A1E8B0E08C918068D7
:101D40008C9381E08093E50382E286BD86E085BBCB
:101D5000808382E085BD8FC00E94050D8CC00E94EB
:101D60001E0D89C08091240190912501009709F4EE
:101D70007AC020911D01223009F47DC020911C0100
:101D80002B7F20931C0122E020931D0110921A0149
:101D90001092190121E02093260120911A0130911F
:101DA0001901FC01E20FF11D258123272093190160
:101DB00030911A01FC01E30FF11D25813F5F309343
:101DC0001A01822F90E0880F991F022E229520255C
:101DD000022E26952695202530E02F5F3F4F21FDCE
:101DE00006C09C61909323018093220105C09E61EF
:101DF000909323018093220118BC84B5806384BD35
:101E0000EEE6F0E080818B7F808384E085BB80817B
:101E1000846080838091E5038B7F8093E5038091CC
:101E20001A01E0912401F09125019481891718F09D
:101E300082E08093260180E286BBEFE6F0E08081BD
:101E400080628083E1E8F0E080818068808381E0C7
:101E50008093E50382E286BD86E085BB80936E00B9
:101E600082E085BD08C015BC10926E0080911C01F7
:101E7000846080931C01C0FFE3C088B581110FC04E
:101E800082E288BD84B5806284BD84B58F7E84BDC6
:101E900084E085BBEEE6F0E0808184608083809101
:101EA000220190912301019709F0CAC0EEE6F0E00B
:101EB00080818B7F808380911B01882371F00E9439
:101EC0001A0C10921B0110921F0110921E0182E049
:101ED0008093E5030E94050DB3C080912401909189
:101EE0002501009709F4ACC020912601223009F4A5
:101EF0005CC020F4213009F0A3C007C0233009F4EE
:101F000089C0243009F09CC099C020911A013091F9
:101F10001901FC01E20FF11D2581232720931901EE
:101F200030911A01FC01E30FF11D25813F5F3093D1
:101F30001A01822F90E0880F991F022E22952025EA
:101F4000022E26952695202530E02F5F3F4F21FD5C
:101F500006C09C61909323018093220105C09E617D
:101F6000909323018093220118BC84B5806384BDC3
:101F7000EEE6F0E080818B7F808384E085BB80810A
:101F8000846080838091E5038B7F8093E50380915B
:101F90001A01E0912401F09125019481891708F438
:101FA0004FC082E0809326014BC0209119012095FB
:101FB000822F90E0880F991F022E22952025022E55
:101FC00026952695202530E02F5F3F4F21FD06C046
:101FD0009C61909323018093220105C09E619093A0
:101FE00023018093220118BC84B5806384BDEEE692
:101FF000F0E080818B7F808384E085BB808184607A
:1020000080838091E5038B7F8093E50383E0809359
:10201000260116C00E941A0C83E080931D011092C5
:1020200026018093210182E08093E5038EE0809376
:10203000200110921F0110921E0102C00E941E0D6D
:10204000FF91EF91DF91CF91BF91AF919F918F91D0
:102050007F916F915F914F913F912F910F900FBEA4
:102060000F901F9018958FE190E00E945011E82F7B
:10207000F92F309731F081E08283838314821182BB
:1020800010828E2F9F2F0895CF93CFB7F894FC0125
:10209000A081B181109711F409C0DC018D919C9150
:1020A00011970097D1F76D937C9308C0FC01718361
:1020B00060834115510511F0FA010995CC230CF408
:1020C0007894CF910895CF93CFB7F894DC01ED9138
:1020D000FC91119720813181309741F02D933C93F1
:1020E000838180FF03C0CF010E94EB11CC230CF44D
:1020F0007894CF9108954FB7F894DC01ED91FC915D
:10210000119720813181309721F02D933C931182DA
:10211000108244230CF478948E2F9F2F08950895F5
:102120001F920F920FB60F9211248F939F93AF932C
:10213000BF938091290190912A01A0912B01B09128
:102140002C010196A11DB11D8093290190932A01B4
:10215000A0932B01B0932C01BF91AF919F918F91D0
:102160000F900FBE0F901F9018951092290110929A
:102170002A0110922B0110922C0182E08093B00072
:1021800087E08093B1001092B2008DE48093B30099
:10219000E0E7F0E080818260808308950F931F93D1
:1021A000EFB7F8940091290110912A0120912B0199
:1021B00030912C01EE230CF47894040F151F261F88
:1021C000371FFC0100831183228333831F910F91FA
:1021D00008954091290150912A0160912B0170913D
:1021E0002C01FC0180819181A281B381481B590B94
:1021F0006A0B7B0B81E014161506160617060CF009
:1022000080E008950E944411A59F900DB49F900D09
:10221000A49F800D911D112408952F923F924F92FB
:102220005F926F927F928F929F92AF92BF92CF9266
:10223000DF92EF92FF920F931F93CF93DF93CDB76F
:10224000DEB7CA1BDB0B0FB6F894DEBF0FBECDBFE7
:1022500009942A88398848885F846E847D848C84B8
:102260009B84AA84B984C884DF80EE80FD800C81C1
:102270001B81AA81B981CE0FD11D0FB6F894DEBFA4
:102280000FBECDBFED010895A29FB001B39FC00165
:10229000A39F01D0B29F700D811D1124911D08953F
:1022A0000F931F93CF93DF938230910510F482E058
:1022B00090E0E091E803F091E90320E030E0C0E035
:1022C000D0E023C04081518148175907A8F0481732
:1022D000590761F482819381209719F09B838A8347
:1022E0002EC09093E9038093E80329C0211531059E
:1022F00029F04217530710F0A90102C0BE01DF0107
:1023000002811381EF019A01F8013097D9F6211566
:10231000310509F1281B390B2430310590F4129650
:102320008D919C9113976115710521F0FB019383A9
:10233000828304C09093E9038093E803FD01329601
:1023400044C0FD01E20FF31F8193919322503109A4
:102350002D933C933AC02091E6033091E703232B61
:1023600041F420910201309103013093E70320935F
:10237000E60320910001309101012115310541F45E
:102380002DB73EB74091040150910501241B350B38
:10239000E091E603F091E703E217F307A0F42E1BA8
:1023A0003F0B2817390778F0AC014E5F5F4F2417B9
:1023B000350748F04E0F5F1F5093E7034093E60345
:1023C0008193919302C0E0E0F0E0CF01DF91CF91E3
:1023D0001F910F910895EF92FF920F931F93CF9348
:1023E000DF93009709F48EC0DC01129713961C92BC
:1023F0001E921297E090E803F090E903E114F104D3
:1024000089F42D913C911197280F391F8091E60393
:102410009091E7038217930789F5B093E703A093A0
:10242000E60370C0E70120E030E001C0EA01CA170E
:10243000DB0738F44A815B819E0141155105B1F7F4
:1024400022C0AC0142505109FA01D383C2830081FA
:102450001181BC01600F711F6C177D0761F46881E9
:102460007981600F711F6E5F7F4F718360836A8116
:102470007B81738362832115310529F4B093E903CD
:10248000A093E8033FC0F901B383A283E901499116
:102490005991C40FD51FAC17BD0771F4DC019E9193
:1024A0008E91840F951F02969183808312968D9151
:1024B0009C91139793838283A0E0B0E002C0D70180
:1024C0007C01F701828193810097C9F7C7010296C9
:1024D00020813181820F931F2091E6033091E70321
:1024E0002817390779F4109729F41092E90310920C
:1024F000E80304C013961C921E921297F092E70311
:10250000E092E603CDB7DEB7E6E00C943511FB01AF
:10251000DC0104C08D910190801921F4415050409C
:10252000C8F7881B990B0895FB01DC0102C00190DC
:102530000D9241505040D8F70895DC01CB01FC01C9
:10254000F999FECF06C0F2BDE1BDF89A319600B40C
:102550000D9241505040B8F70895262FF999FECFBB
:102560001FBA92BD81BD20BD0FB6F894FA9AF99AB0
:0A2570000FBE01960895F894FFCF06
:06257A000000EA0320004E
:00000001FF
