:100000000C94C1000C9426070C94DE000C94DE00C6
:100010000C94DE000C94DE000C94DE000C94DE00E8
:100020000C94DE000C94DE000C94DE000C94F412B0
:100030000C94E0000C94DE000C9458080C94820799
:100040000C94DE000C94DE000C94DE000C94DE00B8
:100050000C94A8120C94DE000C9461060C94DE0043
:100060000C94DE000C94DE000701010D01FF12016B
:100070009A0C0100000000EA0100F60155F7015555
:10008000F20100030100040104050120060160FFE4
:1000900000FF0168000000000000000000000000F8
:1000A0000000000000000056302E3100537600534F
:1000B0007700544B00466C0050574D00204F464689
:1000C0002000204F4E20004F424A5F312000504513
:1000D000525200464552520053205467000200809D
:1000E00000FF0101010B02008100FF0101140B025E
:1000F00000C200C301012B0B82C000FF0304048077
:100100000D820001FF0302021D0D028001C00303E6
:1001100003D00C020042C0C304046F0C028042C032
:10012000C30110690D020043FFFF02024C0C028064
:1001300003FF0302027F0B456D7074792045455023
:10014000726F6D2E00434F4D4D3A0041473A0041CA
:10015000534F433A004144523A000000000000006F
:100160000101020304060A0E0E43524300312042ED
:100170000030313233343536373839414243444523
:10018000460011241FBECFEFD8E0DEBFCDBF12E086
:10019000A6E0B1E001C01D92AD39B107E1F711E071
:1001A000A0E0B1E0E2E4F9E202C005900D92A630D1
:1001B000B107D9F70E94F1040C949F140C9400002D
:1001C0001F920F920FB60F9211240F900FBE0F9037
:1001D0001F90189580FF02C02A9A01C02A98869520
:1001E00080FF02C0419A01C04198869580FF02C0FD
:1001F0005B9A01C05B98869580FF02C05D9A01C042
:100200005D98869580FF02C05E9A01C05E988695D3
:1002100080FF02C05F9A01C05F98869580FF02C090
:10022000429A01C04298869511F0439A08954398E6
:1002300008951F938FEA90E00E949A120E9479120B
:1002400083E08093170181EC8093B00081E080937C
:10025000B1001092B2008FEF8093B30080E091E084
:100260000E942C0590910601891769F187EF91E0B2
:100270000E942C05182F86EF91E00E942C05312F4B
:1002800020E0482F50E0422B532B20E030E0CA0101
:10029000022E02C0969587950A94E2F783709070BB
:1002A000892B61F480E091E061E046E051E00E943A
:1002B000FF058CEA90E00E949A1205C02E5F3F4F26
:1002C0002031310521F782EF91E00E942C059091B9
:1002D000060189270E94EA001F9108951F93229A20
:1002E000399A539A559A569A579A3A9A3B9A219A1A
:1002F0002998389A4098509A5898519A5998239A20
:1003000080E091E00E942C058093060187EF91E048
:100310000E942C05182F86EF91E00E942C05312FAA
:1003200020E0482F50E0422B532B6091060120E043
:1003300030E0E1E0F0E0C901880F991FDA0102C066
:10034000B695A7958A95E2F7CD018370813051F477
:10035000CF01022E02C0880F991F0A94E2F7809500
:1003600068230AC0823041F4CF01022E02C0880FF8
:10037000991F0A94E2F7682B2F5F3F4F2830310511
:10038000D1F6609306010E941901109280008BE063
:100390008093810089E79FE3909389008093880090
:1003A000109285001092840081E080936E0210927A
:1003B0001B011F9108952F923F924F925F926F926F
:1003C0007F928F929F92AF92BF92CF92DF92EF92E5
:1003D000FF920F931F93DF93CF93CDB7DEB727978D
:1003E0000FB6F894DEBF0FBECDBF482E562E8AEE54
:1003F00091E00E942C05898382E191E00E942C0506
:10040000F82E4BE0E42EE41408F432C220911801D7
:1004100030911901552059F081E090E0042C02C080
:10042000880F991F0A94E2F7282B392B0CC081E022
:1004300090E0042C02C0880F991F0A94E2F780957F
:10044000909528233923309319012093180127E030
:10045000241578F5042D10E008501040C80195953A
:10046000879588529E4F0E942C0590E00170107075
:10047000000F111F000F111F02C0959587950A9557
:10048000E2F7282F2F7009F4F3C1293008F0F0C1EA
:10049000422E4A9430E021503040809118019091D2
:1004A000190102C0969587952A95E2F75524539431
:1004B00058220F2D10E00E5F1E4FC42CDD24760154
:1004C000EE0CFF1CEC0CFD1CC701800F911F0E945D
:1004D0002C050F5F1F4FC8018E0D9F1D0E942C051C
:1004E0000F5F1F4FC8018E0D9F1D0E942C058AEEC5
:1004F00091E00E942C05C60186529E4F0E942C0559
:100500008B83C6018E519E4F0E942C05182FA60189
:100510004F5F5F4F5D834C83CA01959587958750E8
:100520009E4F0E942C0540FE82958F708A838824FE
:100530009924882D8695682E7724C30188529E4F72
:100540000E942C05A1E0EA2EF12CE820F9201701E9
:10055000220C331C220C331C90E0022C02C0959517
:1005600087950A94E2F78F7090E0AC81BD818A177D
:100570009B0709F0A6C08DEE91E00E942C05540166
:10058000AA0CBB1C90E00A2C02C0959587950A9492
:10059000E2F78370E0911801F0911901FF83EE8377
:1005A0008823F1F4082C02C0F695E7950A94E2F747
:1005B000FF83EE830F8101708EEE91E00E942C0587
:1005C00090E002C095958795AA94E2F783708130F8
:1005D00011F4502A76C0823009F073C0502271C0E5
:1005E000813009F06EC071E0A72EB12C81E090E05F
:1005F000082C02C0880F991F0A94E2F7082F81EF98
:1006000091E00E942C0590E04E815F81252F3327D9
:1006100082279327202F30E08223932320911A01F1
:10062000892B81F1802F822309F022C1022B0093B4
:100630001A01C30181519E4F0E942C0590E002C017
:10064000959587952A94E2F7837009F411C181305A
:1006500059F402C0AA0CBB1CCA94E2F79A2D9095DB
:100660008091060189230BC0823009F0FAC002C0D4
:10067000AA0CBB1CCA94E2F7809106018A298093D8
:100680000601EFC0802F8223E1F000950223009342
:100690001A01C30181519E4F0E942C0590E0EE0C7F
:1006A000FF1C0894E11CF11CEE0CFF1C02C0959588
:1006B0008795EA94E2F7682F637009F4D9C0562E43
:1006C0005A940894811C911C54E08516910409F0F9
:1006D00030CF112361F4552051F48BE40E94251290
:1006E000F601EE0FFF1FE95FFE4F1182108280912D
:1006F000060190E00C2C02C0959587950A94E2F7CC
:1007000080FF16C0112349F1A9818A2F90E00C2C9B
:1007100002C0959587950A94E2F780FD1EC055208A
:10072000E1F4F601EE0FFF1FE95FFE4F812F0CC0D1
:10073000BB81BB2391F0E1E05E1679F4F601EE0F88
:10074000FF1FE95FFE4F8B2F90E00A8002C0880FE9
:10075000991F0A94E2F791838083F9818F2F90E0AB
:100760000C2C02C0959587950A94E2F780FF4FC044
:10077000112309F44CC0EE24E3945E1409F074C014
:1007800085EB90E00E949A1281E090E00C2C02C070
:10079000880F991F0A94E2F720910601282B2093D5
:1007A0000601F601EE0FFF1FE95FFE4F812F90E07B
:1007B0000A8002C0880F991F0A94E2F79183808310
:1007C00026C082EB90E00E949A128BEE91E00E948C
:1007D0002C0590E00C2C02C0959587950A94E2F7C1
:1007E00080FD15C0F601EE0FFF1FE95FFE4F11827D
:1007F000108281E090E00C2C02C0880F991F0A94AF
:10080000E2F7809520910601282320930601842D8C
:100810000E948012F601EE0FFF1FE95FFE4F8081FC
:100820009181892BF1F4552061F481E090E002C0C0
:10083000880F991FCA94E2F780952091060128231A
:100840000EC0FF24F3945F1461F481E090E002C0D5
:10085000880F991FCA94E2F720910601282B209354
:1008600006010E94190104C0552009F4AACFCFCF78
:1008700027960FB6F894DEBF0FBECDBFCF91DF91A4
:100880001F910F91FF90EF90DF90CF90BF90AF90AE
:100890009F908F907F906F905F904F903F902F90A0
:1008A0000895CF92DF92FF920F931F93CF93DF9320
:1008B0008DE091E00E942C058F3F09F043C010911C
:1008C0001701113081F488EB90E00E949A120E9487
:1008D000791281EC8093B0001093B1001092B200B5
:1008E00085E58093B30080911701882319F081502A
:1008F0008093170107E011E0C0E0D0E051E0C52E81
:10090000D12CF801808191810097B1F001979183FA
:100910008083892B89F48C2F0E94801296010C2EE3
:1009200002C0220F331F0A94E2F78091060182274A
:10093000809306010E94190121960E5F1F4FC83057
:10094000D105F9F6DF91CF911F910F91FF90DF90C4
:10095000CF9008950F931F93DF93CF930F92CDB74E
:10096000DEB780E00E94790B8823A9F187EC90E044
:100970000E949A1280E00E94300D0E94801280E254
:100980000E94251280E060E00E947C0B809174023E
:10099000813019F482EC90E002C08CEB90E00E9470
:1009A0009A1204E712E0F80181918F010E948012EF
:1009B00080E20E942512F2E006381F07A1F780E0CE
:1009C000BE016F5F7F4F41E00E948B0B89810E94C7
:1009D00080120E9479120F90CF91DF911F910F9199
:1009E000089514BE88E10FB6F894809360001092C9
:1009F00060000FBE0E949D110E94C5110E94F91156
:100A000087EA90E00E94F2110E94F91182E491E0DD
:100A100068E271E00E9488050E9402080E94241387
:100A2000789482E990E00E94100E0E946E0110926C
:100A30001B012CE088E190E00FB6F894A895809314
:100A400060000FBE209360000E941610A8950E94BF
:100A5000AD060E94AA04F8CF8036910519F4809162
:100A6000860208959C012050314041E02230340735
:100A700040F4E0917002F0917102E20FF31F808167
:100A80000895FC01EE5CF040E331F10510F08FEFCA
:100A90000895EC58FD4F80810895809170029091E7
:100AA00071020895FF920F931F93CF93DF93F999EB
:100AB000FECFFF24C0E0D0E080E1F81611F40E94E0
:100AC000F9118D2F0E94F8118C2F0E94F8118AE3E2
:100AD0000E94F11180E20E94F1118E01005F1F4F10
:100AE000CE010E942C050E94F81180E20E94F111B3
:100AF0002196C017D107A1F70E94F911F39480E263
:100B0000F816D1F6DF91CF911F910F91FF900895C4
:100B1000AB01FD9AFC9870937302609372029093FC
:100B200071028093700260E070E00E948114089569
:100B3000EF92FF920F931F93CF93DF937C01C0E05E
:100B4000D0E097012C0F3D1FF901059114912E5F04
:100B50003F4FF9016491C801805091408F3F91054A
:100B600009F010F40E9491140F3F110529F023960B
:100B7000F3E0C837DF0729F7409172025091730202
:100B8000809170029091710260E070E00E94811487
:100B9000DF91CF911F910F91FF90EF9008950F93E8
:100BA0001F93E0911C01F0911D01309799F0828113
:100BB000823081F082E082838F010B5F1F4FF8014A
:100BC0008181928164810E949114F80183818F5FF9
:100BD0008383FB9A1F910F91089583E40E9425124D
:100BE0000E94791280911C0190911D01892B19F4AA
:100BF00080E090E008958FB3869581700895CF923C
:100C0000DF92EF92FF920F931F93CF93DF93062F04
:100C1000EA01C12C2FEFD22EC80ED91E2FEFC2161B
:100C2000D10409F068F51FB7F8940E94B6117C0151
:100C300017FF01C07894F7013596D282C182D7019F
:100C400015960C9313829701275F3F4FC901BE0190
:100C5000402F50E00E947814209170023091710270
:100C60002C0D3D1DC901BE01402F50E00E9478149B
:100C70008CE191E0B7014FEC55E00E946B1118C078
:100C80009C012E5C30402331310560F4D901AC5811
:100C9000BD4FFA0102C081918D938E2F8C1B80175E
:100CA000D0F306C08036910519F4888180938602BE
:100CB000DF91CF911F910F91FF90EF90DF90CF9038
:100CC00008951F920F920FB60F9211242F933F9306
:100CD0004F935F936F937F938F939F93AF93BF9344
:100CE000CF93DF93EF93FF93E0911C01F0911D01EF
:100CF000EF0125969B818581891761F48CE191E054
:100D00000E949E1180911C0190911D01892B91F4EC
:100D1000FB9810C0892F90E029813A81FE01E80FED
:100D2000F91F820F931F64810E9491148B818F5F42
:100D30008B83FB9AFF91EF91DF91CF91BF91AF91A0
:100D40009F918F917F916F915F914F913F912F91E3
:100D50000F900FBE0F901F90189580911E018F5F0E
:100D600080931E01803198F110921E012098289ADC
:100D700080E000008F5F8A30E1F7189B12C08091FD
:100D8000860280FF03C0209A289802C0209A289AE1
:100D900080911F018823D9F0815080931F0180E04A
:100DA000089580911F018F3F19F08F5F80931F017D
:100DB00080911F01883C59F48091860280FD02C019
:100DC000816001C08E7F8093860281E0089580E07B
:100DD000089580932C010895F89428E088E190E02C
:100DE0000FB6F894A895809360000FBE2093600022
:100DF000FFCF482F50E0440F551F9A013C613093BC
:100E0000240120932301082E82958025082E8695A3
:100E10008695802590E0019681FF05C05E61509324
:100E20002401409323010895E0912A01F0912B01C0
:100E3000309729F0838181FF02C081E301C084E300
:100E400080932F0184E08093200108951F920F92D8
:100E50000FB60F9211242F933F938F939F9389B1D5
:100E60008695869580FD45C0809187028570853086
:100E700071F45C9881E08093220192E09093870264
:100E800084E386BD86E085BB80936E0095BD20918E
:100E900025013091260121153105A9F48FEF97EF37
:100EA00090932601809325018091870280FD08C0E0
:100EB00084E386BD86E085BB80936E0082E085BDBD
:100EC00010922F010AC089B18695869580FD05C0D4
:100ED000377F3093260120932501809127018B7F56
:100EE0008093270110922001809187028260809375
:100EF00087029F918F913F912F910F900FBE0F907E
:100F00001F9018951F920F920FB60F9211248F9376
:100F10009F935C98809123019091870280FF02C08B
:100F2000946001C09B7F909387029F918F910F9057
:100F30000FBE0F901F90189590912E01A0912A013D
:100F4000B0912B0180912D01FD01E80FF11D8581EC
:100F5000982790932E0190912D01A90FB11D159600
:100F60008C919F5F90932D010E94F90690912D0125
:100F7000E0912A01F0912B018481981718F082E00A
:100F80008093210108958091270182FF0BC081E0A9
:100F90008093220187E686BD86E085BB80936E0044
:100FA00082E085BD08955C98209A289891E040E4FD
:100FB0005CE960E27EE417C0289821E030E0FA01A5
:100FC0003197F1F72F5F3F4F23333105C1F7289A4F
:100FD00021E030E0FA013197F1F72F5F3F4F2333E3
:100FE0003105C1F79F5F891738F721E030E0FB0139
:100FF0003197F1F72F5F3F4F93E0293E3907B9F75B
:1010000091E0F1CF2098289A52985A9A549A5C9875
:10101000E9E6F0E080818260808380818E7F80833A
:10102000E89A92E094BD88E687BD88E288BD109278
:10103000240110922301109226011092250184E0D0
:10104000809327019093870280932001109286025B
:101050000895BC018AE291E043EC57E00E946B11D5
:1010600080E0089584E0809322018AE291E00E946A
:101070009E1181E0809322010E9414070895E0915F
:101080002A01F0912B01868D8150868F8F5F69F048
:1010900085818F7D858381E08093220181E3809328
:1010A0002F0184E08093200108950E943208089562
:1010B0001F920F920FB60F921124FF920F931F935E
:1010C0002F933F934F935F936F937F938F939F9350
:1010D000AF93BF93CF93DF93EF93FF9385B58E7F4D
:1010E00085BD80918702282F30E0E901C170D07062
:1010F00080FF04C08091230180FF5C9A21FF2DC1F5
:1011000080912F01882321F0815080932F0125C1E8
:1011100010912001123009F4D6C0133030F411239D
:1011200059F0113009F019C170C0133009F4E3C04F
:10113000143009F012C1E2C080912501909126017E
:101140008C0116950795106880FD5AC0C801807003
:1011500096708050964031F080912701806880938E
:10116000270146C0F02E802F082E82958025082E5C
:10117000869586958025412F552790E00196959577
:101180008795817090709A01217030708217930753
:1011900071F080912701806480932701842F0E9441
:1011A0008012802F0E9480120E94791221C08091AB
:1011B000280190912901892B31F40E94B611909356
:1011C000290180932801A0912801B091290110974D
:1011D00079F014968C911497FD01E80FF11DF582BA
:1011E0008F5F14968C9314978A3110F014961C928A
:1011F00082E080932F0181E08093200100E010E0E5
:101200001093260100932501A8C0E0912801F091D8
:101210002901309771F480912201833021F080916F
:101220002201823019F40E943F0849C00E9414072D
:1012300046C085B5816085BD83E080932F0182E043
:101240008093200180912701807CB1F0809127015B
:1012500087FF04C083ED90E00E949A1280912701DD
:1012600086FF04C08EEC90E00E949A120E947912D0
:101270008CE080932C0117C08481813069F48091C7
:101280002201833081F485818C3C19F40E9432085C
:101290000AC00E943F0807C0CF010E941E11109291
:1012A000290110922801809128019091290100972D
:1012B00031F00E942014109229011092280180918F
:1012C00027018F7348C080912C01882389F0809179
:1012D0002C010E94F90681E08CBBE89A809387027A
:1012E00082E286BD86E085BB80936E0015BD35C069
:1012F0000E94140732C00E943F082FC080912A012B
:1013000090912B01892B09F180912201823029F1E2
:10131000809127018B7F8093270102E000932201B7
:1013200010922D0110922E0111E0109321010E94C4
:101330009C071CBBE89A1093870282E286BD86E078
:1013400085BB80936E0005BD08C015BC10926E0071
:1013500080912701846080932701CD2B09F476C00A
:1013600080912301909124018130910509F068C09A
:1013700080912C018823E9F0809128019091290126
:10138000009731F00E942014109229011092280138
:10139000809127018F738093270110922C01109266
:1013A00026011092250182E0809387020E94140793
:1013B0004DC080912A0190912B01892B09F446C0E0
:1013C00080912101823069F0833018F48130F1F589
:1013D00005C0833079F08430C9F52FC00E949C0786
:1013E00035C080912E0180950E94F90683E080939C
:1013F00021012CC08091280190912901009731F0A2
:101400000E94201410922901109228018091270136
:101410008F738093270183E0809322011092210132
:101420008093200182E0809387028EE080932F01D9
:10143000109226011092250109C00E943F0806C0A3
:10144000969587959093240180932301FF91EF91C6
:10145000DF91CF91BF91AF919F918F917F916F91CC
:101460005F914F913F912F911F910F91FF900F909E
:101470000FBE0F901F9018950F931F93CF93DF937C
:101480000E94B611EC01009789F18C010B5F1F4F90
:1014900088ED90E00E949A120E94791280912701B3
:1014A00084608093270183E08E8F89E08C8380EBBA
:1014B0008D8387E191E00E942C05F801818388E10A
:1014C00091E00E942C05F801828381E183838EEFF5
:1014D000848383EF858380EC868380E887838AE238
:1014E00091E0BE0143EC57E00E946B11DF91CF9178
:1014F0001F910F9108956F927F928F929F92BF924A
:10150000CF92DF92EF92FF920F931F93FC01B62EC2
:10151000EE24FF24870147EB642E4DE1742E41EC4D
:10152000842E44E0942E2CC0C08038E0D32ED80105
:10153000C7018827B7FD83959927AA27BB279695CA
:10154000982F8827979587952C2D30E0207830703C
:10155000B801A701440F551F661F771F8217930715
:1015600039F07A018B01E624F7240825192502C0F9
:101570007A018B01DA9411F0CC0CD9CF3196BA9460
:10158000BB2091F6B701C8011F910F91FF90EF901A
:10159000DF90CF90BF909F908F907F906F90089535
:1015A000282F869586958695E9E8F2E0E80FF11DEB
:1015B000808190E0277002C0959587952A95E2F783
:1015C00081700895982F977021E030E0092E02C0B5
:1015D000220F331F0A94E2F72095E9E8F2E086959E
:1015E00086958695E80FF11D8081282370E0617053
:1015F000707002C0660F771F9A95E2F7262B208342
:101600000895FC0180913001882361F4359691E0C2
:1016100090933001818180933101828180933201E6
:101620009093330180E00895FC013596909131014B
:101630008181981771F4909132018281981749F451
:1016400080913001882329F01092300181E080934D
:10165000330180E0089580E00895CF93DF93DC01AB
:10166000FB011082E0913A01F0913B01EF012196DC
:1016700015968C91159787FD0EC013969C91139724
:101680008181981741F414969C9114978981981739
:1016900011F482E02BC013964C911397442339F434
:1016A00014968C911497882311F480E81FC0208130
:1016B0002F3F09F420E0FE0131E015C08281481778
:1016C00069F414969C9114978381981721F4FB0177
:1016D000308380E40BC0981718F407C0481728F02F
:1016E0003F5F21503296222349F780E0DF91CF916E
:1016F00008950E94D00A08950E94E20A089503C046
:1017000087E50E9425120E94ED058823C9F70E94F3
:10171000EC0680E00895CF92DF92EF92FF920F9354
:101720001F93DF93CF9300D0CDB7DEB7F82E162FDF
:10173000E72E042F0E94D00A882309F43DC0A0910F
:101740003801B09139012F2D30E0C901880F991F60
:10175000820F931FA80FB91F1496EC911497F0E015
:10176000E65AFE4FE49112964C910E1739F087E538
:101770000E9425128CE40E94251219C0002309F44E
:1017800001E0812F9E2D9C016901842F90E00DC006
:101790009C012F5F3F4F3A8329830E942C05F6015D
:1017A00081936F01015089819A81002389F78F2DE0
:1017B00060E00E94E20A81E00F900F90CF91DF91EC
:1017C0001F910F91FF90EF90DF90CF900895CF92EF
:1017D000DF92EF92FF920F931F93CF93DF936C01F1
:1017E000062F1FB7F8940E94B6117C0117FF01C0A5
:1017F0007894E114F10489F1E701259683E0F7017B
:10180000868F80EB8583E0913A01F0913B018181E5
:10181000898382818A838EE091E00E942C05807703
:101820000150802B0F5F8D8380E48F83C114D1041E
:1018300031F0F60180818B8381818C8302C01B8211
:101840001C828B81882331F48C81882319F48D814B
:1018500080688D830A5FF7010483C701DF91CF9110
:101860001F910F91FF90EF90DF90CF900895CF934D
:10187000DF93EC012596069661E00E94E70BFC01E0
:10188000009739F08E818C738E538387CF010E942D
:101890002908DF91CF9108950F931F93CF93DF9382
:1018A0008C01069664E00E94E70BEC01009711F4AE
:1018B00080E010C0C8010E94370C8CEB8D83259608
:1018C00083E48E8325971D8682E18E87CE010E9458
:1018D00029088CECDF91CF911F910F9108958F9281
:1018E0009F92BF92CF92DF92EF92FF920F931F933E
:1018F000CF93DF937C01FC01B484FFE0BF22F701AA
:10190000958580E026854C01820E911C64016B2D2B
:101910006C5FC70106960E94E70BEC01009711F47B
:1019200080E032C08C010B5F1F4FC7010E94370C53
:101930008CEB8D8380913301880F880F8264F801CE
:10194000868387818B298783F70185858D878685A7
:101950008E877E0108C0C6010E942C05F70186878C
:101960000894C11CD11C0894E11CF11C8C2D881911
:101970008B1588F3CE010E942908809133018F5F77
:101980008F70809333018CECDF91CF911F910F9179
:10199000FF90EF90DF90CF90BF909F908F90089531
:1019A000CF92DF92EF92FF920F931F93DF93CF932B
:1019B0000F92CDB7DEB77C01FC010485069665E089
:1019C0000E94E70B6C01009711F480E02CC00770B7
:1019D00009838C010B5F1F4FC7010E94370C809158
:1019E0003301880F880F8164F80186838981806CB8
:1019F0008783F7018585F6018587F981F13031F418
:101A000085E0F601868785EC878703C0F601168698
:101A10001786C6010E942908809133018F5F8F705D
:101A2000809333018CEC0F90CF91DF911F910F9138
:101A3000FF90EF90DF90CF9008958091860280FF15
:101A40000DC080E090E062E00E94E70BFC018CEBAF
:101A5000858381E08387CF010E9429088CEC08955B
:101A6000482FE0913601F091370130813F3F79F105
:101A700090E00BC021812E3F31F08281841719F450
:101A8000222331F424C09F5F3296931798F31FC02E
:101A900080913A0190913B01019630E0220F331F73
:101AA000820F931F62E00E94E70BDC01009711F4A4
:101AB00080E00895FC0135968CEB15968C93159774
:101AC00016821782CD010E94290881E008958CE0DA
:101AD00008950F931F938C01F801958580E026856A
:101AE00064856F70A801415F5F4F820F911D0E9456
:101AF000FF05C8010E94370C8CEC1F910F910895CF
:101B0000AC018091860280FF07C0435F5F4F87E191
:101B100091E062E00E94FF0580E00895DF93CF939B
:101B20000F92CDB7DEB7698361E0AE014F5F5F4FC3
:101B30000E94FF050F90CF91DF910895AF92BF9261
:101B4000CF92DF92FF920F931F93DF93CF930F9269
:101B5000CDB7DEB78C01F62EA0913801B0913901D6
:101B600050E0CA01880F991F840F951FA80FB91F55
:101B70001496EC911497F0E0E65AFE4FE491129619
:101B80008C916E1741F087E50E9425128CE40E942B
:101B9000251280E026C0282F30E0662371F4F8017A
:101BA00080818F738983C90161E0AE014F5F5F4F10
:101BB0000E94FF0515C0960104C05E010894A11C97
:101BC000B11C69010894C11CD11CF80181918F01DD
:101BD0008983C90161E0A5010E94FF05FA9459F7C4
:101BE00081E00F90CF91DF911F910F91FF90DF90D7
:101BF000CF90BF90AF9008951F93FC01162F628580
:101C00006F7061500C96662311F0CF010D96412F35
:101C10000E949E0D812F61E00E94E20A1F910895AB
:101C2000CF92DF92EF92FF920F931F937C0185E09A
:101C300091E00E942C058F3F91F486E091E00E9494
:101C40002C058F3F61F487E391E00E949A120E9475
:101C50007912F7013196859194910E9498050E941E
:101C600052058091540190E08E5B9E4F9093390114
:101C7000809338018091530190E08E5B9E4F90934A
:101C800037018093360188E591E090933B01809382
:101C90003A01F09058018FEFF81611F4FF24F394F5
:101CA00085E591E00E949A128F2D0E9480120E9479
:101CB0007912EE2427C087E40E9425128E2D0E94FF
:101CC00080128AE30E9425120E2D10E0E0913A0165
:101CD000F0913B01C801880F991FE80FF91F81811E
:101CE0000E948012E0913A01F0913B010F5F1F4F7B
:101CF000000F111FE00FF11F80810E9480120E94CF
:101D00007912E394EF14B8F2E0913601F0913701C3
:101D1000F0808FEFF81609F4FF248FE491E00E9421
:101D20009A128F2D0E9480120E947912EE2425C0F3
:101D30008BE491E00E949A120E2D10E0E0913601A2
:101D4000F0913701C801880F991FE80FF91F8181B1
:101D50000E9480128FE40E942512E0913601F091DA
:101D600037010F5F1F4F000F111FE00FF11F808120
:101D70000E9480120E947912E394EF14C8F2E0915D
:101D80003801F0913901C0808FEFC81609F4CC24D6
:101D900085E491E00E949A128C2D0E9480120E948C
:101DA0007912DD244DC08FE40E9425128D2D0E94F2
:101DB000801286E40E942512ED2CFF24E091380168
:101DC000F091390197012F5F3F4FC901880F991F8B
:101DD000820F931FE80FF91F80810E94801280E517
:101DE0000E942512E0913801F09139018701000F1E
:101DF000111F0E0D1F1DE00FF11F82810E94801226
:101E000084E50E942512E0913801F0913901E00F3C
:101E1000F11F84810E9480128CE40E942512E091BF
:101E20003801F0913901E00FF11FE481F0E0E65A4A
:101E3000FE4FE4918E2F0E9480120E947912D3945B
:101E4000DC1408F4B0CF1F910F91FF90EF90DF905A
:101E5000CF9008959F92AF92BF92CF92DF92EF9270
:101E6000FF920F931F93CF93DF93982EC62E40912E
:101E7000380150913901A82EBB24D501AA0FBB1FF0
:101E8000AA0DBB1DA40FB51F1496EC911497F0E09A
:101E9000E65AFE4FD49095012F5F3F4FC901880F3E
:101EA000991F820F931F480F591FFA011081129634
:101EB0000C9180913A0190913B010196262F30E0E0
:101EC000220F331F6D2D6E5F820F931F0E94E70B51
:101ED0007C01009711F480E070C0412F4370EC0149
:101EE0002596442311F0423021F4F701838182606A
:101EF0008383202F30E0440F440FF7018581482B66
:101F000045838D8180688D831E82DD2041F41F8191
:101F1000C9010E942C058F73812B8F830DC0E701AF
:101F20002D9689010F5F1F4FC9010E942C058993CF
:101F3000DA9411F09801F5CFE0913601F091370174
:101F400000810F3F09F400E010E01CC0A0913601B1
:101F5000B0913701812F90E0FC01EE0FFF1FEA0FD7
:101F6000FB1F21812E3F69F02C1559F40196880F33
:101F7000991FA80FB91F6C91691519F0C7010E942C
:101F8000FC0D1F5F101710F3E0913801F09139013B
:101F900095012F5F3F4FC901880F991F820F931F33
:101FA000E80FF91F808186FF04C0C7010E9429083D
:101FB00003C0C7010E94201481E0DF91CF911F91DF
:101FC0000F91FF90EF90DF90CF90BF90AF909F90D8
:101FD0000895382FE0913601F091370120812F3F8D
:101FE000A1F090E00BC061816E3F31F082818317D8
:101FF00019F4662331F409C09F5F3296921798F363
:1020000004C0832F0E942A0F08958CE008950E9437
:10201000E90F08951F93182FCB01642F412F0E94C1
:102020009E0D812F0E94E90F1F9108957F928F923C
:102030009F92AF92BF92CF92DF92EF92FF920F9357
:102040001F93DF93CF930F92CDB7DEB7809134010A
:1020500090913501892B09F4E2C084E391E00E945C
:102060008A116C0175E0A72EB12CA80EB91EF501DE
:10207000F580FFE0FF22F394F501968180E027814F
:10208000022F10E0082B192BC501BE016F5F7F4F97
:102090000E942D0B982F86FF6DC07980E09136014C
:1020A000F09137018080FFEF8F1609F4B5C08DE005
:1020B00091E00E942C058F3F09F0AEC000E010E0D7
:1020C00055C0A0913601B0913701F801EE0FFF1F06
:1020D000EA0FFB1F81818E3F09F446C0871509F086
:1020E00043C0C8010196880F991FA80FB91FFC9023
:1020F000E0913801F09139012F2D30E02F5F3F4FF3
:10210000C901880F991F820F931FE80FF91FE08004
:10211000F50197808FE40E9425128F2D0E94801276
:102120009E2DE2FE1FC0892D807CE7FE04C0803416
:1021300011F485E505C094FF0AC0803841F487E5B5
:102140000E942512C6016F2D0E94FC0D0BC093FF4B
:1021500009C0882339F482E50E9425128F2D672D4E
:102160000E942A0F0E9479120F5F1F4F081508F472
:10217000A8CF52C0ADEDB0E0FD0184919D012F5F6D
:102180003F4FF901659174919D012D5F3F4FF9011A
:10219000459154911596FD0124911196FD013491BC
:1021A0001697892391F0402351236417750769F42A
:1021B000F21658F03F1548F0CD010796FC01259125
:1021C0003491C601F901099527C0F1E0AE32BF078D
:1021D00011F01996D1CF892F0E9480128F2D0E9465
:1021E00080128AE30E942512812F0E948012802F84
:1021F0000E9480128AE30E94251210E007C0F601B7
:10220000E10FF11D85810E9480121F5FF60184811C
:102210001817A8F30E947912C6010E9420140F908B
:10222000CF91DF911F910F91FF90EF90DF90CF90B2
:10223000BF90AF909F908F907F9008950F931F93C2
:10224000DF93CF930F92CDB7DEB78C01FC014481B1
:10225000415039F48DE691E00E949A120E94791261
:1022600030C0582FFC0190E08581982731968E2F41
:10227000851B8417C8F39095F801E40FF11D858143
:10228000981751F089E691E00E949A120E94791203
:102290008CE00E94E90615C0C8010596BE016F5F7B
:1022A0007F4F0E942D0B882361F08CEC0E94E90681
:1022B00084E391E0B80140E050E00E946B1181E0BE
:1022C00004C0C8010E94201480E00F90CF91DF91DC
:1022D0001F910F9108951F93DC011FB7F894ED91A2
:1022E000FC911197309751F0CF010190F081E02DD2
:1022F0003097D1F7FC017183608307C06D937C93A5
:102300004115510511F0FA01099517FF01C07894A4
:102310001F910895DC012FB7F894ED91FC9111976E
:1023200080819181309721F08D939C93118210824E
:1023300027FF01C07894CF01089508951F93DC0111
:102340001FB7F894ED91FC9111978081918130979E
:1023500041F08D939C93838180FF03C0CF010E9445
:10236000201417FF01C078941F9108958FE190E029
:102370000E947313FC01009731F081E08283838314
:10238000148211821082CF0108951092C5008CE052
:102390008093C40088E08093C100E2ECF0E080818B
:1023A000866080838BB180668BB98AB180668AB97A
:1023B0000895E0913C01F0913D01309789F08281D0
:1023C000823071F08091C10080648093C10082E00E
:1023D0008283359682818093C60081818F5F81835D
:1023E00008950895FC010196E491EE23D9F708952C
:1023F00008950895EF92FF920F931F93CF93DF9369
:10240000F82EE92E062F1FB7F8940E94B611EC01A2
:1024100017FF01C078940D831E829E01295F3F4FF4
:10242000C9016F2D7E2D402F50E00E9478148CE35F
:1024300091E0BE0149ED51E10E946B11DF91CF9116
:102440001F910F91FF90EF900895EF92FF921F93CD
:10245000DF93CF930F92CDB7DEB789835FB7F89440
:10246000A0913C01B0913D01198167E170E01097A6
:1024700001F19D012B5F3F4F15964C911597E42E6E
:10248000FF24CB018E199F091816190674F4F9015F
:102490008181481750F0E20EF31EF70112834F5F5F
:1024A000F901408357FF1EC01CC00D90BC91A02DA8
:1024B000DECF57FF01C078941FB7F8940E94B61181
:1024C000FC0117FF01C0789481E085831682898121
:1024D00087838CE391E0BF0149ED51E10E946B11CC
:1024E00001C078940F90CF91DF911F91FF90EF90F2
:1024F00008958AE00E9425128DE00E942512089519
:102500001F93CF93DF93182F82958F70C1E7D1E08F
:10251000FE01E80FF11DE4918E2F0E9425121F701D
:10252000C10FD11DFE0184910E942512DF91CF9130
:102530001F910895CF93DF93EC0102C00E942512F2
:10254000FE01219684918823C9F7DF91CF910895E8
:102550001F920F920FB60F9211242F933F934F9318
:102560005F936F937F938F939F93AF93BF93EF93FB
:10257000FF93E0913C01F0913D01DF0115969581BB
:1025800011968C911197981791F48CE391E00E9429
:102590009E11E0913C01F0913D01309731F4809122
:1025A000C1008F7B8093C1000EC0DF01159611968C
:1025B0008C911197FD01E80FF11D92819093C60057
:1025C0008F5F11968C93FF91EF91BF91AF919F9187
:1025D0008F917F916F915F914F913F912F910F90CC
:1025E0000FBE0F901F9018951F920F920FB60F926B
:1025F00011248F939F93AF93BF9380913E0190914D
:102600003F01A0914001B09141010196A11DB11D72
:1026100080933E0190933F01A0934001B09341010C
:10262000BF91AF919F918F910F900FBE0F901F9010
:10263000189520913E0130913F0140914001509109
:102640004101B901CA01089510923E0110923F0163
:102650001092400110924101109280008DE0809311
:10266000810010928500109284008DE490E0909398
:10267000890080938800EFE6F0E0808182608083AB
:102680000895FC018FB7F89420913E0130913F01ED
:10269000409140015091410187FF01C07894CB01E6
:1026A000AA2797FDA095BA2F820F931FA41FB51FCD
:1026B00080839183A283B3830895FC0120913E011E
:1026C00030913F01409140015091410160E0808193
:1026D0009181A281B381281739074A075B0708F067
:1026E00061E0862F0895CF93DF93BC01823091057E
:1026F00010F462E070E0A0919B02B0919C02ED01A9
:10270000E0E0F0E040E050E021C088819981861748
:10271000970769F48A819B81309719F093838283AC
:1027200004C090939C0280939B02FE0134C0681702
:10273000790738F44115510519F08417950708F405
:10274000AC01FE018A819B819C01E9012097E9F699
:1027500041155105A9F1CA01861B970B049708F48E
:10276000BA01E0E0F0E02AC08D919C9111978417A6
:102770009507F9F46417750781F412968D919C9171
:102780001397309719F09383828304C090939C022F
:1027900080939B02FD0132964FC0CA01861B970BA6
:1027A000FD01E80FF91F6193719302978D939C933C
:1027B00043C0FD01828193819C01D9011097A1F64C
:1027C0008091990290919A02892B41F480910201A3
:1027D0009091030190939A02809399024091040191
:1027E000509105014115510541F44DB75EB78091F7
:1027F000000190910101481B590B209199023091E1
:102800009A0224173507B0F4CA01821B930B86176E
:10281000970780F0AB014E5F5F4F8417950750F02C
:10282000420F531F50939A0240939902F90161930A
:10283000719302C0E0E0F0E0CF01DF91CF91089505
:10284000CF93DF93009709F450C0EC0122971B82CD
:102850001A82A0919B02B0919C02109709F140E06E
:1028600050E0AC17BD0708F1BB83AA83FE0121919C
:102870003191E20FF31FAE17BF0779F48D919C9150
:102880001197280F391F2E5F3F4F398328831296E7
:102890008D919C9113979B838A834115510571F407
:1028A000D0939C02C0939B0220C012968D919C9164
:1028B0001397AD01009711F0DC01D3CFFA01D38358
:1028C000C28321913191E20FF31FCE17DF0769F424
:1028D00088819981280F391F2E5F3F4FFA0131837C
:1028E00020838A819B8193838283DF91CF91089596
:1028F000FB01DC0102C001900D9241505040D8F71D
:102900000895DC01CB01FC01F999FECF06C0F2BDB0
:10291000E1BDF89A319600B40D9241505040B8F79D
:102920000895262FF999FECF1FBA92BD81BD20BD13
:102930000FB6F894FA9AF99A0FBE01960895F89492
:02294000FFCFC7
:0629420020009D020000D0
:00000001FF
