:100000000C94A1000C94BE000C94BE000C94BE0095
:100010000C94BE000C94BE000C94BE000C94BE1256
:100020000C94BE000C94BE000C94210E0C94BE00E7
:100030000C94BE000C94BE000C94620F0C94820EC3
:100040000C94BE000C94BE000C94BE000C94BE0038
:100050000C94BE000C94BE000C948E060C94BE0052
:100060000C94BE000C94BE000701010D01FF0C01B1
:100070000012013A0301000401080501B006010362
:10008000FF00FF0168000000000000000000000009
:1000900000000000000000000D0000001A00000039
:1000A0003400000068000000D0000000A001000043
:1000B0004003000080060000000D0000001A000050
:1000C000003400000068000000D0000000A0010023
:1000D000004003000080060002008000FF0101F7DD
:1000E0000702008100FF010109080200C200C301EC
:1000F000011F0882C000FF0304049109820001FF70
:100100000302025F09028001C00303031C0902000D
:1001100042C0C30404C208028042C0C30110710976
:10012000020043FFFF0202A108028003FF03020254
:100130003F080000000000000101020304060A0E4F
:100140000E0011241FBECFEFD8E0DEBFCDBF14E0FC
:10015000A6E0B1E001C01D92AF31B107E1F711E0B7
:10016000A0E0B1E0EEE5FAE202C005900D92A63003
:10017000B107D9F70E94710D0C942D150C94000055
:1001800080EC80937C00EEE7F0E080818F608083DC
:1001900086E880937A000895EF92FF920F931F9361
:1001A000DF93CF9300D0CDB7DEB7E82E772314F0DE
:1001B000FF240DC0DB01CA010197A109B109AC01FF
:1001C000BD014095509560957095FF24F3944030A3
:1001D00080E858078FEF680783E078074CF44030D9
:1001E00088E0580780E0680780E0780774F433C03F
:1001F0008FE789838FEF8A838E2DBE016F5F7F4FDC
:1002000042E00E94CB0C80E057C001E010E0CB013F
:10021000BA0122E030E040E050E00E94A213822FB9
:10022000932FA42FB52FAC01BD01000F111F40303B
:1002300088E0580780E0680780E0780744F7C80145
:1002400081709070892B39F4E0E016950795EF5F87
:1002500000FFFBCF01C0E0E0FF2061F0DB01CA013D
:1002600080959095A095B095AC01BD014F5F5F4F13
:100270006F4F7F4FDB01CA019778A070B0703E2F9F
:10028000330F330F330F20E0442737FD4095542FB1
:10029000822B932BA42BB52B292F3A2F4B2F55278D
:1002A00047FD5A9529838A838E2DBE016F5F7F4F4C
:1002B00042E00E94CB0C81E00F900F90CF91DF9134
:1002C0001F910F91FF90EF9008952F923F924F92C0
:1002D0005F926F927F928F929F92AF92BF92CF92D6
:1002E000DF92EF92FF920F931F93DF93CF9300D093
:1002F00000D0CDB7DEB7282E33248101000F111FA7
:10030000000F111F000F111F020D131DC8018C5784
:100310009E4F0E94D706682E4101880C991C0F2E13
:10032000FCE44F2EF3E05F2EF02D480C591CF20137
:1003300080819181A0E0B0E089839A83AB83BC8304
:10034000C80182589E4F0E94D706E82EC8018158E6
:100350009E4F0E94D706F82EC8018E579E4F0E94CE
:10036000D706782EC8018D579E4F0E94D706BE2C07
:10037000AA24AF0CB11CCC24B7FCC094DC2CF72C05
:10038000EE24E80EF11C0027F7FC0095102FEA1868
:10039000FB080C091D0929813A814B815C81C80148
:1003A000B7010E944D132CEF3FE040E050E00E9467
:1003B000A2132A0D3B1D4C1D5D1D29833A834B83DF
:1003C0005C8389EF92E0880E991EF2018081918111
:1003D000F4019183808384EA91E00E94D70682959C
:1003E0008F7090E0022C02C0959587950A94E2F7F1
:1003F00080FD03C0662051F41BC0822D880FBE0112
:100400006F5F7F4F41E00E94CB0C1AC069817A81F7
:100410008B819C8100E02AE030E040E050E00E94C7
:100420004D130F5F0615B8F369837A838B839C8322
:1004300049815A816B817C81822D880F0E94CC007A
:100440000F900F900F900F90CF91DF911F910F9110
:10045000FF90EF90DF90CF90BF90AF909F908F90E4
:100460007F906F905F904F903F902F900895CF9224
:10047000DF92EF92FF920F931F93CF93DF93C82FDA
:10048000D0E0CE018F589E4F0E94D706C82ECE01D5
:100490008B589E4F0E94D70690E0A0E0B0E08F7787
:1004A0009070A070B070072E7CE0880F991FAA1F73
:1004B000BB1F7A95D1F7702DBC01CD0124E630E049
:1004C00040E050E00E9480137901CE0183599E4F95
:1004D0000E94D706D82EFE01EE0FFF1FEC5BFC4FEB
:1004E000008111810E151F0520F080913F038823A4
:1004F000F1F0FE01EE0FFF1FE45BFC4F2081318124
:10050000E216F306A0F48D2D8C7089F0FE01E25DF9
:10051000FE4F8D2D8695869581708083FE01EE0FAE
:10052000FF1FEC5BFC4F3183208381E08AC06C2D80
:1005300070E080E090E06F77707080709070052EB2
:100540005CE0660F771F881F991F5A95D1F7502DD1
:1005500024E630E040E050E00E94801302171307C9
:1005600020F080913F03882301F1FE01EE0FFF1F71
:10057000E45BFC4F4081518124173507B0F48D2D89
:10058000807C99F0FE01E25DFE4F8D2D829586956F
:100590008695837081708083FE01EE0FFF1FEC5BF8
:1005A000FC4F5183408381E04CC02017310720F07D
:1005B00080913F038823F1F0FE01EE0FFF1FE45B03
:1005C000FC4F4081518142175307A0F48D2D807359
:1005D00089F0FE01E25DFE4F8D2D82958F70817056
:1005E0008083FE01EE0FFF1FEC5BFC4F51834083C5
:1005F00081E027C0E016F10620F080913F038823B8
:10060000F9F0FE01EE0FFF1FE45BFC4F208131810A
:100610002E153F05A8F48D2D90E083709070892BE6
:1006200079F0FE01E25DFE4F8D2D81708083FE0129
:10063000EE0FFF1FEC5BFC4F3183208381E001C094
:1006400080E0DF91CF911F910F91FF90EF90DF90AD
:10065000CF90089580E691E00E94D7068F70809336
:100660002D010E94C00010923201ECE7F0E0808181
:10067000807F808380818083EAE7F0E080818064EE
:10068000808381E00895CF92DF92EF92FF920F93E3
:100690001F93CF93DF93082FC82EDD24E601CB599B
:1006A000DE4FCE010E94D70688230CF0A3C0CE01F6
:1006B0000E94D706F601EE0FFF1FDF01A45BBC4FBF
:1006C0002D913C91E750FD4FA081B181A217B30756
:1006D00020F0ED01C21BD30B03C0E901CA1BDB0BE9
:1006E000682F70E080E090E06F777070807090709D
:1006F000052E5CE0660F771F881F991F5A95D1F76A
:10070000502D24E630E040E050E00E9480132C178A
:100710003D0708F06BC0F601E55CFC4F8081882343
:1007200009F068C0802F869590E087599E4F0E94FF
:10073000D706C0FE03C020E030E002C024E030E075
:1007400090E002C0959587952A95E2F7282F2F70A3
:10075000263078F02B3038F48AE0289FC00111242D
:10076000282F225306C08CE3289FC0011124282F74
:1007700028552223C1F4E8E9F0E0459155916591AF
:100780007491802F90E0880F991F880F991F0BE2BA
:1007900013E0800F911F0E9419130C0D1D1D81E0A5
:1007A000F801808B27C0E4EAF0E0659175918591AE
:1007B000949110E0000F111F000F111F0F2EFBE28C
:1007C000EF2EF3E0FF2EF02D30E040E050E00E94ED
:1007D0004D13AB01BC01C701800F911F0E9419137B
:1007E000EC0CFD1C81E0F701808B04C0F601E55C98
:1007F000FC4F1082DF91CF911F910F91FF90EF90EE
:10080000DF90CF900895BF92CF92DF92EF92FF9248
:100810000F931F93CF93DF93B82E89E791E00E9447
:10082000D706CB2CDD24E601CC0FDD1F90E00C2E8B
:1008300002C0880F991F0A94E2F78823B4F4E8E90C
:10084000F0E04591559165917491C601880F991F0B
:10085000880F991F03E013E0800F911F0E94191366
:100860000C0D1D1D81E0F801808B89E791E00E944D
:10087000D70690E002C0880F991FCA95E2F786FF5D
:1008800029C080EA91E00E94D706E4EAF0E02591D1
:100890003591459154910B2D10E0000F111F000F61
:1008A000111F0F2EF3E0EF2EF3E0FF2EF02D90E05E
:1008B000A0E0B0E0BC01CD010E944D13AB01BC0132
:1008C000C701800F911F0E941913EC0CFD1C81E0E1
:1008D000F701808B81E791E00E94D7069601280FEF
:1008E000311D2223BCF4E8E9F0E045915591659172
:1008F00074918B2D90E0880F991F880F991F07E145
:1009000013E0800F911F0E9419130C0D1D1D81E033
:10091000F801808BDF91CF911F910F91FF90EF90A5
:10092000DF90CF90BF9008950F931F93082F10E092
:10093000C801880F991FF801E25DFE4F8F5F60814B
:100940000E94D80C095D1C4FF80110821F910F9175
:100950000895CF92DF92EF92FF920F931F93CF9360
:10096000DF93D82EC82FD0E0CE018F599E4F0E9422
:10097000D706C82EFE01ED5EFC4F80818823A1F0D2
:10098000CE01880F991F880F991F8D5F9C4F0E9481
:100990003413882349F08D2D0E946501FE01ED5F1F
:1009A000FC4F108A10AE1AC0FE01E55CFC4F80813E
:1009B0008823A1F08D2D90E0880F991F880F991F33
:1009C000855D9C4F0E943413882341F08D2D0E9439
:1009D0006501FE01ED5FFC4F108A10AEFE01ED5E79
:1009E000FC4F8081882391F5CC2084F580912D01E6
:1009F00090E0880F991F880F991FFC01E856FF4F60
:100A000065917591859194910D2D10E0000F111F46
:100A1000000F111F0F2EF3E0EF2EF3E0FF2EF02D4D
:100A20002C2D30E040E050E02F7730704070507057
:100A30000E944D13AB01BC01C701800F911F0E94A2
:100A40001913EC0EFD1E81E0F701808BFE01E95DBC
:100A5000FC4F80818823D1F08D2D90E0880F991F65
:100A6000880F991F895E9C4F0E943413882341F0A0
:100A70008D2D0E949404FE01E95DFC4F108206C09A
:100A8000FE01E95DFC4F80818823B9F5CE018B58CA
:100A90009E4F0E94D706882384F580912D0190E017
:100AA000880F991F880F991FFC01E856FF4F659129
:100AB0007591859194910D2D10E0000F111F000F7D
:100AC000111F0F2EF7E1EF2EF3E0FF2EF02D2C2D4E
:100AD00030E040E050E02F773070407050700E945E
:100AE0004D13AB01BC01C701800F911F0E94191368
:100AF000EC0EFD1E81E0F701808BDF91CF911F91FD
:100B00000F91FF90EF90DF90CF900895FF920F9399
:100B10001F93CF93DF93F82E869590E085599E4FD3
:100B20000E94D706CF2DD0E0F0FE03C020E030E0D9
:100B300002C024E030E090E002C0959587952A95A8
:100B4000E2F78F70873009F45EC08C30A9F4ECE4D2
:100B5000F3E0CE01880F991FDF01A80FB91FCE0166
:100B6000019683709070880F991FE80FF91F80819C
:100B700091818D939C931BC08D30C9F4ECE4F3E01C
:100B8000CE01880F991F8F01080F191F848195814D
:100B900022813381820F931F26813781820F931F19
:100BA00063E070E00E946C13F801718360838091B0
:100BB00006018430D0F4FE01EE0FFF1FDF01A750C5
:100BC000BD4FE45BFC4F808191818D939C938F2D71
:100BD0000E943702CE018F589E4F0E94D70688236D
:100BE0007CF48F2D0E9494040BC08F2D0E94430330
:100BF0008F2D0E943702882319F08F2D0E949404B4
:100C00008F2D0E94A904DF91CF911F910F91FF902A
:100C1000089580917A0086FD67C080917800909158
:100C20007900A0E0B0E02091400330914103409171
:100C3000420350914303280F391F4A1F5B1F209323
:100C40004003309341034093420350934303809108
:100C50000103909102030196909302038093010394
:100C60008050944091F560913201E62FF0E0EE0F54
:100C7000FF1FE45BFC4FBB27A52F942F832F91838D
:100C8000808310924003109241031092420310920D
:100C900043031092020310920103809106018430F5
:100CA00018F4862F0E940304809132010E94860569
:100CB00080910601893018F48F5F8093060180913E
:100CC00032018F5F837080933201ECE7F0E0808126
:100CD000807F8083808190913201892B8083EAE735
:100CE000F0E08081806480830895CF93DF93C0918A
:100CF0000701D0910801209771F08A81823059F064
:100D000082E08A8369858E819F810E941F15888574
:100D10008F5F8887FB9ADF91CF9108951F920F9282
:100D20000FB60F9211242F933F934F935F936F93BE
:100D30007F938F939F93AF93BF93CF93DF93EF9363
:100D4000FF93C0910701D091080188859D81981378
:100D50000CC087E091E00E94911280910701909170
:100D60000801892B89F4FB980FC090E0FE01E80F81
:100D7000F91F2E813F816185820F931F0E941F15ED
:100D800088858F5F8887FB9AFF91EF91DF91CF91E4
:100D9000BF91AF919F918F917F916F915F914F9193
:100DA0003F912F910F900FBE0F901F901895803696
:100DB000910519F48091190408959C013A95223007
:100DC00041E0340748F48091540390915503FC01AD
:100DD000E20FF31F8081089580559109803B9105B2
:100DE00028F4FC01E85AFC4F808108958FEF0895A4
:100DF0001F93CF93DF93EC0101960E94D706182F23
:100E0000CE010E94D70620E0282B822F912FDF9160
:100E1000CF911F910895A0E0B0E0E1E1F7E00C94DC
:100E2000C713D62EEA018C011A950F3F110509F060
:100E300070F5CFB6F8940E9461127C01CC200CF4BE
:100E40007894F70117830683D58210869701275F70
:100E50003F4F4D2D50E06C2F7D2F822F932F0E94FE
:100E600006158091540390915503080F191F4D2DBD
:100E700050E06C2F7D2F802F912F0E94061545E7A3
:100E800056E0B70187E091E00E9472121CC08036E4
:100E9000910521F488818093190415C0805591092A
:100EA000803B910580F4662371F0FA01DC01A85AB9
:100EB000BC4FDA94CA018D0D911D019621912D939D
:100EC000E817F907D9F7CDB7DEB7E8E00C94E313DC
:100ED0002091070130910801232B29F02FB321FB2A
:100EE000882780F9089580E090E00895EF92FF92BE
:100EF0000F931F93CF93DF938C01C0E0D0E0B80134
:100F00006C0F7D1FFB01259134917901FB01329615
:100F10006491C9019A958F3F910509F010F40E94E0
:100F20001F158FEFE816F10429F02396C23585E0EE
:100F3000D80729F7409156035091570360E070E0BD
:100F400080915403909155030E940F15CDB7DEB7E1
:100F5000E6E00C94E51380915403909155030895B5
:100F6000AB01FD9AFC9870935703609356039093DE
:100F700055038093540360E070E00E940F150895BC
:100F8000E82FF0E0EE5CFE4F84910895E82FE6959F
:100F9000E695E695F0E0E75FFB4F208130E0877053
:100FA000A90102C0559547958A95E2F7CA0181705B
:100FB0000895E82FE695E695E695F0E0877041E024
:100FC00050E0082E02C0440F551F0A94E2F74095E6
:100FD000E75FFB4F90814923262F217030E002C04C
:100FE000220F331F8A95E2F7242B20830895209146
:100FF0000D0121110CC021E020930D01FC0136816F
:1010000030930E01878180930F012093100180E0BF
:10101000089530910E01FC01268132130EC02091FB
:101020000F018781281309C080910D01882329F0C1
:1010300010920D0181E08093100180E0089580E01E
:101040000895482FE0911301F091140130813F3F42
:1010500091F0332391F0329690E0DF0111978C915B
:101060008E3F19F02081241749F09F5F3296931329
:10107000F4CF80E0089580E0089580E008950E9414
:1010800068078111FCCF0E94C20D80E00895EF92A5
:10109000FF920F931F93CF93DF938C01F62EEFB641
:1010A000F8940E946112EC01EE200CF478942097E1
:1010B00071F183E08E8F80EB8D83E0910B01F091D5
:1010C0000C0181818E8382818F838EE091E00E946A
:1010D000D70680779F2D9150892B8A8780E48C8753
:1010E0000115110531F0F801808188878181898798
:1010F00002C0188619868885811106C089858111EC
:1011000003C08A8580688A878F2D8A5F8C838C2FA5
:101110009D2FCDB7DEB7E6E00C94E513CF93DF93B8
:10112000EC0161E006960E944708009739F02B8594
:101130002C732E53FC0123870E94B80EDF91CF91B0
:1011400008950F931F93CF93DF938C0164E006966D
:101150000E944708EC01009779F0C8010E948E08B0
:101160008CEB8D8383E48B871D8682E18E87CE0195
:101170000E94B80E8CEC01C080E0DF91CF911F91EE
:101180000F910895A0E0B0E0E8ECF8E00C94C713EC
:10119000EC018C850F2EFFE0EF2EF02DE8221D854F
:1011A00000E08E85080F111D6E2D6C5FCE01069636
:1011B0000E9447086C010097C9F1CE010E948E0879
:1011C0008CEBF60185838091100190E0880F991FC8
:1011D000880F991F8264838784858E2984878D85F3
:1011E00085878E858687EE20B1F0E6012F96EA94FA
:1011F000F12CF0E1EF0EF11CEC0CFD1C0F5011096D
:101200000C191D09C8018C0F9D1F0E94D7068993D8
:10121000CE15DF05B9F7C6010E94B80EE0E1F1E096
:1012200080818F5F8F7080838CEC01C080E0CDB7B0
:10123000DEB7E8E00C94E313A1E0B0E0E2E2F9E00D
:101240000C94C9138C01FC0184858770898365E047
:10125000C80106960E9447087C01009759F1C80111
:101260000E948E088091100190E0880F991F880FCE
:10127000991F8164F70183878981806C8487F801D5
:101280008585F7018587F981F13031F485E0F70133
:10129000868785EC878703C0F70116861786C70106
:1012A0000E94B80EE0E1F1E080818F5F8F70808353
:1012B0008CEC01C080E02196E6E00C94E51380916F
:1012C000190480FF0CC062E080E090E00E944708B3
:1012D0002CEBFC01258321E023870E94B80E8CECC7
:1012E0000895CF93DF93EC016C859D8580E02E857A
:1012F000820F911D811520E8920731F48091190425
:1013000080648093190406C0AE01415F5F4F6F7027
:101310000E940B07CE010E948E088CECDF91CF91CA
:1013200008952091190420FF08C0AC01435F5F4F6E
:1013300062E087E191E00E940B0780E008950F933F
:101340001F93CF93DF93DC01C62F00E010E09801DC
:10135000D8E029C09D918D2FB901A801442777FDC0
:1013600043955527662777275695542F4427579539
:101370004795E92FE078F0E04E175F0769F0000F1E
:10138000111F221F331F47EB04274DE1142741ECA7
:10139000242744E0342704C0000F111F221F331FED
:1013A000990F8150C9F6C150A8F6602F712F822F76
:1013B000932FDF91CF911F910F910895A1E0B0E09D
:1013C000E4EEF9E00C94CD136983AE014F5F5F4FFB
:1013D00061E00E940B072196E2E00C94E913A0E083
:1013E000B0E0E5EFF9E00C94C613EC01B62EC09026
:1013F0001501D0901601042F10E07801EE0CFF1CAF
:10140000E00EF11EEC0CFD1CF70184810E94C00768
:10141000482FF701828190E00F5F1F4F9801220F44
:10142000331F020F131FF601E00FF11F208125FD6E
:101430009395B41213C0B11006C068816F730E94F7
:10144000DE0981E00CC069918C010F5F1F4F0E9483
:10145000DE09BA94C801B9F781E001C080E0CDB7D8
:10146000DEB7E9E00C94E213CF93C62FFC0162854E
:101470006F70615011F40C9601C00D964C2F0E94B4
:10148000EF0961E08C2F0E94D907CF910895A0E069
:10149000B0E0EDE4FAE00C94C213C82ED62E842EF0
:1014A0000091150110911601E82EF12CE701CC0FE7
:1014B000DD1FCE0DDF1DC00FD11F8C810E94C00724
:1014C000982E97012F5F3F4FC901880F991F280F52
:1014D000391FF801E20FF31F80810F2EF3E07F2EFA
:1014E000F02D7822AA80B12C692D6E5F8D2D90E0B1
:1014F000880F991F019620910B0130910C01820FEA
:10150000931F0E9447088C01009709F471C077204F
:1015100019F082E0781204C0F8018381826083832D
:10152000F8018486770C770C8581782A758282850C
:10153000806882871386911008C0C5010E94D70673
:101540008F73882AF80184860DC0C8010D96EC01BE
:10155000A81AB90ACE018A0D9B1D0E94D70689934D
:101560009A94C1F7E0911301F0911401B080FFEF5C
:10157000BF1619F1BB2009F1C0E0D0E020911301A2
:1015800030911401AE01FE01EE0FFF1FE20FF31FB9
:1015900081818E3F79F0D8120DC04F5F5F4F440FAD
:1015A000551FF901E40FF51F60816C1519F0C80192
:1015B0000E94340A2196CB1508F3E0911501F091B1
:1015C00016018FEFE81AF80AC701880F991FE80E75
:1015D000F91EEE0DFF1D808186FF05C0C8010E9427
:1015E000B80E81E006C0C8010E94A11481E001C0CC
:1015F00080E0CDB7DEB7EDE00C94DE13CF93DF9340
:10160000C82FD62F0E942108882331F04D2F682F34
:101610008C2F0E94470A01C08CE0DF91CF91089582
:10162000DC01E0910B01F0910C0115968C9115975E
:1016300088236CF013969C9113978181981334C082
:1016400014969C918281981789F180E008951396F1
:101650002C911397211105C014968C91149788230F
:1016600039F130813F3F31F13396332329F181E065
:101670003F5F9081291310C014964C91149791816B
:10168000491307C061157105C9F0FB01808380E42F
:101690000895491718F414C02917A0F032968F5FE7
:1016A0003813E7CF80E0089580E0089582E0089540
:1016B00080E8089580E0089580E0089580E408952A
:1016C00080E0089580E00895FC012481223048F0F4
:1016D00040E050E0BC0189E091E00E94721281E09C
:1016E00008950E94A11480E00895AF92BF92DF9206
:1016F000EF92FF920F931F93CF93DF931F92CDB77B
:10170000DEB78091090190910A01892B09F4E1C0AB
:1017100089E091E00E94A9128C01DC0115968C9160
:10172000159785FD16C0E0911101F09112014481D9
:1017300014968C9148130DC0B8016B5F7F4F50E039
:10174000CF0105960E94F914282F392F232B09F475
:10175000BDC0E0901101F0901201F8018481D70121
:1017600014968C935801B5E0AB0EB11C97012B5F1A
:101770003F4F448150E06A2D7B2D822F932F0E9492
:101780000615F70185818F7D8583D8011A968C9186
:101790001A978F70D82ED3941B96FC901B97E12C30
:1017A0001C968C91E82ABE016F5F7F4FC5010E9495
:1017B000100B86FF60C0D980E0911301F0911401F5
:1017C000B080BFEFBB1609F481C08091190485FF7A
:1017D0007DC0BB2009F47AC0E12CF12C809113016B
:1017E000909114019701F701EE0FFF1FE80FF91F09
:1017F00041814E3FC9F1D41237C02F5F3F4F220FB6
:10180000331FFC01E20FF31F8081E0911501F0917D
:101810001601282F30E02F5F3F4FA901440F551FBD
:10182000240F351FE20FF31F9081F801248592FFEA
:101830001BC0207C99233CF4203429F4682FC80174
:101840000E94340A11C094FF07C0203829F4682F81
:10185000C8010E94340A08C093FF06C0211104C0C9
:1018600040E46D2D0E94470AFFEFEF1AFF0AEB14C8
:1018700008F4B4CF2BC028ED30E0F90194913196F3
:1018800045915491F901339665917491F90135961A
:10189000A491F9013696E491982391F06E217F216D
:1018A0004617570769F4DA1658F0ED1548F0295F26
:1018B0003F4FF90125913491C801F901099506C0FE
:1018C000275F3F4FF1E022333F07B9F6C8010E947E
:1018D000A1140F90DF91CF911F910F91FF90EF9086
:1018E000DF90BF90AF900895A0E0B0E0EAE7FCE0A1
:1018F0000C94C513B82EEB01A42E0E94C6078823B2
:10190000C1F1C0901501D09016010B2D10E07801A7
:10191000EE0CFF1CE00EF11EEC0CFD1CF7018481A7
:101920000E94C007382FF7012281822F90E00F5FBD
:101930001F4FA801440F551F040F151FF601E00F9C
:10194000F11F208125FD9395A3120DC0AA20A9F0B7
:1019500012C08C010F5F1F4F0E94D7068993C801E8
:10196000CE15DF05B1F760E08B2D0E94D90781E02D
:101970000DC080E00BC0AA9401C0A12CEA2CF12C70
:10198000FFEFEF1AFF0AEC0EFD1EE3CFCDB7DEB777
:10199000EAE00C94E113CF93C82FCB01642F4C2FB6
:1019A0000E94EF0960E88C2F0E94FE0ACF910895F3
:1019B000A1E0B0E0EEEDFCE00C94CD13698340E0D3
:1019C000BE016F5F7F4F0E94CB0C2196E2E00C942A
:1019D000E9130E94C607089560E80E94FE0A089570
:1019E0000E9421088823D1F090E0880F991F01966A
:1019F00020910B0130910C0162E0820F931F0E9435
:101A00004708009749F02CEBFC01258313861486C8
:101A10000E94B80E81E0089580E008958CE008955A
:101A20000E94D9070895CF9314BE88E10FB6F894A9
:101A300080936000109260000FBE0E94BD1266ECA1
:101A400071E083E391E00E94B0070E94ED0E0E94D6
:101A5000F412CFB7F8940E946112CC230CF478945E
:101A60009093120180931101009711F0FC011482F0
:101A7000789485E091E00E94D7068F3F71F486E06C
:101A800091E00E94D7068F3F41F4E4E8F0E0259111
:101A90003491822F932F0E9476078091450190E028
:101AA0008D5C9E4F909316018093150180914401A7
:101AB00090E08D5C9E4F909314018093130189E414
:101AC00091E090930C0180930B01809119048E6337
:101AD000809319040E942A03CF9108950E94531203
:101AE00008950E94130D0E94750BA8950E94800D09
:101AF0008091190485FD0E9409060E94200EF3CFF3
:101B0000809117018F5F883020F48093170180E067
:101B100008951092170154985C9A8AE00000815051
:101B2000E9F74C9B12C08091190480FF03C0549ABE
:101B30005C9802C0549A5C9A809118018823E1F065
:101B400081508093180180E00895809118018F3FA3
:101B5000A9F08F5F80931801883C91F4809119045B
:101B600080FD05C081608093190481E008958E7F17
:101B70008093190481E0089580E0089580E008953D
:101B800080E00895F89428E088E190E00FB6F8949A
:101B9000A895809360000FBE20936000FFCF5D98F2
:101BA000549A5C9891E048EE53E061E019C05C986B
:101BB00022E330E0EFE3FCE93197F1F700C00000E9
:101BC00021503109B9F75C9A22E330E0EFE3FCE9F8
:101BD0003197F1F700C0000021503109B9F79F5F3C
:101BE000891728F79A01EFE1FEE43197F1F700C079
:101BF000000021503109B9F7962FF2CF80911C01D6
:101C000082FF0BC081E080931D0187E686BD86E0E0
:101C100085BB80936E0082E085BD08958091270189
:101C200090912801009731F00E94A1141092280190
:101C30001092270180911C018F7380931C010895DD
:101C400008951F920F920FB60F9211248F939F93B6
:101C5000189951C080911A0480FF1FC090911B01F8
:101C6000911149C082FF19C084B5806284BD84B5DA
:101C70008F7E84BD85B5806485BD85B58F7B85BD30
:101C800081E080931D0182E080931A0494E396BD65
:101C900096E095BB90936E0085BD80911E0190915A
:101CA0001F010097A9F48FEF97EF90931F01809386
:101CB0001E0180911A0480FD08C084E386BD86E081
:101CC00085BB80936E0082E085BD1092200107C025
:101CD000189905C0977F90931F0180931E018091F2
:101CE0001C018B7F80931C011092210180911A04AA
:101CF000826080931A049F918F910F900FBE0F9076
:101D00001F9018951F920F920FB60F9211242F93C8
:101D10008F939F93EF93FF9320911A0420FF1EC08F
:101D200080912201909123019695879590932301AC
:101D30008093220180FD0FC018BC84B5806384BDF0
:101D4000EEE6F0E080818B7F808380911A048B7FA8
:101D500080931A0403C0246020931A04FF91EF912A
:101D60009F918F912F910F900FBE0F901F901895FC
:101D70004EEF5DE0BC0184E291E00E94721280E0CF
:101D80000895CF93DF930E946112EC01009711F147
:101D900080911C01846080931C0183E08E8F89E018
:101DA0008C8380EB8D8387E191E00E94D7068E8340
:101DB00088E191E00E94D7068F8381E188878EEFCA
:101DC000898783EF8A8780EC8B8780E88C87CE01B8
:101DD0000E94B80EDF91CF91089554985C9A209894
:101DE000289A559A5D9892E094BD88E687BD84B59F
:101DF000806284BD84B58F7E84BD85B5806485BDD9
:101E000085B58F7B85BD80E286BBEFE6F0E0808103
:101E100080628083E1E8F0E08081806880831092B6
:101E200023011092220110921F0110921E0184E0E2
:101E300080931C0190931A0480932101109219043D
:101E40000895F8940C94003808958091190486FD43
:101E50000E94210FE0912401F0912501309739F083
:101E6000838181FF04C081E38093200103C084E368
:101E70008093200184E0809321010895E091240162
:101E8000F0912501868D982F9150968F882369F0C7
:101E900085818F7D858381E080931D0181E380931F
:101EA000200184E080932101089584E080931D0146
:101EB00084E291E00E94911281E080931D010E94D2
:101EC000250F08951F920F920FB60F9211242F9392
:101ED0003F934F935F936F937F938F939F93AF93B2
:101EE000BF93CF93DF93EF93FF93C0911A0485B50F
:101EF0008E7F85BDC1FFDFC180912001882321F045
:101F0000815080932001D7C180912101823009F452
:101F1000F8C030F4882359F0813009F0CCC161C099
:101F2000833009F43CC1843009F0C5C13BC18091C4
:101F30001E0190911F01AC01569547959A0130689A
:101F400080FD4AC0442756704115564031F08091BB
:101F50001C01806880931C0137C0D22F822F082E6D
:101F600082958025082E86958695802590E001969D
:101F700081FB662760F970E0232F33272170332718
:101F80006217730731F080911C01806480931C01FB
:101F90001BC0E0912701F0912801309749F40E947D
:101FA0006112FC019093280180932701009761F052
:101FB0008481DF01A80FB11D1596DC938F5F8A31F4
:101FC00010F4848301C0148282E08093200181E0B8
:101FD0008093210120E030E030931F0120931E0107
:101FE0006AC18091270190912801892B71F4809119
:101FF0001D01833021F080911D01823019F40E946F
:102000003E0F79C00E94250F76C085B5816085BDE1
:1020100083E08093200182E08093210180911C0164
:10202000807C41F080911C0180911C018CE08093A8
:102030001B0155C0A0912701B091280114963C9135
:1020400014973130C9F480911D01833009F047C0E5
:1020500015968C918C3C69F484E080931D0184E298
:1020600091E00E94911281E080931D010E94250F52
:1020700036C00E943E0F33C03230A0F0315051F0D4
:10208000FD01359690E080E0219192278F5F381313
:10209000FBCF01C090E09095FD01E30FF11D85811C
:1020A000981721F08CE080931B0119C014963C9383
:1020B000149760E070E0CD0105960E94100B882314
:1020C00071F08CEC80931B01809127019091280185
:1020D0000E94640B10922801109227010CC080917D
:1020E000270190912801009731F00E94A1141092CD
:1020F00028011092270180911C018F7380931C018D
:10210000DAC080911B01882309F446C080911B012D
:10211000282F30E0220F331F082E82958025082EAD
:1021200086958695802590E0019681FD06C03C61EC
:10213000309323012093220105C03E613093230197
:102140002093220118BC84B5806384BDEEE6F0E0E4
:1021500080818B7F808384E085BB808184608083E5
:1021600080911A048B7F80931A0480E286BBAFE6CD
:10217000B0E08C9180628C93A1E8B0E08C91806893
:102180008C9381E080931A0482E286BD86E085BB51
:10219000808382E085BD8FC00E94250F8CC00E9485
:1021A0003E0F89C08091240190912501009709F488
:1021B0007AC020911D01223009F47DC020911C01BC
:1021C0002B7F20931C0122E020931D0110921A0105
:1021D0001092190121E02093260120911A013091DB
:1021E0001901FC01E20FF11D25812327209319011C
:1021F00030911A01FC01E30FF11D25813F5F3093FF
:102200001A01822F90E0880F991F022E2295202517
:10221000022E26952695202530E02F5F3F4F21FD89
:1022200006C09C61909323018093220105C09E61AA
:10223000909323018093220118BC84B5806384BDF0
:10224000EEE6F0E080818B7F808384E085BB808137
:102250008460808380911A048B7F80931A0480911C
:102260001A01E0912401F09125019481891718F059
:1022700082E08093260180E286BBEFE6F0E0808179
:1022800080628083E1E8F0E080818068808381E083
:1022900080931A0482E286BD86E085BB80936E003F
:1022A00082E085BD08C015BC10926E0080911C01B3
:1022B000846080931C01C0FFE3C088B581110FC00A
:1022C00082E288BD84B5806284BD84B58F7E84BD82
:1022D00084E085BBEEE6F0E08081846080838091BD
:1022E000220190912301019709F0CAC0EEE6F0E0C7
:1022F00080818B7F808380911B01882371F00E94F5
:102300000E0E10921B0110921F0110921E0182E00E
:1023100080931A040E94250FB3C0809124019091EC
:102320002501009709F4ACC020912601223009F460
:102330005CC020F4213009F0A3C007C0233009F4A9
:1023400089C0243009F09CC099C020911A013091B5
:102350001901FC01E20FF11D2581232720931901AA
:1023600030911A01FC01E30FF11D25813F5F30938D
:102370001A01822F90E0880F991F022E22952025A6
:10238000022E26952695202530E02F5F3F4F21FD18
:1023900006C09C61909323018093220105C09E6139
:1023A000909323018093220118BC84B5806384BD7F
:1023B000EEE6F0E080818B7F808384E085BB8081C6
:1023C0008460808380911A048B7F80931A048091AB
:1023D0001A01E0912401F09125019481891708F4F4
:1023E0004FC082E0809326014BC0209119012095B7
:1023F000822F90E0880F991F022E22952025022E11
:1024000026952695202530E02F5F3F4F21FD06C001
:102410009C61909323018093220105C09E6190935B
:1024200023018093220118BC84B5806384BDEEE64D
:10243000F0E080818B7F808384E085BB8081846035
:10244000808380911A048B7F80931A0483E08093A9
:10245000260116C00E940E0E83E080931D0110928B
:1024600026018093210182E080931A048EE08093FC
:10247000200110921F0110921E0102C00E943E0F07
:10248000FF91EF91DF91CF91BF91AF919F918F918C
:102490007F916F915F914F913F912F910F900FBE60
:1024A0000F901F9018958FB7F894EFE6F0E09081A9
:1024B0009F7D908315BC10926E0088230CF4789455
:1024C00008958FE190E00E94F413E82FF92F3097E0
:1024D00031F081E0828383831482118210828E2FF7
:1024E0009F2F0895CF93CFB7F894FC01A081B181BD
:1024F000109711F409C0DC018D919C911197009700
:10250000D1F76D937C9308C0FC0171836083411502
:10251000510511F0FA010995CC230CF47894CF9170
:102520000895CF93CFB7F894DC01ED91FC9111970A
:1025300020813181309741F02D933C93838180FF3E
:1025400003C0CF010E94A114CC230CF47894CF9146
:1025500008954FB7F894DC01ED91FC91119720811B
:102560003181309721F02D933C93118210824423C6
:102570000CF478948E2F9F2F089508951F920F9238
:102580000FB60F9211248F939F93AF93BF938091B7
:10259000290190912A01A0912B01B0912C01019663
:1025A000A11DB11D8093290190932A01A0932B01B5
:1025B000B0932C01BF91AF919F918F910F900FBE5F
:1025C0000F901F9018950F931F9300912901109160
:1025D0002A0120912B0130912C01602F712F822F25
:1025E000932F1F910F9108951092290110922A01A3
:1025F00010922B0110922C0182E08093B00087E0B2
:102600008093B1001092B2008DE48093B300E0E7B4
:10261000F0E080818260808308958FB7F894E0E7CE
:10262000F0E090819D7F9083B99A88230CF4789490
:1026300008950F931F93EFB7F8940091290110911B
:102640002A0120912B0130912C01EE230CF4789477
:10265000040F151F261F371FFC01008311832283DF
:1026600033831F910F9108954091290150912A01C0
:1026700060912B0170912C01FC0180819181A281DC
:10268000B381481B590B6A0B7B0B81E014161506AE
:10269000160617060CF080E00895629FD001739F24
:1026A000F001829FE00DF11D649FE00DF11D929FEE
:1026B000F00D839FF00D749FF00D659FF00D99272D
:1026C000729FB00DE11DF91F639FB00DE11DF91F51
:1026D000BD01CF0111240895AA1BBB1B51E107C006
:1026E000AA1FBB1FA617B70710F0A61BB70B881FA2
:1026F000991F5A95A9F780959095BC01CD01089531
:10270000A1E21A2EAA1BBB1BFD010DC0AA1FBB1FF5
:10271000EE1FFF1FA217B307E407F50720F0A21B67
:10272000B30BE40BF50B661F771F881F991F1A94D4
:1027300069F760957095809590959B01AC01BD01FE
:10274000CF01089597FB092E05260ED057FD04D022
:10275000D7DF0AD0001C38F450954095309521956C
:102760003F4F4F4F5F4F0895F6F7909580957095C6
:1027700061957F4F8F4F9F4F08952F923F924F92B9
:102780005F926F927F928F929F92AF92BF92CF9201
:10279000DF92EF92FF920F931F93CF93DF93CDB70A
:1027A000DEB7CA1BDB0B0FB6F894DEBF0FBECDBF82
:1027B00009942A88398848885F846E847D848C8453
:1027C0009B84AA84B984C884DF80EE80FD800C815C
:1027D0001B81AA81B981CE0FD11D0FB6F894DEBF3F
:1027E0000FBECDBFED010895CF93DF93BC018230C2
:1027F000910510F462E070E0A0911D04B0911E04F8
:10280000ED01E0E0F0E040E050E021C088819981F6
:102810008617970769F48A819B81309719F0938313
:10282000828304C090931E0480931D04FE0134C073
:102830006817790738F44115510519F08417950781
:1028400008F4AC01FE018A819B819C01E90120977B
:10285000E9F641155105A9F1CA01861B970B0497AA
:1028600008F4BA01E0E0F0E02AC08D919C91119744
:1028700084179507F9F46417750781F412968D9102
:102880009C911397309719F09383828304C090939F
:102890001E0480931D04FD0132964FC0CA01861BA1
:1028A000970BFD01E80FF91F6193719302978D93C8
:1028B0009C9343C0FD01828193819C01D9011097B3
:1028C000A1F680911B0490911C04892B41F4809106
:1028D00002019091030190931C0480931B0440918A
:1028E0000401509105014115510541F44DB75EB702
:1028F0008091000190910101481B590B20911B040C
:1029000030911C0424173507B0F4CA01821B930BC5
:102910008617970780F0AB014E5F5F4F84179507CE
:1029200050F0420F531F50931C0440931B04F901B5
:102930006193719302C0E0E0F0E0CF01DF91CF91AD
:102940000895CF93DF93009709F450C0EC012297CC
:102950001B821A82A0911D04B0911E04109709F1E8
:1029600040E050E0AC17BD0708F1BB83AA83FE012D
:1029700021913191E20FF31FAE17BF0779F48D91CA
:102980009C911197280F391F2E5F3F4F3983288361
:1029900012968D919C9113979B838A8341155105C3
:1029A00071F4D0931E04C0931D0420C012968D9123
:1029B0009C911397AD01009711F0DC01D3CFFA0180
:1029C000D383C28321913191E20FF31FCE17DF072A
:1029D00069F488819981280F391F2E5F3F4FFA01D2
:1029E000318320838A819B8193838283DF91CF917E
:1029F0000895FB01DC0104C08D910190801921F440
:102A000041505040C8F7881B990B0895FB01DC0129
:102A100002C001900D9241505040D8F70895DC015A
:102A2000CB01FC01F999FECF06C0F2BDE1BDF89AD9
:102A3000319600B40D9241505040B8F70895262FBA
:102A4000F999FECF1FBA92BD81BD20BD0FB6F89493
:0E2A5000FA9AF99A0FBE01960895F894FFCFF6
:062A5E0020001F0400002F
:00000001FF
